{
  "_format": "hh-sol-artifact-1",
  "contractName": "DLS",
  "sourceName": "contracts/DLS.sol",
  "abi": [
    {
      "inputs": [],
      "stateMutability": "nonpayable",
      "type": "constructor"
    },
    {
      "inputs": [
        {
          "internalType": "address",
          "name": "_newAdmin",
          "type": "address"
        }
      ],
      "name": "addNewAdmin",
      "outputs": [
        {
          "internalType": "bool",
          "name": "",
          "type": "bool"
        }
      ],
      "stateMutability": "nonpayable",
      "type": "function"
    },
    {
      "inputs": [
        {
          "internalType": "address",
          "name": "_newModerator",
          "type": "address"
        }
      ],
      "name": "addNewModerator",
      "outputs": [
        {
          "internalType": "bool",
          "name": "",
          "type": "bool"
        }
      ],
      "stateMutability": "nonpayable",
      "type": "function"
    },
    {
      "inputs": [
        {
          "internalType": "uint256",
          "name": "_itemId",
          "type": "uint256"
        }
      ],
      "name": "approveOwnershipChange",
      "outputs": [],
      "stateMutability": "nonpayable",
      "type": "function"
    },
    {
      "inputs": [
        {
          "internalType": "uint256",
          "name": "_itemId",
          "type": "uint256"
        }
      ],
      "name": "approveProperty",
      "outputs": [],
      "stateMutability": "nonpayable",
      "type": "function"
    },
    {
      "inputs": [
        {
          "internalType": "uint256",
          "name": "_itemId",
          "type": "uint256"
        },
        {
          "internalType": "string",
          "name": "_ipfsHashValue",
          "type": "string"
        }
      ],
      "name": "changeOwnership",
      "outputs": [],
      "stateMutability": "nonpayable",
      "type": "function"
    },
    {
      "inputs": [
        {
          "internalType": "string",
          "name": "_ipfsHashValue",
          "type": "string"
        }
      ],
      "name": "createProperty",
      "outputs": [],
      "stateMutability": "nonpayable",
      "type": "function"
    },
    {
      "inputs": [],
      "name": "fetchAllAdmins",
      "outputs": [
        {
          "components": [
            {
              "internalType": "address",
              "name": "userAddress",
              "type": "address"
            },
            {
              "internalType": "bool",
              "name": "isRegistered",
              "type": "bool"
            },
            {
              "internalType": "enum DLS.Role",
              "name": "role",
              "type": "uint8"
            },
            {
              "internalType": "address[]",
              "name": "modApprovals",
              "type": "address[]"
            },
            {
              "internalType": "address[]",
              "name": "adminApprovals",
              "type": "address[]"
            }
          ],
          "internalType": "struct DLS.UserItem[]",
          "name": "",
          "type": "tuple[]"
        }
      ],
      "stateMutability": "view",
      "type": "function"
    },
    {
      "inputs": [],
      "name": "fetchAllApprovedProperties",
      "outputs": [
        {
          "components": [
            {
              "internalType": "uint256",
              "name": "itemId",
              "type": "uint256"
            },
            {
              "internalType": "enum DLS.Status",
              "name": "status",
              "type": "uint8"
            },
            {
              "internalType": "string",
              "name": "ipfsHash",
              "type": "string"
            }
          ],
          "internalType": "struct DLS.PropertyItem[]",
          "name": "",
          "type": "tuple[]"
        }
      ],
      "stateMutability": "view",
      "type": "function"
    },
    {
      "inputs": [],
      "name": "fetchAllModerators",
      "outputs": [
        {
          "components": [
            {
              "internalType": "address",
              "name": "userAddress",
              "type": "address"
            },
            {
              "internalType": "bool",
              "name": "isRegistered",
              "type": "bool"
            },
            {
              "internalType": "enum DLS.Role",
              "name": "role",
              "type": "uint8"
            },
            {
              "internalType": "address[]",
              "name": "modApprovals",
              "type": "address[]"
            },
            {
              "internalType": "address[]",
              "name": "adminApprovals",
              "type": "address[]"
            }
          ],
          "internalType": "struct DLS.UserItem[]",
          "name": "",
          "type": "tuple[]"
        }
      ],
      "stateMutability": "view",
      "type": "function"
    },
    {
      "inputs": [],
      "name": "fetchAllPendingProperties",
      "outputs": [
        {
          "components": [
            {
              "internalType": "uint256",
              "name": "itemId",
              "type": "uint256"
            },
            {
              "internalType": "enum DLS.Status",
              "name": "status",
              "type": "uint8"
            },
            {
              "internalType": "string",
              "name": "ipfsHash",
              "type": "string"
            }
          ],
          "internalType": "struct DLS.PropertyItem[]",
          "name": "",
          "type": "tuple[]"
        }
      ],
      "stateMutability": "view",
      "type": "function"
    },
    {
      "inputs": [],
      "name": "fetchAllProperties",
      "outputs": [
        {
          "components": [
            {
              "internalType": "uint256",
              "name": "itemId",
              "type": "uint256"
            },
            {
              "internalType": "enum DLS.Status",
              "name": "status",
              "type": "uint8"
            },
            {
              "internalType": "string",
              "name": "ipfsHash",
              "type": "string"
            }
          ],
          "internalType": "struct DLS.PropertyItem[]",
          "name": "",
          "type": "tuple[]"
        }
      ],
      "stateMutability": "view",
      "type": "function"
    },
    {
      "inputs": [],
      "name": "fetchAllRejectedProperties",
      "outputs": [
        {
          "components": [
            {
              "internalType": "uint256",
              "name": "itemId",
              "type": "uint256"
            },
            {
              "internalType": "enum DLS.Status",
              "name": "status",
              "type": "uint8"
            },
            {
              "internalType": "string",
              "name": "ipfsHash",
              "type": "string"
            }
          ],
          "internalType": "struct DLS.PropertyItem[]",
          "name": "",
          "type": "tuple[]"
        }
      ],
      "stateMutability": "view",
      "type": "function"
    },
    {
      "inputs": [],
      "name": "fetchAllUnderReviewProperties",
      "outputs": [
        {
          "components": [
            {
              "internalType": "uint256",
              "name": "itemId",
              "type": "uint256"
            },
            {
              "internalType": "enum DLS.Status",
              "name": "status",
              "type": "uint8"
            },
            {
              "internalType": "string",
              "name": "ipfsHash",
              "type": "string"
            }
          ],
          "internalType": "struct DLS.PropertyItem[]",
          "name": "",
          "type": "tuple[]"
        }
      ],
      "stateMutability": "view",
      "type": "function"
    },
    {
      "inputs": [],
      "name": "fetchAllUsers",
      "outputs": [
        {
          "components": [
            {
              "internalType": "address",
              "name": "userAddress",
              "type": "address"
            },
            {
              "internalType": "bool",
              "name": "isRegistered",
              "type": "bool"
            },
            {
              "internalType": "enum DLS.Role",
              "name": "role",
              "type": "uint8"
            },
            {
              "internalType": "address[]",
              "name": "modApprovals",
              "type": "address[]"
            },
            {
              "internalType": "address[]",
              "name": "adminApprovals",
              "type": "address[]"
            }
          ],
          "internalType": "struct DLS.UserItem[]",
          "name": "",
          "type": "tuple[]"
        }
      ],
      "stateMutability": "view",
      "type": "function"
    },
    {
      "inputs": [
        {
          "internalType": "address",
          "name": "userAddress",
          "type": "address"
        }
      ],
      "name": "fetchSingleUser",
      "outputs": [
        {
          "components": [
            {
              "internalType": "address",
              "name": "userAddress",
              "type": "address"
            },
            {
              "internalType": "enum DLS.Role",
              "name": "role",
              "type": "uint8"
            },
            {
              "internalType": "address[]",
              "name": "modApprovals",
              "type": "address[]"
            },
            {
              "internalType": "uint256",
              "name": "modApprovalsLeft",
              "type": "uint256"
            },
            {
              "internalType": "address[]",
              "name": "adminApprovals",
              "type": "address[]"
            },
            {
              "internalType": "uint256",
              "name": "adminApprovalsLeft",
              "type": "uint256"
            }
          ],
          "internalType": "struct DLS.UserReturnItem",
          "name": "",
          "type": "tuple"
        }
      ],
      "stateMutability": "view",
      "type": "function"
    },
    {
      "inputs": [],
      "name": "getUser",
      "outputs": [
        {
          "components": [
            {
              "internalType": "address",
              "name": "userAddress",
              "type": "address"
            },
            {
              "internalType": "enum DLS.Role",
              "name": "role",
              "type": "uint8"
            },
            {
              "internalType": "address[]",
              "name": "modApprovals",
              "type": "address[]"
            },
            {
              "internalType": "uint256",
              "name": "modApprovalsLeft",
              "type": "uint256"
            },
            {
              "internalType": "address[]",
              "name": "adminApprovals",
              "type": "address[]"
            },
            {
              "internalType": "uint256",
              "name": "adminApprovalsLeft",
              "type": "uint256"
            }
          ],
          "internalType": "struct DLS.UserReturnItem",
          "name": "",
          "type": "tuple"
        }
      ],
      "stateMutability": "view",
      "type": "function"
    },
    {
      "inputs": [],
      "name": "registerNewUser",
      "outputs": [
        {
          "internalType": "bool",
          "name": "",
          "type": "bool"
        }
      ],
      "stateMutability": "nonpayable",
      "type": "function"
    },
    {
      "inputs": [
        {
          "internalType": "uint256",
          "name": "_itemId",
          "type": "uint256"
        }
      ],
      "name": "rejectOwnershipChange",
      "outputs": [],
      "stateMutability": "nonpayable",
      "type": "function"
    },
    {
      "inputs": [
        {
          "internalType": "uint256",
          "name": "_itemId",
          "type": "uint256"
        }
      ],
      "name": "rejectProperty",
      "outputs": [],
      "stateMutability": "nonpayable",
      "type": "function"
    }
  ],
  "bytecode": "0x60806040523480156200001157600080fd5b506200001c6200024e565b33816000019073ffffffffffffffffffffffffffffffffffffffff16908173ffffffffffffffffffffffffffffffffffffffff1681525050600181602001901515908115158152505060028160400190600281111562000081576200008062000358565b5b9081600281111562000098576200009762000358565b5b8152505080600460003373ffffffffffffffffffffffffffffffffffffffff1673ffffffffffffffffffffffffffffffffffffffff16815260200190815260200160002060008201518160000160006101000a81548173ffffffffffffffffffffffffffffffffffffffff021916908373ffffffffffffffffffffffffffffffffffffffff16021790555060208201518160000160146101000a81548160ff02191690831515021790555060408201518160000160156101000a81548160ff0219169083600281111562000171576200017062000358565b5b0217905550606082015181600101908051906020019062000194929190620002aa565b506080820151816002019080519060200190620001b3929190620002aa565b509050506003339080600181540180825580915050600190039060005260206000200160009091909190916101000a81548173ffffffffffffffffffffffffffffffffffffffff021916908373ffffffffffffffffffffffffffffffffffffffff1602179055506200023160026200023860201b620038541760201c565b5062000387565b6001816000016000828254019250508190555050565b6040518060a00160405280600073ffffffffffffffffffffffffffffffffffffffff1681526020016000151581526020016000600281111562000296576200029562000358565b5b815260200160608152602001606081525090565b82805482825590600052602060002090810192821562000326579160200282015b82811115620003255782518260006101000a81548173ffffffffffffffffffffffffffffffffffffffff021916908373ffffffffffffffffffffffffffffffffffffffff16021790555091602001919060010190620002cb565b5b50905062000335919062000339565b5090565b5b80821115620003545760008160009055506001016200033a565b5090565b7f4e487b7100000000000000000000000000000000000000000000000000000000600052602160045260246000fd5b614faa80620003976000396000f3fe608060405234801561001057600080fd5b50600436106101215760003560e01c80637292633b116100ad578063c337431511610071578063c3374315146102f6578063cbb8337614610314578063d078990d14610332578063d24d6edb14610350578063e9b66f8c1461036e57610121565b80637292633b14610250578063832880e71461026e57806391ddb7fc1461028c578063abea39b9146102a8578063b631d882146102c657610121565b806327983fcf116100f457806327983fcf146101be57806352a4675a146101da5780635f937747146101f85780636445907e1461021457806367bbabf11461023257610121565b80630a1b10e1146101265780630d4595611461015657806311875ea6146101865780631504671a146101a2575b600080fd5b610140600480360381019061013b9190613e66565b61038a565b60405161014d9190613eae565b60405180910390f35b610170600480360381019061016b9190613e66565b610835565b60405161017d91906140a7565b60405180910390f35b6101a0600480360381019061019b919061420f565b610902565b005b6101bc60048036038101906101b79190614284565b610a68565b005b6101d860048036038101906101d39190614284565b610ba1565b005b6101e2610d22565b6040516101ef919061448a565b60405180910390f35b610212600480360381019061020d9190614284565b611107565b005b61021c611279565b6040516102299190613eae565b60405180910390f35b61023a611620565b60405161024791906145fa565b60405180910390f35b610258611a6e565b604051610265919061448a565b60405180910390f35b610276611e53565b60405161028391906140a7565b60405180910390f35b6102a660048036038101906102a1919061461c565b611e69565b005b6102b0612142565b6040516102bd919061448a565b60405180910390f35b6102e060048036038101906102db9190613e66565b61230c565b6040516102ed9190613eae565b60405180910390f35b6102fe6127b7565b60405161030b91906145fa565b60405180910390f35b61031c612bef565b604051610329919061448a565b60405180910390f35b61033a612fd2565b604051610347919061448a565b60405180910390f35b610358613284565b60405161036591906145fa565b60405180910390f35b61038860048036038101906103839190614284565b6136d3565b005b600060028081111561039f5761039e613ed8565b5b600460003373ffffffffffffffffffffffffffffffffffffffff1673ffffffffffffffffffffffffffffffffffffffff16815260200190815260200160002060000160159054906101000a900460ff16600281111561040157610400613ed8565b5b14610441576040517f08c379a0000000000000000000000000000000000000000000000000000000008152600401610438906146d5565b60405180910390fd5b600460008373ffffffffffffffffffffffffffffffffffffffff1673ffffffffffffffffffffffffffffffffffffffff16815260200190815260200160002060000160149054906101000a900460ff166104d0576040517f08c379a00000000000000000000000000000000000000000000000000000000081526004016104c790614741565b60405180910390fd5b600160028111156104e4576104e3613ed8565b5b600460008473ffffffffffffffffffffffffffffffffffffffff1673ffffffffffffffffffffffffffffffffffffffff16815260200190815260200160002060000160159054906101000a900460ff16600281111561054657610545613ed8565b5b14610586576040517f08c379a000000000000000000000000000000000000000000000000000000000815260040161057d906147d3565b60405180910390fd5b600060016002610596600261386a565b6105a09190614851565b6105aa9190614882565b905060005b600460008573ffffffffffffffffffffffffffffffffffffffff1673ffffffffffffffffffffffffffffffffffffffff168152602001908152602001600020600201805490508110156106c5573373ffffffffffffffffffffffffffffffffffffffff16600460008673ffffffffffffffffffffffffffffffffffffffff1673ffffffffffffffffffffffffffffffffffffffff1681526020019081526020016000206002018281548110610667576106666148b6565b5b9060005260206000200160009054906101000a900473ffffffffffffffffffffffffffffffffffffffff1673ffffffffffffffffffffffffffffffffffffffff16036106b257600080fd5b80806106bd906148e5565b9150506105af565b50600460008473ffffffffffffffffffffffffffffffffffffffff1673ffffffffffffffffffffffffffffffffffffffff168152602001908152602001600020600201339080600181540180825580915050600190039060005260206000200160009091909190916101000a81548173ffffffffffffffffffffffffffffffffffffffff021916908373ffffffffffffffffffffffffffffffffffffffff16021790555080600460008573ffffffffffffffffffffffffffffffffffffffff1673ffffffffffffffffffffffffffffffffffffffff168152602001908152602001600020600201805490501061082b576002600460008573ffffffffffffffffffffffffffffffffffffffff1673ffffffffffffffffffffffffffffffffffffffff16815260200190815260200160002060000160156101000a81548160ff0219169083600281111561081b5761081a613ed8565b5b021790555061082a6002613854565b5b6001915050919050565b61083d613c23565b6002808111156108505761084f613ed8565b5b600460003373ffffffffffffffffffffffffffffffffffffffff1673ffffffffffffffffffffffffffffffffffffffff16815260200190815260200160002060000160159054906101000a900460ff1660028111156108b2576108b1613ed8565b5b146108f2576040517f08c379a00000000000000000000000000000000000000000000000000000000081526004016108e9906146d5565b60405180910390fd5b6108fb82613878565b9050919050565b6001600281111561091657610915613ed8565b5b600460003373ffffffffffffffffffffffffffffffffffffffff1673ffffffffffffffffffffffffffffffffffffffff16815260200190815260200160002060000160159054906101000a900460ff16600281111561097857610977613ed8565b5b146109b8576040517f08c379a00000000000000000000000000000000000000000000000000000000081526004016109af906146d5565b60405180910390fd5b6109c26000613854565b60006109ce600061386a565b90506040518060600160405280828152602001600060038111156109f5576109f4613ed8565b5b815260200183815250600560008381526020019081526020016000206000820151816000015560208201518160010160006101000a81548160ff02191690836003811115610a4657610a45613ed8565b5b02179055506040820151816002019081610a609190614b39565b509050505050565b600280811115610a7b57610a7a613ed8565b5b600460003373ffffffffffffffffffffffffffffffffffffffff1673ffffffffffffffffffffffffffffffffffffffff16815260200190815260200160002060000160159054906101000a900460ff166002811115610add57610adc613ed8565b5b14610b1d576040517f08c379a0000000000000000000000000000000000000000000000000000000008152600401610b14906146d5565b60405180910390fd5b60026005600083815260200190815260200160002060010160006101000a81548160ff02191690836003811115610b5757610b56613ed8565b5b0217905550600660008281526020019081526020016000206000808201600090556001820160006101000a81549060ff0219169055600282016000610b9c9190613c81565b505050565b600280811115610bb457610bb3613ed8565b5b600460003373ffffffffffffffffffffffffffffffffffffffff1673ffffffffffffffffffffffffffffffffffffffff16815260200190815260200160002060000160159054906101000a900460ff166002811115610c1657610c15613ed8565b5b14610c56576040517f08c379a0000000000000000000000000000000000000000000000000000000008152600401610c4d906146d5565b60405180910390fd5b60006003811115610c6a57610c69613ed8565b5b6005600083815260200190815260200160002060010160009054906101000a900460ff166003811115610ca057610c9f613ed8565b5b14610ce0576040517f08c379a0000000000000000000000000000000000000000000000000000000008152600401610cd790614c7d565b60405180910390fd5b60036005600083815260200190815260200160002060010160006101000a81548160ff02191690836003811115610d1a57610d19613ed8565b5b021790555050565b606060016002811115610d3857610d37613ed8565b5b600460003373ffffffffffffffffffffffffffffffffffffffff1673ffffffffffffffffffffffffffffffffffffffff16815260200190815260200160002060000160159054906101000a900460ff166002811115610d9a57610d99613ed8565b5b1480610e185750600280811115610db457610db3613ed8565b5b600460003373ffffffffffffffffffffffffffffffffffffffff1673ffffffffffffffffffffffffffffffffffffffff16815260200190815260200160002060000160159054906101000a900460ff166002811115610e1657610e15613ed8565b5b145b610e57576040517f08c379a0000000000000000000000000000000000000000000000000000000008152600401610e4e906146d5565b60405180910390fd5b6000610e63600061386a565b905060008060005b83811015610ef05760016003811115610e8757610e86613ed8565b5b60056000600184610e989190614882565b815260200190815260200160002060010160009054906101000a900460ff166003811115610ec957610ec8613ed8565b5b03610edd578280610ed9906148e5565b9350505b8080610ee8906148e5565b915050610e6b565b5060008267ffffffffffffffff811115610f0d57610f0c6140e4565b5b604051908082528060200260200182016040528015610f4657816020015b610f33613cc1565b815260200190600190039081610f2b5790505b50905060005b848110156110fc5760016003811115610f6857610f67613ed8565b5b60056000600184610f799190614882565b815260200190815260200160002060010160009054906101000a900460ff166003811115610faa57610fa9613ed8565b5b036110e9576000600182610fbe9190614882565b9050600060056000838152602001908152602001600020905080604051806060016040529081600082015481526020016001820160009054906101000a900460ff16600381111561101257611011613ed8565b5b600381111561102457611023613ed8565b5b81526020016002820180546110389061495c565b80601f01602080910402602001604051908101604052809291908181526020018280546110649061495c565b80156110b15780601f10611086576101008083540402835291602001916110b1565b820191906000526020600020905b81548152906001019060200180831161109457829003601f168201915b5050505050815250508486815181106110cd576110cc6148b6565b5b602002602001018190525084806110e3906148e5565b95505050505b80806110f4906148e5565b915050610f4c565b508094505050505090565b60028081111561111a57611119613ed8565b5b600460003373ffffffffffffffffffffffffffffffffffffffff1673ffffffffffffffffffffffffffffffffffffffff16815260200190815260200160002060000160159054906101000a900460ff16600281111561117c5761117b613ed8565b5b146111bc576040517f08c379a00000000000000000000000000000000000000000000000000000000081526004016111b3906146d5565b60405180910390fd5b60026005600083815260200190815260200160002060010160006101000a81548160ff021916908360038111156111f6576111f5613ed8565b5b0217905550600660008281526020019081526020016000206002016005600083815260200190815260200160002060020190816112339190614cc8565b50600660008281526020019081526020016000206000808201600090556001820160006101000a81549060ff02191690556002820160006112749190613c81565b505050565b6000600460003373ffffffffffffffffffffffffffffffffffffffff1673ffffffffffffffffffffffffffffffffffffffff16815260200190815260200160002060000160149054906101000a900460ff161561130b576040517f08c379a000000000000000000000000000000000000000000000000000000000815260040161130290614dfc565b60405180910390fd5b611313613cf4565b33816000019073ffffffffffffffffffffffffffffffffffffffff16908173ffffffffffffffffffffffffffffffffffffffff1681525050600181602001901515908115158152505060008160400190600281111561137557611374613ed8565b5b9081600281111561138957611388613ed8565b5b8152505080600460003373ffffffffffffffffffffffffffffffffffffffff1673ffffffffffffffffffffffffffffffffffffffff16815260200190815260200160002060008201518160000160006101000a81548173ffffffffffffffffffffffffffffffffffffffff021916908373ffffffffffffffffffffffffffffffffffffffff16021790555060208201518160000160146101000a81548160ff02191690831515021790555060408201518160000160156101000a81548160ff0219169083600281111561145f5761145e613ed8565b5b02179055506060820151816001019080519060200190611480929190613d4d565b50608082015181600201908051906020019061149d929190613d4d565b509050506003339080600181540180825580915050600190039060005260206000200160009091909190916101000a81548173ffffffffffffffffffffffffffffffffffffffff021916908373ffffffffffffffffffffffffffffffffffffffff16021790555080600460003373ffffffffffffffffffffffffffffffffffffffff1673ffffffffffffffffffffffffffffffffffffffff16815260200190815260200160002060008201518160000160006101000a81548173ffffffffffffffffffffffffffffffffffffffff021916908373ffffffffffffffffffffffffffffffffffffffff16021790555060208201518160000160146101000a81548160ff02191690831515021790555060408201518160000160156101000a81548160ff021916908360028111156115d6576115d5613ed8565b5b021790555060608201518160010190805190602001906115f7929190613d4d565b506080820151816002019080519060200190611614929190613d4d565b50905050600191505090565b606060028081111561163557611634613ed8565b5b600460003373ffffffffffffffffffffffffffffffffffffffff1673ffffffffffffffffffffffffffffffffffffffff16815260200190815260200160002060000160159054906101000a900460ff16600281111561169757611696613ed8565b5b146116d7576040517f08c379a00000000000000000000000000000000000000000000000000000000081526004016116ce906146d5565b60405180910390fd5b600060038054905090506000806116ee600261386a565b67ffffffffffffffff811115611707576117066140e4565b5b60405190808252806020026020018201604052801561174057816020015b61172d613cf4565b8152602001906001900390816117255790505b50905060005b83811015611a6457600060038281548110611764576117636148b6565b5b9060005260206000200160009054906101000a900473ffffffffffffffffffffffffffffffffffffffff1690506002808111156117a4576117a3613ed8565b5b600460008373ffffffffffffffffffffffffffffffffffffffff1673ffffffffffffffffffffffffffffffffffffffff16815260200190815260200160002060000160159054906101000a900460ff16600281111561180657611805613ed8565b5b03611a50576000600460008373ffffffffffffffffffffffffffffffffffffffff1673ffffffffffffffffffffffffffffffffffffffff1681526020019081526020016000209050806040518060a00160405290816000820160009054906101000a900473ffffffffffffffffffffffffffffffffffffffff1673ffffffffffffffffffffffffffffffffffffffff1673ffffffffffffffffffffffffffffffffffffffff1681526020016000820160149054906101000a900460ff161515151581526020016000820160159054906101000a900460ff1660028111156118f0576118ef613ed8565b5b600281111561190257611901613ed8565b5b81526020016001820180548060200260200160405190810160405280929190818152602001828054801561198b57602002820191906000526020600020905b8160009054906101000a900473ffffffffffffffffffffffffffffffffffffffff1673ffffffffffffffffffffffffffffffffffffffff1681526020019060010190808311611941575b5050505050815260200160028201805480602002602001604051908101604052809291908181526020018280548015611a1957602002820191906000526020600020905b8160009054906101000a900473ffffffffffffffffffffffffffffffffffffffff1673ffffffffffffffffffffffffffffffffffffffff16815260200190600101908083116119cf575b505050505081525050848681518110611a3557611a346148b6565b5b60200260200101819052508480611a4b906148e5565b955050505b508080611a5c906148e5565b915050611746565b5080935050505090565b606060016002811115611a8457611a83613ed8565b5b600460003373ffffffffffffffffffffffffffffffffffffffff1673ffffffffffffffffffffffffffffffffffffffff16815260200190815260200160002060000160159054906101000a900460ff166002811115611ae657611ae5613ed8565b5b1480611b645750600280811115611b0057611aff613ed8565b5b600460003373ffffffffffffffffffffffffffffffffffffffff1673ffffffffffffffffffffffffffffffffffffffff16815260200190815260200160002060000160159054906101000a900460ff166002811115611b6257611b61613ed8565b5b145b611ba3576040517f08c379a0000000000000000000000000000000000000000000000000000000008152600401611b9a906146d5565b60405180910390fd5b6000611baf600061386a565b905060008060005b83811015611c3c5760006003811115611bd357611bd2613ed8565b5b60056000600184611be49190614882565b815260200190815260200160002060010160009054906101000a900460ff166003811115611c1557611c14613ed8565b5b03611c29578280611c25906148e5565b9350505b8080611c34906148e5565b915050611bb7565b5060008267ffffffffffffffff811115611c5957611c586140e4565b5b604051908082528060200260200182016040528015611c9257816020015b611c7f613cc1565b815260200190600190039081611c775790505b50905060005b84811015611e485760006003811115611cb457611cb3613ed8565b5b60056000600184611cc59190614882565b815260200190815260200160002060010160009054906101000a900460ff166003811115611cf657611cf5613ed8565b5b03611e35576000600182611d0a9190614882565b9050600060056000838152602001908152602001600020905080604051806060016040529081600082015481526020016001820160009054906101000a900460ff166003811115611d5e57611d5d613ed8565b5b6003811115611d7057611d6f613ed8565b5b8152602001600282018054611d849061495c565b80601f0160208091040260200160405190810160405280929190818152602001828054611db09061495c565b8015611dfd5780601f10611dd257610100808354040283529160200191611dfd565b820191906000526020600020905b815481529060010190602001808311611de057829003601f168201915b505050505081525050848681518110611e1957611e186148b6565b5b60200260200101819052508480611e2f906148e5565b95505050505b8080611e40906148e5565b915050611c98565b508094505050505090565b611e5b613c23565b611e6433613878565b905090565b60016002811115611e7d57611e7c613ed8565b5b600460003373ffffffffffffffffffffffffffffffffffffffff1673ffffffffffffffffffffffffffffffffffffffff16815260200190815260200160002060000160159054906101000a900460ff166002811115611edf57611ede613ed8565b5b14611f1f576040517f08c379a0000000000000000000000000000000000000000000000000000000008152600401611f16906146d5565b60405180910390fd5b60026003811115611f3357611f32613ed8565b5b6005600084815260200190815260200160002060010160009054906101000a900460ff166003811115611f6957611f68613ed8565b5b14611fa9576040517f08c379a0000000000000000000000000000000000000000000000000000000008152600401611fa090614e8e565b60405180910390fd5b604051806060016040528083815260200160016003811115611fce57611fcd613ed8565b5b8152602001600560008581526020019081526020016000206002018054611ff49061495c565b80601f01602080910402602001604051908101604052809291908181526020018280546120209061495c565b801561206d5780601f106120425761010080835404028352916020019161206d565b820191906000526020600020905b81548152906001019060200180831161205057829003601f168201915b5050505050815250600660008481526020019081526020016000206000820151816000015560208201518160010160006101000a81548160ff021916908360038111156120bd576120bc613ed8565b5b021790555060408201518160020190816120d79190614b39565b5090505060016005600084815260200190815260200160002060010160006101000a81548160ff0219169083600381111561211557612114613ed8565b5b02179055508060056000848152602001908152602001600020600201908161213d9190614b39565b505050565b60606000612150600061386a565b90506000808267ffffffffffffffff81111561216f5761216e6140e4565b5b6040519080825280602002602001820160405280156121a857816020015b612195613cc1565b81526020019060019003908161218d5790505b50905060005b838110156123025760006001826121c59190614882565b9050600060056000838152602001908152602001600020905080604051806060016040529081600082015481526020016001820160009054906101000a900460ff16600381111561221957612218613ed8565b5b600381111561222b5761222a613ed8565b5b815260200160028201805461223f9061495c565b80601f016020809104026020016040519081016040528092919081815260200182805461226b9061495c565b80156122b85780601f1061228d576101008083540402835291602001916122b8565b820191906000526020600020905b81548152906001019060200180831161229b57829003601f168201915b5050505050815250508486815181106122d4576122d36148b6565b5b602002602001018190525084806122ea906148e5565b955050505080806122fa906148e5565b9150506121ae565b5080935050505090565b600060028081111561232157612320613ed8565b5b600460003373ffffffffffffffffffffffffffffffffffffffff1673ffffffffffffffffffffffffffffffffffffffff16815260200190815260200160002060000160159054906101000a900460ff16600281111561238357612382613ed8565b5b146123c3576040517f08c379a00000000000000000000000000000000000000000000000000000000081526004016123ba906146d5565b60405180910390fd5b600460008373ffffffffffffffffffffffffffffffffffffffff1673ffffffffffffffffffffffffffffffffffffffff16815260200190815260200160002060000160149054906101000a900460ff16612452576040517f08c379a000000000000000000000000000000000000000000000000000000000815260040161244990614741565b60405180910390fd5b6000600281111561246657612465613ed8565b5b600460008473ffffffffffffffffffffffffffffffffffffffff1673ffffffffffffffffffffffffffffffffffffffff16815260200190815260200160002060000160159054906101000a900460ff1660028111156124c8576124c7613ed8565b5b14612508576040517f08c379a00000000000000000000000000000000000000000000000000000000081526004016124ff90614f20565b60405180910390fd5b600060016002612518600261386a565b6125229190614851565b61252c9190614882565b905060005b600460008573ffffffffffffffffffffffffffffffffffffffff1673ffffffffffffffffffffffffffffffffffffffff16815260200190815260200160002060010180549050811015612647573373ffffffffffffffffffffffffffffffffffffffff16600460008673ffffffffffffffffffffffffffffffffffffffff1673ffffffffffffffffffffffffffffffffffffffff16815260200190815260200160002060010182815481106125e9576125e86148b6565b5b9060005260206000200160009054906101000a900473ffffffffffffffffffffffffffffffffffffffff1673ffffffffffffffffffffffffffffffffffffffff160361263457600080fd5b808061263f906148e5565b915050612531565b50600460008473ffffffffffffffffffffffffffffffffffffffff1673ffffffffffffffffffffffffffffffffffffffff168152602001908152602001600020600101339080600181540180825580915050600190039060005260206000200160009091909190916101000a81548173ffffffffffffffffffffffffffffffffffffffff021916908373ffffffffffffffffffffffffffffffffffffffff16021790555080600460008573ffffffffffffffffffffffffffffffffffffffff1673ffffffffffffffffffffffffffffffffffffffff16815260200190815260200160002060010180549050106127ad576001600460008573ffffffffffffffffffffffffffffffffffffffff1673ffffffffffffffffffffffffffffffffffffffff16815260200190815260200160002060000160156101000a81548160ff0219169083600281111561279d5761279c613ed8565b5b02179055506127ac6001613854565b5b6001915050919050565b6060600160028111156127cd576127cc613ed8565b5b600460003373ffffffffffffffffffffffffffffffffffffffff1673ffffffffffffffffffffffffffffffffffffffff16815260200190815260200160002060000160159054906101000a900460ff16600281111561282f5761282e613ed8565b5b14806128ad575060028081111561284957612848613ed8565b5b600460003373ffffffffffffffffffffffffffffffffffffffff1673ffffffffffffffffffffffffffffffffffffffff16815260200190815260200160002060000160159054906101000a900460ff1660028111156128ab576128aa613ed8565b5b145b6128ec576040517f08c379a00000000000000000000000000000000000000000000000000000000081526004016128e3906146d5565b60405180910390fd5b6000600380549050905060008167ffffffffffffffff811115612912576129116140e4565b5b60405190808252806020026020018201604052801561294b57816020015b612938613cf4565b8152602001906001900390816129305790505b50905060005b82811015612be65760006003828154811061296f5761296e6148b6565b5b9060005260206000200160009054906101000a900473ffffffffffffffffffffffffffffffffffffffff1690506000600460008373ffffffffffffffffffffffffffffffffffffffff1673ffffffffffffffffffffffffffffffffffffffff1681526020019081526020016000209050806040518060a00160405290816000820160009054906101000a900473ffffffffffffffffffffffffffffffffffffffff1673ffffffffffffffffffffffffffffffffffffffff1673ffffffffffffffffffffffffffffffffffffffff1681526020016000820160149054906101000a900460ff161515151581526020016000820160159054906101000a900460ff166002811115612a8157612a80613ed8565b5b6002811115612a9357612a92613ed8565b5b815260200160018201805480602002602001604051908101604052809291908181526020018280548015612b1c57602002820191906000526020600020905b8160009054906101000a900473ffffffffffffffffffffffffffffffffffffffff1673ffffffffffffffffffffffffffffffffffffffff1681526020019060010190808311612ad2575b5050505050815260200160028201805480602002602001604051908101604052809291908181526020018280548015612baa57602002820191906000526020600020905b8160009054906101000a900473ffffffffffffffffffffffffffffffffffffffff1673ffffffffffffffffffffffffffffffffffffffff1681526020019060010190808311612b60575b505050505081525050848481518110612bc657612bc56148b6565b5b602002602001018190525050508080612bde906148e5565b915050612951565b50809250505090565b606060016002811115612c0557612c04613ed8565b5b600460003373ffffffffffffffffffffffffffffffffffffffff1673ffffffffffffffffffffffffffffffffffffffff16815260200190815260200160002060000160159054906101000a900460ff166002811115612c6757612c66613ed8565b5b1480612ce55750600280811115612c8157612c80613ed8565b5b600460003373ffffffffffffffffffffffffffffffffffffffff1673ffffffffffffffffffffffffffffffffffffffff16815260200190815260200160002060000160159054906101000a900460ff166002811115612ce357612ce2613ed8565b5b145b612d24576040517f08c379a0000000000000000000000000000000000000000000000000000000008152600401612d1b906146d5565b60405180910390fd5b6000612d30600061386a565b905060008060005b83811015612dbc57600380811115612d5357612d52613ed8565b5b60056000600184612d649190614882565b815260200190815260200160002060010160009054906101000a900460ff166003811115612d9557612d94613ed8565b5b03612da9578280612da5906148e5565b9350505b8080612db4906148e5565b915050612d38565b5060008267ffffffffffffffff811115612dd957612dd86140e4565b5b604051908082528060200260200182016040528015612e1257816020015b612dff613cc1565b815260200190600190039081612df75790505b50905060005b84811015612fc757600380811115612e3357612e32613ed8565b5b60056000600184612e449190614882565b815260200190815260200160002060010160009054906101000a900460ff166003811115612e7557612e74613ed8565b5b03612fb4576000600182612e899190614882565b9050600060056000838152602001908152602001600020905080604051806060016040529081600082015481526020016001820160009054906101000a900460ff166003811115612edd57612edc613ed8565b5b6003811115612eef57612eee613ed8565b5b8152602001600282018054612f039061495c565b80601f0160208091040260200160405190810160405280929190818152602001828054612f2f9061495c565b8015612f7c5780601f10612f5157610100808354040283529160200191612f7c565b820191906000526020600020905b815481529060010190602001808311612f5f57829003601f168201915b505050505081525050848681518110612f9857612f976148b6565b5b60200260200101819052508480612fae906148e5565b95505050505b8080612fbf906148e5565b915050612e18565b508094505050505090565b60606000612fe0600061386a565b905060008060005b8381101561306d576002600381111561300457613003613ed8565b5b600560006001846130159190614882565b815260200190815260200160002060010160009054906101000a900460ff16600381111561304657613045613ed8565b5b0361305a578280613056906148e5565b9350505b8080613065906148e5565b915050612fe8565b5060008267ffffffffffffffff81111561308a576130896140e4565b5b6040519080825280602002602001820160405280156130c357816020015b6130b0613cc1565b8152602001906001900390816130a85790505b50905060005b8481101561327957600260038111156130e5576130e4613ed8565b5b600560006001846130f69190614882565b815260200190815260200160002060010160009054906101000a900460ff16600381111561312757613126613ed8565b5b0361326657600060018261313b9190614882565b9050600060056000838152602001908152602001600020905080604051806060016040529081600082015481526020016001820160009054906101000a900460ff16600381111561318f5761318e613ed8565b5b60038111156131a1576131a0613ed8565b5b81526020016002820180546131b59061495c565b80601f01602080910402602001604051908101604052809291908181526020018280546131e19061495c565b801561322e5780601f106132035761010080835404028352916020019161322e565b820191906000526020600020905b81548152906001019060200180831161321157829003601f168201915b50505050508152505084868151811061324a576132496148b6565b5b60200260200101819052508480613260906148e5565b95505050505b8080613271906148e5565b9150506130c9565b508094505050505090565b606060028081111561329957613298613ed8565b5b600460003373ffffffffffffffffffffffffffffffffffffffff1673ffffffffffffffffffffffffffffffffffffffff16815260200190815260200160002060000160159054906101000a900460ff1660028111156132fb576132fa613ed8565b5b1461333b576040517f08c379a0000000000000000000000000000000000000000000000000000000008152600401613332906146d5565b60405180910390fd5b60006003805490509050600080613352600161386a565b67ffffffffffffffff81111561336b5761336a6140e4565b5b6040519080825280602002602001820160405280156133a457816020015b613391613cf4565b8152602001906001900390816133895790505b50905060005b838110156136c9576000600382815481106133c8576133c76148b6565b5b9060005260206000200160009054906101000a900473ffffffffffffffffffffffffffffffffffffffff1690506001600281111561340957613408613ed8565b5b600460008373ffffffffffffffffffffffffffffffffffffffff1673ffffffffffffffffffffffffffffffffffffffff16815260200190815260200160002060000160159054906101000a900460ff16600281111561346b5761346a613ed8565b5b036136b5576000600460008373ffffffffffffffffffffffffffffffffffffffff1673ffffffffffffffffffffffffffffffffffffffff1681526020019081526020016000209050806040518060a00160405290816000820160009054906101000a900473ffffffffffffffffffffffffffffffffffffffff1673ffffffffffffffffffffffffffffffffffffffff1673ffffffffffffffffffffffffffffffffffffffff1681526020016000820160149054906101000a900460ff161515151581526020016000820160159054906101000a900460ff16600281111561355557613554613ed8565b5b600281111561356757613566613ed8565b5b8152602001600182018054806020026020016040519081016040528092919081815260200182805480156135f057602002820191906000526020600020905b8160009054906101000a900473ffffffffffffffffffffffffffffffffffffffff1673ffffffffffffffffffffffffffffffffffffffff16815260200190600101908083116135a6575b505050505081526020016002820180548060200260200160405190810160405280929190818152602001828054801561367e57602002820191906000526020600020905b8160009054906101000a900473ffffffffffffffffffffffffffffffffffffffff1673ffffffffffffffffffffffffffffffffffffffff1681526020019060010190808311613634575b50505050508152505084868151811061369a576136996148b6565b5b602002602001018190525084806136b0906148e5565b955050505b5080806136c1906148e5565b9150506133aa565b5080935050505090565b6002808111156136e6576136e5613ed8565b5b600460003373ffffffffffffffffffffffffffffffffffffffff1673ffffffffffffffffffffffffffffffffffffffff16815260200190815260200160002060000160159054906101000a900460ff16600281111561374857613747613ed8565b5b14613788576040517f08c379a000000000000000000000000000000000000000000000000000000000815260040161377f906146d5565b60405180910390fd5b6000600381111561379c5761379b613ed8565b5b6005600083815260200190815260200160002060010160009054906101000a900460ff1660038111156137d2576137d1613ed8565b5b14613812576040517f08c379a000000000000000000000000000000000000000000000000000000000815260040161380990614c7d565b60405180910390fd5b60026005600083815260200190815260200160002060010160006101000a81548160ff0219169083600381111561384c5761384b613ed8565b5b021790555050565b6001816000016000828254019250508190555050565b600081600001549050919050565b613880613c23565b600060016002613890600261386a565b61389a9190614851565b6138a49190614882565b90506138ae613c23565b600460008573ffffffffffffffffffffffffffffffffffffffff1673ffffffffffffffffffffffffffffffffffffffff16815260200190815260200160002060000160009054906101000a900473ffffffffffffffffffffffffffffffffffffffff16816000019073ffffffffffffffffffffffffffffffffffffffff16908173ffffffffffffffffffffffffffffffffffffffff1681525050600460008573ffffffffffffffffffffffffffffffffffffffff1673ffffffffffffffffffffffffffffffffffffffff16815260200190815260200160002060000160159054906101000a900460ff16816020019060028111156139af576139ae613ed8565b5b908160028111156139c3576139c2613ed8565b5b81525050600460008573ffffffffffffffffffffffffffffffffffffffff1673ffffffffffffffffffffffffffffffffffffffff168152602001908152602001600020600101805480602002602001604051908101604052809291908181526020018280548015613a8957602002820191906000526020600020905b8160009054906101000a900473ffffffffffffffffffffffffffffffffffffffff1673ffffffffffffffffffffffffffffffffffffffff1681526020019060010190808311613a3f575b50505050508160400181905250600460008573ffffffffffffffffffffffffffffffffffffffff1673ffffffffffffffffffffffffffffffffffffffff1681526020019081526020016000206001018054905082613ae79190614f40565b816060018181525050600460008573ffffffffffffffffffffffffffffffffffffffff1673ffffffffffffffffffffffffffffffffffffffff168152602001908152602001600020600201805480602002602001604051908101604052809291908181526020018280548015613bb257602002820191906000526020600020905b8160009054906101000a900473ffffffffffffffffffffffffffffffffffffffff1673ffffffffffffffffffffffffffffffffffffffff1681526020019060010190808311613b68575b50505050508160800181905250600460008573ffffffffffffffffffffffffffffffffffffffff1673ffffffffffffffffffffffffffffffffffffffff1681526020019081526020016000206002018054905082613c109190614f40565b8160a00181815250508092505050919050565b6040518060c00160405280600073ffffffffffffffffffffffffffffffffffffffff16815260200160006002811115613c5f57613c5e613ed8565b5b8152602001606081526020016000815260200160608152602001600081525090565b508054613c8d9061495c565b6000825580601f10613c9f5750613cbe565b601f016020900490600052602060002090810190613cbd9190613dd7565b5b50565b60405180606001604052806000815260200160006003811115613ce757613ce6613ed8565b5b8152602001606081525090565b6040518060a00160405280600073ffffffffffffffffffffffffffffffffffffffff16815260200160001515815260200160006002811115613d3957613d38613ed8565b5b815260200160608152602001606081525090565b828054828255906000526020600020908101928215613dc6579160200282015b82811115613dc55782518260006101000a81548173ffffffffffffffffffffffffffffffffffffffff021916908373ffffffffffffffffffffffffffffffffffffffff16021790555091602001919060010190613d6d565b5b509050613dd39190613dd7565b5090565b5b80821115613df0576000816000905550600101613dd8565b5090565b6000604051905090565b600080fd5b600080fd5b600073ffffffffffffffffffffffffffffffffffffffff82169050919050565b6000613e3382613e08565b9050919050565b613e4381613e28565b8114613e4e57600080fd5b50565b600081359050613e6081613e3a565b92915050565b600060208284031215613e7c57613e7b613dfe565b5b6000613e8a84828501613e51565b91505092915050565b60008115159050919050565b613ea881613e93565b82525050565b6000602082019050613ec36000830184613e9f565b92915050565b613ed281613e28565b82525050565b7f4e487b7100000000000000000000000000000000000000000000000000000000600052602160045260246000fd5b60038110613f1857613f17613ed8565b5b50565b6000819050613f2982613f07565b919050565b6000613f3982613f1b565b9050919050565b613f4981613f2e565b82525050565b600081519050919050565b600082825260208201905092915050565b6000819050602082019050919050565b6000613f878383613ec9565b60208301905092915050565b6000602082019050919050565b6000613fab82613f4f565b613fb58185613f5a565b9350613fc083613f6b565b8060005b83811015613ff1578151613fd88882613f7b565b9750613fe383613f93565b925050600181019050613fc4565b5085935050505092915050565b6000819050919050565b61401181613ffe565b82525050565b600060c08301600083015161402f6000860182613ec9565b5060208301516140426020860182613f40565b506040830151848203604086015261405a8282613fa0565b915050606083015161406f6060860182614008565b50608083015184820360808601526140878282613fa0565b91505060a083015161409c60a0860182614008565b508091505092915050565b600060208201905081810360008301526140c18184614017565b905092915050565b600080fd5b600080fd5b6000601f19601f8301169050919050565b7f4e487b7100000000000000000000000000000000000000000000000000000000600052604160045260246000fd5b61411c826140d3565b810181811067ffffffffffffffff8211171561413b5761413a6140e4565b5b80604052505050565b600061414e613df4565b905061415a8282614113565b919050565b600067ffffffffffffffff82111561417a576141796140e4565b5b614183826140d3565b9050602081019050919050565b82818337600083830152505050565b60006141b26141ad8461415f565b614144565b9050828152602081018484840111156141ce576141cd6140ce565b5b6141d9848285614190565b509392505050565b600082601f8301126141f6576141f56140c9565b5b813561420684826020860161419f565b91505092915050565b60006020828403121561422557614224613dfe565b5b600082013567ffffffffffffffff81111561424357614242613e03565b5b61424f848285016141e1565b91505092915050565b61426181613ffe565b811461426c57600080fd5b50565b60008135905061427e81614258565b92915050565b60006020828403121561429a57614299613dfe565b5b60006142a88482850161426f565b91505092915050565b600081519050919050565b600082825260208201905092915050565b6000819050602082019050919050565b600481106142ee576142ed613ed8565b5b50565b60008190506142ff826142dd565b919050565b600061430f826142f1565b9050919050565b61431f81614304565b82525050565b600081519050919050565b600082825260208201905092915050565b60005b8381101561435f578082015181840152602081019050614344565b60008484015250505050565b600061437682614325565b6143808185614330565b9350614390818560208601614341565b614399816140d3565b840191505092915050565b60006060830160008301516143bc6000860182614008565b5060208301516143cf6020860182614316565b50604083015184820360408601526143e7828261436b565b9150508091505092915050565b600061440083836143a4565b905092915050565b6000602082019050919050565b6000614420826142b1565b61442a81856142bc565b93508360208202850161443c856142cd565b8060005b85811015614478578484038952815161445985826143f4565b945061446483614408565b925060208a01995050600181019050614440565b50829750879550505050505092915050565b600060208201905081810360008301526144a48184614415565b905092915050565b600081519050919050565b600082825260208201905092915050565b6000819050602082019050919050565b6144e181613e93565b82525050565b600060a0830160008301516144ff6000860182613ec9565b50602083015161451260208601826144d8565b5060408301516145256040860182613f40565b506060830151848203606086015261453d8282613fa0565b915050608083015184820360808601526145578282613fa0565b9150508091505092915050565b600061457083836144e7565b905092915050565b6000602082019050919050565b6000614590826144ac565b61459a81856144b7565b9350836020820285016145ac856144c8565b8060005b858110156145e857848403895281516145c98582614564565b94506145d483614578565b925060208a019950506001810190506145b0565b50829750879550505050505092915050565b600060208201905081810360008301526146148184614585565b905092915050565b6000806040838503121561463357614632613dfe565b5b60006146418582860161426f565b925050602083013567ffffffffffffffff81111561466257614661613e03565b5b61466e858286016141e1565b9150509250929050565b600082825260208201905092915050565b7f556e617574686f72697a65642041636365737300000000000000000000000000600082015250565b60006146bf601383614678565b91506146ca82614689565b602082019050919050565b600060208201905081810360008301526146ee816146b2565b9050919050565b7f5573657220646f6573206e6f7420657869737421000000000000000000000000600082015250565b600061472b601483614678565b9150614736826146f5565b602082019050919050565b6000602082019050818103600083015261475a8161471e565b9050919050565b7f557365722063616e6e6f742062652070726f6d6f74656420746f20616e20416460008201527f6d696e2100000000000000000000000000000000000000000000000000000000602082015250565b60006147bd602483614678565b91506147c882614761565b604082019050919050565b600060208201905081810360008301526147ec816147b0565b9050919050565b7f4e487b7100000000000000000000000000000000000000000000000000000000600052601260045260246000fd5b7f4e487b7100000000000000000000000000000000000000000000000000000000600052601160045260246000fd5b600061485c82613ffe565b915061486783613ffe565b925082614877576148766147f3565b5b828204905092915050565b600061488d82613ffe565b915061489883613ffe565b92508282019050808211156148b0576148af614822565b5b92915050565b7f4e487b7100000000000000000000000000000000000000000000000000000000600052603260045260246000fd5b60006148f082613ffe565b91507fffffffffffffffffffffffffffffffffffffffffffffffffffffffffffffffff820361492257614921614822565b5b600182019050919050565b7f4e487b7100000000000000000000000000000000000000000000000000000000600052602260045260246000fd5b6000600282049050600182168061497457607f821691505b6020821081036149875761498661492d565b5b50919050565b60008190508160005260206000209050919050565b60006020601f8301049050919050565b600082821b905092915050565b6000600883026149ef7fffffffffffffffffffffffffffffffffffffffffffffffffffffffffffffffff826149b2565b6149f986836149b2565b95508019841693508086168417925050509392505050565b6000819050919050565b6000614a36614a31614a2c84613ffe565b614a11565b613ffe565b9050919050565b6000819050919050565b614a5083614a1b565b614a64614a5c82614a3d565b8484546149bf565b825550505050565b600090565b614a79614a6c565b614a84818484614a47565b505050565b5b81811015614aa857614a9d600082614a71565b600181019050614a8a565b5050565b601f821115614aed57614abe8161498d565b614ac7846149a2565b81016020851015614ad6578190505b614aea614ae2856149a2565b830182614a89565b50505b505050565b600082821c905092915050565b6000614b1060001984600802614af2565b1980831691505092915050565b6000614b298383614aff565b9150826002028217905092915050565b614b4282614325565b67ffffffffffffffff811115614b5b57614b5a6140e4565b5b614b65825461495c565b614b70828285614aac565b600060209050601f831160018114614ba35760008415614b91578287015190505b614b9b8582614b1d565b865550614c03565b601f198416614bb18661498d565b60005b82811015614bd957848901518255600182019150602085019450602081019050614bb4565b86831015614bf65784890151614bf2601f891682614aff565b8355505b6001600288020188555050505b505050505050565b7f50726f706572747920616c726561647920417070726f766564206f722052656a60008201527f6563746564000000000000000000000000000000000000000000000000000000602082015250565b6000614c67602583614678565b9150614c7282614c0b565b604082019050919050565b60006020820190508181036000830152614c9681614c5a565b9050919050565b600081549050614cac8161495c565b9050919050565b60008190508160005260206000209050919050565b818103614cd6575050614dae565b614cdf82614c9d565b67ffffffffffffffff811115614cf857614cf76140e4565b5b614d02825461495c565b614d0d828285614aac565b6000601f831160018114614d3c5760008415614d2a578287015490505b614d348582614b1d565b865550614da7565b601f198416614d4a87614cb3565b9650614d558661498d565b60005b82811015614d7d57848901548255600182019150600185019450602081019050614d58565b86831015614d9a5784890154614d96601f891682614aff565b8355505b6001600288020188555050505b5050505050505b565b7f5573657220616c72656164792065786973747321000000000000000000000000600082015250565b6000614de6601483614678565b9150614df182614db0565b602082019050919050565b60006020820190508181036000830152614e1581614dd9565b9050919050565b7f50726f706572747920646f6573206e6f74204578697374206f7220486173204e60008201527f6f74204265656e20417070726f76656400000000000000000000000000000000602082015250565b6000614e78603083614678565b9150614e8382614e1c565b604082019050919050565b60006020820190508181036000830152614ea781614e6b565b9050919050565b7f557365722063616e6e6f742062652070726f6d6f74656420746f2061204d6f6460008201527f657261746f722100000000000000000000000000000000000000000000000000602082015250565b6000614f0a602783614678565b9150614f1582614eae565b604082019050919050565b60006020820190508181036000830152614f3981614efd565b9050919050565b6000614f4b82613ffe565b9150614f5683613ffe565b9250828203905081811115614f6e57614f6d614822565b5b9291505056fea2646970667358221220e5fd6f707a72a5fd2493fe36cc20e5a5f3e73fab76bd7528a02b084751b56cc664736f6c63430008110033",
  "linkReferences": {},
  "deployedLinkReferences": {}
}