{
  "_format": "hh-sol-artifact-1",
  "contractName": "DLS",
  "sourceName": "contracts/DLS.sol",
  "abi": [
    {
      "inputs": [],
      "stateMutability": "nonpayable",
      "type": "constructor"
    },
    {
      "inputs": [
        {
          "internalType": "address",
          "name": "_newAdmin",
          "type": "address"
        }
      ],
      "name": "addNewAdmin",
      "outputs": [
        {
          "internalType": "bool",
          "name": "",
          "type": "bool"
        }
      ],
      "stateMutability": "nonpayable",
      "type": "function"
    },
    {
      "inputs": [
        {
          "internalType": "address",
          "name": "_newModerator",
          "type": "address"
        }
      ],
      "name": "addNewModerator",
      "outputs": [
        {
          "internalType": "bool",
          "name": "",
          "type": "bool"
        }
      ],
      "stateMutability": "nonpayable",
      "type": "function"
    },
    {
      "inputs": [
        {
          "internalType": "uint256",
          "name": "_itemId",
          "type": "uint256"
        }
      ],
      "name": "approveOwnershipChange",
      "outputs": [],
      "stateMutability": "nonpayable",
      "type": "function"
    },
    {
      "inputs": [
        {
          "internalType": "uint256",
          "name": "_itemId",
          "type": "uint256"
        }
      ],
      "name": "approveProperty",
      "outputs": [],
      "stateMutability": "nonpayable",
      "type": "function"
    },
    {
      "inputs": [
        {
          "internalType": "uint256",
          "name": "_itemId",
          "type": "uint256"
        },
        {
          "internalType": "string",
          "name": "_ipfsHashValue",
          "type": "string"
        }
      ],
      "name": "changeOwnership",
      "outputs": [],
      "stateMutability": "nonpayable",
      "type": "function"
    },
    {
      "inputs": [
        {
          "internalType": "string",
          "name": "_ipfsHashValue",
          "type": "string"
        }
      ],
      "name": "createProperty",
      "outputs": [],
      "stateMutability": "nonpayable",
      "type": "function"
    },
    {
      "inputs": [
        {
          "internalType": "address",
          "name": "_userAddress",
          "type": "address"
        }
      ],
      "name": "demoteUser",
      "outputs": [
        {
          "internalType": "bool",
          "name": "",
          "type": "bool"
        }
      ],
      "stateMutability": "nonpayable",
      "type": "function"
    },
    {
      "inputs": [],
      "name": "fetchAllAdmins",
      "outputs": [
        {
          "components": [
            {
              "internalType": "address",
              "name": "userAddress",
              "type": "address"
            },
            {
              "internalType": "bool",
              "name": "isRegistered",
              "type": "bool"
            },
            {
              "internalType": "enum DLS.Role",
              "name": "role",
              "type": "uint8"
            },
            {
              "internalType": "address[]",
              "name": "modApprovals",
              "type": "address[]"
            },
            {
              "internalType": "address[]",
              "name": "adminApprovals",
              "type": "address[]"
            },
            {
              "internalType": "address[]",
              "name": "removalRequests",
              "type": "address[]"
            }
          ],
          "internalType": "struct DLS.UserItem[]",
          "name": "",
          "type": "tuple[]"
        }
      ],
      "stateMutability": "view",
      "type": "function"
    },
    {
      "inputs": [],
      "name": "fetchAllApprovedProperties",
      "outputs": [
        {
          "components": [
            {
              "internalType": "uint256",
              "name": "itemId",
              "type": "uint256"
            },
            {
              "internalType": "enum DLS.Status",
              "name": "status",
              "type": "uint8"
            },
            {
              "internalType": "string",
              "name": "ipfsHash",
              "type": "string"
            },
            {
              "internalType": "address",
              "name": "addedBy",
              "type": "address"
            },
            {
              "internalType": "address",
              "name": "updatedBy",
              "type": "address"
            }
          ],
          "internalType": "struct DLS.PropertyItem[]",
          "name": "",
          "type": "tuple[]"
        }
      ],
      "stateMutability": "view",
      "type": "function"
    },
    {
      "inputs": [],
      "name": "fetchAllModerators",
      "outputs": [
        {
          "components": [
            {
              "internalType": "address",
              "name": "userAddress",
              "type": "address"
            },
            {
              "internalType": "bool",
              "name": "isRegistered",
              "type": "bool"
            },
            {
              "internalType": "enum DLS.Role",
              "name": "role",
              "type": "uint8"
            },
            {
              "internalType": "address[]",
              "name": "modApprovals",
              "type": "address[]"
            },
            {
              "internalType": "address[]",
              "name": "adminApprovals",
              "type": "address[]"
            },
            {
              "internalType": "address[]",
              "name": "removalRequests",
              "type": "address[]"
            }
          ],
          "internalType": "struct DLS.UserItem[]",
          "name": "",
          "type": "tuple[]"
        }
      ],
      "stateMutability": "view",
      "type": "function"
    },
    {
      "inputs": [],
      "name": "fetchAllPendingProperties",
      "outputs": [
        {
          "components": [
            {
              "internalType": "uint256",
              "name": "itemId",
              "type": "uint256"
            },
            {
              "internalType": "enum DLS.Status",
              "name": "status",
              "type": "uint8"
            },
            {
              "internalType": "string",
              "name": "ipfsHash",
              "type": "string"
            },
            {
              "internalType": "address",
              "name": "addedBy",
              "type": "address"
            },
            {
              "internalType": "address",
              "name": "updatedBy",
              "type": "address"
            }
          ],
          "internalType": "struct DLS.PropertyItem[]",
          "name": "",
          "type": "tuple[]"
        }
      ],
      "stateMutability": "view",
      "type": "function"
    },
    {
      "inputs": [],
      "name": "fetchAllProperties",
      "outputs": [
        {
          "components": [
            {
              "internalType": "uint256",
              "name": "itemId",
              "type": "uint256"
            },
            {
              "internalType": "enum DLS.Status",
              "name": "status",
              "type": "uint8"
            },
            {
              "internalType": "string",
              "name": "ipfsHash",
              "type": "string"
            },
            {
              "internalType": "address",
              "name": "addedBy",
              "type": "address"
            },
            {
              "internalType": "address",
              "name": "updatedBy",
              "type": "address"
            }
          ],
          "internalType": "struct DLS.PropertyItem[]",
          "name": "",
          "type": "tuple[]"
        }
      ],
      "stateMutability": "view",
      "type": "function"
    },
    {
      "inputs": [],
      "name": "fetchAllRejectedProperties",
      "outputs": [
        {
          "components": [
            {
              "internalType": "uint256",
              "name": "itemId",
              "type": "uint256"
            },
            {
              "internalType": "enum DLS.Status",
              "name": "status",
              "type": "uint8"
            },
            {
              "internalType": "string",
              "name": "ipfsHash",
              "type": "string"
            },
            {
              "internalType": "address",
              "name": "addedBy",
              "type": "address"
            },
            {
              "internalType": "address",
              "name": "updatedBy",
              "type": "address"
            }
          ],
          "internalType": "struct DLS.PropertyItem[]",
          "name": "",
          "type": "tuple[]"
        }
      ],
      "stateMutability": "view",
      "type": "function"
    },
    {
      "inputs": [],
      "name": "fetchAllUnderReviewProperties",
      "outputs": [
        {
          "components": [
            {
              "internalType": "uint256",
              "name": "itemId",
              "type": "uint256"
            },
            {
              "internalType": "enum DLS.Status",
              "name": "status",
              "type": "uint8"
            },
            {
              "internalType": "string",
              "name": "ipfsHash",
              "type": "string"
            },
            {
              "internalType": "address",
              "name": "addedBy",
              "type": "address"
            },
            {
              "internalType": "address",
              "name": "updatedBy",
              "type": "address"
            }
          ],
          "internalType": "struct DLS.PropertyItem[]",
          "name": "",
          "type": "tuple[]"
        }
      ],
      "stateMutability": "view",
      "type": "function"
    },
    {
      "inputs": [],
      "name": "fetchAllUsers",
      "outputs": [
        {
          "components": [
            {
              "internalType": "address",
              "name": "userAddress",
              "type": "address"
            },
            {
              "internalType": "bool",
              "name": "isRegistered",
              "type": "bool"
            },
            {
              "internalType": "enum DLS.Role",
              "name": "role",
              "type": "uint8"
            },
            {
              "internalType": "address[]",
              "name": "modApprovals",
              "type": "address[]"
            },
            {
              "internalType": "address[]",
              "name": "adminApprovals",
              "type": "address[]"
            },
            {
              "internalType": "address[]",
              "name": "removalRequests",
              "type": "address[]"
            }
          ],
          "internalType": "struct DLS.UserItem[]",
          "name": "",
          "type": "tuple[]"
        }
      ],
      "stateMutability": "view",
      "type": "function"
    },
    {
      "inputs": [
        {
          "internalType": "uint256",
          "name": "_itemId",
          "type": "uint256"
        }
      ],
      "name": "fetchSingleProperty",
      "outputs": [
        {
          "components": [
            {
              "internalType": "uint256",
              "name": "itemId",
              "type": "uint256"
            },
            {
              "internalType": "enum DLS.Status",
              "name": "status",
              "type": "uint8"
            },
            {
              "internalType": "string",
              "name": "ipfsHash",
              "type": "string"
            },
            {
              "internalType": "address",
              "name": "addedBy",
              "type": "address"
            },
            {
              "internalType": "address",
              "name": "updatedBy",
              "type": "address"
            }
          ],
          "internalType": "struct DLS.PropertyItem",
          "name": "",
          "type": "tuple"
        }
      ],
      "stateMutability": "view",
      "type": "function"
    },
    {
      "inputs": [
        {
          "internalType": "address",
          "name": "userAddress",
          "type": "address"
        }
      ],
      "name": "fetchSingleUser",
      "outputs": [
        {
          "components": [
            {
              "internalType": "address",
              "name": "userAddress",
              "type": "address"
            },
            {
              "internalType": "enum DLS.Role",
              "name": "role",
              "type": "uint8"
            },
            {
              "internalType": "address[]",
              "name": "modApprovals",
              "type": "address[]"
            },
            {
              "internalType": "uint256",
              "name": "modApprovalsLeft",
              "type": "uint256"
            },
            {
              "internalType": "address[]",
              "name": "adminApprovals",
              "type": "address[]"
            },
            {
              "internalType": "uint256",
              "name": "adminApprovalsLeft",
              "type": "uint256"
            },
            {
              "internalType": "address[]",
              "name": "removalRequests",
              "type": "address[]"
            },
            {
              "internalType": "uint256",
              "name": "removalRequestsLeft",
              "type": "uint256"
            }
          ],
          "internalType": "struct DLS.UserReturnItem",
          "name": "",
          "type": "tuple"
        }
      ],
      "stateMutability": "view",
      "type": "function"
    },
    {
      "inputs": [],
      "name": "getUser",
      "outputs": [
        {
          "components": [
            {
              "internalType": "address",
              "name": "userAddress",
              "type": "address"
            },
            {
              "internalType": "enum DLS.Role",
              "name": "role",
              "type": "uint8"
            },
            {
              "internalType": "address[]",
              "name": "modApprovals",
              "type": "address[]"
            },
            {
              "internalType": "uint256",
              "name": "modApprovalsLeft",
              "type": "uint256"
            },
            {
              "internalType": "address[]",
              "name": "adminApprovals",
              "type": "address[]"
            },
            {
              "internalType": "uint256",
              "name": "adminApprovalsLeft",
              "type": "uint256"
            },
            {
              "internalType": "address[]",
              "name": "removalRequests",
              "type": "address[]"
            },
            {
              "internalType": "uint256",
              "name": "removalRequestsLeft",
              "type": "uint256"
            }
          ],
          "internalType": "struct DLS.UserReturnItem",
          "name": "",
          "type": "tuple"
        }
      ],
      "stateMutability": "view",
      "type": "function"
    },
    {
      "inputs": [],
      "name": "registerNewUser",
      "outputs": [
        {
          "internalType": "bool",
          "name": "",
          "type": "bool"
        }
      ],
      "stateMutability": "nonpayable",
      "type": "function"
    },
    {
      "inputs": [
        {
          "internalType": "uint256",
          "name": "_itemId",
          "type": "uint256"
        }
      ],
      "name": "rejectOwnershipChange",
      "outputs": [],
      "stateMutability": "nonpayable",
      "type": "function"
    },
    {
      "inputs": [
        {
          "internalType": "uint256",
          "name": "_itemId",
          "type": "uint256"
        }
      ],
      "name": "rejectProperty",
      "outputs": [],
      "stateMutability": "nonpayable",
      "type": "function"
    }
  ],
  "bytecode": "0x60806040523480156200001157600080fd5b506200001c6200026d565b33816000019073ffffffffffffffffffffffffffffffffffffffff16908173ffffffffffffffffffffffffffffffffffffffff168152505060018160200190151590811515815250506002816040019060028111156200008157620000806200037e565b5b908160028111156200009857620000976200037e565b5b8152505080600460003373ffffffffffffffffffffffffffffffffffffffff1673ffffffffffffffffffffffffffffffffffffffff16815260200190815260200160002060008201518160000160006101000a81548173ffffffffffffffffffffffffffffffffffffffff021916908373ffffffffffffffffffffffffffffffffffffffff16021790555060208201518160000160146101000a81548160ff02191690831515021790555060408201518160000160156101000a81548160ff021916908360028111156200017157620001706200037e565b5b0217905550606082015181600101908051906020019062000194929190620002d0565b506080820151816002019080519060200190620001b3929190620002d0565b5060a0820151816003019080519060200190620001d2929190620002d0565b509050506003339080600181540180825580915050600190039060005260206000200160009091909190916101000a81548173ffffffffffffffffffffffffffffffffffffffff021916908373ffffffffffffffffffffffffffffffffffffffff1602179055506200025060026200025760201b620049311760201c565b50620003ad565b6001816000016000828254019250508190555050565b6040518060c00160405280600073ffffffffffffffffffffffffffffffffffffffff16815260200160001515815260200160006002811115620002b557620002b46200037e565b5b81526020016060815260200160608152602001606081525090565b8280548282559060005260206000209081019282156200034c579160200282015b828111156200034b5782518260006101000a81548173ffffffffffffffffffffffffffffffffffffffff021916908373ffffffffffffffffffffffffffffffffffffffff16021790555091602001919060010190620002f1565b5b5090506200035b91906200035f565b5090565b5b808211156200037a57600081600090555060010162000360565b5090565b7f4e487b7100000000000000000000000000000000000000000000000000000000600052602160045260246000fd5b61645b80620003bd6000396000f3fe608060405234801561001057600080fd5b50600436106101375760003560e01c80637292633b116100b8578063c33743151161007c578063c33743151461033c578063cbb833761461035a578063d078990d14610378578063d24d6edb14610396578063d50d53ce146103b4578063e9b66f8c146103e457610137565b80637292633b14610296578063832880e7146102b457806391ddb7fc146102d2578063abea39b9146102ee578063b631d8821461030c57610137565b8063371ff727116100ff578063371ff727146101f057806352a4675a146102205780635f9377471461023e5780636445907e1461025a57806367bbabf11461027857610137565b80630a1b10e11461013c5780630d4595611461016c57806311875ea61461019c5780631504671a146101b857806327983fcf146101d4575b600080fd5b61015660048036038101906101519190615139565b610400565b6040516101639190615181565b60405180910390f35b61018660048036038101906101819190615139565b6108f9565b60405161019391906153a8565b60405180910390f35b6101b660048036038101906101b19190615510565b6109c6565b005b6101d260048036038101906101cd9190615585565b610bf3565b005b6101ee60048036038101906101e99190615585565b610d7a565b005b61020a60048036038101906102059190615585565b610efb565b60405161021791906156ef565b60405180910390f35b6102286110ab565b6040516102359190615849565b60405180910390f35b61025860048036038101906102539190615585565b61153c565b005b610262611752565b60405161026f9190615181565b60405180910390f35b610280611b33565b60405161028d91906159d3565b60405180910390f35b61029e61200f565b6040516102ab9190615849565b60405180910390f35b6102bc6124a0565b6040516102c991906153a8565b60405180910390f35b6102ec60048036038101906102e791906159f5565b6124b6565b005b6102f66128e0565b6040516103039190615849565b60405180910390f35b61032660048036038101906103219190615139565b612b56565b6040516103339190615181565b60405180910390f35b61034461304f565b60405161035191906159d3565b60405180910390f35b610362613515565b60405161036f9190615849565b60405180910390f35b6103806139a4565b60405161038d9190615849565b60405180910390f35b61039e613d02565b6040516103ab91906159d3565b60405180910390f35b6103ce60048036038101906103c99190615139565b6141df565b6040516103db9190615181565b60405180910390f35b6103fe60048036038101906103f99190615585565b6147b0565b005b6000600280811115610415576104146151ab565b5b600460003373ffffffffffffffffffffffffffffffffffffffff1673ffffffffffffffffffffffffffffffffffffffff16815260200190815260200160002060000160159054906101000a900460ff166002811115610477576104766151ab565b5b146104b7576040517f08c379a00000000000000000000000000000000000000000000000000000000081526004016104ae90615aae565b60405180910390fd5b600460008373ffffffffffffffffffffffffffffffffffffffff1673ffffffffffffffffffffffffffffffffffffffff16815260200190815260200160002060000160149054906101000a900460ff16610546576040517f08c379a000000000000000000000000000000000000000000000000000000000815260040161053d90615b1a565b60405180910390fd5b6001600281111561055a576105596151ab565b5b600460008473ffffffffffffffffffffffffffffffffffffffff1673ffffffffffffffffffffffffffffffffffffffff16815260200190815260200160002060000160159054906101000a900460ff1660028111156105bc576105bb6151ab565b5b146105fc576040517f08c379a00000000000000000000000000000000000000000000000000000000081526004016105f390615bac565b60405180910390fd5b60006001600261060c6002614947565b6106169190615c2a565b6106209190615c5b565b905060005b600460008573ffffffffffffffffffffffffffffffffffffffff1673ffffffffffffffffffffffffffffffffffffffff1681526020019081526020016000206002018054905081101561073b573373ffffffffffffffffffffffffffffffffffffffff16600460008673ffffffffffffffffffffffffffffffffffffffff1673ffffffffffffffffffffffffffffffffffffffff16815260200190815260200160002060020182815481106106dd576106dc615c8f565b5b9060005260206000200160009054906101000a900473ffffffffffffffffffffffffffffffffffffffff1673ffffffffffffffffffffffffffffffffffffffff160361072857600080fd5b808061073390615cbe565b915050610625565b50600460008473ffffffffffffffffffffffffffffffffffffffff1673ffffffffffffffffffffffffffffffffffffffff168152602001908152602001600020600201339080600181540180825580915050600190039060005260206000200160009091909190916101000a81548173ffffffffffffffffffffffffffffffffffffffff021916908373ffffffffffffffffffffffffffffffffffffffff16021790555080600460008573ffffffffffffffffffffffffffffffffffffffff1673ffffffffffffffffffffffffffffffffffffffff16815260200190815260200160002060020180549050106108ef576002600460008573ffffffffffffffffffffffffffffffffffffffff1673ffffffffffffffffffffffffffffffffffffffff16815260200190815260200160002060000160156101000a81548160ff02191690836002811115610891576108906151ab565b5b0217905550600460008473ffffffffffffffffffffffffffffffffffffffff1673ffffffffffffffffffffffffffffffffffffffff16815260200190815260200160002060030160006108e49190614e85565b6108ee6002614931565b5b6001915050919050565b610901614ea6565b600280811115610914576109136151ab565b5b600460003373ffffffffffffffffffffffffffffffffffffffff1673ffffffffffffffffffffffffffffffffffffffff16815260200190815260200160002060000160159054906101000a900460ff166002811115610976576109756151ab565b5b146109b6576040517f08c379a00000000000000000000000000000000000000000000000000000000081526004016109ad90615aae565b60405180910390fd5b6109bf82614955565b9050919050565b600160028111156109da576109d96151ab565b5b600460003373ffffffffffffffffffffffffffffffffffffffff1673ffffffffffffffffffffffffffffffffffffffff16815260200190815260200160002060000160159054906101000a900460ff166002811115610a3c57610a3b6151ab565b5b14610a7c576040517f08c379a0000000000000000000000000000000000000000000000000000000008152600401610a7390615aae565b60405180910390fd5b610a866000614931565b6000610a926000614947565b90506040518060a0016040528082815260200160006003811115610ab957610ab86151ab565b5b81526020018381526020013373ffffffffffffffffffffffffffffffffffffffff168152602001600073ffffffffffffffffffffffffffffffffffffffff16815250600560008381526020019081526020016000206000820151816000015560208201518160010160006101000a81548160ff02191690836003811115610b4357610b426151ab565b5b02179055506040820151816002019081610b5d9190615f12565b5060608201518160030160006101000a81548173ffffffffffffffffffffffffffffffffffffffff021916908373ffffffffffffffffffffffffffffffffffffffff16021790555060808201518160040160006101000a81548173ffffffffffffffffffffffffffffffffffffffff021916908373ffffffffffffffffffffffffffffffffffffffff1602179055509050505050565b600280811115610c0657610c056151ab565b5b600460003373ffffffffffffffffffffffffffffffffffffffff1673ffffffffffffffffffffffffffffffffffffffff16815260200190815260200160002060000160159054906101000a900460ff166002811115610c6857610c676151ab565b5b14610ca8576040517f08c379a0000000000000000000000000000000000000000000000000000000008152600401610c9f90615aae565b60405180910390fd5b60026005600083815260200190815260200160002060010160006101000a81548160ff02191690836003811115610ce257610ce16151ab565b5b0217905550600660008281526020019081526020016000206000808201600090556001820160006101000a81549060ff0219169055600282016000610d279190614f13565b6003820160006101000a81549073ffffffffffffffffffffffffffffffffffffffff02191690556004820160006101000a81549073ffffffffffffffffffffffffffffffffffffffff0219169055505050565b600280811115610d8d57610d8c6151ab565b5b600460003373ffffffffffffffffffffffffffffffffffffffff1673ffffffffffffffffffffffffffffffffffffffff16815260200190815260200160002060000160159054906101000a900460ff166002811115610def57610dee6151ab565b5b14610e2f576040517f08c379a0000000000000000000000000000000000000000000000000000000008152600401610e2690615aae565b60405180910390fd5b60006003811115610e4357610e426151ab565b5b6005600083815260200190815260200160002060010160009054906101000a900460ff166003811115610e7957610e786151ab565b5b14610eb9576040517f08c379a0000000000000000000000000000000000000000000000000000000008152600401610eb090616056565b60405180910390fd5b60036005600083815260200190815260200160002060010160006101000a81548160ff02191690836003811115610ef357610ef26151ab565b5b021790555050565b610f03614f53565b600560008381526020019081526020016000206040518060a0016040529081600082015481526020016001820160009054906101000a900460ff166003811115610f5057610f4f6151ab565b5b6003811115610f6257610f616151ab565b5b8152602001600282018054610f7690615d35565b80601f0160208091040260200160405190810160405280929190818152602001828054610fa290615d35565b8015610fef5780601f10610fc457610100808354040283529160200191610fef565b820191906000526020600020905b815481529060010190602001808311610fd257829003601f168201915b505050505081526020016003820160009054906101000a900473ffffffffffffffffffffffffffffffffffffffff1673ffffffffffffffffffffffffffffffffffffffff1673ffffffffffffffffffffffffffffffffffffffff1681526020016004820160009054906101000a900473ffffffffffffffffffffffffffffffffffffffff1673ffffffffffffffffffffffffffffffffffffffff1673ffffffffffffffffffffffffffffffffffffffff16815250509050919050565b6060600160028111156110c1576110c06151ab565b5b600460003373ffffffffffffffffffffffffffffffffffffffff1673ffffffffffffffffffffffffffffffffffffffff16815260200190815260200160002060000160159054906101000a900460ff166002811115611123576111226151ab565b5b14806111a1575060028081111561113d5761113c6151ab565b5b600460003373ffffffffffffffffffffffffffffffffffffffff1673ffffffffffffffffffffffffffffffffffffffff16815260200190815260200160002060000160159054906101000a900460ff16600281111561119f5761119e6151ab565b5b145b6111e0576040517f08c379a00000000000000000000000000000000000000000000000000000000081526004016111d790615aae565b60405180910390fd5b60006111ec6000614947565b905060008060005b8381101561127957600160038111156112105761120f6151ab565b5b600560006001846112219190615c5b565b815260200190815260200160002060010160009054906101000a900460ff166003811115611252576112516151ab565b5b0361126657828061126290615cbe565b9350505b808061127190615cbe565b9150506111f4565b5060008267ffffffffffffffff811115611296576112956153e5565b5b6040519080825280602002602001820160405280156112cf57816020015b6112bc614f53565b8152602001906001900390816112b45790505b50905060005b8481101561153157600160038111156112f1576112f06151ab565b5b600560006001846113029190615c5b565b815260200190815260200160002060010160009054906101000a900460ff166003811115611333576113326151ab565b5b0361151e5760006001826113479190615c5b565b90506000600560008381526020019081526020016000209050806040518060a0016040529081600082015481526020016001820160009054906101000a900460ff16600381111561139b5761139a6151ab565b5b60038111156113ad576113ac6151ab565b5b81526020016002820180546113c190615d35565b80601f01602080910402602001604051908101604052809291908181526020018280546113ed90615d35565b801561143a5780601f1061140f5761010080835404028352916020019161143a565b820191906000526020600020905b81548152906001019060200180831161141d57829003601f168201915b505050505081526020016003820160009054906101000a900473ffffffffffffffffffffffffffffffffffffffff1673ffffffffffffffffffffffffffffffffffffffff1673ffffffffffffffffffffffffffffffffffffffff1681526020016004820160009054906101000a900473ffffffffffffffffffffffffffffffffffffffff1673ffffffffffffffffffffffffffffffffffffffff1673ffffffffffffffffffffffffffffffffffffffff168152505084868151811061150257611501615c8f565b5b6020026020010181905250848061151890615cbe565b95505050505b808061152990615cbe565b9150506112d5565b508094505050505090565b60028081111561154f5761154e6151ab565b5b600460003373ffffffffffffffffffffffffffffffffffffffff1673ffffffffffffffffffffffffffffffffffffffff16815260200190815260200160002060000160159054906101000a900460ff1660028111156115b1576115b06151ab565b5b146115f1576040517f08c379a00000000000000000000000000000000000000000000000000000000081526004016115e890615aae565b60405180910390fd5b60026005600083815260200190815260200160002060010160006101000a81548160ff0219169083600381111561162b5761162a6151ab565b5b02179055506006600082815260200190815260200160002060020160056000838152602001908152602001600020600201908161166891906160a1565b5060006005600083815260200190815260200160002060040160006101000a81548173ffffffffffffffffffffffffffffffffffffffff021916908373ffffffffffffffffffffffffffffffffffffffff160217905550600660008281526020019081526020016000206000808201600090556001820160006101000a81549060ff02191690556002820160006116ff9190614f13565b6003820160006101000a81549073ffffffffffffffffffffffffffffffffffffffff02191690556004820160006101000a81549073ffffffffffffffffffffffffffffffffffffffff0219169055505050565b6000600460003373ffffffffffffffffffffffffffffffffffffffff1673ffffffffffffffffffffffffffffffffffffffff16815260200190815260200160002060000160149054906101000a900460ff16156117e4576040517f08c379a00000000000000000000000000000000000000000000000000000000081526004016117db906161d5565b60405180910390fd5b6117ec614fc0565b33816000019073ffffffffffffffffffffffffffffffffffffffff16908173ffffffffffffffffffffffffffffffffffffffff1681525050600181602001901515908115158152505060008160400190600281111561184e5761184d6151ab565b5b90816002811115611862576118616151ab565b5b8152505080600460003373ffffffffffffffffffffffffffffffffffffffff1673ffffffffffffffffffffffffffffffffffffffff16815260200190815260200160002060008201518160000160006101000a81548173ffffffffffffffffffffffffffffffffffffffff021916908373ffffffffffffffffffffffffffffffffffffffff16021790555060208201518160000160146101000a81548160ff02191690831515021790555060408201518160000160156101000a81548160ff02191690836002811115611938576119376151ab565b5b02179055506060820151816001019080519060200190611959929190615020565b506080820151816002019080519060200190611976929190615020565b5060a0820151816003019080519060200190611993929190615020565b509050506003339080600181540180825580915050600190039060005260206000200160009091909190916101000a81548173ffffffffffffffffffffffffffffffffffffffff021916908373ffffffffffffffffffffffffffffffffffffffff16021790555080600460003373ffffffffffffffffffffffffffffffffffffffff1673ffffffffffffffffffffffffffffffffffffffff16815260200190815260200160002060008201518160000160006101000a81548173ffffffffffffffffffffffffffffffffffffffff021916908373ffffffffffffffffffffffffffffffffffffffff16021790555060208201518160000160146101000a81548160ff02191690831515021790555060408201518160000160156101000a81548160ff02191690836002811115611acc57611acb6151ab565b5b02179055506060820151816001019080519060200190611aed929190615020565b506080820151816002019080519060200190611b0a929190615020565b5060a0820151816003019080519060200190611b27929190615020565b50905050600191505090565b6060600280811115611b4857611b476151ab565b5b600460003373ffffffffffffffffffffffffffffffffffffffff1673ffffffffffffffffffffffffffffffffffffffff16815260200190815260200160002060000160159054906101000a900460ff166002811115611baa57611ba96151ab565b5b14611bea576040517f08c379a0000000000000000000000000000000000000000000000000000000008152600401611be190615aae565b60405180910390fd5b60006003805490509050600080611c016002614947565b67ffffffffffffffff811115611c1a57611c196153e5565b5b604051908082528060200260200182016040528015611c5357816020015b611c40614fc0565b815260200190600190039081611c385790505b50905060005b8381101561200557600060038281548110611c7757611c76615c8f565b5b9060005260206000200160009054906101000a900473ffffffffffffffffffffffffffffffffffffffff169050600280811115611cb757611cb66151ab565b5b600460008373ffffffffffffffffffffffffffffffffffffffff1673ffffffffffffffffffffffffffffffffffffffff16815260200190815260200160002060000160159054906101000a900460ff166002811115611d1957611d186151ab565b5b03611ff1576000600460008373ffffffffffffffffffffffffffffffffffffffff1673ffffffffffffffffffffffffffffffffffffffff1681526020019081526020016000209050806040518060c00160405290816000820160009054906101000a900473ffffffffffffffffffffffffffffffffffffffff1673ffffffffffffffffffffffffffffffffffffffff1673ffffffffffffffffffffffffffffffffffffffff1681526020016000820160149054906101000a900460ff161515151581526020016000820160159054906101000a900460ff166002811115611e0357611e026151ab565b5b6002811115611e1557611e146151ab565b5b815260200160018201805480602002602001604051908101604052809291908181526020018280548015611e9e57602002820191906000526020600020905b8160009054906101000a900473ffffffffffffffffffffffffffffffffffffffff1673ffffffffffffffffffffffffffffffffffffffff1681526020019060010190808311611e54575b5050505050815260200160028201805480602002602001604051908101604052809291908181526020018280548015611f2c57602002820191906000526020600020905b8160009054906101000a900473ffffffffffffffffffffffffffffffffffffffff1673ffffffffffffffffffffffffffffffffffffffff1681526020019060010190808311611ee2575b5050505050815260200160038201805480602002602001604051908101604052809291908181526020018280548015611fba57602002820191906000526020600020905b8160009054906101000a900473ffffffffffffffffffffffffffffffffffffffff1673ffffffffffffffffffffffffffffffffffffffff1681526020019060010190808311611f70575b505050505081525050848681518110611fd657611fd5615c8f565b5b60200260200101819052508480611fec90615cbe565b955050505b508080611ffd90615cbe565b915050611c59565b5080935050505090565b606060016002811115612025576120246151ab565b5b600460003373ffffffffffffffffffffffffffffffffffffffff1673ffffffffffffffffffffffffffffffffffffffff16815260200190815260200160002060000160159054906101000a900460ff166002811115612087576120866151ab565b5b148061210557506002808111156120a1576120a06151ab565b5b600460003373ffffffffffffffffffffffffffffffffffffffff1673ffffffffffffffffffffffffffffffffffffffff16815260200190815260200160002060000160159054906101000a900460ff166002811115612103576121026151ab565b5b145b612144576040517f08c379a000000000000000000000000000000000000000000000000000000000815260040161213b90615aae565b60405180910390fd5b60006121506000614947565b905060008060005b838110156121dd5760006003811115612174576121736151ab565b5b600560006001846121859190615c5b565b815260200190815260200160002060010160009054906101000a900460ff1660038111156121b6576121b56151ab565b5b036121ca5782806121c690615cbe565b9350505b80806121d590615cbe565b915050612158565b5060008267ffffffffffffffff8111156121fa576121f96153e5565b5b60405190808252806020026020018201604052801561223357816020015b612220614f53565b8152602001906001900390816122185790505b50905060005b848110156124955760006003811115612255576122546151ab565b5b600560006001846122669190615c5b565b815260200190815260200160002060010160009054906101000a900460ff166003811115612297576122966151ab565b5b036124825760006001826122ab9190615c5b565b90506000600560008381526020019081526020016000209050806040518060a0016040529081600082015481526020016001820160009054906101000a900460ff1660038111156122ff576122fe6151ab565b5b6003811115612311576123106151ab565b5b815260200160028201805461232590615d35565b80601f016020809104026020016040519081016040528092919081815260200182805461235190615d35565b801561239e5780601f106123735761010080835404028352916020019161239e565b820191906000526020600020905b81548152906001019060200180831161238157829003601f168201915b505050505081526020016003820160009054906101000a900473ffffffffffffffffffffffffffffffffffffffff1673ffffffffffffffffffffffffffffffffffffffff1673ffffffffffffffffffffffffffffffffffffffff1681526020016004820160009054906101000a900473ffffffffffffffffffffffffffffffffffffffff1673ffffffffffffffffffffffffffffffffffffffff1673ffffffffffffffffffffffffffffffffffffffff168152505084868151811061246657612465615c8f565b5b6020026020010181905250848061247c90615cbe565b95505050505b808061248d90615cbe565b915050612239565b508094505050505090565b6124a8614ea6565b6124b133614955565b905090565b600160028111156124ca576124c96151ab565b5b600460003373ffffffffffffffffffffffffffffffffffffffff1673ffffffffffffffffffffffffffffffffffffffff16815260200190815260200160002060000160159054906101000a900460ff16600281111561252c5761252b6151ab565b5b1461256c576040517f08c379a000000000000000000000000000000000000000000000000000000000815260040161256390615aae565b60405180910390fd5b600260038111156125805761257f6151ab565b5b6005600084815260200190815260200160002060010160009054906101000a900460ff1660038111156125b6576125b56151ab565b5b146125f6576040517f08c379a00000000000000000000000000000000000000000000000000000000081526004016125ed90616267565b60405180910390fd5b6040518060a001604052808381526020016001600381111561261b5761261a6151ab565b5b815260200160056000858152602001908152602001600020600201805461264190615d35565b80601f016020809104026020016040519081016040528092919081815260200182805461266d90615d35565b80156126ba5780601f1061268f576101008083540402835291602001916126ba565b820191906000526020600020905b81548152906001019060200180831161269d57829003601f168201915b505050505081526020016005600085815260200190815260200160002060030160009054906101000a900473ffffffffffffffffffffffffffffffffffffffff1673ffffffffffffffffffffffffffffffffffffffff1681526020013373ffffffffffffffffffffffffffffffffffffffff16815250600660008481526020019081526020016000206000820151816000015560208201518160010160006101000a81548160ff02191690836003811115612778576127776151ab565b5b021790555060408201518160020190816127929190615f12565b5060608201518160030160006101000a81548173ffffffffffffffffffffffffffffffffffffffff021916908373ffffffffffffffffffffffffffffffffffffffff16021790555060808201518160040160006101000a81548173ffffffffffffffffffffffffffffffffffffffff021916908373ffffffffffffffffffffffffffffffffffffffff16021790555090505060016005600084815260200190815260200160002060010160006101000a81548160ff0219169083600381111561285e5761285d6151ab565b5b0217905550806005600084815260200190815260200160002060020190816128869190615f12565b50336005600084815260200190815260200160002060040160006101000a81548173ffffffffffffffffffffffffffffffffffffffff021916908373ffffffffffffffffffffffffffffffffffffffff1602179055505050565b606060006128ee6000614947565b90506000808267ffffffffffffffff81111561290d5761290c6153e5565b5b60405190808252806020026020018201604052801561294657816020015b612933614f53565b81526020019060019003908161292b5790505b50905060005b83811015612b4c5760006001826129639190615c5b565b90506000600560008381526020019081526020016000209050806040518060a0016040529081600082015481526020016001820160009054906101000a900460ff1660038111156129b7576129b66151ab565b5b60038111156129c9576129c86151ab565b5b81526020016002820180546129dd90615d35565b80601f0160208091040260200160405190810160405280929190818152602001828054612a0990615d35565b8015612a565780601f10612a2b57610100808354040283529160200191612a56565b820191906000526020600020905b815481529060010190602001808311612a3957829003601f168201915b505050505081526020016003820160009054906101000a900473ffffffffffffffffffffffffffffffffffffffff1673ffffffffffffffffffffffffffffffffffffffff1673ffffffffffffffffffffffffffffffffffffffff1681526020016004820160009054906101000a900473ffffffffffffffffffffffffffffffffffffffff1673ffffffffffffffffffffffffffffffffffffffff1673ffffffffffffffffffffffffffffffffffffffff1681525050848681518110612b1e57612b1d615c8f565b5b60200260200101819052508480612b3490615cbe565b95505050508080612b4490615cbe565b91505061294c565b5080935050505090565b6000600280811115612b6b57612b6a6151ab565b5b600460003373ffffffffffffffffffffffffffffffffffffffff1673ffffffffffffffffffffffffffffffffffffffff16815260200190815260200160002060000160159054906101000a900460ff166002811115612bcd57612bcc6151ab565b5b14612c0d576040517f08c379a0000000000000000000000000000000000000000000000000000000008152600401612c0490615aae565b60405180910390fd5b600460008373ffffffffffffffffffffffffffffffffffffffff1673ffffffffffffffffffffffffffffffffffffffff16815260200190815260200160002060000160149054906101000a900460ff16612c9c576040517f08c379a0000000000000000000000000000000000000000000000000000000008152600401612c9390615b1a565b60405180910390fd5b60006002811115612cb057612caf6151ab565b5b600460008473ffffffffffffffffffffffffffffffffffffffff1673ffffffffffffffffffffffffffffffffffffffff16815260200190815260200160002060000160159054906101000a900460ff166002811115612d1257612d116151ab565b5b14612d52576040517f08c379a0000000000000000000000000000000000000000000000000000000008152600401612d49906162f9565b60405180910390fd5b600060016002612d626002614947565b612d6c9190615c2a565b612d769190615c5b565b905060005b600460008573ffffffffffffffffffffffffffffffffffffffff1673ffffffffffffffffffffffffffffffffffffffff16815260200190815260200160002060010180549050811015612e91573373ffffffffffffffffffffffffffffffffffffffff16600460008673ffffffffffffffffffffffffffffffffffffffff1673ffffffffffffffffffffffffffffffffffffffff1681526020019081526020016000206001018281548110612e3357612e32615c8f565b5b9060005260206000200160009054906101000a900473ffffffffffffffffffffffffffffffffffffffff1673ffffffffffffffffffffffffffffffffffffffff1603612e7e57600080fd5b8080612e8990615cbe565b915050612d7b565b50600460008473ffffffffffffffffffffffffffffffffffffffff1673ffffffffffffffffffffffffffffffffffffffff168152602001908152602001600020600101339080600181540180825580915050600190039060005260206000200160009091909190916101000a81548173ffffffffffffffffffffffffffffffffffffffff021916908373ffffffffffffffffffffffffffffffffffffffff16021790555080600460008573ffffffffffffffffffffffffffffffffffffffff1673ffffffffffffffffffffffffffffffffffffffff1681526020019081526020016000206001018054905010613045576001600460008573ffffffffffffffffffffffffffffffffffffffff1673ffffffffffffffffffffffffffffffffffffffff16815260200190815260200160002060000160156101000a81548160ff02191690836002811115612fe757612fe66151ab565b5b0217905550600460008473ffffffffffffffffffffffffffffffffffffffff1673ffffffffffffffffffffffffffffffffffffffff168152602001908152602001600020600301600061303a9190614e85565b6130446001614931565b5b6001915050919050565b606060016002811115613065576130646151ab565b5b600460003373ffffffffffffffffffffffffffffffffffffffff1673ffffffffffffffffffffffffffffffffffffffff16815260200190815260200160002060000160159054906101000a900460ff1660028111156130c7576130c66151ab565b5b148061314557506002808111156130e1576130e06151ab565b5b600460003373ffffffffffffffffffffffffffffffffffffffff1673ffffffffffffffffffffffffffffffffffffffff16815260200190815260200160002060000160159054906101000a900460ff166002811115613143576131426151ab565b5b145b613184576040517f08c379a000000000000000000000000000000000000000000000000000000000815260040161317b90615aae565b60405180910390fd5b6000600380549050905060008167ffffffffffffffff8111156131aa576131a96153e5565b5b6040519080825280602002602001820160405280156131e357816020015b6131d0614fc0565b8152602001906001900390816131c85790505b50905060005b8281101561350c5760006003828154811061320757613206615c8f565b5b9060005260206000200160009054906101000a900473ffffffffffffffffffffffffffffffffffffffff1690506000600460008373ffffffffffffffffffffffffffffffffffffffff1673ffffffffffffffffffffffffffffffffffffffff1681526020019081526020016000209050806040518060c00160405290816000820160009054906101000a900473ffffffffffffffffffffffffffffffffffffffff1673ffffffffffffffffffffffffffffffffffffffff1673ffffffffffffffffffffffffffffffffffffffff1681526020016000820160149054906101000a900460ff161515151581526020016000820160159054906101000a900460ff166002811115613319576133186151ab565b5b600281111561332b5761332a6151ab565b5b8152602001600182018054806020026020016040519081016040528092919081815260200182805480156133b457602002820191906000526020600020905b8160009054906101000a900473ffffffffffffffffffffffffffffffffffffffff1673ffffffffffffffffffffffffffffffffffffffff168152602001906001019080831161336a575b505050505081526020016002820180548060200260200160405190810160405280929190818152602001828054801561344257602002820191906000526020600020905b8160009054906101000a900473ffffffffffffffffffffffffffffffffffffffff1673ffffffffffffffffffffffffffffffffffffffff16815260200190600101908083116133f8575b50505050508152602001600382018054806020026020016040519081016040528092919081815260200182805480156134d057602002820191906000526020600020905b8160009054906101000a900473ffffffffffffffffffffffffffffffffffffffff1673ffffffffffffffffffffffffffffffffffffffff1681526020019060010190808311613486575b5050505050815250508484815181106134ec576134eb615c8f565b5b60200260200101819052505050808061350490615cbe565b9150506131e9565b50809250505090565b60606001600281111561352b5761352a6151ab565b5b600460003373ffffffffffffffffffffffffffffffffffffffff1673ffffffffffffffffffffffffffffffffffffffff16815260200190815260200160002060000160159054906101000a900460ff16600281111561358d5761358c6151ab565b5b148061360b57506002808111156135a7576135a66151ab565b5b600460003373ffffffffffffffffffffffffffffffffffffffff1673ffffffffffffffffffffffffffffffffffffffff16815260200190815260200160002060000160159054906101000a900460ff166002811115613609576136086151ab565b5b145b61364a576040517f08c379a000000000000000000000000000000000000000000000000000000000815260040161364190615aae565b60405180910390fd5b60006136566000614947565b905060008060005b838110156136e257600380811115613679576136786151ab565b5b6005600060018461368a9190615c5b565b815260200190815260200160002060010160009054906101000a900460ff1660038111156136bb576136ba6151ab565b5b036136cf5782806136cb90615cbe565b9350505b80806136da90615cbe565b91505061365e565b5060008267ffffffffffffffff8111156136ff576136fe6153e5565b5b60405190808252806020026020018201604052801561373857816020015b613725614f53565b81526020019060019003908161371d5790505b50905060005b8481101561399957600380811115613759576137586151ab565b5b6005600060018461376a9190615c5b565b815260200190815260200160002060010160009054906101000a900460ff16600381111561379b5761379a6151ab565b5b036139865760006001826137af9190615c5b565b90506000600560008381526020019081526020016000209050806040518060a0016040529081600082015481526020016001820160009054906101000a900460ff166003811115613803576138026151ab565b5b6003811115613815576138146151ab565b5b815260200160028201805461382990615d35565b80601f016020809104026020016040519081016040528092919081815260200182805461385590615d35565b80156138a25780601f10613877576101008083540402835291602001916138a2565b820191906000526020600020905b81548152906001019060200180831161388557829003601f168201915b505050505081526020016003820160009054906101000a900473ffffffffffffffffffffffffffffffffffffffff1673ffffffffffffffffffffffffffffffffffffffff1673ffffffffffffffffffffffffffffffffffffffff1681526020016004820160009054906101000a900473ffffffffffffffffffffffffffffffffffffffff1673ffffffffffffffffffffffffffffffffffffffff1673ffffffffffffffffffffffffffffffffffffffff168152505084868151811061396a57613969615c8f565b5b6020026020010181905250848061398090615cbe565b95505050505b808061399190615cbe565b91505061373e565b508094505050505090565b606060006139b26000614947565b905060008060005b83811015613a3f57600260038111156139d6576139d56151ab565b5b600560006001846139e79190615c5b565b815260200190815260200160002060010160009054906101000a900460ff166003811115613a1857613a176151ab565b5b03613a2c578280613a2890615cbe565b9350505b8080613a3790615cbe565b9150506139ba565b5060008267ffffffffffffffff811115613a5c57613a5b6153e5565b5b604051908082528060200260200182016040528015613a9557816020015b613a82614f53565b815260200190600190039081613a7a5790505b50905060005b84811015613cf75760026003811115613ab757613ab66151ab565b5b60056000600184613ac89190615c5b565b815260200190815260200160002060010160009054906101000a900460ff166003811115613af957613af86151ab565b5b03613ce4576000600182613b0d9190615c5b565b90506000600560008381526020019081526020016000209050806040518060a0016040529081600082015481526020016001820160009054906101000a900460ff166003811115613b6157613b606151ab565b5b6003811115613b7357613b726151ab565b5b8152602001600282018054613b8790615d35565b80601f0160208091040260200160405190810160405280929190818152602001828054613bb390615d35565b8015613c005780601f10613bd557610100808354040283529160200191613c00565b820191906000526020600020905b815481529060010190602001808311613be357829003601f168201915b505050505081526020016003820160009054906101000a900473ffffffffffffffffffffffffffffffffffffffff1673ffffffffffffffffffffffffffffffffffffffff1673ffffffffffffffffffffffffffffffffffffffff1681526020016004820160009054906101000a900473ffffffffffffffffffffffffffffffffffffffff1673ffffffffffffffffffffffffffffffffffffffff1673ffffffffffffffffffffffffffffffffffffffff1681525050848681518110613cc857613cc7615c8f565b5b60200260200101819052508480613cde90615cbe565b95505050505b8080613cef90615cbe565b915050613a9b565b508094505050505090565b6060600280811115613d1757613d166151ab565b5b600460003373ffffffffffffffffffffffffffffffffffffffff1673ffffffffffffffffffffffffffffffffffffffff16815260200190815260200160002060000160159054906101000a900460ff166002811115613d7957613d786151ab565b5b14613db9576040517f08c379a0000000000000000000000000000000000000000000000000000000008152600401613db090615aae565b60405180910390fd5b60006003805490509050600080613dd06001614947565b67ffffffffffffffff811115613de957613de86153e5565b5b604051908082528060200260200182016040528015613e2257816020015b613e0f614fc0565b815260200190600190039081613e075790505b50905060005b838110156141d557600060038281548110613e4657613e45615c8f565b5b9060005260206000200160009054906101000a900473ffffffffffffffffffffffffffffffffffffffff16905060016002811115613e8757613e866151ab565b5b600460008373ffffffffffffffffffffffffffffffffffffffff1673ffffffffffffffffffffffffffffffffffffffff16815260200190815260200160002060000160159054906101000a900460ff166002811115613ee957613ee86151ab565b5b036141c1576000600460008373ffffffffffffffffffffffffffffffffffffffff1673ffffffffffffffffffffffffffffffffffffffff1681526020019081526020016000209050806040518060c00160405290816000820160009054906101000a900473ffffffffffffffffffffffffffffffffffffffff1673ffffffffffffffffffffffffffffffffffffffff1673ffffffffffffffffffffffffffffffffffffffff1681526020016000820160149054906101000a900460ff161515151581526020016000820160159054906101000a900460ff166002811115613fd357613fd26151ab565b5b6002811115613fe557613fe46151ab565b5b81526020016001820180548060200260200160405190810160405280929190818152602001828054801561406e57602002820191906000526020600020905b8160009054906101000a900473ffffffffffffffffffffffffffffffffffffffff1673ffffffffffffffffffffffffffffffffffffffff1681526020019060010190808311614024575b50505050508152602001600282018054806020026020016040519081016040528092919081815260200182805480156140fc57602002820191906000526020600020905b8160009054906101000a900473ffffffffffffffffffffffffffffffffffffffff1673ffffffffffffffffffffffffffffffffffffffff16815260200190600101908083116140b2575b505050505081526020016003820180548060200260200160405190810160405280929190818152602001828054801561418a57602002820191906000526020600020905b8160009054906101000a900473ffffffffffffffffffffffffffffffffffffffff1673ffffffffffffffffffffffffffffffffffffffff1681526020019060010190808311614140575b5050505050815250508486815181106141a6576141a5615c8f565b5b602002602001018190525084806141bc90615cbe565b955050505b5080806141cd90615cbe565b915050613e28565b5080935050505090565b60006002808111156141f4576141f36151ab565b5b600460003373ffffffffffffffffffffffffffffffffffffffff1673ffffffffffffffffffffffffffffffffffffffff16815260200190815260200160002060000160159054906101000a900460ff166002811115614256576142556151ab565b5b14614296576040517f08c379a000000000000000000000000000000000000000000000000000000000815260040161428d90615aae565b60405180910390fd5b600460008373ffffffffffffffffffffffffffffffffffffffff1673ffffffffffffffffffffffffffffffffffffffff16815260200190815260200160002060000160149054906101000a900460ff16614325576040517f08c379a000000000000000000000000000000000000000000000000000000000815260040161431c90615b1a565b60405180910390fd5b60006002811115614339576143386151ab565b5b600460008473ffffffffffffffffffffffffffffffffffffffff1673ffffffffffffffffffffffffffffffffffffffff16815260200190815260200160002060000160159054906101000a900460ff16600281111561439b5761439a6151ab565b5b036143db576040517f08c379a00000000000000000000000000000000000000000000000000000000081526004016143d290616365565b60405180910390fd5b6000600160026143eb6002614947565b6143f59190615c2a565b6143ff9190615c5b565b905060005b600460008573ffffffffffffffffffffffffffffffffffffffff1673ffffffffffffffffffffffffffffffffffffffff1681526020019081526020016000206003018054905081101561451a573373ffffffffffffffffffffffffffffffffffffffff16600460008673ffffffffffffffffffffffffffffffffffffffff1673ffffffffffffffffffffffffffffffffffffffff16815260200190815260200160002060030182815481106144bc576144bb615c8f565b5b9060005260206000200160009054906101000a900473ffffffffffffffffffffffffffffffffffffffff1673ffffffffffffffffffffffffffffffffffffffff160361450757600080fd5b808061451290615cbe565b915050614404565b50600460008473ffffffffffffffffffffffffffffffffffffffff1673ffffffffffffffffffffffffffffffffffffffff168152602001908152602001600020600301339080600181540180825580915050600190039060005260206000200160009091909190916101000a81548173ffffffffffffffffffffffffffffffffffffffff021916908373ffffffffffffffffffffffffffffffffffffffff16021790555080600460008573ffffffffffffffffffffffffffffffffffffffff1673ffffffffffffffffffffffffffffffffffffffff16815260200190815260200160002060030180549050106147a65760028081111561461d5761461c6151ab565b5b600460008573ffffffffffffffffffffffffffffffffffffffff1673ffffffffffffffffffffffffffffffffffffffff16815260200190815260200160002060000160159054906101000a900460ff16600281111561467f5761467e6151ab565b5b036146935761468e6002614e29565b61469e565b61469d6001614e29565b5b6000600460008573ffffffffffffffffffffffffffffffffffffffff1673ffffffffffffffffffffffffffffffffffffffff16815260200190815260200160002060000160156101000a81548160ff02191690836002811115614704576147036151ab565b5b0217905550600460008473ffffffffffffffffffffffffffffffffffffffff1673ffffffffffffffffffffffffffffffffffffffff16815260200190815260200160002060010160006147579190614e85565b600460008473ffffffffffffffffffffffffffffffffffffffff1673ffffffffffffffffffffffffffffffffffffffff16815260200190815260200160002060020160006147a59190614e85565b5b6001915050919050565b6002808111156147c3576147c26151ab565b5b600460003373ffffffffffffffffffffffffffffffffffffffff1673ffffffffffffffffffffffffffffffffffffffff16815260200190815260200160002060000160159054906101000a900460ff166002811115614825576148246151ab565b5b14614865576040517f08c379a000000000000000000000000000000000000000000000000000000000815260040161485c90615aae565b60405180910390fd5b60006003811115614879576148786151ab565b5b6005600083815260200190815260200160002060010160009054906101000a900460ff1660038111156148af576148ae6151ab565b5b146148ef576040517f08c379a00000000000000000000000000000000000000000000000000000000081526004016148e690616056565b60405180910390fd5b60026005600083815260200190815260200160002060010160006101000a81548160ff02191690836003811115614929576149286151ab565b5b021790555050565b6001816000016000828254019250508190555050565b600081600001549050919050565b61495d614ea6565b60006001600261496d6002614947565b6149779190615c2a565b6149819190615c5b565b905061498b614ea6565b600460008573ffffffffffffffffffffffffffffffffffffffff1673ffffffffffffffffffffffffffffffffffffffff16815260200190815260200160002060000160009054906101000a900473ffffffffffffffffffffffffffffffffffffffff16816000019073ffffffffffffffffffffffffffffffffffffffff16908173ffffffffffffffffffffffffffffffffffffffff1681525050600460008573ffffffffffffffffffffffffffffffffffffffff1673ffffffffffffffffffffffffffffffffffffffff16815260200190815260200160002060000160159054906101000a900460ff1681602001906002811115614a8c57614a8b6151ab565b5b90816002811115614aa057614a9f6151ab565b5b81525050600460008573ffffffffffffffffffffffffffffffffffffffff1673ffffffffffffffffffffffffffffffffffffffff168152602001908152602001600020600101805480602002602001604051908101604052809291908181526020018280548015614b6657602002820191906000526020600020905b8160009054906101000a900473ffffffffffffffffffffffffffffffffffffffff1673ffffffffffffffffffffffffffffffffffffffff1681526020019060010190808311614b1c575b50505050508160400181905250600460008573ffffffffffffffffffffffffffffffffffffffff1673ffffffffffffffffffffffffffffffffffffffff1681526020019081526020016000206001018054905082614bc49190616385565b816060018181525050600460008573ffffffffffffffffffffffffffffffffffffffff1673ffffffffffffffffffffffffffffffffffffffff168152602001908152602001600020600201805480602002602001604051908101604052809291908181526020018280548015614c8f57602002820191906000526020600020905b8160009054906101000a900473ffffffffffffffffffffffffffffffffffffffff1673ffffffffffffffffffffffffffffffffffffffff1681526020019060010190808311614c45575b50505050508160800181905250600460008573ffffffffffffffffffffffffffffffffffffffff1673ffffffffffffffffffffffffffffffffffffffff1681526020019081526020016000206002018054905082614ced9190616385565b8160a0018181525050600460008573ffffffffffffffffffffffffffffffffffffffff1673ffffffffffffffffffffffffffffffffffffffff168152602001908152602001600020600301805480602002602001604051908101604052809291908181526020018280548015614db857602002820191906000526020600020905b8160009054906101000a900473ffffffffffffffffffffffffffffffffffffffff1673ffffffffffffffffffffffffffffffffffffffff1681526020019060010190808311614d6e575b50505050508160c00181905250600460008573ffffffffffffffffffffffffffffffffffffffff1673ffffffffffffffffffffffffffffffffffffffff1681526020019081526020016000206003018054905082614e169190616385565b8160e00181815250508092505050919050565b60008160000154905060008111614e75576040517f08c379a0000000000000000000000000000000000000000000000000000000008152600401614e6c90616405565b60405180910390fd5b6001810382600001819055505050565b5080546000825590600052602060002090810190614ea391906150aa565b50565b604051806101000160405280600073ffffffffffffffffffffffffffffffffffffffff16815260200160006002811115614ee357614ee26151ab565b5b81526020016060815260200160008152602001606081526020016000815260200160608152602001600081525090565b508054614f1f90615d35565b6000825580601f10614f315750614f50565b601f016020900490600052602060002090810190614f4f91906150aa565b5b50565b6040518060a001604052806000815260200160006003811115614f7957614f786151ab565b5b815260200160608152602001600073ffffffffffffffffffffffffffffffffffffffff168152602001600073ffffffffffffffffffffffffffffffffffffffff1681525090565b6040518060c00160405280600073ffffffffffffffffffffffffffffffffffffffff16815260200160001515815260200160006002811115615005576150046151ab565b5b81526020016060815260200160608152602001606081525090565b828054828255906000526020600020908101928215615099579160200282015b828111156150985782518260006101000a81548173ffffffffffffffffffffffffffffffffffffffff021916908373ffffffffffffffffffffffffffffffffffffffff16021790555091602001919060010190615040565b5b5090506150a691906150aa565b5090565b5b808211156150c35760008160009055506001016150ab565b5090565b6000604051905090565b600080fd5b600080fd5b600073ffffffffffffffffffffffffffffffffffffffff82169050919050565b6000615106826150db565b9050919050565b615116816150fb565b811461512157600080fd5b50565b6000813590506151338161510d565b92915050565b60006020828403121561514f5761514e6150d1565b5b600061515d84828501615124565b91505092915050565b60008115159050919050565b61517b81615166565b82525050565b60006020820190506151966000830184615172565b92915050565b6151a5816150fb565b82525050565b7f4e487b7100000000000000000000000000000000000000000000000000000000600052602160045260246000fd5b600381106151eb576151ea6151ab565b5b50565b60008190506151fc826151da565b919050565b600061520c826151ee565b9050919050565b61521c81615201565b82525050565b600081519050919050565b600082825260208201905092915050565b6000819050602082019050919050565b600061525a838361519c565b60208301905092915050565b6000602082019050919050565b600061527e82615222565b615288818561522d565b93506152938361523e565b8060005b838110156152c45781516152ab888261524e565b97506152b683615266565b925050600181019050615297565b5085935050505092915050565b6000819050919050565b6152e4816152d1565b82525050565b600061010083016000830151615303600086018261519c565b5060208301516153166020860182615213565b506040830151848203604086015261532e8282615273565b915050606083015161534360608601826152db565b506080830151848203608086015261535b8282615273565b91505060a083015161537060a08601826152db565b5060c083015184820360c08601526153888282615273565b91505060e083015161539d60e08601826152db565b508091505092915050565b600060208201905081810360008301526153c281846152ea565b905092915050565b600080fd5b600080fd5b6000601f19601f8301169050919050565b7f4e487b7100000000000000000000000000000000000000000000000000000000600052604160045260246000fd5b61541d826153d4565b810181811067ffffffffffffffff8211171561543c5761543b6153e5565b5b80604052505050565b600061544f6150c7565b905061545b8282615414565b919050565b600067ffffffffffffffff82111561547b5761547a6153e5565b5b615484826153d4565b9050602081019050919050565b82818337600083830152505050565b60006154b36154ae84615460565b615445565b9050828152602081018484840111156154cf576154ce6153cf565b5b6154da848285615491565b509392505050565b600082601f8301126154f7576154f66153ca565b5b81356155078482602086016154a0565b91505092915050565b600060208284031215615526576155256150d1565b5b600082013567ffffffffffffffff811115615544576155436150d6565b5b615550848285016154e2565b91505092915050565b615562816152d1565b811461556d57600080fd5b50565b60008135905061557f81615559565b92915050565b60006020828403121561559b5761559a6150d1565b5b60006155a984828501615570565b91505092915050565b600481106155c3576155c26151ab565b5b50565b60008190506155d4826155b2565b919050565b60006155e4826155c6565b9050919050565b6155f4816155d9565b82525050565b600081519050919050565b600082825260208201905092915050565b60005b83811015615634578082015181840152602081019050615619565b60008484015250505050565b600061564b826155fa565b6156558185615605565b9350615665818560208601615616565b61566e816153d4565b840191505092915050565b600060a08301600083015161569160008601826152db565b5060208301516156a460208601826155eb565b50604083015184820360408601526156bc8282615640565b91505060608301516156d1606086018261519c565b5060808301516156e4608086018261519c565b508091505092915050565b600060208201905081810360008301526157098184615679565b905092915050565b600081519050919050565b600082825260208201905092915050565b6000819050602082019050919050565b600060a08301600083015161575560008601826152db565b50602083015161576860208601826155eb565b50604083015184820360408601526157808282615640565b9150506060830151615795606086018261519c565b5060808301516157a8608086018261519c565b508091505092915050565b60006157bf838361573d565b905092915050565b6000602082019050919050565b60006157df82615711565b6157e9818561571c565b9350836020820285016157fb8561572d565b8060005b85811015615837578484038952815161581885826157b3565b9450615823836157c7565b925060208a019950506001810190506157ff565b50829750879550505050505092915050565b6000602082019050818103600083015261586381846157d4565b905092915050565b600081519050919050565b600082825260208201905092915050565b6000819050602082019050919050565b6158a081615166565b82525050565b600060c0830160008301516158be600086018261519c565b5060208301516158d16020860182615897565b5060408301516158e46040860182615213565b50606083015184820360608601526158fc8282615273565b915050608083015184820360808601526159168282615273565b91505060a083015184820360a08601526159308282615273565b9150508091505092915050565b600061594983836158a6565b905092915050565b6000602082019050919050565b60006159698261586b565b6159738185615876565b93508360208202850161598585615887565b8060005b858110156159c157848403895281516159a2858261593d565b94506159ad83615951565b925060208a01995050600181019050615989565b50829750879550505050505092915050565b600060208201905081810360008301526159ed818461595e565b905092915050565b60008060408385031215615a0c57615a0b6150d1565b5b6000615a1a85828601615570565b925050602083013567ffffffffffffffff811115615a3b57615a3a6150d6565b5b615a47858286016154e2565b9150509250929050565b600082825260208201905092915050565b7f556e617574686f72697a65642041636365737300000000000000000000000000600082015250565b6000615a98601383615a51565b9150615aa382615a62565b602082019050919050565b60006020820190508181036000830152615ac781615a8b565b9050919050565b7f5573657220646f6573206e6f7420657869737421000000000000000000000000600082015250565b6000615b04601483615a51565b9150615b0f82615ace565b602082019050919050565b60006020820190508181036000830152615b3381615af7565b9050919050565b7f557365722063616e6e6f742062652070726f6d6f74656420746f20616e20416460008201527f6d696e2100000000000000000000000000000000000000000000000000000000602082015250565b6000615b96602483615a51565b9150615ba182615b3a565b604082019050919050565b60006020820190508181036000830152615bc581615b89565b9050919050565b7f4e487b7100000000000000000000000000000000000000000000000000000000600052601260045260246000fd5b7f4e487b7100000000000000000000000000000000000000000000000000000000600052601160045260246000fd5b6000615c35826152d1565b9150615c40836152d1565b925082615c5057615c4f615bcc565b5b828204905092915050565b6000615c66826152d1565b9150615c71836152d1565b9250828201905080821115615c8957615c88615bfb565b5b92915050565b7f4e487b7100000000000000000000000000000000000000000000000000000000600052603260045260246000fd5b6000615cc9826152d1565b91507fffffffffffffffffffffffffffffffffffffffffffffffffffffffffffffffff8203615cfb57615cfa615bfb565b5b600182019050919050565b7f4e487b7100000000000000000000000000000000000000000000000000000000600052602260045260246000fd5b60006002820490506001821680615d4d57607f821691505b602082108103615d6057615d5f615d06565b5b50919050565b60008190508160005260206000209050919050565b60006020601f8301049050919050565b600082821b905092915050565b600060088302615dc87fffffffffffffffffffffffffffffffffffffffffffffffffffffffffffffffff82615d8b565b615dd28683615d8b565b95508019841693508086168417925050509392505050565b6000819050919050565b6000615e0f615e0a615e05846152d1565b615dea565b6152d1565b9050919050565b6000819050919050565b615e2983615df4565b615e3d615e3582615e16565b848454615d98565b825550505050565b600090565b615e52615e45565b615e5d818484615e20565b505050565b5b81811015615e8157615e76600082615e4a565b600181019050615e63565b5050565b601f821115615ec657615e9781615d66565b615ea084615d7b565b81016020851015615eaf578190505b615ec3615ebb85615d7b565b830182615e62565b50505b505050565b600082821c905092915050565b6000615ee960001984600802615ecb565b1980831691505092915050565b6000615f028383615ed8565b9150826002028217905092915050565b615f1b826155fa565b67ffffffffffffffff811115615f3457615f336153e5565b5b615f3e8254615d35565b615f49828285615e85565b600060209050601f831160018114615f7c5760008415615f6a578287015190505b615f748582615ef6565b865550615fdc565b601f198416615f8a86615d66565b60005b82811015615fb257848901518255600182019150602085019450602081019050615f8d565b86831015615fcf5784890151615fcb601f891682615ed8565b8355505b6001600288020188555050505b505050505050565b7f50726f706572747920616c726561647920417070726f766564206f722052656a60008201527f6563746564000000000000000000000000000000000000000000000000000000602082015250565b6000616040602583615a51565b915061604b82615fe4565b604082019050919050565b6000602082019050818103600083015261606f81616033565b9050919050565b60008154905061608581615d35565b9050919050565b60008190508160005260206000209050919050565b8181036160af575050616187565b6160b882616076565b67ffffffffffffffff8111156160d1576160d06153e5565b5b6160db8254615d35565b6160e6828285615e85565b6000601f8311600181146161155760008415616103578287015490505b61610d8582615ef6565b865550616180565b601f1984166161238761608c565b965061612e86615d66565b60005b8281101561615657848901548255600182019150600185019450602081019050616131565b86831015616173578489015461616f601f891682615ed8565b8355505b6001600288020188555050505b5050505050505b565b7f5573657220616c72656164792065786973747321000000000000000000000000600082015250565b60006161bf601483615a51565b91506161ca82616189565b602082019050919050565b600060208201905081810360008301526161ee816161b2565b9050919050565b7f50726f706572747920646f6573206e6f74204578697374206f7220486173204e60008201527f6f74204265656e20417070726f76656400000000000000000000000000000000602082015250565b6000616251603083615a51565b915061625c826161f5565b604082019050919050565b6000602082019050818103600083015261628081616244565b9050919050565b7f557365722063616e6e6f742062652070726f6d6f74656420746f2061204d6f6460008201527f657261746f722100000000000000000000000000000000000000000000000000602082015250565b60006162e3602783615a51565b91506162ee82616287565b604082019050919050565b60006020820190508181036000830152616312816162d6565b9050919050565b7f557365722063616e6e6f742062652064656d6f74656421000000000000000000600082015250565b600061634f601783615a51565b915061635a82616319565b602082019050919050565b6000602082019050818103600083015261637e81616342565b9050919050565b6000616390826152d1565b915061639b836152d1565b92508282039050818111156163b3576163b2615bfb565b5b92915050565b7f436f756e7465723a2064656372656d656e74206f766572666c6f770000000000600082015250565b60006163ef601b83615a51565b91506163fa826163b9565b602082019050919050565b6000602082019050818103600083015261641e816163e2565b905091905056fea2646970667358221220ae23aefe35132d7233a2a5b6fa8cc662980542a1284c033ac7660cd9efc6ba1f64736f6c63430008110033",
  "linkReferences": {},
  "deployedLinkReferences": {}
}