{
  "_format": "hh-sol-artifact-1",
  "contractName": "DLS",
  "sourceName": "contracts/DLS.sol",
  "abi": [
    {
      "inputs": [],
      "stateMutability": "nonpayable",
      "type": "constructor"
    },
    {
      "inputs": [
        {
          "internalType": "address",
          "name": "_newAdmin",
          "type": "address"
        }
      ],
      "name": "addNewAdmin",
      "outputs": [
        {
          "internalType": "bool",
          "name": "",
          "type": "bool"
        }
      ],
      "stateMutability": "nonpayable",
      "type": "function"
    },
    {
      "inputs": [
        {
          "internalType": "address",
          "name": "_newModerator",
          "type": "address"
        }
      ],
      "name": "addNewModerator",
      "outputs": [
        {
          "internalType": "bool",
          "name": "",
          "type": "bool"
        }
      ],
      "stateMutability": "nonpayable",
      "type": "function"
    },
    {
      "inputs": [
        {
          "internalType": "uint256",
          "name": "_itemId",
          "type": "uint256"
        }
      ],
      "name": "approveOwnershipChange",
      "outputs": [],
      "stateMutability": "nonpayable",
      "type": "function"
    },
    {
      "inputs": [
        {
          "internalType": "uint256",
          "name": "_itemId",
          "type": "uint256"
        }
      ],
      "name": "approveProperty",
      "outputs": [],
      "stateMutability": "nonpayable",
      "type": "function"
    },
    {
      "inputs": [
        {
          "internalType": "uint256",
          "name": "_itemId",
          "type": "uint256"
        },
        {
          "internalType": "string",
          "name": "_ipfsHashValue",
          "type": "string"
        }
      ],
      "name": "changeOwnership",
      "outputs": [],
      "stateMutability": "nonpayable",
      "type": "function"
    },
    {
      "inputs": [
        {
          "internalType": "string",
          "name": "_ipfsHashValue",
          "type": "string"
        }
      ],
      "name": "createProperty",
      "outputs": [],
      "stateMutability": "nonpayable",
      "type": "function"
    },
    {
      "inputs": [],
      "name": "fetchAllAdmins",
      "outputs": [
        {
          "components": [
            {
              "internalType": "address",
              "name": "userAddress",
              "type": "address"
            },
            {
              "internalType": "bool",
              "name": "isRegistered",
              "type": "bool"
            },
            {
              "internalType": "enum DLS.Role",
              "name": "role",
              "type": "uint8"
            },
            {
              "internalType": "address[]",
              "name": "modApprovals",
              "type": "address[]"
            },
            {
              "internalType": "address[]",
              "name": "adminApprovals",
              "type": "address[]"
            }
          ],
          "internalType": "struct DLS.UserItem[]",
          "name": "",
          "type": "tuple[]"
        }
      ],
      "stateMutability": "view",
      "type": "function"
    },
    {
      "inputs": [],
      "name": "fetchAllApprovedProperties",
      "outputs": [
        {
          "components": [
            {
              "internalType": "uint256",
              "name": "itemId",
              "type": "uint256"
            },
            {
              "internalType": "enum DLS.Status",
              "name": "status",
              "type": "uint8"
            },
            {
              "internalType": "string",
              "name": "ipfsHash",
              "type": "string"
            }
          ],
          "internalType": "struct DLS.PropertyItem[]",
          "name": "",
          "type": "tuple[]"
        }
      ],
      "stateMutability": "view",
      "type": "function"
    },
    {
      "inputs": [],
      "name": "fetchAllModerators",
      "outputs": [
        {
          "components": [
            {
              "internalType": "address",
              "name": "userAddress",
              "type": "address"
            },
            {
              "internalType": "bool",
              "name": "isRegistered",
              "type": "bool"
            },
            {
              "internalType": "enum DLS.Role",
              "name": "role",
              "type": "uint8"
            },
            {
              "internalType": "address[]",
              "name": "modApprovals",
              "type": "address[]"
            },
            {
              "internalType": "address[]",
              "name": "adminApprovals",
              "type": "address[]"
            }
          ],
          "internalType": "struct DLS.UserItem[]",
          "name": "",
          "type": "tuple[]"
        }
      ],
      "stateMutability": "view",
      "type": "function"
    },
    {
      "inputs": [],
      "name": "fetchAllPendingProperties",
      "outputs": [
        {
          "components": [
            {
              "internalType": "uint256",
              "name": "itemId",
              "type": "uint256"
            },
            {
              "internalType": "enum DLS.Status",
              "name": "status",
              "type": "uint8"
            },
            {
              "internalType": "string",
              "name": "ipfsHash",
              "type": "string"
            }
          ],
          "internalType": "struct DLS.PropertyItem[]",
          "name": "",
          "type": "tuple[]"
        }
      ],
      "stateMutability": "view",
      "type": "function"
    },
    {
      "inputs": [],
      "name": "fetchAllProperties",
      "outputs": [
        {
          "components": [
            {
              "internalType": "uint256",
              "name": "itemId",
              "type": "uint256"
            },
            {
              "internalType": "enum DLS.Status",
              "name": "status",
              "type": "uint8"
            },
            {
              "internalType": "string",
              "name": "ipfsHash",
              "type": "string"
            }
          ],
          "internalType": "struct DLS.PropertyItem[]",
          "name": "",
          "type": "tuple[]"
        }
      ],
      "stateMutability": "view",
      "type": "function"
    },
    {
      "inputs": [],
      "name": "fetchAllRejectedProperties",
      "outputs": [
        {
          "components": [
            {
              "internalType": "uint256",
              "name": "itemId",
              "type": "uint256"
            },
            {
              "internalType": "enum DLS.Status",
              "name": "status",
              "type": "uint8"
            },
            {
              "internalType": "string",
              "name": "ipfsHash",
              "type": "string"
            }
          ],
          "internalType": "struct DLS.PropertyItem[]",
          "name": "",
          "type": "tuple[]"
        }
      ],
      "stateMutability": "view",
      "type": "function"
    },
    {
      "inputs": [],
      "name": "fetchAllUnderReviewProperties",
      "outputs": [
        {
          "components": [
            {
              "internalType": "uint256",
              "name": "itemId",
              "type": "uint256"
            },
            {
              "internalType": "enum DLS.Status",
              "name": "status",
              "type": "uint8"
            },
            {
              "internalType": "string",
              "name": "ipfsHash",
              "type": "string"
            }
          ],
          "internalType": "struct DLS.PropertyItem[]",
          "name": "",
          "type": "tuple[]"
        }
      ],
      "stateMutability": "view",
      "type": "function"
    },
    {
      "inputs": [],
      "name": "fetchAllUsers",
      "outputs": [
        {
          "components": [
            {
              "internalType": "address",
              "name": "userAddress",
              "type": "address"
            },
            {
              "internalType": "bool",
              "name": "isRegistered",
              "type": "bool"
            },
            {
              "internalType": "enum DLS.Role",
              "name": "role",
              "type": "uint8"
            },
            {
              "internalType": "address[]",
              "name": "modApprovals",
              "type": "address[]"
            },
            {
              "internalType": "address[]",
              "name": "adminApprovals",
              "type": "address[]"
            }
          ],
          "internalType": "struct DLS.UserItem[]",
          "name": "",
          "type": "tuple[]"
        }
      ],
      "stateMutability": "view",
      "type": "function"
    },
    {
      "inputs": [
        {
          "internalType": "address",
          "name": "userAddress",
          "type": "address"
        }
      ],
      "name": "fetchSingleUser",
      "outputs": [
        {
          "components": [
            {
              "internalType": "address",
              "name": "userAddress",
              "type": "address"
            },
            {
              "internalType": "enum DLS.Role",
              "name": "role",
              "type": "uint8"
            },
            {
              "internalType": "address[]",
              "name": "modApprovals",
              "type": "address[]"
            },
            {
              "internalType": "uint256",
              "name": "modApprovalsLeft",
              "type": "uint256"
            },
            {
              "internalType": "address[]",
              "name": "adminApprovals",
              "type": "address[]"
            },
            {
              "internalType": "uint256",
              "name": "adminApprovalsLeft",
              "type": "uint256"
            }
          ],
          "internalType": "struct DLS.UserReturnItem",
          "name": "",
          "type": "tuple"
        }
      ],
      "stateMutability": "view",
      "type": "function"
    },
    {
      "inputs": [],
      "name": "getUser",
      "outputs": [
        {
          "components": [
            {
              "internalType": "address",
              "name": "userAddress",
              "type": "address"
            },
            {
              "internalType": "enum DLS.Role",
              "name": "role",
              "type": "uint8"
            },
            {
              "internalType": "address[]",
              "name": "modApprovals",
              "type": "address[]"
            },
            {
              "internalType": "uint256",
              "name": "modApprovalsLeft",
              "type": "uint256"
            },
            {
              "internalType": "address[]",
              "name": "adminApprovals",
              "type": "address[]"
            },
            {
              "internalType": "uint256",
              "name": "adminApprovalsLeft",
              "type": "uint256"
            }
          ],
          "internalType": "struct DLS.UserReturnItem",
          "name": "",
          "type": "tuple"
        }
      ],
      "stateMutability": "view",
      "type": "function"
    },
    {
      "inputs": [],
      "name": "registerNewUser",
      "outputs": [
        {
          "internalType": "bool",
          "name": "",
          "type": "bool"
        }
      ],
      "stateMutability": "nonpayable",
      "type": "function"
    },
    {
      "inputs": [
        {
          "internalType": "uint256",
          "name": "_itemId",
          "type": "uint256"
        }
      ],
      "name": "rejectOwnershipChange",
      "outputs": [],
      "stateMutability": "nonpayable",
      "type": "function"
    },
    {
      "inputs": [
        {
          "internalType": "uint256",
          "name": "_itemId",
          "type": "uint256"
        }
      ],
      "name": "rejectProperty",
      "outputs": [],
      "stateMutability": "nonpayable",
      "type": "function"
    }
  ],
  "bytecode": "0x60806040523480156200001157600080fd5b506200001c6200024e565b33816000019073ffffffffffffffffffffffffffffffffffffffff16908173ffffffffffffffffffffffffffffffffffffffff1681525050600181602001901515908115158152505060028160400190600281111562000081576200008062000358565b5b9081600281111562000098576200009762000358565b5b8152505080600460003373ffffffffffffffffffffffffffffffffffffffff1673ffffffffffffffffffffffffffffffffffffffff16815260200190815260200160002060008201518160000160006101000a81548173ffffffffffffffffffffffffffffffffffffffff021916908373ffffffffffffffffffffffffffffffffffffffff16021790555060208201518160000160146101000a81548160ff02191690831515021790555060408201518160000160156101000a81548160ff0219169083600281111562000171576200017062000358565b5b0217905550606082015181600101908051906020019062000194929190620002aa565b506080820151816002019080519060200190620001b3929190620002aa565b509050506003339080600181540180825580915050600190039060005260206000200160009091909190916101000a81548173ffffffffffffffffffffffffffffffffffffffff021916908373ffffffffffffffffffffffffffffffffffffffff1602179055506200023160026200023860201b62003be71760201c565b5062000387565b6001816000016000828254019250508190555050565b6040518060a00160405280600073ffffffffffffffffffffffffffffffffffffffff1681526020016000151581526020016000600281111562000296576200029562000358565b5b815260200160608152602001606081525090565b82805482825590600052602060002090810192821562000326579160200282015b82811115620003255782518260006101000a81548173ffffffffffffffffffffffffffffffffffffffff021916908373ffffffffffffffffffffffffffffffffffffffff16021790555091602001919060010190620002cb565b5b50905062000335919062000339565b5090565b5b80821115620003545760008160009055506001016200033a565b5090565b7f4e487b7100000000000000000000000000000000000000000000000000000000600052602160045260246000fd5b614f9280620003976000396000f3fe608060405234801561001057600080fd5b50600436106101215760003560e01c80637292633b116100ad578063c337431511610071578063c3374315146102f6578063cbb8337614610314578063d078990d14610332578063d24d6edb14610350578063e9b66f8c1461036e57610121565b80637292633b14610250578063832880e71461026e57806391ddb7fc1461028c578063abea39b9146102a8578063b631d882146102c657610121565b806327983fcf116100f457806327983fcf146101be57806352a4675a146101da5780635f937747146101f85780636445907e1461021457806367bbabf11461023257610121565b80630a1b10e1146101265780630d4595611461015657806311875ea6146101865780631504671a146101a2575b600080fd5b610140600480360381019061013b9190613e4e565b61038a565b60405161014d9190613e96565b60405180910390f35b610170600480360381019061016b9190613e4e565b610835565b60405161017d919061408f565b60405180910390f35b6101a0600480360381019061019b91906141f7565b610c95565b005b6101bc60048036038101906101b7919061426c565b610dfb565b005b6101d860048036038101906101d3919061426c565b610f34565b005b6101e26110b5565b6040516101ef9190614472565b60405180910390f35b610212600480360381019061020d919061426c565b61149a565b005b61021c61160c565b6040516102299190613e96565b60405180910390f35b61023a6119b3565b60405161024791906145e2565b60405180910390f35b610258611e01565b6040516102659190614472565b60405180910390f35b6102766121e6565b604051610283919061408f565b60405180910390f35b6102a660048036038101906102a19190614604565b6121fc565b005b6102b06124d5565b6040516102bd9190614472565b60405180910390f35b6102e060048036038101906102db9190613e4e565b61269f565b6040516102ed9190613e96565b60405180910390f35b6102fe612b4a565b60405161030b91906145e2565b60405180910390f35b61031c612f82565b6040516103299190614472565b60405180910390f35b61033a613365565b6040516103479190614472565b60405180910390f35b610358613617565b60405161036591906145e2565b60405180910390f35b6103886004803603810190610383919061426c565b613a66565b005b600060028081111561039f5761039e613ec0565b5b600460003373ffffffffffffffffffffffffffffffffffffffff1673ffffffffffffffffffffffffffffffffffffffff16815260200190815260200160002060000160159054906101000a900460ff16600281111561040157610400613ec0565b5b14610441576040517f08c379a0000000000000000000000000000000000000000000000000000000008152600401610438906146bd565b60405180910390fd5b600460008373ffffffffffffffffffffffffffffffffffffffff1673ffffffffffffffffffffffffffffffffffffffff16815260200190815260200160002060000160149054906101000a900460ff166104d0576040517f08c379a00000000000000000000000000000000000000000000000000000000081526004016104c790614729565b60405180910390fd5b600160028111156104e4576104e3613ec0565b5b600460008473ffffffffffffffffffffffffffffffffffffffff1673ffffffffffffffffffffffffffffffffffffffff16815260200190815260200160002060000160159054906101000a900460ff16600281111561054657610545613ec0565b5b14610586576040517f08c379a000000000000000000000000000000000000000000000000000000000815260040161057d906147bb565b60405180910390fd5b6000600160026105966002613bfd565b6105a09190614839565b6105aa919061486a565b905060005b600460008573ffffffffffffffffffffffffffffffffffffffff1673ffffffffffffffffffffffffffffffffffffffff168152602001908152602001600020600201805490508110156106c5573373ffffffffffffffffffffffffffffffffffffffff16600460008673ffffffffffffffffffffffffffffffffffffffff1673ffffffffffffffffffffffffffffffffffffffff16815260200190815260200160002060020182815481106106675761066661489e565b5b9060005260206000200160009054906101000a900473ffffffffffffffffffffffffffffffffffffffff1673ffffffffffffffffffffffffffffffffffffffff16036106b257600080fd5b80806106bd906148cd565b9150506105af565b50600460008473ffffffffffffffffffffffffffffffffffffffff1673ffffffffffffffffffffffffffffffffffffffff168152602001908152602001600020600201339080600181540180825580915050600190039060005260206000200160009091909190916101000a81548173ffffffffffffffffffffffffffffffffffffffff021916908373ffffffffffffffffffffffffffffffffffffffff16021790555080600460008573ffffffffffffffffffffffffffffffffffffffff1673ffffffffffffffffffffffffffffffffffffffff168152602001908152602001600020600201805490501061082b576002600460008573ffffffffffffffffffffffffffffffffffffffff1673ffffffffffffffffffffffffffffffffffffffff16815260200190815260200160002060000160156101000a81548160ff0219169083600281111561081b5761081a613ec0565b5b021790555061082a6002613be7565b5b6001915050919050565b61083d613c0b565b6002808111156108505761084f613ec0565b5b600460003373ffffffffffffffffffffffffffffffffffffffff1673ffffffffffffffffffffffffffffffffffffffff16815260200190815260200160002060000160159054906101000a900460ff1660028111156108b2576108b1613ec0565b5b146108f2576040517f08c379a00000000000000000000000000000000000000000000000000000000081526004016108e9906146bd565b60405180910390fd5b6000600160026109026002613bfd565b61090c9190614839565b610916919061486a565b9050610920613c0b565b600460008573ffffffffffffffffffffffffffffffffffffffff1673ffffffffffffffffffffffffffffffffffffffff16815260200190815260200160002060000160009054906101000a900473ffffffffffffffffffffffffffffffffffffffff16816000019073ffffffffffffffffffffffffffffffffffffffff16908173ffffffffffffffffffffffffffffffffffffffff1681525050600460008573ffffffffffffffffffffffffffffffffffffffff1673ffffffffffffffffffffffffffffffffffffffff16815260200190815260200160002060000160159054906101000a900460ff1681602001906002811115610a2157610a20613ec0565b5b90816002811115610a3557610a34613ec0565b5b81525050600460008573ffffffffffffffffffffffffffffffffffffffff1673ffffffffffffffffffffffffffffffffffffffff168152602001908152602001600020600101805480602002602001604051908101604052809291908181526020018280548015610afb57602002820191906000526020600020905b8160009054906101000a900473ffffffffffffffffffffffffffffffffffffffff1673ffffffffffffffffffffffffffffffffffffffff1681526020019060010190808311610ab1575b50505050508160400181905250600460008573ffffffffffffffffffffffffffffffffffffffff1673ffffffffffffffffffffffffffffffffffffffff1681526020019081526020016000206001018054905082610b599190614915565b816060018181525050600460008573ffffffffffffffffffffffffffffffffffffffff1673ffffffffffffffffffffffffffffffffffffffff168152602001908152602001600020600201805480602002602001604051908101604052809291908181526020018280548015610c2457602002820191906000526020600020905b8160009054906101000a900473ffffffffffffffffffffffffffffffffffffffff1673ffffffffffffffffffffffffffffffffffffffff1681526020019060010190808311610bda575b50505050508160800181905250600460008573ffffffffffffffffffffffffffffffffffffffff1673ffffffffffffffffffffffffffffffffffffffff1681526020019081526020016000206002018054905082610c829190614915565b8160a00181815250508092505050919050565b60016002811115610ca957610ca8613ec0565b5b600460003373ffffffffffffffffffffffffffffffffffffffff1673ffffffffffffffffffffffffffffffffffffffff16815260200190815260200160002060000160159054906101000a900460ff166002811115610d0b57610d0a613ec0565b5b14610d4b576040517f08c379a0000000000000000000000000000000000000000000000000000000008152600401610d42906146bd565b60405180910390fd5b610d556000613be7565b6000610d616000613bfd565b9050604051806060016040528082815260200160006003811115610d8857610d87613ec0565b5b815260200183815250600560008381526020019081526020016000206000820151816000015560208201518160010160006101000a81548160ff02191690836003811115610dd957610dd8613ec0565b5b02179055506040820151816002019081610df39190614b55565b509050505050565b600280811115610e0e57610e0d613ec0565b5b600460003373ffffffffffffffffffffffffffffffffffffffff1673ffffffffffffffffffffffffffffffffffffffff16815260200190815260200160002060000160159054906101000a900460ff166002811115610e7057610e6f613ec0565b5b14610eb0576040517f08c379a0000000000000000000000000000000000000000000000000000000008152600401610ea7906146bd565b60405180910390fd5b60026005600083815260200190815260200160002060010160006101000a81548160ff02191690836003811115610eea57610ee9613ec0565b5b0217905550600660008281526020019081526020016000206000808201600090556001820160006101000a81549060ff0219169055600282016000610f2f9190613c69565b505050565b600280811115610f4757610f46613ec0565b5b600460003373ffffffffffffffffffffffffffffffffffffffff1673ffffffffffffffffffffffffffffffffffffffff16815260200190815260200160002060000160159054906101000a900460ff166002811115610fa957610fa8613ec0565b5b14610fe9576040517f08c379a0000000000000000000000000000000000000000000000000000000008152600401610fe0906146bd565b60405180910390fd5b60006003811115610ffd57610ffc613ec0565b5b6005600083815260200190815260200160002060010160009054906101000a900460ff16600381111561103357611032613ec0565b5b14611073576040517f08c379a000000000000000000000000000000000000000000000000000000000815260040161106a90614c99565b60405180910390fd5b60036005600083815260200190815260200160002060010160006101000a81548160ff021916908360038111156110ad576110ac613ec0565b5b021790555050565b6060600160028111156110cb576110ca613ec0565b5b600460003373ffffffffffffffffffffffffffffffffffffffff1673ffffffffffffffffffffffffffffffffffffffff16815260200190815260200160002060000160159054906101000a900460ff16600281111561112d5761112c613ec0565b5b14806111ab575060028081111561114757611146613ec0565b5b600460003373ffffffffffffffffffffffffffffffffffffffff1673ffffffffffffffffffffffffffffffffffffffff16815260200190815260200160002060000160159054906101000a900460ff1660028111156111a9576111a8613ec0565b5b145b6111ea576040517f08c379a00000000000000000000000000000000000000000000000000000000081526004016111e1906146bd565b60405180910390fd5b60006111f66000613bfd565b905060008060005b83811015611283576001600381111561121a57611219613ec0565b5b6005600060018461122b919061486a565b815260200190815260200160002060010160009054906101000a900460ff16600381111561125c5761125b613ec0565b5b0361127057828061126c906148cd565b9350505b808061127b906148cd565b9150506111fe565b5060008267ffffffffffffffff8111156112a05761129f6140cc565b5b6040519080825280602002602001820160405280156112d957816020015b6112c6613ca9565b8152602001906001900390816112be5790505b50905060005b8481101561148f57600160038111156112fb576112fa613ec0565b5b6005600060018461130c919061486a565b815260200190815260200160002060010160009054906101000a900460ff16600381111561133d5761133c613ec0565b5b0361147c576000600182611351919061486a565b9050600060056000838152602001908152602001600020905080604051806060016040529081600082015481526020016001820160009054906101000a900460ff1660038111156113a5576113a4613ec0565b5b60038111156113b7576113b6613ec0565b5b81526020016002820180546113cb90614978565b80601f01602080910402602001604051908101604052809291908181526020018280546113f790614978565b80156114445780601f1061141957610100808354040283529160200191611444565b820191906000526020600020905b81548152906001019060200180831161142757829003601f168201915b5050505050815250508486815181106114605761145f61489e565b5b60200260200101819052508480611476906148cd565b95505050505b8080611487906148cd565b9150506112df565b508094505050505090565b6002808111156114ad576114ac613ec0565b5b600460003373ffffffffffffffffffffffffffffffffffffffff1673ffffffffffffffffffffffffffffffffffffffff16815260200190815260200160002060000160159054906101000a900460ff16600281111561150f5761150e613ec0565b5b1461154f576040517f08c379a0000000000000000000000000000000000000000000000000000000008152600401611546906146bd565b60405180910390fd5b60026005600083815260200190815260200160002060010160006101000a81548160ff0219169083600381111561158957611588613ec0565b5b0217905550600660008281526020019081526020016000206002016005600083815260200190815260200160002060020190816115c69190614ce4565b50600660008281526020019081526020016000206000808201600090556001820160006101000a81549060ff02191690556002820160006116079190613c69565b505050565b6000600460003373ffffffffffffffffffffffffffffffffffffffff1673ffffffffffffffffffffffffffffffffffffffff16815260200190815260200160002060000160149054906101000a900460ff161561169e576040517f08c379a000000000000000000000000000000000000000000000000000000000815260040161169590614e18565b60405180910390fd5b6116a6613cdc565b33816000019073ffffffffffffffffffffffffffffffffffffffff16908173ffffffffffffffffffffffffffffffffffffffff1681525050600181602001901515908115158152505060008160400190600281111561170857611707613ec0565b5b9081600281111561171c5761171b613ec0565b5b8152505080600460003373ffffffffffffffffffffffffffffffffffffffff1673ffffffffffffffffffffffffffffffffffffffff16815260200190815260200160002060008201518160000160006101000a81548173ffffffffffffffffffffffffffffffffffffffff021916908373ffffffffffffffffffffffffffffffffffffffff16021790555060208201518160000160146101000a81548160ff02191690831515021790555060408201518160000160156101000a81548160ff021916908360028111156117f2576117f1613ec0565b5b02179055506060820151816001019080519060200190611813929190613d35565b506080820151816002019080519060200190611830929190613d35565b509050506003339080600181540180825580915050600190039060005260206000200160009091909190916101000a81548173ffffffffffffffffffffffffffffffffffffffff021916908373ffffffffffffffffffffffffffffffffffffffff16021790555080600460003373ffffffffffffffffffffffffffffffffffffffff1673ffffffffffffffffffffffffffffffffffffffff16815260200190815260200160002060008201518160000160006101000a81548173ffffffffffffffffffffffffffffffffffffffff021916908373ffffffffffffffffffffffffffffffffffffffff16021790555060208201518160000160146101000a81548160ff02191690831515021790555060408201518160000160156101000a81548160ff0219169083600281111561196957611968613ec0565b5b0217905550606082015181600101908051906020019061198a929190613d35565b5060808201518160020190805190602001906119a7929190613d35565b50905050600191505090565b60606002808111156119c8576119c7613ec0565b5b600460003373ffffffffffffffffffffffffffffffffffffffff1673ffffffffffffffffffffffffffffffffffffffff16815260200190815260200160002060000160159054906101000a900460ff166002811115611a2a57611a29613ec0565b5b14611a6a576040517f08c379a0000000000000000000000000000000000000000000000000000000008152600401611a61906146bd565b60405180910390fd5b60006003805490509050600080611a816002613bfd565b67ffffffffffffffff811115611a9a57611a996140cc565b5b604051908082528060200260200182016040528015611ad357816020015b611ac0613cdc565b815260200190600190039081611ab85790505b50905060005b83811015611df757600060038281548110611af757611af661489e565b5b9060005260206000200160009054906101000a900473ffffffffffffffffffffffffffffffffffffffff169050600280811115611b3757611b36613ec0565b5b600460008373ffffffffffffffffffffffffffffffffffffffff1673ffffffffffffffffffffffffffffffffffffffff16815260200190815260200160002060000160159054906101000a900460ff166002811115611b9957611b98613ec0565b5b03611de3576000600460008373ffffffffffffffffffffffffffffffffffffffff1673ffffffffffffffffffffffffffffffffffffffff1681526020019081526020016000209050806040518060a00160405290816000820160009054906101000a900473ffffffffffffffffffffffffffffffffffffffff1673ffffffffffffffffffffffffffffffffffffffff1673ffffffffffffffffffffffffffffffffffffffff1681526020016000820160149054906101000a900460ff161515151581526020016000820160159054906101000a900460ff166002811115611c8357611c82613ec0565b5b6002811115611c9557611c94613ec0565b5b815260200160018201805480602002602001604051908101604052809291908181526020018280548015611d1e57602002820191906000526020600020905b8160009054906101000a900473ffffffffffffffffffffffffffffffffffffffff1673ffffffffffffffffffffffffffffffffffffffff1681526020019060010190808311611cd4575b5050505050815260200160028201805480602002602001604051908101604052809291908181526020018280548015611dac57602002820191906000526020600020905b8160009054906101000a900473ffffffffffffffffffffffffffffffffffffffff1673ffffffffffffffffffffffffffffffffffffffff1681526020019060010190808311611d62575b505050505081525050848681518110611dc857611dc761489e565b5b60200260200101819052508480611dde906148cd565b955050505b508080611def906148cd565b915050611ad9565b5080935050505090565b606060016002811115611e1757611e16613ec0565b5b600460003373ffffffffffffffffffffffffffffffffffffffff1673ffffffffffffffffffffffffffffffffffffffff16815260200190815260200160002060000160159054906101000a900460ff166002811115611e7957611e78613ec0565b5b1480611ef75750600280811115611e9357611e92613ec0565b5b600460003373ffffffffffffffffffffffffffffffffffffffff1673ffffffffffffffffffffffffffffffffffffffff16815260200190815260200160002060000160159054906101000a900460ff166002811115611ef557611ef4613ec0565b5b145b611f36576040517f08c379a0000000000000000000000000000000000000000000000000000000008152600401611f2d906146bd565b60405180910390fd5b6000611f426000613bfd565b905060008060005b83811015611fcf5760006003811115611f6657611f65613ec0565b5b60056000600184611f77919061486a565b815260200190815260200160002060010160009054906101000a900460ff166003811115611fa857611fa7613ec0565b5b03611fbc578280611fb8906148cd565b9350505b8080611fc7906148cd565b915050611f4a565b5060008267ffffffffffffffff811115611fec57611feb6140cc565b5b60405190808252806020026020018201604052801561202557816020015b612012613ca9565b81526020019060019003908161200a5790505b50905060005b848110156121db576000600381111561204757612046613ec0565b5b60056000600184612058919061486a565b815260200190815260200160002060010160009054906101000a900460ff16600381111561208957612088613ec0565b5b036121c857600060018261209d919061486a565b9050600060056000838152602001908152602001600020905080604051806060016040529081600082015481526020016001820160009054906101000a900460ff1660038111156120f1576120f0613ec0565b5b600381111561210357612102613ec0565b5b815260200160028201805461211790614978565b80601f016020809104026020016040519081016040528092919081815260200182805461214390614978565b80156121905780601f1061216557610100808354040283529160200191612190565b820191906000526020600020905b81548152906001019060200180831161217357829003601f168201915b5050505050815250508486815181106121ac576121ab61489e565b5b602002602001018190525084806121c2906148cd565b95505050505b80806121d3906148cd565b91505061202b565b508094505050505090565b6121ee613c0b565b6121f733610835565b905090565b600160028111156122105761220f613ec0565b5b600460003373ffffffffffffffffffffffffffffffffffffffff1673ffffffffffffffffffffffffffffffffffffffff16815260200190815260200160002060000160159054906101000a900460ff16600281111561227257612271613ec0565b5b146122b2576040517f08c379a00000000000000000000000000000000000000000000000000000000081526004016122a9906146bd565b60405180910390fd5b600260038111156122c6576122c5613ec0565b5b6005600084815260200190815260200160002060010160009054906101000a900460ff1660038111156122fc576122fb613ec0565b5b1461233c576040517f08c379a000000000000000000000000000000000000000000000000000000000815260040161233390614eaa565b60405180910390fd5b60405180606001604052808381526020016001600381111561236157612360613ec0565b5b815260200160056000858152602001908152602001600020600201805461238790614978565b80601f01602080910402602001604051908101604052809291908181526020018280546123b390614978565b80156124005780601f106123d557610100808354040283529160200191612400565b820191906000526020600020905b8154815290600101906020018083116123e357829003601f168201915b5050505050815250600660008481526020019081526020016000206000820151816000015560208201518160010160006101000a81548160ff021916908360038111156124505761244f613ec0565b5b0217905550604082015181600201908161246a9190614b55565b5090505060016005600084815260200190815260200160002060010160006101000a81548160ff021916908360038111156124a8576124a7613ec0565b5b0217905550806005600084815260200190815260200160002060020190816124d09190614b55565b505050565b606060006124e36000613bfd565b90506000808267ffffffffffffffff811115612502576125016140cc565b5b60405190808252806020026020018201604052801561253b57816020015b612528613ca9565b8152602001906001900390816125205790505b50905060005b83811015612695576000600182612558919061486a565b9050600060056000838152602001908152602001600020905080604051806060016040529081600082015481526020016001820160009054906101000a900460ff1660038111156125ac576125ab613ec0565b5b60038111156125be576125bd613ec0565b5b81526020016002820180546125d290614978565b80601f01602080910402602001604051908101604052809291908181526020018280546125fe90614978565b801561264b5780601f106126205761010080835404028352916020019161264b565b820191906000526020600020905b81548152906001019060200180831161262e57829003601f168201915b5050505050815250508486815181106126675761266661489e565b5b6020026020010181905250848061267d906148cd565b9550505050808061268d906148cd565b915050612541565b5080935050505090565b60006002808111156126b4576126b3613ec0565b5b600460003373ffffffffffffffffffffffffffffffffffffffff1673ffffffffffffffffffffffffffffffffffffffff16815260200190815260200160002060000160159054906101000a900460ff16600281111561271657612715613ec0565b5b14612756576040517f08c379a000000000000000000000000000000000000000000000000000000000815260040161274d906146bd565b60405180910390fd5b600460008373ffffffffffffffffffffffffffffffffffffffff1673ffffffffffffffffffffffffffffffffffffffff16815260200190815260200160002060000160149054906101000a900460ff166127e5576040517f08c379a00000000000000000000000000000000000000000000000000000000081526004016127dc90614729565b60405180910390fd5b600060028111156127f9576127f8613ec0565b5b600460008473ffffffffffffffffffffffffffffffffffffffff1673ffffffffffffffffffffffffffffffffffffffff16815260200190815260200160002060000160159054906101000a900460ff16600281111561285b5761285a613ec0565b5b1461289b576040517f08c379a000000000000000000000000000000000000000000000000000000000815260040161289290614f3c565b60405180910390fd5b6000600160026128ab6002613bfd565b6128b59190614839565b6128bf919061486a565b905060005b600460008573ffffffffffffffffffffffffffffffffffffffff1673ffffffffffffffffffffffffffffffffffffffff168152602001908152602001600020600101805490508110156129da573373ffffffffffffffffffffffffffffffffffffffff16600460008673ffffffffffffffffffffffffffffffffffffffff1673ffffffffffffffffffffffffffffffffffffffff168152602001908152602001600020600101828154811061297c5761297b61489e565b5b9060005260206000200160009054906101000a900473ffffffffffffffffffffffffffffffffffffffff1673ffffffffffffffffffffffffffffffffffffffff16036129c757600080fd5b80806129d2906148cd565b9150506128c4565b50600460008473ffffffffffffffffffffffffffffffffffffffff1673ffffffffffffffffffffffffffffffffffffffff168152602001908152602001600020600101339080600181540180825580915050600190039060005260206000200160009091909190916101000a81548173ffffffffffffffffffffffffffffffffffffffff021916908373ffffffffffffffffffffffffffffffffffffffff16021790555080600460008573ffffffffffffffffffffffffffffffffffffffff1673ffffffffffffffffffffffffffffffffffffffff1681526020019081526020016000206001018054905010612b40576001600460008573ffffffffffffffffffffffffffffffffffffffff1673ffffffffffffffffffffffffffffffffffffffff16815260200190815260200160002060000160156101000a81548160ff02191690836002811115612b3057612b2f613ec0565b5b0217905550612b3f6001613be7565b5b6001915050919050565b606060016002811115612b6057612b5f613ec0565b5b600460003373ffffffffffffffffffffffffffffffffffffffff1673ffffffffffffffffffffffffffffffffffffffff16815260200190815260200160002060000160159054906101000a900460ff166002811115612bc257612bc1613ec0565b5b1480612c405750600280811115612bdc57612bdb613ec0565b5b600460003373ffffffffffffffffffffffffffffffffffffffff1673ffffffffffffffffffffffffffffffffffffffff16815260200190815260200160002060000160159054906101000a900460ff166002811115612c3e57612c3d613ec0565b5b145b612c7f576040517f08c379a0000000000000000000000000000000000000000000000000000000008152600401612c76906146bd565b60405180910390fd5b6000600380549050905060008167ffffffffffffffff811115612ca557612ca46140cc565b5b604051908082528060200260200182016040528015612cde57816020015b612ccb613cdc565b815260200190600190039081612cc35790505b50905060005b82811015612f7957600060038281548110612d0257612d0161489e565b5b9060005260206000200160009054906101000a900473ffffffffffffffffffffffffffffffffffffffff1690506000600460008373ffffffffffffffffffffffffffffffffffffffff1673ffffffffffffffffffffffffffffffffffffffff1681526020019081526020016000209050806040518060a00160405290816000820160009054906101000a900473ffffffffffffffffffffffffffffffffffffffff1673ffffffffffffffffffffffffffffffffffffffff1673ffffffffffffffffffffffffffffffffffffffff1681526020016000820160149054906101000a900460ff161515151581526020016000820160159054906101000a900460ff166002811115612e1457612e13613ec0565b5b6002811115612e2657612e25613ec0565b5b815260200160018201805480602002602001604051908101604052809291908181526020018280548015612eaf57602002820191906000526020600020905b8160009054906101000a900473ffffffffffffffffffffffffffffffffffffffff1673ffffffffffffffffffffffffffffffffffffffff1681526020019060010190808311612e65575b5050505050815260200160028201805480602002602001604051908101604052809291908181526020018280548015612f3d57602002820191906000526020600020905b8160009054906101000a900473ffffffffffffffffffffffffffffffffffffffff1673ffffffffffffffffffffffffffffffffffffffff1681526020019060010190808311612ef3575b505050505081525050848481518110612f5957612f5861489e565b5b602002602001018190525050508080612f71906148cd565b915050612ce4565b50809250505090565b606060016002811115612f9857612f97613ec0565b5b600460003373ffffffffffffffffffffffffffffffffffffffff1673ffffffffffffffffffffffffffffffffffffffff16815260200190815260200160002060000160159054906101000a900460ff166002811115612ffa57612ff9613ec0565b5b1480613078575060028081111561301457613013613ec0565b5b600460003373ffffffffffffffffffffffffffffffffffffffff1673ffffffffffffffffffffffffffffffffffffffff16815260200190815260200160002060000160159054906101000a900460ff16600281111561307657613075613ec0565b5b145b6130b7576040517f08c379a00000000000000000000000000000000000000000000000000000000081526004016130ae906146bd565b60405180910390fd5b60006130c36000613bfd565b905060008060005b8381101561314f576003808111156130e6576130e5613ec0565b5b600560006001846130f7919061486a565b815260200190815260200160002060010160009054906101000a900460ff16600381111561312857613127613ec0565b5b0361313c578280613138906148cd565b9350505b8080613147906148cd565b9150506130cb565b5060008267ffffffffffffffff81111561316c5761316b6140cc565b5b6040519080825280602002602001820160405280156131a557816020015b613192613ca9565b81526020019060019003908161318a5790505b50905060005b8481101561335a576003808111156131c6576131c5613ec0565b5b600560006001846131d7919061486a565b815260200190815260200160002060010160009054906101000a900460ff16600381111561320857613207613ec0565b5b0361334757600060018261321c919061486a565b9050600060056000838152602001908152602001600020905080604051806060016040529081600082015481526020016001820160009054906101000a900460ff1660038111156132705761326f613ec0565b5b600381111561328257613281613ec0565b5b815260200160028201805461329690614978565b80601f01602080910402602001604051908101604052809291908181526020018280546132c290614978565b801561330f5780601f106132e45761010080835404028352916020019161330f565b820191906000526020600020905b8154815290600101906020018083116132f257829003601f168201915b50505050508152505084868151811061332b5761332a61489e565b5b60200260200101819052508480613341906148cd565b95505050505b8080613352906148cd565b9150506131ab565b508094505050505090565b606060006133736000613bfd565b905060008060005b83811015613400576002600381111561339757613396613ec0565b5b600560006001846133a8919061486a565b815260200190815260200160002060010160009054906101000a900460ff1660038111156133d9576133d8613ec0565b5b036133ed5782806133e9906148cd565b9350505b80806133f8906148cd565b91505061337b565b5060008267ffffffffffffffff81111561341d5761341c6140cc565b5b60405190808252806020026020018201604052801561345657816020015b613443613ca9565b81526020019060019003908161343b5790505b50905060005b8481101561360c576002600381111561347857613477613ec0565b5b60056000600184613489919061486a565b815260200190815260200160002060010160009054906101000a900460ff1660038111156134ba576134b9613ec0565b5b036135f95760006001826134ce919061486a565b9050600060056000838152602001908152602001600020905080604051806060016040529081600082015481526020016001820160009054906101000a900460ff16600381111561352257613521613ec0565b5b600381111561353457613533613ec0565b5b815260200160028201805461354890614978565b80601f016020809104026020016040519081016040528092919081815260200182805461357490614978565b80156135c15780601f10613596576101008083540402835291602001916135c1565b820191906000526020600020905b8154815290600101906020018083116135a457829003601f168201915b5050505050815250508486815181106135dd576135dc61489e565b5b602002602001018190525084806135f3906148cd565b95505050505b8080613604906148cd565b91505061345c565b508094505050505090565b606060028081111561362c5761362b613ec0565b5b600460003373ffffffffffffffffffffffffffffffffffffffff1673ffffffffffffffffffffffffffffffffffffffff16815260200190815260200160002060000160159054906101000a900460ff16600281111561368e5761368d613ec0565b5b146136ce576040517f08c379a00000000000000000000000000000000000000000000000000000000081526004016136c5906146bd565b60405180910390fd5b600060038054905090506000806136e56001613bfd565b67ffffffffffffffff8111156136fe576136fd6140cc565b5b60405190808252806020026020018201604052801561373757816020015b613724613cdc565b81526020019060019003908161371c5790505b50905060005b83811015613a5c5760006003828154811061375b5761375a61489e565b5b9060005260206000200160009054906101000a900473ffffffffffffffffffffffffffffffffffffffff1690506001600281111561379c5761379b613ec0565b5b600460008373ffffffffffffffffffffffffffffffffffffffff1673ffffffffffffffffffffffffffffffffffffffff16815260200190815260200160002060000160159054906101000a900460ff1660028111156137fe576137fd613ec0565b5b03613a48576000600460008373ffffffffffffffffffffffffffffffffffffffff1673ffffffffffffffffffffffffffffffffffffffff1681526020019081526020016000209050806040518060a00160405290816000820160009054906101000a900473ffffffffffffffffffffffffffffffffffffffff1673ffffffffffffffffffffffffffffffffffffffff1673ffffffffffffffffffffffffffffffffffffffff1681526020016000820160149054906101000a900460ff161515151581526020016000820160159054906101000a900460ff1660028111156138e8576138e7613ec0565b5b60028111156138fa576138f9613ec0565b5b81526020016001820180548060200260200160405190810160405280929190818152602001828054801561398357602002820191906000526020600020905b8160009054906101000a900473ffffffffffffffffffffffffffffffffffffffff1673ffffffffffffffffffffffffffffffffffffffff1681526020019060010190808311613939575b5050505050815260200160028201805480602002602001604051908101604052809291908181526020018280548015613a1157602002820191906000526020600020905b8160009054906101000a900473ffffffffffffffffffffffffffffffffffffffff1673ffffffffffffffffffffffffffffffffffffffff16815260200190600101908083116139c7575b505050505081525050848681518110613a2d57613a2c61489e565b5b60200260200101819052508480613a43906148cd565b955050505b508080613a54906148cd565b91505061373d565b5080935050505090565b600280811115613a7957613a78613ec0565b5b600460003373ffffffffffffffffffffffffffffffffffffffff1673ffffffffffffffffffffffffffffffffffffffff16815260200190815260200160002060000160159054906101000a900460ff166002811115613adb57613ada613ec0565b5b14613b1b576040517f08c379a0000000000000000000000000000000000000000000000000000000008152600401613b12906146bd565b60405180910390fd5b60006003811115613b2f57613b2e613ec0565b5b6005600083815260200190815260200160002060010160009054906101000a900460ff166003811115613b6557613b64613ec0565b5b14613ba5576040517f08c379a0000000000000000000000000000000000000000000000000000000008152600401613b9c90614c99565b60405180910390fd5b60026005600083815260200190815260200160002060010160006101000a81548160ff02191690836003811115613bdf57613bde613ec0565b5b021790555050565b6001816000016000828254019250508190555050565b600081600001549050919050565b6040518060c00160405280600073ffffffffffffffffffffffffffffffffffffffff16815260200160006002811115613c4757613c46613ec0565b5b8152602001606081526020016000815260200160608152602001600081525090565b508054613c7590614978565b6000825580601f10613c875750613ca6565b601f016020900490600052602060002090810190613ca59190613dbf565b5b50565b60405180606001604052806000815260200160006003811115613ccf57613cce613ec0565b5b8152602001606081525090565b6040518060a00160405280600073ffffffffffffffffffffffffffffffffffffffff16815260200160001515815260200160006002811115613d2157613d20613ec0565b5b815260200160608152602001606081525090565b828054828255906000526020600020908101928215613dae579160200282015b82811115613dad5782518260006101000a81548173ffffffffffffffffffffffffffffffffffffffff021916908373ffffffffffffffffffffffffffffffffffffffff16021790555091602001919060010190613d55565b5b509050613dbb9190613dbf565b5090565b5b80821115613dd8576000816000905550600101613dc0565b5090565b6000604051905090565b600080fd5b600080fd5b600073ffffffffffffffffffffffffffffffffffffffff82169050919050565b6000613e1b82613df0565b9050919050565b613e2b81613e10565b8114613e3657600080fd5b50565b600081359050613e4881613e22565b92915050565b600060208284031215613e6457613e63613de6565b5b6000613e7284828501613e39565b91505092915050565b60008115159050919050565b613e9081613e7b565b82525050565b6000602082019050613eab6000830184613e87565b92915050565b613eba81613e10565b82525050565b7f4e487b7100000000000000000000000000000000000000000000000000000000600052602160045260246000fd5b60038110613f0057613eff613ec0565b5b50565b6000819050613f1182613eef565b919050565b6000613f2182613f03565b9050919050565b613f3181613f16565b82525050565b600081519050919050565b600082825260208201905092915050565b6000819050602082019050919050565b6000613f6f8383613eb1565b60208301905092915050565b6000602082019050919050565b6000613f9382613f37565b613f9d8185613f42565b9350613fa883613f53565b8060005b83811015613fd9578151613fc08882613f63565b9750613fcb83613f7b565b925050600181019050613fac565b5085935050505092915050565b6000819050919050565b613ff981613fe6565b82525050565b600060c0830160008301516140176000860182613eb1565b50602083015161402a6020860182613f28565b50604083015184820360408601526140428282613f88565b91505060608301516140576060860182613ff0565b506080830151848203608086015261406f8282613f88565b91505060a083015161408460a0860182613ff0565b508091505092915050565b600060208201905081810360008301526140a98184613fff565b905092915050565b600080fd5b600080fd5b6000601f19601f8301169050919050565b7f4e487b7100000000000000000000000000000000000000000000000000000000600052604160045260246000fd5b614104826140bb565b810181811067ffffffffffffffff82111715614123576141226140cc565b5b80604052505050565b6000614136613ddc565b905061414282826140fb565b919050565b600067ffffffffffffffff821115614162576141616140cc565b5b61416b826140bb565b9050602081019050919050565b82818337600083830152505050565b600061419a61419584614147565b61412c565b9050828152602081018484840111156141b6576141b56140b6565b5b6141c1848285614178565b509392505050565b600082601f8301126141de576141dd6140b1565b5b81356141ee848260208601614187565b91505092915050565b60006020828403121561420d5761420c613de6565b5b600082013567ffffffffffffffff81111561422b5761422a613deb565b5b614237848285016141c9565b91505092915050565b61424981613fe6565b811461425457600080fd5b50565b60008135905061426681614240565b92915050565b60006020828403121561428257614281613de6565b5b600061429084828501614257565b91505092915050565b600081519050919050565b600082825260208201905092915050565b6000819050602082019050919050565b600481106142d6576142d5613ec0565b5b50565b60008190506142e7826142c5565b919050565b60006142f7826142d9565b9050919050565b614307816142ec565b82525050565b600081519050919050565b600082825260208201905092915050565b60005b8381101561434757808201518184015260208101905061432c565b60008484015250505050565b600061435e8261430d565b6143688185614318565b9350614378818560208601614329565b614381816140bb565b840191505092915050565b60006060830160008301516143a46000860182613ff0565b5060208301516143b760208601826142fe565b50604083015184820360408601526143cf8282614353565b9150508091505092915050565b60006143e8838361438c565b905092915050565b6000602082019050919050565b600061440882614299565b61441281856142a4565b935083602082028501614424856142b5565b8060005b85811015614460578484038952815161444185826143dc565b945061444c836143f0565b925060208a01995050600181019050614428565b50829750879550505050505092915050565b6000602082019050818103600083015261448c81846143fd565b905092915050565b600081519050919050565b600082825260208201905092915050565b6000819050602082019050919050565b6144c981613e7b565b82525050565b600060a0830160008301516144e76000860182613eb1565b5060208301516144fa60208601826144c0565b50604083015161450d6040860182613f28565b50606083015184820360608601526145258282613f88565b9150506080830151848203608086015261453f8282613f88565b9150508091505092915050565b600061455883836144cf565b905092915050565b6000602082019050919050565b600061457882614494565b614582818561449f565b935083602082028501614594856144b0565b8060005b858110156145d057848403895281516145b1858261454c565b94506145bc83614560565b925060208a01995050600181019050614598565b50829750879550505050505092915050565b600060208201905081810360008301526145fc818461456d565b905092915050565b6000806040838503121561461b5761461a613de6565b5b600061462985828601614257565b925050602083013567ffffffffffffffff81111561464a57614649613deb565b5b614656858286016141c9565b9150509250929050565b600082825260208201905092915050565b7f556e617574686f72697a65642041636365737300000000000000000000000000600082015250565b60006146a7601383614660565b91506146b282614671565b602082019050919050565b600060208201905081810360008301526146d68161469a565b9050919050565b7f5573657220646f6573206e6f7420657869737421000000000000000000000000600082015250565b6000614713601483614660565b915061471e826146dd565b602082019050919050565b6000602082019050818103600083015261474281614706565b9050919050565b7f557365722063616e6e6f742062652070726f6d6f74656420746f20616e20416460008201527f6d696e2100000000000000000000000000000000000000000000000000000000602082015250565b60006147a5602483614660565b91506147b082614749565b604082019050919050565b600060208201905081810360008301526147d481614798565b9050919050565b7f4e487b7100000000000000000000000000000000000000000000000000000000600052601260045260246000fd5b7f4e487b7100000000000000000000000000000000000000000000000000000000600052601160045260246000fd5b600061484482613fe6565b915061484f83613fe6565b92508261485f5761485e6147db565b5b828204905092915050565b600061487582613fe6565b915061488083613fe6565b92508282019050808211156148985761489761480a565b5b92915050565b7f4e487b7100000000000000000000000000000000000000000000000000000000600052603260045260246000fd5b60006148d882613fe6565b91507fffffffffffffffffffffffffffffffffffffffffffffffffffffffffffffffff820361490a5761490961480a565b5b600182019050919050565b600061492082613fe6565b915061492b83613fe6565b92508282039050818111156149435761494261480a565b5b92915050565b7f4e487b7100000000000000000000000000000000000000000000000000000000600052602260045260246000fd5b6000600282049050600182168061499057607f821691505b6020821081036149a3576149a2614949565b5b50919050565b60008190508160005260206000209050919050565b60006020601f8301049050919050565b600082821b905092915050565b600060088302614a0b7fffffffffffffffffffffffffffffffffffffffffffffffffffffffffffffffff826149ce565b614a1586836149ce565b95508019841693508086168417925050509392505050565b6000819050919050565b6000614a52614a4d614a4884613fe6565b614a2d565b613fe6565b9050919050565b6000819050919050565b614a6c83614a37565b614a80614a7882614a59565b8484546149db565b825550505050565b600090565b614a95614a88565b614aa0818484614a63565b505050565b5b81811015614ac457614ab9600082614a8d565b600181019050614aa6565b5050565b601f821115614b0957614ada816149a9565b614ae3846149be565b81016020851015614af2578190505b614b06614afe856149be565b830182614aa5565b50505b505050565b600082821c905092915050565b6000614b2c60001984600802614b0e565b1980831691505092915050565b6000614b458383614b1b565b9150826002028217905092915050565b614b5e8261430d565b67ffffffffffffffff811115614b7757614b766140cc565b5b614b818254614978565b614b8c828285614ac8565b600060209050601f831160018114614bbf5760008415614bad578287015190505b614bb78582614b39565b865550614c1f565b601f198416614bcd866149a9565b60005b82811015614bf557848901518255600182019150602085019450602081019050614bd0565b86831015614c125784890151614c0e601f891682614b1b565b8355505b6001600288020188555050505b505050505050565b7f50726f706572747920616c726561647920417070726f766564206f722052656a60008201527f6563746564000000000000000000000000000000000000000000000000000000602082015250565b6000614c83602583614660565b9150614c8e82614c27565b604082019050919050565b60006020820190508181036000830152614cb281614c76565b9050919050565b600081549050614cc881614978565b9050919050565b60008190508160005260206000209050919050565b818103614cf2575050614dca565b614cfb82614cb9565b67ffffffffffffffff811115614d1457614d136140cc565b5b614d1e8254614978565b614d29828285614ac8565b6000601f831160018114614d585760008415614d46578287015490505b614d508582614b39565b865550614dc3565b601f198416614d6687614ccf565b9650614d71866149a9565b60005b82811015614d9957848901548255600182019150600185019450602081019050614d74565b86831015614db65784890154614db2601f891682614b1b565b8355505b6001600288020188555050505b5050505050505b565b7f5573657220616c72656164792065786973747321000000000000000000000000600082015250565b6000614e02601483614660565b9150614e0d82614dcc565b602082019050919050565b60006020820190508181036000830152614e3181614df5565b9050919050565b7f50726f706572747920646f6573206e6f74204578697374206f7220486173204e60008201527f6f74204265656e20417070726f76656400000000000000000000000000000000602082015250565b6000614e94603083614660565b9150614e9f82614e38565b604082019050919050565b60006020820190508181036000830152614ec381614e87565b9050919050565b7f557365722063616e6e6f742062652070726f6d6f74656420746f2061204d6f6460008201527f657261746f722100000000000000000000000000000000000000000000000000602082015250565b6000614f26602783614660565b9150614f3182614eca565b604082019050919050565b60006020820190508181036000830152614f5581614f19565b905091905056fea26469706673582212203cba803323c75702c3a3713505bf5c279dfa935f1ee7dde1cff6b2265054296864736f6c63430008110033",
  "linkReferences": {},
  "deployedLinkReferences": {}
}