{
  "_format": "hh-sol-artifact-1",
  "contractName": "DLS",
  "sourceName": "contracts/DLS.sol",
  "abi": [
    {
      "inputs": [],
      "stateMutability": "nonpayable",
      "type": "constructor"
    },
    {
      "inputs": [
        {
          "internalType": "address",
          "name": "_newAdmin",
          "type": "address"
        }
      ],
      "name": "addNewAdmin",
      "outputs": [
        {
          "internalType": "bool",
          "name": "",
          "type": "bool"
        }
      ],
      "stateMutability": "nonpayable",
      "type": "function"
    },
    {
      "inputs": [
        {
          "internalType": "address",
          "name": "_newModerator",
          "type": "address"
        }
      ],
      "name": "addNewModerator",
      "outputs": [
        {
          "internalType": "bool",
          "name": "",
          "type": "bool"
        }
      ],
      "stateMutability": "nonpayable",
      "type": "function"
    },
    {
      "inputs": [
        {
          "internalType": "uint256",
          "name": "_itemId",
          "type": "uint256"
        }
      ],
      "name": "approveOwnershipChange",
      "outputs": [],
      "stateMutability": "nonpayable",
      "type": "function"
    },
    {
      "inputs": [
        {
          "internalType": "uint256",
          "name": "_itemId",
          "type": "uint256"
        }
      ],
      "name": "approveProperty",
      "outputs": [],
      "stateMutability": "nonpayable",
      "type": "function"
    },
    {
      "inputs": [
        {
          "internalType": "uint256",
          "name": "_itemId",
          "type": "uint256"
        },
        {
          "internalType": "string",
          "name": "_ipfsHashValue",
          "type": "string"
        }
      ],
      "name": "changeOwnership",
      "outputs": [],
      "stateMutability": "nonpayable",
      "type": "function"
    },
    {
      "inputs": [
        {
          "internalType": "string",
          "name": "_ipfsHashValue",
          "type": "string"
        }
      ],
      "name": "createProperty",
      "outputs": [],
      "stateMutability": "nonpayable",
      "type": "function"
    },
    {
      "inputs": [
        {
          "internalType": "address",
          "name": "_userAddress",
          "type": "address"
        }
      ],
      "name": "demoteUser",
      "outputs": [
        {
          "internalType": "bool",
          "name": "",
          "type": "bool"
        }
      ],
      "stateMutability": "nonpayable",
      "type": "function"
    },
    {
      "inputs": [],
      "name": "fetchAllAdmins",
      "outputs": [
        {
          "components": [
            {
              "internalType": "address",
              "name": "userAddress",
              "type": "address"
            },
            {
              "internalType": "bool",
              "name": "isRegistered",
              "type": "bool"
            },
            {
              "internalType": "enum DLS.Role",
              "name": "role",
              "type": "uint8"
            },
            {
              "internalType": "address[]",
              "name": "modApprovals",
              "type": "address[]"
            },
            {
              "internalType": "address[]",
              "name": "adminApprovals",
              "type": "address[]"
            },
            {
              "internalType": "address[]",
              "name": "removalRequests",
              "type": "address[]"
            }
          ],
          "internalType": "struct DLS.UserItem[]",
          "name": "",
          "type": "tuple[]"
        }
      ],
      "stateMutability": "view",
      "type": "function"
    },
    {
      "inputs": [],
      "name": "fetchAllApprovedProperties",
      "outputs": [
        {
          "components": [
            {
              "internalType": "uint256",
              "name": "itemId",
              "type": "uint256"
            },
            {
              "internalType": "enum DLS.Status",
              "name": "status",
              "type": "uint8"
            },
            {
              "internalType": "string",
              "name": "ipfsHash",
              "type": "string"
            },
            {
              "internalType": "address",
              "name": "addedBy",
              "type": "address"
            },
            {
              "internalType": "address",
              "name": "updatedBy",
              "type": "address"
            },
            {
              "internalType": "string",
              "name": "message",
              "type": "string"
            }
          ],
          "internalType": "struct DLS.PropertyItem[]",
          "name": "",
          "type": "tuple[]"
        }
      ],
      "stateMutability": "view",
      "type": "function"
    },
    {
      "inputs": [],
      "name": "fetchAllModerators",
      "outputs": [
        {
          "components": [
            {
              "internalType": "address",
              "name": "userAddress",
              "type": "address"
            },
            {
              "internalType": "bool",
              "name": "isRegistered",
              "type": "bool"
            },
            {
              "internalType": "enum DLS.Role",
              "name": "role",
              "type": "uint8"
            },
            {
              "internalType": "address[]",
              "name": "modApprovals",
              "type": "address[]"
            },
            {
              "internalType": "address[]",
              "name": "adminApprovals",
              "type": "address[]"
            },
            {
              "internalType": "address[]",
              "name": "removalRequests",
              "type": "address[]"
            }
          ],
          "internalType": "struct DLS.UserItem[]",
          "name": "",
          "type": "tuple[]"
        }
      ],
      "stateMutability": "view",
      "type": "function"
    },
    {
      "inputs": [],
      "name": "fetchAllPendingProperties",
      "outputs": [
        {
          "components": [
            {
              "internalType": "uint256",
              "name": "itemId",
              "type": "uint256"
            },
            {
              "internalType": "enum DLS.Status",
              "name": "status",
              "type": "uint8"
            },
            {
              "internalType": "string",
              "name": "ipfsHash",
              "type": "string"
            },
            {
              "internalType": "address",
              "name": "addedBy",
              "type": "address"
            },
            {
              "internalType": "address",
              "name": "updatedBy",
              "type": "address"
            },
            {
              "internalType": "string",
              "name": "message",
              "type": "string"
            }
          ],
          "internalType": "struct DLS.PropertyItem[]",
          "name": "",
          "type": "tuple[]"
        }
      ],
      "stateMutability": "view",
      "type": "function"
    },
    {
      "inputs": [],
      "name": "fetchAllProperties",
      "outputs": [
        {
          "components": [
            {
              "internalType": "uint256",
              "name": "itemId",
              "type": "uint256"
            },
            {
              "internalType": "enum DLS.Status",
              "name": "status",
              "type": "uint8"
            },
            {
              "internalType": "string",
              "name": "ipfsHash",
              "type": "string"
            },
            {
              "internalType": "address",
              "name": "addedBy",
              "type": "address"
            },
            {
              "internalType": "address",
              "name": "updatedBy",
              "type": "address"
            },
            {
              "internalType": "string",
              "name": "message",
              "type": "string"
            }
          ],
          "internalType": "struct DLS.PropertyItem[]",
          "name": "",
          "type": "tuple[]"
        }
      ],
      "stateMutability": "view",
      "type": "function"
    },
    {
      "inputs": [],
      "name": "fetchAllRejectedProperties",
      "outputs": [
        {
          "components": [
            {
              "internalType": "uint256",
              "name": "itemId",
              "type": "uint256"
            },
            {
              "internalType": "enum DLS.Status",
              "name": "status",
              "type": "uint8"
            },
            {
              "internalType": "string",
              "name": "ipfsHash",
              "type": "string"
            },
            {
              "internalType": "address",
              "name": "addedBy",
              "type": "address"
            },
            {
              "internalType": "address",
              "name": "updatedBy",
              "type": "address"
            },
            {
              "internalType": "string",
              "name": "message",
              "type": "string"
            }
          ],
          "internalType": "struct DLS.PropertyItem[]",
          "name": "",
          "type": "tuple[]"
        }
      ],
      "stateMutability": "view",
      "type": "function"
    },
    {
      "inputs": [],
      "name": "fetchAllUnderReviewProperties",
      "outputs": [
        {
          "components": [
            {
              "internalType": "uint256",
              "name": "itemId",
              "type": "uint256"
            },
            {
              "internalType": "enum DLS.Status",
              "name": "status",
              "type": "uint8"
            },
            {
              "internalType": "string",
              "name": "ipfsHash",
              "type": "string"
            },
            {
              "internalType": "address",
              "name": "addedBy",
              "type": "address"
            },
            {
              "internalType": "address",
              "name": "updatedBy",
              "type": "address"
            },
            {
              "internalType": "string",
              "name": "message",
              "type": "string"
            }
          ],
          "internalType": "struct DLS.PropertyItem[]",
          "name": "",
          "type": "tuple[]"
        }
      ],
      "stateMutability": "view",
      "type": "function"
    },
    {
      "inputs": [],
      "name": "fetchAllUsers",
      "outputs": [
        {
          "components": [
            {
              "internalType": "address",
              "name": "userAddress",
              "type": "address"
            },
            {
              "internalType": "bool",
              "name": "isRegistered",
              "type": "bool"
            },
            {
              "internalType": "enum DLS.Role",
              "name": "role",
              "type": "uint8"
            },
            {
              "internalType": "address[]",
              "name": "modApprovals",
              "type": "address[]"
            },
            {
              "internalType": "address[]",
              "name": "adminApprovals",
              "type": "address[]"
            },
            {
              "internalType": "address[]",
              "name": "removalRequests",
              "type": "address[]"
            }
          ],
          "internalType": "struct DLS.UserItem[]",
          "name": "",
          "type": "tuple[]"
        }
      ],
      "stateMutability": "view",
      "type": "function"
    },
    {
      "inputs": [
        {
          "internalType": "uint256",
          "name": "_itemId",
          "type": "uint256"
        }
      ],
      "name": "fetchSingleProperty",
      "outputs": [
        {
          "components": [
            {
              "internalType": "uint256",
              "name": "itemId",
              "type": "uint256"
            },
            {
              "internalType": "enum DLS.Status",
              "name": "status",
              "type": "uint8"
            },
            {
              "internalType": "string",
              "name": "ipfsHash",
              "type": "string"
            },
            {
              "internalType": "address",
              "name": "addedBy",
              "type": "address"
            },
            {
              "internalType": "address",
              "name": "updatedBy",
              "type": "address"
            },
            {
              "internalType": "string",
              "name": "message",
              "type": "string"
            }
          ],
          "internalType": "struct DLS.PropertyItem",
          "name": "",
          "type": "tuple"
        }
      ],
      "stateMutability": "view",
      "type": "function"
    },
    {
      "inputs": [
        {
          "internalType": "address",
          "name": "userAddress",
          "type": "address"
        }
      ],
      "name": "fetchSingleUser",
      "outputs": [
        {
          "components": [
            {
              "internalType": "address",
              "name": "userAddress",
              "type": "address"
            },
            {
              "internalType": "enum DLS.Role",
              "name": "role",
              "type": "uint8"
            },
            {
              "internalType": "address[]",
              "name": "modApprovals",
              "type": "address[]"
            },
            {
              "internalType": "uint256",
              "name": "modApprovalsLeft",
              "type": "uint256"
            },
            {
              "internalType": "address[]",
              "name": "adminApprovals",
              "type": "address[]"
            },
            {
              "internalType": "uint256",
              "name": "adminApprovalsLeft",
              "type": "uint256"
            },
            {
              "internalType": "address[]",
              "name": "removalRequests",
              "type": "address[]"
            },
            {
              "internalType": "uint256",
              "name": "removalRequestsLeft",
              "type": "uint256"
            }
          ],
          "internalType": "struct DLS.UserReturnItem",
          "name": "",
          "type": "tuple"
        }
      ],
      "stateMutability": "view",
      "type": "function"
    },
    {
      "inputs": [],
      "name": "getUser",
      "outputs": [
        {
          "components": [
            {
              "internalType": "address",
              "name": "userAddress",
              "type": "address"
            },
            {
              "internalType": "enum DLS.Role",
              "name": "role",
              "type": "uint8"
            },
            {
              "internalType": "address[]",
              "name": "modApprovals",
              "type": "address[]"
            },
            {
              "internalType": "uint256",
              "name": "modApprovalsLeft",
              "type": "uint256"
            },
            {
              "internalType": "address[]",
              "name": "adminApprovals",
              "type": "address[]"
            },
            {
              "internalType": "uint256",
              "name": "adminApprovalsLeft",
              "type": "uint256"
            },
            {
              "internalType": "address[]",
              "name": "removalRequests",
              "type": "address[]"
            },
            {
              "internalType": "uint256",
              "name": "removalRequestsLeft",
              "type": "uint256"
            }
          ],
          "internalType": "struct DLS.UserReturnItem",
          "name": "",
          "type": "tuple"
        }
      ],
      "stateMutability": "view",
      "type": "function"
    },
    {
      "inputs": [],
      "name": "registerNewUser",
      "outputs": [
        {
          "internalType": "bool",
          "name": "",
          "type": "bool"
        }
      ],
      "stateMutability": "nonpayable",
      "type": "function"
    },
    {
      "inputs": [
        {
          "internalType": "uint256",
          "name": "_itemId",
          "type": "uint256"
        },
        {
          "internalType": "string",
          "name": "rejectionMessage",
          "type": "string"
        }
      ],
      "name": "rejectOwnershipChange",
      "outputs": [],
      "stateMutability": "nonpayable",
      "type": "function"
    },
    {
      "inputs": [
        {
          "internalType": "uint256",
          "name": "_itemId",
          "type": "uint256"
        },
        {
          "internalType": "string",
          "name": "rejectionMessage",
          "type": "string"
        }
      ],
      "name": "rejectProperty",
      "outputs": [],
      "stateMutability": "nonpayable",
      "type": "function"
    }
  ],
  "bytecode": "0x60806040523480156200001157600080fd5b506200001c6200026d565b33816000019073ffffffffffffffffffffffffffffffffffffffff16908173ffffffffffffffffffffffffffffffffffffffff168152505060018160200190151590811515815250506002816040019060028111156200008157620000806200037e565b5b908160028111156200009857620000976200037e565b5b8152505080600460003373ffffffffffffffffffffffffffffffffffffffff1673ffffffffffffffffffffffffffffffffffffffff16815260200190815260200160002060008201518160000160006101000a81548173ffffffffffffffffffffffffffffffffffffffff021916908373ffffffffffffffffffffffffffffffffffffffff16021790555060208201518160000160146101000a81548160ff02191690831515021790555060408201518160000160156101000a81548160ff021916908360028111156200017157620001706200037e565b5b0217905550606082015181600101908051906020019062000194929190620002d0565b506080820151816002019080519060200190620001b3929190620002d0565b5060a0820151816003019080519060200190620001d2929190620002d0565b509050506003339080600181540180825580915050600190039060005260206000200160009091909190916101000a81548173ffffffffffffffffffffffffffffffffffffffff021916908373ffffffffffffffffffffffffffffffffffffffff1602179055506200025060026200025760201b620036de1760201c565b50620003ad565b6001816000016000828254019250508190555050565b6040518060c00160405280600073ffffffffffffffffffffffffffffffffffffffff16815260200160001515815260200160006002811115620002b557620002b46200037e565b5b81526020016060815260200160608152602001606081525090565b8280548282559060005260206000209081019282156200034c579160200282015b828111156200034b5782518260006101000a81548173ffffffffffffffffffffffffffffffffffffffff021916908373ffffffffffffffffffffffffffffffffffffffff16021790555091602001919060010190620002f1565b5b5090506200035b91906200035f565b5090565b5b808211156200037a57600081600090555060010162000360565b5090565b7f4e487b7100000000000000000000000000000000000000000000000000000000600052602160045260246000fd5b615b9b80620003bd6000396000f3fe608060405234801561001057600080fd5b50600436106101375760003560e01c8063832880e7116100b8578063c33743151161007c578063c33743151461033c578063cbb833761461035a578063d078990d14610378578063d24d6edb14610396578063d50d53ce146103b4578063e9b66f8c146103e457610137565b8063832880e71461029857806391ddb7fc146102b6578063abea39b9146102d2578063ad316d5c146102f0578063b631d8821461030c57610137565b8063371ff727116100ff578063371ff727146101f057806352a4675a146102205780636445907e1461023e57806367bbabf11461025c5780637292633b1461027a57610137565b80630a1b10e11461013c5780630ce89b461461016c5780630d4595611461018857806311875ea6146101b85780631504671a146101d4575b600080fd5b610156600480360381019061015191906147b3565b610400565b60405161016391906147fb565b60405180910390f35b61018660048036038101906101819190614992565b6108f9565b005b6101a2600480360381019061019d91906147b3565b610a9f565b6040516101af9190614bf0565b60405180910390f35b6101d260048036038101906101cd9190614c12565b610b6c565b005b6101ee60048036038101906101e99190614c5b565b610dc4565b005b61020a60048036038101906102059190614c5b565b610fe5565b6040516102179190614ddf565b60405180910390f35b610228611227565b6040516102359190614f53565b60405180910390f35b61024661136b565b60405161025391906147fb565b60405180910390f35b61026461174c565b60405161027191906150dd565b60405180910390f35b61028261181c565b60405161028f9190614f53565b60405180910390f35b6102a0611960565b6040516102ad9190614bf0565b60405180910390f35b6102d060048036038101906102cb9190614992565b611976565b005b6102da611dcb565b6040516102e79190614f53565b60405180910390f35b61030a60048036038101906103059190614992565b6120d3565b005b610326600480360381019061032191906147b3565b6123a8565b60405161033391906147fb565b60405180910390f35b6103446128a1565b60405161035191906150dd565b60405180910390f35b610362612d67565b60405161036f9190614f53565b60405180910390f35b610380612eab565b60405161038d9190614f53565b60405180910390f35b61039e612ebc565b6040516103ab91906150dd565b60405180910390f35b6103ce60048036038101906103c991906147b3565b612f8c565b6040516103db91906147fb565b60405180910390f35b6103fe60048036038101906103f99190614c5b565b61355d565b005b6000600280811115610415576104146149fd565b5b600460003373ffffffffffffffffffffffffffffffffffffffff1673ffffffffffffffffffffffffffffffffffffffff16815260200190815260200160002060000160159054906101000a900460ff166002811115610477576104766149fd565b5b146104b7576040517f08c379a00000000000000000000000000000000000000000000000000000000081526004016104ae9061515c565b60405180910390fd5b600460008373ffffffffffffffffffffffffffffffffffffffff1673ffffffffffffffffffffffffffffffffffffffff16815260200190815260200160002060000160149054906101000a900460ff16610546576040517f08c379a000000000000000000000000000000000000000000000000000000000815260040161053d906151c8565b60405180910390fd5b6001600281111561055a576105596149fd565b5b600460008473ffffffffffffffffffffffffffffffffffffffff1673ffffffffffffffffffffffffffffffffffffffff16815260200190815260200160002060000160159054906101000a900460ff1660028111156105bc576105bb6149fd565b5b146105fc576040517f08c379a00000000000000000000000000000000000000000000000000000000081526004016105f39061525a565b60405180910390fd5b60006001600261060c60026136f4565b61061691906152d8565b6106209190615309565b905060005b600460008573ffffffffffffffffffffffffffffffffffffffff1673ffffffffffffffffffffffffffffffffffffffff1681526020019081526020016000206002018054905081101561073b573373ffffffffffffffffffffffffffffffffffffffff16600460008673ffffffffffffffffffffffffffffffffffffffff1673ffffffffffffffffffffffffffffffffffffffff16815260200190815260200160002060020182815481106106dd576106dc61533d565b5b9060005260206000200160009054906101000a900473ffffffffffffffffffffffffffffffffffffffff1673ffffffffffffffffffffffffffffffffffffffff160361072857600080fd5b80806107339061536c565b915050610625565b50600460008473ffffffffffffffffffffffffffffffffffffffff1673ffffffffffffffffffffffffffffffffffffffff168152602001908152602001600020600201339080600181540180825580915050600190039060005260206000200160009091909190916101000a81548173ffffffffffffffffffffffffffffffffffffffff021916908373ffffffffffffffffffffffffffffffffffffffff16021790555080600460008573ffffffffffffffffffffffffffffffffffffffff1673ffffffffffffffffffffffffffffffffffffffff16815260200190815260200160002060020180549050106108ef576002600460008573ffffffffffffffffffffffffffffffffffffffff1673ffffffffffffffffffffffffffffffffffffffff16815260200190815260200160002060000160156101000a81548160ff02191690836002811115610891576108906149fd565b5b0217905550600460008473ffffffffffffffffffffffffffffffffffffffff1673ffffffffffffffffffffffffffffffffffffffff16815260200190815260200160002060030160006108e491906144f8565b6108ee60026136de565b5b6001915050919050565b60028081111561090c5761090b6149fd565b5b600460003373ffffffffffffffffffffffffffffffffffffffff1673ffffffffffffffffffffffffffffffffffffffff16815260200190815260200160002060000160159054906101000a900460ff16600281111561096e5761096d6149fd565b5b146109ae576040517f08c379a00000000000000000000000000000000000000000000000000000000081526004016109a59061515c565b60405180910390fd5b600060038111156109c2576109c16149fd565b5b6005600084815260200190815260200160002060010160009054906101000a900460ff1660038111156109f8576109f76149fd565b5b14610a38576040517f08c379a0000000000000000000000000000000000000000000000000000000008152600401610a2f90615426565b60405180910390fd5b60036005600084815260200190815260200160002060010160006101000a81548160ff02191690836003811115610a7257610a716149fd565b5b021790555080600560008481526020019081526020016000206005019081610a9a9190615652565b505050565b610aa7614519565b600280811115610aba57610ab96149fd565b5b600460003373ffffffffffffffffffffffffffffffffffffffff1673ffffffffffffffffffffffffffffffffffffffff16815260200190815260200160002060000160159054906101000a900460ff166002811115610b1c57610b1b6149fd565b5b14610b5c576040517f08c379a0000000000000000000000000000000000000000000000000000000008152600401610b539061515c565b60405180910390fd5b610b6582613702565b9050919050565b60016002811115610b8057610b7f6149fd565b5b600460003373ffffffffffffffffffffffffffffffffffffffff1673ffffffffffffffffffffffffffffffffffffffff16815260200190815260200160002060000160159054906101000a900460ff166002811115610be257610be16149fd565b5b14610c22576040517f08c379a0000000000000000000000000000000000000000000000000000000008152600401610c199061515c565b60405180910390fd5b610c2c60006136de565b6000610c3860006136f4565b90506040518060c0016040528082815260200160006003811115610c5f57610c5e6149fd565b5b81526020018381526020013373ffffffffffffffffffffffffffffffffffffffff168152602001600073ffffffffffffffffffffffffffffffffffffffff16815260200160405180602001604052806000815250815250600560008381526020019081526020016000206000820151816000015560208201518160010160006101000a81548160ff02191690836003811115610cfe57610cfd6149fd565b5b02179055506040820151816002019081610d189190615652565b5060608201518160030160006101000a81548173ffffffffffffffffffffffffffffffffffffffff021916908373ffffffffffffffffffffffffffffffffffffffff16021790555060808201518160040160006101000a81548173ffffffffffffffffffffffffffffffffffffffff021916908373ffffffffffffffffffffffffffffffffffffffff16021790555060a0820151816005019081610dbc9190615652565b509050505050565b600280811115610dd757610dd66149fd565b5b600460003373ffffffffffffffffffffffffffffffffffffffff1673ffffffffffffffffffffffffffffffffffffffff16815260200190815260200160002060000160159054906101000a900460ff166002811115610e3957610e386149fd565b5b14610e79576040517f08c379a0000000000000000000000000000000000000000000000000000000008152600401610e709061515c565b60405180910390fd5b60016003811115610e8d57610e8c6149fd565b5b6005600083815260200190815260200160002060010160009054906101000a900460ff166003811115610ec357610ec26149fd565b5b14610f03576040517f08c379a0000000000000000000000000000000000000000000000000000000008152600401610efa90615796565b60405180910390fd5b60026005600083815260200190815260200160002060010160006101000a81548160ff02191690836003811115610f3d57610f3c6149fd565b5b0217905550600660008281526020019081526020016000206000808201600090556001820160006101000a81549060ff0219169055600282016000610f829190614586565b6003820160006101000a81549073ffffffffffffffffffffffffffffffffffffffff02191690556004820160006101000a81549073ffffffffffffffffffffffffffffffffffffffff0219169055600582016000610fe09190614586565b505050565b610fed6145c6565b600560008381526020019081526020016000206040518060c0016040529081600082015481526020016001820160009054906101000a900460ff16600381111561103a576110396149fd565b5b600381111561104c5761104b6149fd565b5b815260200160028201805461106090615475565b80601f016020809104026020016040519081016040528092919081815260200182805461108c90615475565b80156110d95780601f106110ae576101008083540402835291602001916110d9565b820191906000526020600020905b8154815290600101906020018083116110bc57829003601f168201915b505050505081526020016003820160009054906101000a900473ffffffffffffffffffffffffffffffffffffffff1673ffffffffffffffffffffffffffffffffffffffff1673ffffffffffffffffffffffffffffffffffffffff1681526020016004820160009054906101000a900473ffffffffffffffffffffffffffffffffffffffff1673ffffffffffffffffffffffffffffffffffffffff1673ffffffffffffffffffffffffffffffffffffffff16815260200160058201805461119e90615475565b80601f01602080910402602001604051908101604052809291908181526020018280546111ca90615475565b80156112175780601f106111ec57610100808354040283529160200191611217565b820191906000526020600020905b8154815290600101906020018083116111fa57829003601f168201915b5050505050815250509050919050565b60606001600281111561123d5761123c6149fd565b5b600460003373ffffffffffffffffffffffffffffffffffffffff1673ffffffffffffffffffffffffffffffffffffffff16815260200190815260200160002060000160159054906101000a900460ff16600281111561129f5761129e6149fd565b5b148061131d57506002808111156112b9576112b86149fd565b5b600460003373ffffffffffffffffffffffffffffffffffffffff1673ffffffffffffffffffffffffffffffffffffffff16815260200190815260200160002060000160159054906101000a900460ff16600281111561131b5761131a6149fd565b5b145b61135c576040517f08c379a00000000000000000000000000000000000000000000000000000000081526004016113539061515c565b60405180910390fd5b6113666001613bd6565b905090565b6000600460003373ffffffffffffffffffffffffffffffffffffffff1673ffffffffffffffffffffffffffffffffffffffff16815260200190815260200160002060000160149054906101000a900460ff16156113fd576040517f08c379a00000000000000000000000000000000000000000000000000000000081526004016113f490615802565b60405180910390fd5b61140561463a565b33816000019073ffffffffffffffffffffffffffffffffffffffff16908173ffffffffffffffffffffffffffffffffffffffff16815250506001816020019015159081151581525050600081604001906002811115611467576114666149fd565b5b9081600281111561147b5761147a6149fd565b5b8152505080600460003373ffffffffffffffffffffffffffffffffffffffff1673ffffffffffffffffffffffffffffffffffffffff16815260200190815260200160002060008201518160000160006101000a81548173ffffffffffffffffffffffffffffffffffffffff021916908373ffffffffffffffffffffffffffffffffffffffff16021790555060208201518160000160146101000a81548160ff02191690831515021790555060408201518160000160156101000a81548160ff02191690836002811115611551576115506149fd565b5b0217905550606082015181600101908051906020019061157292919061469a565b50608082015181600201908051906020019061158f92919061469a565b5060a08201518160030190805190602001906115ac92919061469a565b509050506003339080600181540180825580915050600190039060005260206000200160009091909190916101000a81548173ffffffffffffffffffffffffffffffffffffffff021916908373ffffffffffffffffffffffffffffffffffffffff16021790555080600460003373ffffffffffffffffffffffffffffffffffffffff1673ffffffffffffffffffffffffffffffffffffffff16815260200190815260200160002060008201518160000160006101000a81548173ffffffffffffffffffffffffffffffffffffffff021916908373ffffffffffffffffffffffffffffffffffffffff16021790555060208201518160000160146101000a81548160ff02191690831515021790555060408201518160000160156101000a81548160ff021916908360028111156116e5576116e46149fd565b5b0217905550606082015181600101908051906020019061170692919061469a565b50608082015181600201908051906020019061172392919061469a565b5060a082015181600301908051906020019061174092919061469a565b50905050600191505090565b6060600280811115611761576117606149fd565b5b600460003373ffffffffffffffffffffffffffffffffffffffff1673ffffffffffffffffffffffffffffffffffffffff16815260200190815260200160002060000160159054906101000a900460ff1660028111156117c3576117c26149fd565b5b14611803576040517f08c379a00000000000000000000000000000000000000000000000000000000081526004016117fa9061515c565b60405180910390fd5b61181761181060026136f4565b6002613fc6565b905090565b606060016002811115611832576118316149fd565b5b600460003373ffffffffffffffffffffffffffffffffffffffff1673ffffffffffffffffffffffffffffffffffffffff16815260200190815260200160002060000160159054906101000a900460ff166002811115611894576118936149fd565b5b148061191257506002808111156118ae576118ad6149fd565b5b600460003373ffffffffffffffffffffffffffffffffffffffff1673ffffffffffffffffffffffffffffffffffffffff16815260200190815260200160002060000160159054906101000a900460ff1660028111156119105761190f6149fd565b5b145b611951576040517f08c379a00000000000000000000000000000000000000000000000000000000081526004016119489061515c565b60405180910390fd5b61195b6000613bd6565b905090565b611968614519565b61197133613702565b905090565b6001600281111561198a576119896149fd565b5b600460003373ffffffffffffffffffffffffffffffffffffffff1673ffffffffffffffffffffffffffffffffffffffff16815260200190815260200160002060000160159054906101000a900460ff1660028111156119ec576119eb6149fd565b5b14611a2c576040517f08c379a0000000000000000000000000000000000000000000000000000000008152600401611a239061515c565b60405180910390fd5b60026003811115611a4057611a3f6149fd565b5b6005600084815260200190815260200160002060010160009054906101000a900460ff166003811115611a7657611a756149fd565b5b14611ab6576040517f08c379a0000000000000000000000000000000000000000000000000000000008152600401611aad90615894565b60405180910390fd5b6040518060c0016040528083815260200160016003811115611adb57611ada6149fd565b5b8152602001600560008581526020019081526020016000206002018054611b0190615475565b80601f0160208091040260200160405190810160405280929190818152602001828054611b2d90615475565b8015611b7a5780601f10611b4f57610100808354040283529160200191611b7a565b820191906000526020600020905b815481529060010190602001808311611b5d57829003601f168201915b505050505081526020016005600085815260200190815260200160002060030160009054906101000a900473ffffffffffffffffffffffffffffffffffffffff1673ffffffffffffffffffffffffffffffffffffffff1681526020013373ffffffffffffffffffffffffffffffffffffffff16815260200160405180602001604052806000815250815250600660008481526020019081526020016000206000820151816000015560208201518160010160006101000a81548160ff02191690836003811115611c4d57611c4c6149fd565b5b02179055506040820151816002019081611c679190615652565b5060608201518160030160006101000a81548173ffffffffffffffffffffffffffffffffffffffff021916908373ffffffffffffffffffffffffffffffffffffffff16021790555060808201518160040160006101000a81548173ffffffffffffffffffffffffffffffffffffffff021916908373ffffffffffffffffffffffffffffffffffffffff16021790555060a0820151816005019081611d0b9190615652565b5090505060016005600084815260200190815260200160002060010160006101000a81548160ff02191690836003811115611d4957611d486149fd565b5b021790555080600560008481526020019081526020016000206002019081611d719190615652565b50336005600084815260200190815260200160002060040160006101000a81548173ffffffffffffffffffffffffffffffffffffffff021916908373ffffffffffffffffffffffffffffffffffffffff1602179055505050565b60606000611dd960006136f4565b90506000808267ffffffffffffffff811115611df857611df7614867565b5b604051908082528060200260200182016040528015611e3157816020015b611e1e6145c6565b815260200190600190039081611e165790505b50905060005b838110156120c9576000600182611e4e9190615309565b90506000600560008381526020019081526020016000209050806040518060c0016040529081600082015481526020016001820160009054906101000a900460ff166003811115611ea257611ea16149fd565b5b6003811115611eb457611eb36149fd565b5b8152602001600282018054611ec890615475565b80601f0160208091040260200160405190810160405280929190818152602001828054611ef490615475565b8015611f415780601f10611f1657610100808354040283529160200191611f41565b820191906000526020600020905b815481529060010190602001808311611f2457829003601f168201915b505050505081526020016003820160009054906101000a900473ffffffffffffffffffffffffffffffffffffffff1673ffffffffffffffffffffffffffffffffffffffff1673ffffffffffffffffffffffffffffffffffffffff1681526020016004820160009054906101000a900473ffffffffffffffffffffffffffffffffffffffff1673ffffffffffffffffffffffffffffffffffffffff1673ffffffffffffffffffffffffffffffffffffffff16815260200160058201805461200690615475565b80601f016020809104026020016040519081016040528092919081815260200182805461203290615475565b801561207f5780601f106120545761010080835404028352916020019161207f565b820191906000526020600020905b81548152906001019060200180831161206257829003601f168201915b50505050508152505084868151811061209b5761209a61533d565b5b602002602001018190525084806120b19061536c565b955050505080806120c19061536c565b915050611e37565b5080935050505090565b6002808111156120e6576120e56149fd565b5b600460003373ffffffffffffffffffffffffffffffffffffffff1673ffffffffffffffffffffffffffffffffffffffff16815260200190815260200160002060000160159054906101000a900460ff166002811115612148576121476149fd565b5b14612188576040517f08c379a000000000000000000000000000000000000000000000000000000000815260040161217f9061515c565b60405180910390fd5b6001600381111561219c5761219b6149fd565b5b6005600084815260200190815260200160002060010160009054906101000a900460ff1660038111156121d2576121d16149fd565b5b14612212576040517f08c379a000000000000000000000000000000000000000000000000000000000815260040161220990615796565b60405180910390fd5b60036005600084815260200190815260200160002060010160006101000a81548160ff0219169083600381111561224c5761224b6149fd565b5b02179055506006600083815260200190815260200160002060020160056000848152602001908152602001600020600201908161228991906158df565b5060006005600084815260200190815260200160002060040160006101000a81548173ffffffffffffffffffffffffffffffffffffffff021916908373ffffffffffffffffffffffffffffffffffffffff160217905550806005600084815260200190815260200160002060050190816123039190615652565b50600660008381526020019081526020016000206000808201600090556001820160006101000a81549060ff02191690556002820160006123449190614586565b6003820160006101000a81549073ffffffffffffffffffffffffffffffffffffffff02191690556004820160006101000a81549073ffffffffffffffffffffffffffffffffffffffff02191690556005820160006123a29190614586565b50505050565b60006002808111156123bd576123bc6149fd565b5b600460003373ffffffffffffffffffffffffffffffffffffffff1673ffffffffffffffffffffffffffffffffffffffff16815260200190815260200160002060000160159054906101000a900460ff16600281111561241f5761241e6149fd565b5b1461245f576040517f08c379a00000000000000000000000000000000000000000000000000000000081526004016124569061515c565b60405180910390fd5b600460008373ffffffffffffffffffffffffffffffffffffffff1673ffffffffffffffffffffffffffffffffffffffff16815260200190815260200160002060000160149054906101000a900460ff166124ee576040517f08c379a00000000000000000000000000000000000000000000000000000000081526004016124e5906151c8565b60405180910390fd5b60006002811115612502576125016149fd565b5b600460008473ffffffffffffffffffffffffffffffffffffffff1673ffffffffffffffffffffffffffffffffffffffff16815260200190815260200160002060000160159054906101000a900460ff166002811115612564576125636149fd565b5b146125a4576040517f08c379a000000000000000000000000000000000000000000000000000000000815260040161259b90615a39565b60405180910390fd5b6000600160026125b460026136f4565b6125be91906152d8565b6125c89190615309565b905060005b600460008573ffffffffffffffffffffffffffffffffffffffff1673ffffffffffffffffffffffffffffffffffffffff168152602001908152602001600020600101805490508110156126e3573373ffffffffffffffffffffffffffffffffffffffff16600460008673ffffffffffffffffffffffffffffffffffffffff1673ffffffffffffffffffffffffffffffffffffffff16815260200190815260200160002060010182815481106126855761268461533d565b5b9060005260206000200160009054906101000a900473ffffffffffffffffffffffffffffffffffffffff1673ffffffffffffffffffffffffffffffffffffffff16036126d057600080fd5b80806126db9061536c565b9150506125cd565b50600460008473ffffffffffffffffffffffffffffffffffffffff1673ffffffffffffffffffffffffffffffffffffffff168152602001908152602001600020600101339080600181540180825580915050600190039060005260206000200160009091909190916101000a81548173ffffffffffffffffffffffffffffffffffffffff021916908373ffffffffffffffffffffffffffffffffffffffff16021790555080600460008573ffffffffffffffffffffffffffffffffffffffff1673ffffffffffffffffffffffffffffffffffffffff1681526020019081526020016000206001018054905010612897576001600460008573ffffffffffffffffffffffffffffffffffffffff1673ffffffffffffffffffffffffffffffffffffffff16815260200190815260200160002060000160156101000a81548160ff02191690836002811115612839576128386149fd565b5b0217905550600460008473ffffffffffffffffffffffffffffffffffffffff1673ffffffffffffffffffffffffffffffffffffffff168152602001908152602001600020600301600061288c91906144f8565b61289660016136de565b5b6001915050919050565b6060600160028111156128b7576128b66149fd565b5b600460003373ffffffffffffffffffffffffffffffffffffffff1673ffffffffffffffffffffffffffffffffffffffff16815260200190815260200160002060000160159054906101000a900460ff166002811115612919576129186149fd565b5b14806129975750600280811115612933576129326149fd565b5b600460003373ffffffffffffffffffffffffffffffffffffffff1673ffffffffffffffffffffffffffffffffffffffff16815260200190815260200160002060000160159054906101000a900460ff166002811115612995576129946149fd565b5b145b6129d6576040517f08c379a00000000000000000000000000000000000000000000000000000000081526004016129cd9061515c565b60405180910390fd5b6000600380549050905060008167ffffffffffffffff8111156129fc576129fb614867565b5b604051908082528060200260200182016040528015612a3557816020015b612a2261463a565b815260200190600190039081612a1a5790505b50905060005b82811015612d5e57600060038281548110612a5957612a5861533d565b5b9060005260206000200160009054906101000a900473ffffffffffffffffffffffffffffffffffffffff1690506000600460008373ffffffffffffffffffffffffffffffffffffffff1673ffffffffffffffffffffffffffffffffffffffff1681526020019081526020016000209050806040518060c00160405290816000820160009054906101000a900473ffffffffffffffffffffffffffffffffffffffff1673ffffffffffffffffffffffffffffffffffffffff1673ffffffffffffffffffffffffffffffffffffffff1681526020016000820160149054906101000a900460ff161515151581526020016000820160159054906101000a900460ff166002811115612b6b57612b6a6149fd565b5b6002811115612b7d57612b7c6149fd565b5b815260200160018201805480602002602001604051908101604052809291908181526020018280548015612c0657602002820191906000526020600020905b8160009054906101000a900473ffffffffffffffffffffffffffffffffffffffff1673ffffffffffffffffffffffffffffffffffffffff1681526020019060010190808311612bbc575b5050505050815260200160028201805480602002602001604051908101604052809291908181526020018280548015612c9457602002820191906000526020600020905b8160009054906101000a900473ffffffffffffffffffffffffffffffffffffffff1673ffffffffffffffffffffffffffffffffffffffff1681526020019060010190808311612c4a575b5050505050815260200160038201805480602002602001604051908101604052809291908181526020018280548015612d2257602002820191906000526020600020905b8160009054906101000a900473ffffffffffffffffffffffffffffffffffffffff1673ffffffffffffffffffffffffffffffffffffffff1681526020019060010190808311612cd8575b505050505081525050848481518110612d3e57612d3d61533d565b5b602002602001018190525050508080612d569061536c565b915050612a3b565b50809250505090565b606060016002811115612d7d57612d7c6149fd565b5b600460003373ffffffffffffffffffffffffffffffffffffffff1673ffffffffffffffffffffffffffffffffffffffff16815260200190815260200160002060000160159054906101000a900460ff166002811115612ddf57612dde6149fd565b5b1480612e5d5750600280811115612df957612df86149fd565b5b600460003373ffffffffffffffffffffffffffffffffffffffff1673ffffffffffffffffffffffffffffffffffffffff16815260200190815260200160002060000160159054906101000a900460ff166002811115612e5b57612e5a6149fd565b5b145b612e9c576040517f08c379a0000000000000000000000000000000000000000000000000000000008152600401612e939061515c565b60405180910390fd5b612ea66003613bd6565b905090565b6060612eb76002613bd6565b905090565b6060600280811115612ed157612ed06149fd565b5b600460003373ffffffffffffffffffffffffffffffffffffffff1673ffffffffffffffffffffffffffffffffffffffff16815260200190815260200160002060000160159054906101000a900460ff166002811115612f3357612f326149fd565b5b14612f73576040517f08c379a0000000000000000000000000000000000000000000000000000000008152600401612f6a9061515c565b60405180910390fd5b612f87612f8060016136f4565b6001613fc6565b905090565b6000600280811115612fa157612fa06149fd565b5b600460003373ffffffffffffffffffffffffffffffffffffffff1673ffffffffffffffffffffffffffffffffffffffff16815260200190815260200160002060000160159054906101000a900460ff166002811115613003576130026149fd565b5b14613043576040517f08c379a000000000000000000000000000000000000000000000000000000000815260040161303a9061515c565b60405180910390fd5b600460008373ffffffffffffffffffffffffffffffffffffffff1673ffffffffffffffffffffffffffffffffffffffff16815260200190815260200160002060000160149054906101000a900460ff166130d2576040517f08c379a00000000000000000000000000000000000000000000000000000000081526004016130c9906151c8565b60405180910390fd5b600060028111156130e6576130e56149fd565b5b600460008473ffffffffffffffffffffffffffffffffffffffff1673ffffffffffffffffffffffffffffffffffffffff16815260200190815260200160002060000160159054906101000a900460ff166002811115613148576131476149fd565b5b03613188576040517f08c379a000000000000000000000000000000000000000000000000000000000815260040161317f90615aa5565b60405180910390fd5b60006001600261319860026136f4565b6131a291906152d8565b6131ac9190615309565b905060005b600460008573ffffffffffffffffffffffffffffffffffffffff1673ffffffffffffffffffffffffffffffffffffffff168152602001908152602001600020600301805490508110156132c7573373ffffffffffffffffffffffffffffffffffffffff16600460008673ffffffffffffffffffffffffffffffffffffffff1673ffffffffffffffffffffffffffffffffffffffff16815260200190815260200160002060030182815481106132695761326861533d565b5b9060005260206000200160009054906101000a900473ffffffffffffffffffffffffffffffffffffffff1673ffffffffffffffffffffffffffffffffffffffff16036132b457600080fd5b80806132bf9061536c565b9150506131b1565b50600460008473ffffffffffffffffffffffffffffffffffffffff1673ffffffffffffffffffffffffffffffffffffffff168152602001908152602001600020600301339080600181540180825580915050600190039060005260206000200160009091909190916101000a81548173ffffffffffffffffffffffffffffffffffffffff021916908373ffffffffffffffffffffffffffffffffffffffff16021790555080600460008573ffffffffffffffffffffffffffffffffffffffff1673ffffffffffffffffffffffffffffffffffffffff1681526020019081526020016000206003018054905010613553576002808111156133ca576133c96149fd565b5b600460008573ffffffffffffffffffffffffffffffffffffffff1673ffffffffffffffffffffffffffffffffffffffff16815260200190815260200160002060000160159054906101000a900460ff16600281111561342c5761342b6149fd565b5b036134405761343b600261449c565b61344b565b61344a600161449c565b5b6000600460008573ffffffffffffffffffffffffffffffffffffffff1673ffffffffffffffffffffffffffffffffffffffff16815260200190815260200160002060000160156101000a81548160ff021916908360028111156134b1576134b06149fd565b5b0217905550600460008473ffffffffffffffffffffffffffffffffffffffff1673ffffffffffffffffffffffffffffffffffffffff168152602001908152602001600020600101600061350491906144f8565b600460008473ffffffffffffffffffffffffffffffffffffffff1673ffffffffffffffffffffffffffffffffffffffff168152602001908152602001600020600201600061355291906144f8565b5b6001915050919050565b6002808111156135705761356f6149fd565b5b600460003373ffffffffffffffffffffffffffffffffffffffff1673ffffffffffffffffffffffffffffffffffffffff16815260200190815260200160002060000160159054906101000a900460ff1660028111156135d2576135d16149fd565b5b14613612576040517f08c379a00000000000000000000000000000000000000000000000000000000081526004016136099061515c565b60405180910390fd5b60006003811115613626576136256149fd565b5b6005600083815260200190815260200160002060010160009054906101000a900460ff16600381111561365c5761365b6149fd565b5b1461369c576040517f08c379a000000000000000000000000000000000000000000000000000000000815260040161369390615426565b60405180910390fd5b60026005600083815260200190815260200160002060010160006101000a81548160ff021916908360038111156136d6576136d56149fd565b5b021790555050565b6001816000016000828254019250508190555050565b600081600001549050919050565b61370a614519565b60006001600261371a60026136f4565b61372491906152d8565b61372e9190615309565b9050613738614519565b600460008573ffffffffffffffffffffffffffffffffffffffff1673ffffffffffffffffffffffffffffffffffffffff16815260200190815260200160002060000160009054906101000a900473ffffffffffffffffffffffffffffffffffffffff16816000019073ffffffffffffffffffffffffffffffffffffffff16908173ffffffffffffffffffffffffffffffffffffffff1681525050600460008573ffffffffffffffffffffffffffffffffffffffff1673ffffffffffffffffffffffffffffffffffffffff16815260200190815260200160002060000160159054906101000a900460ff1681602001906002811115613839576138386149fd565b5b9081600281111561384d5761384c6149fd565b5b81525050600460008573ffffffffffffffffffffffffffffffffffffffff1673ffffffffffffffffffffffffffffffffffffffff16815260200190815260200160002060010180548060200260200160405190810160405280929190818152602001828054801561391357602002820191906000526020600020905b8160009054906101000a900473ffffffffffffffffffffffffffffffffffffffff1673ffffffffffffffffffffffffffffffffffffffff16815260200190600101908083116138c9575b50505050508160400181905250600460008573ffffffffffffffffffffffffffffffffffffffff1673ffffffffffffffffffffffffffffffffffffffff16815260200190815260200160002060010180549050826139719190615ac5565b816060018181525050600460008573ffffffffffffffffffffffffffffffffffffffff1673ffffffffffffffffffffffffffffffffffffffff168152602001908152602001600020600201805480602002602001604051908101604052809291908181526020018280548015613a3c57602002820191906000526020600020905b8160009054906101000a900473ffffffffffffffffffffffffffffffffffffffff1673ffffffffffffffffffffffffffffffffffffffff16815260200190600101908083116139f2575b50505050508160800181905250600460008573ffffffffffffffffffffffffffffffffffffffff1673ffffffffffffffffffffffffffffffffffffffff1681526020019081526020016000206002018054905082613a9a9190615ac5565b8160a0018181525050600460008573ffffffffffffffffffffffffffffffffffffffff1673ffffffffffffffffffffffffffffffffffffffff168152602001908152602001600020600301805480602002602001604051908101604052809291908181526020018280548015613b6557602002820191906000526020600020905b8160009054906101000a900473ffffffffffffffffffffffffffffffffffffffff1673ffffffffffffffffffffffffffffffffffffffff1681526020019060010190808311613b1b575b50505050508160c00181905250600460008573ffffffffffffffffffffffffffffffffffffffff1673ffffffffffffffffffffffffffffffffffffffff1681526020019081526020016000206003018054905082613bc39190615ac5565b8160e00181815250508092505050919050565b60606000613be460006136f4565b905060008060005b83811015613c7057856003811115613c0757613c066149fd565b5b60056000600184613c189190615309565b815260200190815260200160002060010160009054906101000a900460ff166003811115613c4957613c486149fd565b5b03613c5d578280613c599061536c565b9350505b8080613c689061536c565b915050613bec565b5060008267ffffffffffffffff811115613c8d57613c8c614867565b5b604051908082528060200260200182016040528015613cc657816020015b613cb36145c6565b815260200190600190039081613cab5790505b50905060005b84811015613fb957866003811115613ce757613ce66149fd565b5b60056000600184613cf89190615309565b815260200190815260200160002060010160009054906101000a900460ff166003811115613d2957613d286149fd565b5b03613fa6576000600182613d3d9190615309565b90506000600560008381526020019081526020016000209050806040518060c0016040529081600082015481526020016001820160009054906101000a900460ff166003811115613d9157613d906149fd565b5b6003811115613da357613da26149fd565b5b8152602001600282018054613db790615475565b80601f0160208091040260200160405190810160405280929190818152602001828054613de390615475565b8015613e305780601f10613e0557610100808354040283529160200191613e30565b820191906000526020600020905b815481529060010190602001808311613e1357829003601f168201915b505050505081526020016003820160009054906101000a900473ffffffffffffffffffffffffffffffffffffffff1673ffffffffffffffffffffffffffffffffffffffff1673ffffffffffffffffffffffffffffffffffffffff1681526020016004820160009054906101000a900473ffffffffffffffffffffffffffffffffffffffff1673ffffffffffffffffffffffffffffffffffffffff1673ffffffffffffffffffffffffffffffffffffffff168152602001600582018054613ef590615475565b80601f0160208091040260200160405190810160405280929190818152602001828054613f2190615475565b8015613f6e5780601f10613f4357610100808354040283529160200191613f6e565b820191906000526020600020905b815481529060010190602001808311613f5157829003601f168201915b505050505081525050848681518110613f8a57613f8961533d565b5b60200260200101819052508480613fa09061536c565b95505050505b8080613fb19061536c565b915050613ccc565b5080945050505050919050565b6060600280811115613fdb57613fda6149fd565b5b600460003373ffffffffffffffffffffffffffffffffffffffff1673ffffffffffffffffffffffffffffffffffffffff16815260200190815260200160002060000160159054906101000a900460ff16600281111561403d5761403c6149fd565b5b1461407d576040517f08c379a00000000000000000000000000000000000000000000000000000000081526004016140749061515c565b60405180910390fd5b600060038054905090506000808567ffffffffffffffff8111156140a4576140a3614867565b5b6040519080825280602002602001820160405280156140dd57816020015b6140ca61463a565b8152602001906001900390816140c25790505b50905060005b8381101561448f576000600382815481106141015761410061533d565b5b9060005260206000200160009054906101000a900473ffffffffffffffffffffffffffffffffffffffff169050866002811115614141576141406149fd565b5b600460008373ffffffffffffffffffffffffffffffffffffffff1673ffffffffffffffffffffffffffffffffffffffff16815260200190815260200160002060000160159054906101000a900460ff1660028111156141a3576141a26149fd565b5b0361447b576000600460008373ffffffffffffffffffffffffffffffffffffffff1673ffffffffffffffffffffffffffffffffffffffff1681526020019081526020016000209050806040518060c00160405290816000820160009054906101000a900473ffffffffffffffffffffffffffffffffffffffff1673ffffffffffffffffffffffffffffffffffffffff1673ffffffffffffffffffffffffffffffffffffffff1681526020016000820160149054906101000a900460ff161515151581526020016000820160159054906101000a900460ff16600281111561428d5761428c6149fd565b5b600281111561429f5761429e6149fd565b5b81526020016001820180548060200260200160405190810160405280929190818152602001828054801561432857602002820191906000526020600020905b8160009054906101000a900473ffffffffffffffffffffffffffffffffffffffff1673ffffffffffffffffffffffffffffffffffffffff16815260200190600101908083116142de575b50505050508152602001600282018054806020026020016040519081016040528092919081815260200182805480156143b657602002820191906000526020600020905b8160009054906101000a900473ffffffffffffffffffffffffffffffffffffffff1673ffffffffffffffffffffffffffffffffffffffff168152602001906001019080831161436c575b505050505081526020016003820180548060200260200160405190810160405280929190818152602001828054801561444457602002820191906000526020600020905b8160009054906101000a900473ffffffffffffffffffffffffffffffffffffffff1673ffffffffffffffffffffffffffffffffffffffff16815260200190600101908083116143fa575b5050505050815250508486815181106144605761445f61533d565b5b602002602001018190525084806144769061536c565b955050505b5080806144879061536c565b9150506140e3565b5080935050505092915050565b600081600001549050600081116144e8576040517f08c379a00000000000000000000000000000000000000000000000000000000081526004016144df90615b45565b60405180910390fd5b6001810382600001819055505050565b50805460008255906000526020600020908101906145169190614724565b50565b604051806101000160405280600073ffffffffffffffffffffffffffffffffffffffff16815260200160006002811115614556576145556149fd565b5b81526020016060815260200160008152602001606081526020016000815260200160608152602001600081525090565b50805461459290615475565b6000825580601f106145a457506145c3565b601f0160209004906000526020600020908101906145c29190614724565b5b50565b6040518060c0016040528060008152602001600060038111156145ec576145eb6149fd565b5b815260200160608152602001600073ffffffffffffffffffffffffffffffffffffffff168152602001600073ffffffffffffffffffffffffffffffffffffffff168152602001606081525090565b6040518060c00160405280600073ffffffffffffffffffffffffffffffffffffffff1681526020016000151581526020016000600281111561467f5761467e6149fd565b5b81526020016060815260200160608152602001606081525090565b828054828255906000526020600020908101928215614713579160200282015b828111156147125782518260006101000a81548173ffffffffffffffffffffffffffffffffffffffff021916908373ffffffffffffffffffffffffffffffffffffffff160217905550916020019190600101906146ba565b5b5090506147209190614724565b5090565b5b8082111561473d576000816000905550600101614725565b5090565b6000604051905090565b600080fd5b600080fd5b600073ffffffffffffffffffffffffffffffffffffffff82169050919050565b600061478082614755565b9050919050565b61479081614775565b811461479b57600080fd5b50565b6000813590506147ad81614787565b92915050565b6000602082840312156147c9576147c861474b565b5b60006147d78482850161479e565b91505092915050565b60008115159050919050565b6147f5816147e0565b82525050565b600060208201905061481060008301846147ec565b92915050565b6000819050919050565b61482981614816565b811461483457600080fd5b50565b60008135905061484681614820565b92915050565b600080fd5b600080fd5b6000601f19601f8301169050919050565b7f4e487b7100000000000000000000000000000000000000000000000000000000600052604160045260246000fd5b61489f82614856565b810181811067ffffffffffffffff821117156148be576148bd614867565b5b80604052505050565b60006148d1614741565b90506148dd8282614896565b919050565b600067ffffffffffffffff8211156148fd576148fc614867565b5b61490682614856565b9050602081019050919050565b82818337600083830152505050565b6000614935614930846148e2565b6148c7565b90508281526020810184848401111561495157614950614851565b5b61495c848285614913565b509392505050565b600082601f8301126149795761497861484c565b5b8135614989848260208601614922565b91505092915050565b600080604083850312156149a9576149a861474b565b5b60006149b785828601614837565b925050602083013567ffffffffffffffff8111156149d8576149d7614750565b5b6149e485828601614964565b9150509250929050565b6149f781614775565b82525050565b7f4e487b7100000000000000000000000000000000000000000000000000000000600052602160045260246000fd5b60038110614a3d57614a3c6149fd565b5b50565b6000819050614a4e82614a2c565b919050565b6000614a5e82614a40565b9050919050565b614a6e81614a53565b82525050565b600081519050919050565b600082825260208201905092915050565b6000819050602082019050919050565b6000614aac83836149ee565b60208301905092915050565b6000602082019050919050565b6000614ad082614a74565b614ada8185614a7f565b9350614ae583614a90565b8060005b83811015614b16578151614afd8882614aa0565b9750614b0883614ab8565b925050600181019050614ae9565b5085935050505092915050565b614b2c81614816565b82525050565b600061010083016000830151614b4b60008601826149ee565b506020830151614b5e6020860182614a65565b5060408301518482036040860152614b768282614ac5565b9150506060830151614b8b6060860182614b23565b5060808301518482036080860152614ba38282614ac5565b91505060a0830151614bb860a0860182614b23565b5060c083015184820360c0860152614bd08282614ac5565b91505060e0830151614be560e0860182614b23565b508091505092915050565b60006020820190508181036000830152614c0a8184614b32565b905092915050565b600060208284031215614c2857614c2761474b565b5b600082013567ffffffffffffffff811115614c4657614c45614750565b5b614c5284828501614964565b91505092915050565b600060208284031215614c7157614c7061474b565b5b6000614c7f84828501614837565b91505092915050565b60048110614c9957614c986149fd565b5b50565b6000819050614caa82614c88565b919050565b6000614cba82614c9c565b9050919050565b614cca81614caf565b82525050565b600081519050919050565b600082825260208201905092915050565b60005b83811015614d0a578082015181840152602081019050614cef565b60008484015250505050565b6000614d2182614cd0565b614d2b8185614cdb565b9350614d3b818560208601614cec565b614d4481614856565b840191505092915050565b600060c083016000830151614d676000860182614b23565b506020830151614d7a6020860182614cc1565b5060408301518482036040860152614d928282614d16565b9150506060830151614da760608601826149ee565b506080830151614dba60808601826149ee565b5060a083015184820360a0860152614dd28282614d16565b9150508091505092915050565b60006020820190508181036000830152614df98184614d4f565b905092915050565b600081519050919050565b600082825260208201905092915050565b6000819050602082019050919050565b600060c083016000830151614e456000860182614b23565b506020830151614e586020860182614cc1565b5060408301518482036040860152614e708282614d16565b9150506060830151614e8560608601826149ee565b506080830151614e9860808601826149ee565b5060a083015184820360a0860152614eb08282614d16565b9150508091505092915050565b6000614ec98383614e2d565b905092915050565b6000602082019050919050565b6000614ee982614e01565b614ef38185614e0c565b935083602082028501614f0585614e1d565b8060005b85811015614f415784840389528151614f228582614ebd565b9450614f2d83614ed1565b925060208a01995050600181019050614f09565b50829750879550505050505092915050565b60006020820190508181036000830152614f6d8184614ede565b905092915050565b600081519050919050565b600082825260208201905092915050565b6000819050602082019050919050565b614faa816147e0565b82525050565b600060c083016000830151614fc860008601826149ee565b506020830151614fdb6020860182614fa1565b506040830151614fee6040860182614a65565b50606083015184820360608601526150068282614ac5565b915050608083015184820360808601526150208282614ac5565b91505060a083015184820360a086015261503a8282614ac5565b9150508091505092915050565b60006150538383614fb0565b905092915050565b6000602082019050919050565b600061507382614f75565b61507d8185614f80565b93508360208202850161508f85614f91565b8060005b858110156150cb57848403895281516150ac8582615047565b94506150b78361505b565b925060208a01995050600181019050615093565b50829750879550505050505092915050565b600060208201905081810360008301526150f78184615068565b905092915050565b600082825260208201905092915050565b7f556e617574686f72697a65642041636365737300000000000000000000000000600082015250565b60006151466013836150ff565b915061515182615110565b602082019050919050565b6000602082019050818103600083015261517581615139565b9050919050565b7f5573657220646f6573206e6f7420657869737421000000000000000000000000600082015250565b60006151b26014836150ff565b91506151bd8261517c565b602082019050919050565b600060208201905081810360008301526151e1816151a5565b9050919050565b7f557365722063616e6e6f742062652070726f6d6f74656420746f20616e20416460008201527f6d696e2100000000000000000000000000000000000000000000000000000000602082015250565b60006152446024836150ff565b915061524f826151e8565b604082019050919050565b6000602082019050818103600083015261527381615237565b9050919050565b7f4e487b7100000000000000000000000000000000000000000000000000000000600052601260045260246000fd5b7f4e487b7100000000000000000000000000000000000000000000000000000000600052601160045260246000fd5b60006152e382614816565b91506152ee83614816565b9250826152fe576152fd61527a565b5b828204905092915050565b600061531482614816565b915061531f83614816565b9250828201905080821115615337576153366152a9565b5b92915050565b7f4e487b7100000000000000000000000000000000000000000000000000000000600052603260045260246000fd5b600061537782614816565b91507fffffffffffffffffffffffffffffffffffffffffffffffffffffffffffffffff82036153a9576153a86152a9565b5b600182019050919050565b7f50726f706572747920616c726561647920417070726f766564206f722052656a60008201527f6563746564000000000000000000000000000000000000000000000000000000602082015250565b60006154106025836150ff565b915061541b826153b4565b604082019050919050565b6000602082019050818103600083015261543f81615403565b9050919050565b7f4e487b7100000000000000000000000000000000000000000000000000000000600052602260045260246000fd5b6000600282049050600182168061548d57607f821691505b6020821081036154a05761549f615446565b5b50919050565b60008190508160005260206000209050919050565b60006020601f8301049050919050565b600082821b905092915050565b6000600883026155087fffffffffffffffffffffffffffffffffffffffffffffffffffffffffffffffff826154cb565b61551286836154cb565b95508019841693508086168417925050509392505050565b6000819050919050565b600061554f61554a61554584614816565b61552a565b614816565b9050919050565b6000819050919050565b61556983615534565b61557d61557582615556565b8484546154d8565b825550505050565b600090565b615592615585565b61559d818484615560565b505050565b5b818110156155c1576155b660008261558a565b6001810190506155a3565b5050565b601f821115615606576155d7816154a6565b6155e0846154bb565b810160208510156155ef578190505b6156036155fb856154bb565b8301826155a2565b50505b505050565b600082821c905092915050565b60006156296000198460080261560b565b1980831691505092915050565b60006156428383615618565b9150826002028217905092915050565b61565b82614cd0565b67ffffffffffffffff81111561567457615673614867565b5b61567e8254615475565b6156898282856155c5565b600060209050601f8311600181146156bc57600084156156aa578287015190505b6156b48582615636565b86555061571c565b601f1984166156ca866154a6565b60005b828110156156f2578489015182556001820191506020850194506020810190506156cd565b8683101561570f578489015161570b601f891682615618565b8355505b6001600288020188555050505b505050505050565b7f4e6f206f776e657273686970207265717565737420666f72207468652064657360008201527f69676e617465642070726f706572747920657869737473000000000000000000602082015250565b60006157806037836150ff565b915061578b82615724565b604082019050919050565b600060208201905081810360008301526157af81615773565b9050919050565b7f5573657220616c72656164792065786973747321000000000000000000000000600082015250565b60006157ec6014836150ff565b91506157f7826157b6565b602082019050919050565b6000602082019050818103600083015261581b816157df565b9050919050565b7f50726f706572747920646f6573206e6f74204578697374206f7220486173204e60008201527f6f74204265656e20417070726f76656400000000000000000000000000000000602082015250565b600061587e6030836150ff565b915061588982615822565b604082019050919050565b600060208201905081810360008301526158ad81615871565b9050919050565b6000815490506158c381615475565b9050919050565b60008190508160005260206000209050919050565b8181036158ed5750506159c5565b6158f6826158b4565b67ffffffffffffffff81111561590f5761590e614867565b5b6159198254615475565b6159248282856155c5565b6000601f8311600181146159535760008415615941578287015490505b61594b8582615636565b8655506159be565b601f198416615961876158ca565b965061596c866154a6565b60005b828110156159945784890154825560018201915060018501945060208101905061596f565b868310156159b157848901546159ad601f891682615618565b8355505b6001600288020188555050505b5050505050505b565b7f557365722063616e6e6f742062652070726f6d6f74656420746f2061204d6f6460008201527f657261746f722100000000000000000000000000000000000000000000000000602082015250565b6000615a236027836150ff565b9150615a2e826159c7565b604082019050919050565b60006020820190508181036000830152615a5281615a16565b9050919050565b7f557365722063616e6e6f742062652064656d6f74656421000000000000000000600082015250565b6000615a8f6017836150ff565b9150615a9a82615a59565b602082019050919050565b60006020820190508181036000830152615abe81615a82565b9050919050565b6000615ad082614816565b9150615adb83614816565b9250828203905081811115615af357615af26152a9565b5b92915050565b7f436f756e7465723a2064656372656d656e74206f766572666c6f770000000000600082015250565b6000615b2f601b836150ff565b9150615b3a82615af9565b602082019050919050565b60006020820190508181036000830152615b5e81615b22565b905091905056fea2646970667358221220e3c800bcec1ed70379c578f8c16be14a2cf5301c1c8d2d3f538fbe08eb42753464736f6c63430008110033",
  "linkReferences": {},
  "deployedLinkReferences": {}
}