{
  "_format": "hh-sol-artifact-1",
  "contractName": "DLS",
  "sourceName": "contracts/DLS.sol",
  "abi": [
    {
      "inputs": [],
      "stateMutability": "nonpayable",
      "type": "constructor"
    },
    {
      "inputs": [
        {
          "internalType": "address",
          "name": "_newAdmin",
          "type": "address"
        }
      ],
      "name": "addNewAdmin",
      "outputs": [
        {
          "internalType": "bool",
          "name": "",
          "type": "bool"
        }
      ],
      "stateMutability": "nonpayable",
      "type": "function"
    },
    {
      "inputs": [
        {
          "internalType": "address",
          "name": "_newModerator",
          "type": "address"
        }
      ],
      "name": "addNewModerator",
      "outputs": [
        {
          "internalType": "bool",
          "name": "",
          "type": "bool"
        }
      ],
      "stateMutability": "nonpayable",
      "type": "function"
    },
    {
      "inputs": [
        {
          "internalType": "uint256",
          "name": "_itemId",
          "type": "uint256"
        }
      ],
      "name": "approveOwnershipChange",
      "outputs": [],
      "stateMutability": "nonpayable",
      "type": "function"
    },
    {
      "inputs": [
        {
          "internalType": "uint256",
          "name": "_itemId",
          "type": "uint256"
        }
      ],
      "name": "approveProperty",
      "outputs": [],
      "stateMutability": "nonpayable",
      "type": "function"
    },
    {
      "inputs": [
        {
          "internalType": "uint256",
          "name": "_itemId",
          "type": "uint256"
        },
        {
          "internalType": "string",
          "name": "_ipfsHashValue",
          "type": "string"
        },
        {
          "internalType": "string",
          "name": "_cnic",
          "type": "string"
        }
      ],
      "name": "changeOwnership",
      "outputs": [],
      "stateMutability": "nonpayable",
      "type": "function"
    },
    {
      "inputs": [
        {
          "internalType": "string",
          "name": "str1",
          "type": "string"
        },
        {
          "internalType": "string",
          "name": "str2",
          "type": "string"
        }
      ],
      "name": "compare",
      "outputs": [
        {
          "internalType": "bool",
          "name": "",
          "type": "bool"
        }
      ],
      "stateMutability": "pure",
      "type": "function"
    },
    {
      "inputs": [
        {
          "internalType": "string",
          "name": "_ipfsHashValue",
          "type": "string"
        },
        {
          "internalType": "string",
          "name": "_cnic",
          "type": "string"
        }
      ],
      "name": "createProperty",
      "outputs": [],
      "stateMutability": "nonpayable",
      "type": "function"
    },
    {
      "inputs": [],
      "name": "fetchAllAdmins",
      "outputs": [
        {
          "components": [
            {
              "internalType": "address",
              "name": "userAddress",
              "type": "address"
            },
            {
              "internalType": "bool",
              "name": "isRegistered",
              "type": "bool"
            },
            {
              "internalType": "enum DLS.Role",
              "name": "role",
              "type": "uint8"
            },
            {
              "internalType": "address[]",
              "name": "modApprovals",
              "type": "address[]"
            },
            {
              "internalType": "address[]",
              "name": "adminApprovals",
              "type": "address[]"
            },
            {
              "internalType": "address[]",
              "name": "removalRequests",
              "type": "address[]"
            }
          ],
          "internalType": "struct DLS.UserItem[]",
          "name": "",
          "type": "tuple[]"
        }
      ],
      "stateMutability": "view",
      "type": "function"
    },
    {
      "inputs": [],
      "name": "fetchAllApprovedProperties",
      "outputs": [
        {
          "components": [
            {
              "internalType": "uint256",
              "name": "itemId",
              "type": "uint256"
            },
            {
              "internalType": "enum DLS.Status",
              "name": "status",
              "type": "uint8"
            },
            {
              "internalType": "string",
              "name": "ipfsHash",
              "type": "string"
            },
            {
              "internalType": "address",
              "name": "addedBy",
              "type": "address"
            },
            {
              "internalType": "address",
              "name": "updatedBy",
              "type": "address"
            },
            {
              "internalType": "string",
              "name": "ownerCnic",
              "type": "string"
            },
            {
              "internalType": "string",
              "name": "message",
              "type": "string"
            }
          ],
          "internalType": "struct DLS.PropertyItem[]",
          "name": "",
          "type": "tuple[]"
        }
      ],
      "stateMutability": "view",
      "type": "function"
    },
    {
      "inputs": [],
      "name": "fetchAllModerators",
      "outputs": [
        {
          "components": [
            {
              "internalType": "address",
              "name": "userAddress",
              "type": "address"
            },
            {
              "internalType": "bool",
              "name": "isRegistered",
              "type": "bool"
            },
            {
              "internalType": "enum DLS.Role",
              "name": "role",
              "type": "uint8"
            },
            {
              "internalType": "address[]",
              "name": "modApprovals",
              "type": "address[]"
            },
            {
              "internalType": "address[]",
              "name": "adminApprovals",
              "type": "address[]"
            },
            {
              "internalType": "address[]",
              "name": "removalRequests",
              "type": "address[]"
            }
          ],
          "internalType": "struct DLS.UserItem[]",
          "name": "",
          "type": "tuple[]"
        }
      ],
      "stateMutability": "view",
      "type": "function"
    },
    {
      "inputs": [],
      "name": "fetchAllPendingProperties",
      "outputs": [
        {
          "components": [
            {
              "internalType": "uint256",
              "name": "itemId",
              "type": "uint256"
            },
            {
              "internalType": "enum DLS.Status",
              "name": "status",
              "type": "uint8"
            },
            {
              "internalType": "string",
              "name": "ipfsHash",
              "type": "string"
            },
            {
              "internalType": "address",
              "name": "addedBy",
              "type": "address"
            },
            {
              "internalType": "address",
              "name": "updatedBy",
              "type": "address"
            },
            {
              "internalType": "string",
              "name": "ownerCnic",
              "type": "string"
            },
            {
              "internalType": "string",
              "name": "message",
              "type": "string"
            }
          ],
          "internalType": "struct DLS.PropertyItem[]",
          "name": "",
          "type": "tuple[]"
        }
      ],
      "stateMutability": "view",
      "type": "function"
    },
    {
      "inputs": [],
      "name": "fetchAllProperties",
      "outputs": [
        {
          "components": [
            {
              "internalType": "uint256",
              "name": "itemId",
              "type": "uint256"
            },
            {
              "internalType": "enum DLS.Status",
              "name": "status",
              "type": "uint8"
            },
            {
              "internalType": "string",
              "name": "ipfsHash",
              "type": "string"
            },
            {
              "internalType": "address",
              "name": "addedBy",
              "type": "address"
            },
            {
              "internalType": "address",
              "name": "updatedBy",
              "type": "address"
            },
            {
              "internalType": "string",
              "name": "ownerCnic",
              "type": "string"
            },
            {
              "internalType": "string",
              "name": "message",
              "type": "string"
            }
          ],
          "internalType": "struct DLS.PropertyItem[]",
          "name": "",
          "type": "tuple[]"
        }
      ],
      "stateMutability": "view",
      "type": "function"
    },
    {
      "inputs": [],
      "name": "fetchAllRejectedProperties",
      "outputs": [
        {
          "components": [
            {
              "internalType": "uint256",
              "name": "itemId",
              "type": "uint256"
            },
            {
              "internalType": "enum DLS.Status",
              "name": "status",
              "type": "uint8"
            },
            {
              "internalType": "string",
              "name": "ipfsHash",
              "type": "string"
            },
            {
              "internalType": "address",
              "name": "addedBy",
              "type": "address"
            },
            {
              "internalType": "address",
              "name": "updatedBy",
              "type": "address"
            },
            {
              "internalType": "string",
              "name": "ownerCnic",
              "type": "string"
            },
            {
              "internalType": "string",
              "name": "message",
              "type": "string"
            }
          ],
          "internalType": "struct DLS.PropertyItem[]",
          "name": "",
          "type": "tuple[]"
        }
      ],
      "stateMutability": "view",
      "type": "function"
    },
    {
      "inputs": [],
      "name": "fetchAllUnderReviewProperties",
      "outputs": [
        {
          "components": [
            {
              "internalType": "uint256",
              "name": "itemId",
              "type": "uint256"
            },
            {
              "internalType": "enum DLS.Status",
              "name": "status",
              "type": "uint8"
            },
            {
              "internalType": "string",
              "name": "ipfsHash",
              "type": "string"
            },
            {
              "internalType": "address",
              "name": "addedBy",
              "type": "address"
            },
            {
              "internalType": "address",
              "name": "updatedBy",
              "type": "address"
            },
            {
              "internalType": "string",
              "name": "ownerCnic",
              "type": "string"
            },
            {
              "internalType": "string",
              "name": "message",
              "type": "string"
            }
          ],
          "internalType": "struct DLS.PropertyItem[]",
          "name": "",
          "type": "tuple[]"
        }
      ],
      "stateMutability": "view",
      "type": "function"
    },
    {
      "inputs": [],
      "name": "fetchAllUsers",
      "outputs": [
        {
          "components": [
            {
              "internalType": "address",
              "name": "userAddress",
              "type": "address"
            },
            {
              "internalType": "bool",
              "name": "isRegistered",
              "type": "bool"
            },
            {
              "internalType": "enum DLS.Role",
              "name": "role",
              "type": "uint8"
            },
            {
              "internalType": "address[]",
              "name": "modApprovals",
              "type": "address[]"
            },
            {
              "internalType": "address[]",
              "name": "adminApprovals",
              "type": "address[]"
            },
            {
              "internalType": "address[]",
              "name": "removalRequests",
              "type": "address[]"
            }
          ],
          "internalType": "struct DLS.UserItem[]",
          "name": "",
          "type": "tuple[]"
        }
      ],
      "stateMutability": "view",
      "type": "function"
    },
    {
      "inputs": [
        {
          "internalType": "string",
          "name": "_cnic",
          "type": "string"
        }
      ],
      "name": "fetchOwnerProperties",
      "outputs": [
        {
          "components": [
            {
              "internalType": "uint256",
              "name": "itemId",
              "type": "uint256"
            },
            {
              "internalType": "enum DLS.Status",
              "name": "status",
              "type": "uint8"
            },
            {
              "internalType": "string",
              "name": "ipfsHash",
              "type": "string"
            },
            {
              "internalType": "address",
              "name": "addedBy",
              "type": "address"
            },
            {
              "internalType": "address",
              "name": "updatedBy",
              "type": "address"
            },
            {
              "internalType": "string",
              "name": "ownerCnic",
              "type": "string"
            },
            {
              "internalType": "string",
              "name": "message",
              "type": "string"
            }
          ],
          "internalType": "struct DLS.PropertyItem[]",
          "name": "",
          "type": "tuple[]"
        }
      ],
      "stateMutability": "view",
      "type": "function"
    },
    {
      "inputs": [
        {
          "internalType": "uint256",
          "name": "_itemId",
          "type": "uint256"
        }
      ],
      "name": "fetchSingleProperty",
      "outputs": [
        {
          "components": [
            {
              "internalType": "uint256",
              "name": "itemId",
              "type": "uint256"
            },
            {
              "internalType": "enum DLS.Status",
              "name": "status",
              "type": "uint8"
            },
            {
              "internalType": "string",
              "name": "ipfsHash",
              "type": "string"
            },
            {
              "internalType": "address",
              "name": "addedBy",
              "type": "address"
            },
            {
              "internalType": "address",
              "name": "updatedBy",
              "type": "address"
            },
            {
              "internalType": "string",
              "name": "ownerCnic",
              "type": "string"
            },
            {
              "internalType": "string",
              "name": "message",
              "type": "string"
            }
          ],
          "internalType": "struct DLS.PropertyItem",
          "name": "",
          "type": "tuple"
        }
      ],
      "stateMutability": "view",
      "type": "function"
    },
    {
      "inputs": [
        {
          "internalType": "address",
          "name": "userAddress",
          "type": "address"
        }
      ],
      "name": "fetchSingleUser",
      "outputs": [
        {
          "components": [
            {
              "internalType": "address",
              "name": "userAddress",
              "type": "address"
            },
            {
              "internalType": "enum DLS.Role",
              "name": "role",
              "type": "uint8"
            },
            {
              "internalType": "address[]",
              "name": "modApprovals",
              "type": "address[]"
            },
            {
              "internalType": "uint256",
              "name": "modApprovalsLeft",
              "type": "uint256"
            },
            {
              "internalType": "address[]",
              "name": "adminApprovals",
              "type": "address[]"
            },
            {
              "internalType": "uint256",
              "name": "adminApprovalsLeft",
              "type": "uint256"
            },
            {
              "internalType": "address[]",
              "name": "removalRequests",
              "type": "address[]"
            },
            {
              "internalType": "uint256",
              "name": "removalRequestsLeft",
              "type": "uint256"
            }
          ],
          "internalType": "struct DLS.UserReturnItem",
          "name": "",
          "type": "tuple"
        }
      ],
      "stateMutability": "view",
      "type": "function"
    },
    {
      "inputs": [],
      "name": "getUser",
      "outputs": [
        {
          "components": [
            {
              "internalType": "address",
              "name": "userAddress",
              "type": "address"
            },
            {
              "internalType": "enum DLS.Role",
              "name": "role",
              "type": "uint8"
            },
            {
              "internalType": "address[]",
              "name": "modApprovals",
              "type": "address[]"
            },
            {
              "internalType": "uint256",
              "name": "modApprovalsLeft",
              "type": "uint256"
            },
            {
              "internalType": "address[]",
              "name": "adminApprovals",
              "type": "address[]"
            },
            {
              "internalType": "uint256",
              "name": "adminApprovalsLeft",
              "type": "uint256"
            },
            {
              "internalType": "address[]",
              "name": "removalRequests",
              "type": "address[]"
            },
            {
              "internalType": "uint256",
              "name": "removalRequestsLeft",
              "type": "uint256"
            }
          ],
          "internalType": "struct DLS.UserReturnItem",
          "name": "",
          "type": "tuple"
        }
      ],
      "stateMutability": "view",
      "type": "function"
    },
    {
      "inputs": [],
      "name": "registerNewUser",
      "outputs": [
        {
          "internalType": "bool",
          "name": "",
          "type": "bool"
        }
      ],
      "stateMutability": "nonpayable",
      "type": "function"
    },
    {
      "inputs": [
        {
          "internalType": "uint256",
          "name": "_itemId",
          "type": "uint256"
        },
        {
          "internalType": "string",
          "name": "rejectionMessage",
          "type": "string"
        }
      ],
      "name": "rejectOwnershipChange",
      "outputs": [],
      "stateMutability": "nonpayable",
      "type": "function"
    },
    {
      "inputs": [
        {
          "internalType": "uint256",
          "name": "_itemId",
          "type": "uint256"
        },
        {
          "internalType": "string",
          "name": "rejectionMessage",
          "type": "string"
        }
      ],
      "name": "rejectProperty",
      "outputs": [],
      "stateMutability": "nonpayable",
      "type": "function"
    }
  ],
  "bytecode": "0x60806040523480156200001157600080fd5b506200001c6200026d565b33816000019073ffffffffffffffffffffffffffffffffffffffff16908173ffffffffffffffffffffffffffffffffffffffff168152505060018160200190151590811515815250506002816040019060028111156200008157620000806200037e565b5b908160028111156200009857620000976200037e565b5b8152505080600460003373ffffffffffffffffffffffffffffffffffffffff1673ffffffffffffffffffffffffffffffffffffffff16815260200190815260200160002060008201518160000160006101000a81548173ffffffffffffffffffffffffffffffffffffffff021916908373ffffffffffffffffffffffffffffffffffffffff16021790555060208201518160000160146101000a81548160ff02191690831515021790555060408201518160000160156101000a81548160ff021916908360028111156200017157620001706200037e565b5b0217905550606082015181600101908051906020019062000194929190620002d0565b506080820151816002019080519060200190620001b3929190620002d0565b5060a0820151816003019080519060200190620001d2929190620002d0565b509050506003339080600181540180825580915050600190039060005260206000200160009091909190916101000a81548173ffffffffffffffffffffffffffffffffffffffff021916908373ffffffffffffffffffffffffffffffffffffffff1602179055506200025060026200025760201b6200395a1760201c565b50620003ad565b6001816000016000828254019250508190555050565b6040518060c00160405280600073ffffffffffffffffffffffffffffffffffffffff16815260200160001515815260200160006002811115620002b557620002b46200037e565b5b81526020016060815260200160608152602001606081525090565b8280548282559060005260206000209081019282156200034c579160200282015b828111156200034b5782518260006101000a81548173ffffffffffffffffffffffffffffffffffffffff021916908373ffffffffffffffffffffffffffffffffffffffff16021790555091602001919060010190620002f1565b5b5090506200035b91906200035f565b5090565b5b808211156200037a57600081600090555060010162000360565b5090565b7f4e487b7100000000000000000000000000000000000000000000000000000000600052602160045260246000fd5b615f0680620003bd6000396000f3fe608060405234801561001057600080fd5b50600436106101425760003560e01c80636b05bb6a116100b8578063b631d8821161007c578063b631d88214610377578063c3374315146103a7578063cbb83376146103c5578063d078990d146103e3578063d24d6edb14610401578063e9b66f8c1461041f57610142565b80636b05bb6a146102d15780637292633b14610301578063832880e71461031f578063abea39b91461033d578063ad316d5c1461035b57610142565b8063371ff7271161010a578063371ff727146101fb5780633a96fdd71461022b578063469746c41461025b57806352a4675a146102775780636445907e1461029557806367bbabf1146102b357610142565b806307460b66146101475780630a1b10e1146101635780630ce89b46146101935780630d459561146101af5780631504671a146101df575b600080fd5b610161600480360381019061015c9190614b54565b61043b565b005b61017d60048036038101906101789190614c2a565b6106b0565b60405161018a9190614c72565b60405180910390f35b6101ad60048036038101906101a89190614cc3565b610ba9565b005b6101c960048036038101906101c49190614c2a565b610d4f565b6040516101d69190614f21565b60405180910390f35b6101f960048036038101906101f49190614f43565b610e1c565b005b61021560048036038101906102109190614f43565b61104d565b60405161022291906150e1565b60405180910390f35b61024560048036038101906102409190614b54565b611321565b6040516102529190614c72565b60405180910390f35b61027560048036038101906102709190615103565b61137a565b005b61027f6118ae565b60405161028c91906152fa565b60405180910390f35b61029d6119f2565b6040516102aa9190614c72565b60405180910390f35b6102bb611dd3565b6040516102c89190615484565b60405180910390f35b6102eb60048036038101906102e691906154a6565b611ea3565b6040516102f891906152fa565b60405180910390f35b6103096123e3565b60405161031691906152fa565b60405180910390f35b610327612527565b6040516103349190614f21565b60405180910390f35b61034561253d565b60405161035291906152fa565b60405180910390f35b61037560048036038101906103709190614cc3565b6128d7565b005b610391600480360381019061038c9190614c2a565b612bf5565b60405161039e9190614c72565b60405180910390f35b6103af6130ee565b6040516103bc9190615484565b60405180910390f35b6103cd6135b4565b6040516103da91906152fa565b60405180910390f35b6103eb6136f8565b6040516103f891906152fa565b60405180910390f35b610409613709565b6040516104169190615484565b60405180910390f35b61043960048036038101906104349190614f43565b6137d9565b005b6001600281111561044f5761044e614d2e565b5b600460003373ffffffffffffffffffffffffffffffffffffffff1673ffffffffffffffffffffffffffffffffffffffff16815260200190815260200160002060000160159054906101000a900460ff1660028111156104b1576104b0614d2e565b5b146104f1576040517f08c379a00000000000000000000000000000000000000000000000000000000081526004016104e89061554c565b60405180910390fd5b6104fb600061395a565b60006105076000613970565b90506040518060e001604052808281526020016000600381111561052e5761052d614d2e565b5b81526020018481526020013373ffffffffffffffffffffffffffffffffffffffff168152602001600073ffffffffffffffffffffffffffffffffffffffff16815260200183815260200160405180602001604052806000815250815250600560008381526020019081526020016000206000820151816000015560208201518160010160006101000a81548160ff021916908360038111156105d3576105d2614d2e565b5b021790555060408201518160020190816105ed9190615778565b5060608201518160030160006101000a81548173ffffffffffffffffffffffffffffffffffffffff021916908373ffffffffffffffffffffffffffffffffffffffff16021790555060808201518160040160006101000a81548173ffffffffffffffffffffffffffffffffffffffff021916908373ffffffffffffffffffffffffffffffffffffffff16021790555060a08201518160050190816106919190615778565b5060c08201518160060190816106a79190615778565b50905050505050565b60006002808111156106c5576106c4614d2e565b5b600460003373ffffffffffffffffffffffffffffffffffffffff1673ffffffffffffffffffffffffffffffffffffffff16815260200190815260200160002060000160159054906101000a900460ff16600281111561072757610726614d2e565b5b14610767576040517f08c379a000000000000000000000000000000000000000000000000000000000815260040161075e9061554c565b60405180910390fd5b600460008373ffffffffffffffffffffffffffffffffffffffff1673ffffffffffffffffffffffffffffffffffffffff16815260200190815260200160002060000160149054906101000a900460ff166107f6576040517f08c379a00000000000000000000000000000000000000000000000000000000081526004016107ed90615896565b60405180910390fd5b6001600281111561080a57610809614d2e565b5b600460008473ffffffffffffffffffffffffffffffffffffffff1673ffffffffffffffffffffffffffffffffffffffff16815260200190815260200160002060000160159054906101000a900460ff16600281111561086c5761086b614d2e565b5b146108ac576040517f08c379a00000000000000000000000000000000000000000000000000000000081526004016108a390615928565b60405180910390fd5b6000600160026108bc6002613970565b6108c691906159a6565b6108d091906159d7565b905060005b600460008573ffffffffffffffffffffffffffffffffffffffff1673ffffffffffffffffffffffffffffffffffffffff168152602001908152602001600020600201805490508110156109eb573373ffffffffffffffffffffffffffffffffffffffff16600460008673ffffffffffffffffffffffffffffffffffffffff1673ffffffffffffffffffffffffffffffffffffffff168152602001908152602001600020600201828154811061098d5761098c615a0b565b5b9060005260206000200160009054906101000a900473ffffffffffffffffffffffffffffffffffffffff1673ffffffffffffffffffffffffffffffffffffffff16036109d857600080fd5b80806109e390615a3a565b9150506108d5565b50600460008473ffffffffffffffffffffffffffffffffffffffff1673ffffffffffffffffffffffffffffffffffffffff168152602001908152602001600020600201339080600181540180825580915050600190039060005260206000200160009091909190916101000a81548173ffffffffffffffffffffffffffffffffffffffff021916908373ffffffffffffffffffffffffffffffffffffffff16021790555080600460008573ffffffffffffffffffffffffffffffffffffffff1673ffffffffffffffffffffffffffffffffffffffff1681526020019081526020016000206002018054905010610b9f576002600460008573ffffffffffffffffffffffffffffffffffffffff1673ffffffffffffffffffffffffffffffffffffffff16815260200190815260200160002060000160156101000a81548160ff02191690836002811115610b4157610b40614d2e565b5b0217905550600460008473ffffffffffffffffffffffffffffffffffffffff1673ffffffffffffffffffffffffffffffffffffffff1681526020019081526020016000206003016000610b9491906147aa565b610b9e600261395a565b5b6001915050919050565b600280811115610bbc57610bbb614d2e565b5b600460003373ffffffffffffffffffffffffffffffffffffffff1673ffffffffffffffffffffffffffffffffffffffff16815260200190815260200160002060000160159054906101000a900460ff166002811115610c1e57610c1d614d2e565b5b14610c5e576040517f08c379a0000000000000000000000000000000000000000000000000000000008152600401610c559061554c565b60405180910390fd5b60006003811115610c7257610c71614d2e565b5b6005600084815260200190815260200160002060010160009054906101000a900460ff166003811115610ca857610ca7614d2e565b5b14610ce8576040517f08c379a0000000000000000000000000000000000000000000000000000000008152600401610cdf90615af4565b60405180910390fd5b60036005600084815260200190815260200160002060010160006101000a81548160ff02191690836003811115610d2257610d21614d2e565b5b021790555080600560008481526020019081526020016000206006019081610d4a9190615778565b505050565b610d576147cb565b600280811115610d6a57610d69614d2e565b5b600460003373ffffffffffffffffffffffffffffffffffffffff1673ffffffffffffffffffffffffffffffffffffffff16815260200190815260200160002060000160159054906101000a900460ff166002811115610dcc57610dcb614d2e565b5b14610e0c576040517f08c379a0000000000000000000000000000000000000000000000000000000008152600401610e039061554c565b60405180910390fd5b610e158261397e565b9050919050565b600280811115610e2f57610e2e614d2e565b5b600460003373ffffffffffffffffffffffffffffffffffffffff1673ffffffffffffffffffffffffffffffffffffffff16815260200190815260200160002060000160159054906101000a900460ff166002811115610e9157610e90614d2e565b5b14610ed1576040517f08c379a0000000000000000000000000000000000000000000000000000000008152600401610ec89061554c565b60405180910390fd5b60016003811115610ee557610ee4614d2e565b5b6005600083815260200190815260200160002060010160009054906101000a900460ff166003811115610f1b57610f1a614d2e565b5b14610f5b576040517f08c379a0000000000000000000000000000000000000000000000000000000008152600401610f5290615b86565b60405180910390fd5b60026005600083815260200190815260200160002060010160006101000a81548160ff02191690836003811115610f9557610f94614d2e565b5b0217905550600660008281526020019081526020016000206000808201600090556001820160006101000a81549060ff0219169055600282016000610fda9190614838565b6003820160006101000a81549073ffffffffffffffffffffffffffffffffffffffff02191690556004820160006101000a81549073ffffffffffffffffffffffffffffffffffffffff02191690556005820160006110389190614838565b6006820160006110489190614838565b505050565b611055614878565b600560008381526020019081526020016000206040518060e0016040529081600082015481526020016001820160009054906101000a900460ff1660038111156110a2576110a1614d2e565b5b60038111156110b4576110b3614d2e565b5b81526020016002820180546110c89061559b565b80601f01602080910402602001604051908101604052809291908181526020018280546110f49061559b565b80156111415780601f1061111657610100808354040283529160200191611141565b820191906000526020600020905b81548152906001019060200180831161112457829003601f168201915b505050505081526020016003820160009054906101000a900473ffffffffffffffffffffffffffffffffffffffff1673ffffffffffffffffffffffffffffffffffffffff1673ffffffffffffffffffffffffffffffffffffffff1681526020016004820160009054906101000a900473ffffffffffffffffffffffffffffffffffffffff1673ffffffffffffffffffffffffffffffffffffffff1673ffffffffffffffffffffffffffffffffffffffff1681526020016005820180546112069061559b565b80601f01602080910402602001604051908101604052809291908181526020018280546112329061559b565b801561127f5780601f106112545761010080835404028352916020019161127f565b820191906000526020600020905b81548152906001019060200180831161126257829003601f168201915b505050505081526020016006820180546112989061559b565b80601f01602080910402602001604051908101604052809291908181526020018280546112c49061559b565b80156113115780601f106112e657610100808354040283529160200191611311565b820191906000526020600020905b8154815290600101906020018083116112f457829003601f168201915b5050505050815250509050919050565b6000816040516020016113349190615be2565b604051602081830303815290604052805190602001208360405160200161135b9190615be2565b6040516020818303038152906040528051906020012014905092915050565b6001600281111561138e5761138d614d2e565b5b600460003373ffffffffffffffffffffffffffffffffffffffff1673ffffffffffffffffffffffffffffffffffffffff16815260200190815260200160002060000160159054906101000a900460ff1660028111156113f0576113ef614d2e565b5b14611430576040517f08c379a00000000000000000000000000000000000000000000000000000000081526004016114279061554c565b60405180910390fd5b6002600381111561144457611443614d2e565b5b6005600085815260200190815260200160002060010160009054906101000a900460ff16600381111561147a57611479614d2e565b5b146114ba576040517f08c379a00000000000000000000000000000000000000000000000000000000081526004016114b190615c6b565b60405180910390fd5b6040518060e00160405280848152602001600160038111156114df576114de614d2e565b5b81526020016005600086815260200190815260200160002060020180546115059061559b565b80601f01602080910402602001604051908101604052809291908181526020018280546115319061559b565b801561157e5780601f106115535761010080835404028352916020019161157e565b820191906000526020600020905b81548152906001019060200180831161156157829003601f168201915b505050505081526020016005600086815260200190815260200160002060030160009054906101000a900473ffffffffffffffffffffffffffffffffffffffff1673ffffffffffffffffffffffffffffffffffffffff1681526020013373ffffffffffffffffffffffffffffffffffffffff1681526020016005600086815260200190815260200160002060050180546116179061559b565b80601f01602080910402602001604051908101604052809291908181526020018280546116439061559b565b80156116905780601f1061166557610100808354040283529160200191611690565b820191906000526020600020905b81548152906001019060200180831161167357829003601f168201915b5050505050815260200160405180602001604052806000815250815250600660008581526020019081526020016000206000820151816000015560208201518160010160006101000a81548160ff021916908360038111156116f5576116f4614d2e565b5b0217905550604082015181600201908161170f9190615778565b5060608201518160030160006101000a81548173ffffffffffffffffffffffffffffffffffffffff021916908373ffffffffffffffffffffffffffffffffffffffff16021790555060808201518160040160006101000a81548173ffffffffffffffffffffffffffffffffffffffff021916908373ffffffffffffffffffffffffffffffffffffffff16021790555060a08201518160050190816117b39190615778565b5060c08201518160060190816117c99190615778565b5090505060016005600085815260200190815260200160002060010160006101000a81548160ff0219169083600381111561180757611806614d2e565b5b02179055508160056000858152602001908152602001600020600201908161182f9190615778565b50806005600085815260200190815260200160002060050190816118539190615778565b50336005600085815260200190815260200160002060040160006101000a81548173ffffffffffffffffffffffffffffffffffffffff021916908373ffffffffffffffffffffffffffffffffffffffff160217905550505050565b6060600160028111156118c4576118c3614d2e565b5b600460003373ffffffffffffffffffffffffffffffffffffffff1673ffffffffffffffffffffffffffffffffffffffff16815260200190815260200160002060000160159054906101000a900460ff16600281111561192657611925614d2e565b5b14806119a457506002808111156119405761193f614d2e565b5b600460003373ffffffffffffffffffffffffffffffffffffffff1673ffffffffffffffffffffffffffffffffffffffff16815260200190815260200160002060000160159054906101000a900460ff1660028111156119a2576119a1614d2e565b5b145b6119e3576040517f08c379a00000000000000000000000000000000000000000000000000000000081526004016119da9061554c565b60405180910390fd5b6119ed6001613e52565b905090565b6000600460003373ffffffffffffffffffffffffffffffffffffffff1673ffffffffffffffffffffffffffffffffffffffff16815260200190815260200160002060000160149054906101000a900460ff1615611a84576040517f08c379a0000000000000000000000000000000000000000000000000000000008152600401611a7b90615cd7565b60405180910390fd5b611a8c6148f3565b33816000019073ffffffffffffffffffffffffffffffffffffffff16908173ffffffffffffffffffffffffffffffffffffffff16815250506001816020019015159081151581525050600081604001906002811115611aee57611aed614d2e565b5b90816002811115611b0257611b01614d2e565b5b8152505080600460003373ffffffffffffffffffffffffffffffffffffffff1673ffffffffffffffffffffffffffffffffffffffff16815260200190815260200160002060008201518160000160006101000a81548173ffffffffffffffffffffffffffffffffffffffff021916908373ffffffffffffffffffffffffffffffffffffffff16021790555060208201518160000160146101000a81548160ff02191690831515021790555060408201518160000160156101000a81548160ff02191690836002811115611bd857611bd7614d2e565b5b02179055506060820151816001019080519060200190611bf9929190614953565b506080820151816002019080519060200190611c16929190614953565b5060a0820151816003019080519060200190611c33929190614953565b509050506003339080600181540180825580915050600190039060005260206000200160009091909190916101000a81548173ffffffffffffffffffffffffffffffffffffffff021916908373ffffffffffffffffffffffffffffffffffffffff16021790555080600460003373ffffffffffffffffffffffffffffffffffffffff1673ffffffffffffffffffffffffffffffffffffffff16815260200190815260200160002060008201518160000160006101000a81548173ffffffffffffffffffffffffffffffffffffffff021916908373ffffffffffffffffffffffffffffffffffffffff16021790555060208201518160000160146101000a81548160ff02191690831515021790555060408201518160000160156101000a81548160ff02191690836002811115611d6c57611d6b614d2e565b5b02179055506060820151816001019080519060200190611d8d929190614953565b506080820151816002019080519060200190611daa929190614953565b5060a0820151816003019080519060200190611dc7929190614953565b50905050600191505090565b6060600280811115611de857611de7614d2e565b5b600460003373ffffffffffffffffffffffffffffffffffffffff1673ffffffffffffffffffffffffffffffffffffffff16815260200190815260200160002060000160159054906101000a900460ff166002811115611e4a57611e49614d2e565b5b14611e8a576040517f08c379a0000000000000000000000000000000000000000000000000000000008152600401611e819061554c565b60405180910390fd5b611e9e611e976002613970565b60026142d4565b905090565b60606000611eb16000613970565b905060008060005b83811015611f9c57611f7560056000600184611ed591906159d7565b81526020019081526020016000206005018054611ef19061559b565b80601f0160208091040260200160405190810160405280929190818152602001828054611f1d9061559b565b8015611f6a5780601f10611f3f57610100808354040283529160200191611f6a565b820191906000526020600020905b815481529060010190602001808311611f4d57829003601f168201915b505050505087611321565b15611f89578280611f8590615a3a565b9350505b8080611f9490615a3a565b915050611eb9565b5060008267ffffffffffffffff811115611fb957611fb8614a29565b5b604051908082528060200260200182016040528015611ff257816020015b611fdf614878565b815260200190600190039081611fd75790505b50905060005b848110156123d6576120b46005600060018461201491906159d7565b815260200190815260200160002060050180546120309061559b565b80601f016020809104026020016040519081016040528092919081815260200182805461205c9061559b565b80156120a95780601f1061207e576101008083540402835291602001916120a9565b820191906000526020600020905b81548152906001019060200180831161208c57829003601f168201915b505050505088611321565b156123c35760006001826120c891906159d7565b90506000600560008381526020019081526020016000209050806040518060e0016040529081600082015481526020016001820160009054906101000a900460ff16600381111561211c5761211b614d2e565b5b600381111561212e5761212d614d2e565b5b81526020016002820180546121429061559b565b80601f016020809104026020016040519081016040528092919081815260200182805461216e9061559b565b80156121bb5780601f10612190576101008083540402835291602001916121bb565b820191906000526020600020905b81548152906001019060200180831161219e57829003601f168201915b505050505081526020016003820160009054906101000a900473ffffffffffffffffffffffffffffffffffffffff1673ffffffffffffffffffffffffffffffffffffffff1673ffffffffffffffffffffffffffffffffffffffff1681526020016004820160009054906101000a900473ffffffffffffffffffffffffffffffffffffffff1673ffffffffffffffffffffffffffffffffffffffff1673ffffffffffffffffffffffffffffffffffffffff1681526020016005820180546122809061559b565b80601f01602080910402602001604051908101604052809291908181526020018280546122ac9061559b565b80156122f95780601f106122ce576101008083540402835291602001916122f9565b820191906000526020600020905b8154815290600101906020018083116122dc57829003601f168201915b505050505081526020016006820180546123129061559b565b80601f016020809104026020016040519081016040528092919081815260200182805461233e9061559b565b801561238b5780601f106123605761010080835404028352916020019161238b565b820191906000526020600020905b81548152906001019060200180831161236e57829003601f168201915b5050505050815250508486815181106123a7576123a6615a0b565b5b602002602001018190525084806123bd90615a3a565b95505050505b80806123ce90615a3a565b915050611ff8565b5080945050505050919050565b6060600160028111156123f9576123f8614d2e565b5b600460003373ffffffffffffffffffffffffffffffffffffffff1673ffffffffffffffffffffffffffffffffffffffff16815260200190815260200160002060000160159054906101000a900460ff16600281111561245b5761245a614d2e565b5b14806124d9575060028081111561247557612474614d2e565b5b600460003373ffffffffffffffffffffffffffffffffffffffff1673ffffffffffffffffffffffffffffffffffffffff16815260200190815260200160002060000160159054906101000a900460ff1660028111156124d7576124d6614d2e565b5b145b612518576040517f08c379a000000000000000000000000000000000000000000000000000000000815260040161250f9061554c565b60405180910390fd5b6125226000613e52565b905090565b61252f6147cb565b6125383361397e565b905090565b6060600061254b6000613970565b90506000808267ffffffffffffffff81111561256a57612569614a29565b5b6040519080825280602002602001820160405280156125a357816020015b612590614878565b8152602001906001900390816125885790505b50905060005b838110156128cd5760006001826125c091906159d7565b90506000600560008381526020019081526020016000209050806040518060e0016040529081600082015481526020016001820160009054906101000a900460ff16600381111561261457612613614d2e565b5b600381111561262657612625614d2e565b5b815260200160028201805461263a9061559b565b80601f01602080910402602001604051908101604052809291908181526020018280546126669061559b565b80156126b35780601f10612688576101008083540402835291602001916126b3565b820191906000526020600020905b81548152906001019060200180831161269657829003601f168201915b505050505081526020016003820160009054906101000a900473ffffffffffffffffffffffffffffffffffffffff1673ffffffffffffffffffffffffffffffffffffffff1673ffffffffffffffffffffffffffffffffffffffff1681526020016004820160009054906101000a900473ffffffffffffffffffffffffffffffffffffffff1673ffffffffffffffffffffffffffffffffffffffff1673ffffffffffffffffffffffffffffffffffffffff1681526020016005820180546127789061559b565b80601f01602080910402602001604051908101604052809291908181526020018280546127a49061559b565b80156127f15780601f106127c6576101008083540402835291602001916127f1565b820191906000526020600020905b8154815290600101906020018083116127d457829003601f168201915b5050505050815260200160068201805461280a9061559b565b80601f01602080910402602001604051908101604052809291908181526020018280546128369061559b565b80156128835780601f1061285857610100808354040283529160200191612883565b820191906000526020600020905b81548152906001019060200180831161286657829003601f168201915b50505050508152505084868151811061289f5761289e615a0b565b5b602002602001018190525084806128b590615a3a565b955050505080806128c590615a3a565b9150506125a9565b5080935050505090565b6002808111156128ea576128e9614d2e565b5b600460003373ffffffffffffffffffffffffffffffffffffffff1673ffffffffffffffffffffffffffffffffffffffff16815260200190815260200160002060000160159054906101000a900460ff16600281111561294c5761294b614d2e565b5b1461298c576040517f08c379a00000000000000000000000000000000000000000000000000000000081526004016129839061554c565b60405180910390fd5b600160038111156129a05761299f614d2e565b5b6005600084815260200190815260200160002060010160009054906101000a900460ff1660038111156129d6576129d5614d2e565b5b14612a16576040517f08c379a0000000000000000000000000000000000000000000000000000000008152600401612a0d90615b86565b60405180910390fd5b60036005600084815260200190815260200160002060010160006101000a81548160ff02191690836003811115612a5057612a4f614d2e565b5b021790555060066000838152602001908152602001600020600201600560008481526020019081526020016000206002019081612a8d9190615d22565b5060006005600084815260200190815260200160002060040160006101000a81548173ffffffffffffffffffffffffffffffffffffffff021916908373ffffffffffffffffffffffffffffffffffffffff16021790555060066000838152602001908152602001600020600501600560008481526020019081526020016000206005019081612b1c9190615d22565b5080600560008481526020019081526020016000206006019081612b409190615778565b50600660008381526020019081526020016000206000808201600090556001820160006101000a81549060ff0219169055600282016000612b819190614838565b6003820160006101000a81549073ffffffffffffffffffffffffffffffffffffffff02191690556004820160006101000a81549073ffffffffffffffffffffffffffffffffffffffff0219169055600582016000612bdf9190614838565b600682016000612bef9190614838565b50505050565b6000600280811115612c0a57612c09614d2e565b5b600460003373ffffffffffffffffffffffffffffffffffffffff1673ffffffffffffffffffffffffffffffffffffffff16815260200190815260200160002060000160159054906101000a900460ff166002811115612c6c57612c6b614d2e565b5b14612cac576040517f08c379a0000000000000000000000000000000000000000000000000000000008152600401612ca39061554c565b60405180910390fd5b600460008373ffffffffffffffffffffffffffffffffffffffff1673ffffffffffffffffffffffffffffffffffffffff16815260200190815260200160002060000160149054906101000a900460ff16612d3b576040517f08c379a0000000000000000000000000000000000000000000000000000000008152600401612d3290615896565b60405180910390fd5b60006002811115612d4f57612d4e614d2e565b5b600460008473ffffffffffffffffffffffffffffffffffffffff1673ffffffffffffffffffffffffffffffffffffffff16815260200190815260200160002060000160159054906101000a900460ff166002811115612db157612db0614d2e565b5b14612df1576040517f08c379a0000000000000000000000000000000000000000000000000000000008152600401612de890615e7c565b60405180910390fd5b600060016002612e016002613970565b612e0b91906159a6565b612e1591906159d7565b905060005b600460008573ffffffffffffffffffffffffffffffffffffffff1673ffffffffffffffffffffffffffffffffffffffff16815260200190815260200160002060010180549050811015612f30573373ffffffffffffffffffffffffffffffffffffffff16600460008673ffffffffffffffffffffffffffffffffffffffff1673ffffffffffffffffffffffffffffffffffffffff1681526020019081526020016000206001018281548110612ed257612ed1615a0b565b5b9060005260206000200160009054906101000a900473ffffffffffffffffffffffffffffffffffffffff1673ffffffffffffffffffffffffffffffffffffffff1603612f1d57600080fd5b8080612f2890615a3a565b915050612e1a565b50600460008473ffffffffffffffffffffffffffffffffffffffff1673ffffffffffffffffffffffffffffffffffffffff168152602001908152602001600020600101339080600181540180825580915050600190039060005260206000200160009091909190916101000a81548173ffffffffffffffffffffffffffffffffffffffff021916908373ffffffffffffffffffffffffffffffffffffffff16021790555080600460008573ffffffffffffffffffffffffffffffffffffffff1673ffffffffffffffffffffffffffffffffffffffff16815260200190815260200160002060010180549050106130e4576001600460008573ffffffffffffffffffffffffffffffffffffffff1673ffffffffffffffffffffffffffffffffffffffff16815260200190815260200160002060000160156101000a81548160ff0219169083600281111561308657613085614d2e565b5b0217905550600460008473ffffffffffffffffffffffffffffffffffffffff1673ffffffffffffffffffffffffffffffffffffffff16815260200190815260200160002060030160006130d991906147aa565b6130e3600161395a565b5b6001915050919050565b60606001600281111561310457613103614d2e565b5b600460003373ffffffffffffffffffffffffffffffffffffffff1673ffffffffffffffffffffffffffffffffffffffff16815260200190815260200160002060000160159054906101000a900460ff16600281111561316657613165614d2e565b5b14806131e457506002808111156131805761317f614d2e565b5b600460003373ffffffffffffffffffffffffffffffffffffffff1673ffffffffffffffffffffffffffffffffffffffff16815260200190815260200160002060000160159054906101000a900460ff1660028111156131e2576131e1614d2e565b5b145b613223576040517f08c379a000000000000000000000000000000000000000000000000000000000815260040161321a9061554c565b60405180910390fd5b6000600380549050905060008167ffffffffffffffff81111561324957613248614a29565b5b60405190808252806020026020018201604052801561328257816020015b61326f6148f3565b8152602001906001900390816132675790505b50905060005b828110156135ab576000600382815481106132a6576132a5615a0b565b5b9060005260206000200160009054906101000a900473ffffffffffffffffffffffffffffffffffffffff1690506000600460008373ffffffffffffffffffffffffffffffffffffffff1673ffffffffffffffffffffffffffffffffffffffff1681526020019081526020016000209050806040518060c00160405290816000820160009054906101000a900473ffffffffffffffffffffffffffffffffffffffff1673ffffffffffffffffffffffffffffffffffffffff1673ffffffffffffffffffffffffffffffffffffffff1681526020016000820160149054906101000a900460ff161515151581526020016000820160159054906101000a900460ff1660028111156133b8576133b7614d2e565b5b60028111156133ca576133c9614d2e565b5b81526020016001820180548060200260200160405190810160405280929190818152602001828054801561345357602002820191906000526020600020905b8160009054906101000a900473ffffffffffffffffffffffffffffffffffffffff1673ffffffffffffffffffffffffffffffffffffffff1681526020019060010190808311613409575b50505050508152602001600282018054806020026020016040519081016040528092919081815260200182805480156134e157602002820191906000526020600020905b8160009054906101000a900473ffffffffffffffffffffffffffffffffffffffff1673ffffffffffffffffffffffffffffffffffffffff1681526020019060010190808311613497575b505050505081526020016003820180548060200260200160405190810160405280929190818152602001828054801561356f57602002820191906000526020600020905b8160009054906101000a900473ffffffffffffffffffffffffffffffffffffffff1673ffffffffffffffffffffffffffffffffffffffff1681526020019060010190808311613525575b50505050508152505084848151811061358b5761358a615a0b565b5b6020026020010181905250505080806135a390615a3a565b915050613288565b50809250505090565b6060600160028111156135ca576135c9614d2e565b5b600460003373ffffffffffffffffffffffffffffffffffffffff1673ffffffffffffffffffffffffffffffffffffffff16815260200190815260200160002060000160159054906101000a900460ff16600281111561362c5761362b614d2e565b5b14806136aa575060028081111561364657613645614d2e565b5b600460003373ffffffffffffffffffffffffffffffffffffffff1673ffffffffffffffffffffffffffffffffffffffff16815260200190815260200160002060000160159054906101000a900460ff1660028111156136a8576136a7614d2e565b5b145b6136e9576040517f08c379a00000000000000000000000000000000000000000000000000000000081526004016136e09061554c565b60405180910390fd5b6136f36003613e52565b905090565b60606137046002613e52565b905090565b606060028081111561371e5761371d614d2e565b5b600460003373ffffffffffffffffffffffffffffffffffffffff1673ffffffffffffffffffffffffffffffffffffffff16815260200190815260200160002060000160159054906101000a900460ff1660028111156137805761377f614d2e565b5b146137c0576040517f08c379a00000000000000000000000000000000000000000000000000000000081526004016137b79061554c565b60405180910390fd5b6137d46137cd6001613970565b60016142d4565b905090565b6002808111156137ec576137eb614d2e565b5b600460003373ffffffffffffffffffffffffffffffffffffffff1673ffffffffffffffffffffffffffffffffffffffff16815260200190815260200160002060000160159054906101000a900460ff16600281111561384e5761384d614d2e565b5b1461388e576040517f08c379a00000000000000000000000000000000000000000000000000000000081526004016138859061554c565b60405180910390fd5b600060038111156138a2576138a1614d2e565b5b6005600083815260200190815260200160002060010160009054906101000a900460ff1660038111156138d8576138d7614d2e565b5b14613918576040517f08c379a000000000000000000000000000000000000000000000000000000000815260040161390f90615af4565b60405180910390fd5b60026005600083815260200190815260200160002060010160006101000a81548160ff0219169083600381111561395257613951614d2e565b5b021790555050565b6001816000016000828254019250508190555050565b600081600001549050919050565b6139866147cb565b6000600160026139966002613970565b6139a091906159a6565b6139aa91906159d7565b90506139b46147cb565b600460008573ffffffffffffffffffffffffffffffffffffffff1673ffffffffffffffffffffffffffffffffffffffff16815260200190815260200160002060000160009054906101000a900473ffffffffffffffffffffffffffffffffffffffff16816000019073ffffffffffffffffffffffffffffffffffffffff16908173ffffffffffffffffffffffffffffffffffffffff1681525050600460008573ffffffffffffffffffffffffffffffffffffffff1673ffffffffffffffffffffffffffffffffffffffff16815260200190815260200160002060000160159054906101000a900460ff1681602001906002811115613ab557613ab4614d2e565b5b90816002811115613ac957613ac8614d2e565b5b81525050600460008573ffffffffffffffffffffffffffffffffffffffff1673ffffffffffffffffffffffffffffffffffffffff168152602001908152602001600020600101805480602002602001604051908101604052809291908181526020018280548015613b8f57602002820191906000526020600020905b8160009054906101000a900473ffffffffffffffffffffffffffffffffffffffff1673ffffffffffffffffffffffffffffffffffffffff1681526020019060010190808311613b45575b50505050508160400181905250600460008573ffffffffffffffffffffffffffffffffffffffff1673ffffffffffffffffffffffffffffffffffffffff1681526020019081526020016000206001018054905082613bed9190615e9c565b816060018181525050600460008573ffffffffffffffffffffffffffffffffffffffff1673ffffffffffffffffffffffffffffffffffffffff168152602001908152602001600020600201805480602002602001604051908101604052809291908181526020018280548015613cb857602002820191906000526020600020905b8160009054906101000a900473ffffffffffffffffffffffffffffffffffffffff1673ffffffffffffffffffffffffffffffffffffffff1681526020019060010190808311613c6e575b50505050508160800181905250600460008573ffffffffffffffffffffffffffffffffffffffff1673ffffffffffffffffffffffffffffffffffffffff1681526020019081526020016000206002018054905082613d169190615e9c565b8160a0018181525050600460008573ffffffffffffffffffffffffffffffffffffffff1673ffffffffffffffffffffffffffffffffffffffff168152602001908152602001600020600301805480602002602001604051908101604052809291908181526020018280548015613de157602002820191906000526020600020905b8160009054906101000a900473ffffffffffffffffffffffffffffffffffffffff1673ffffffffffffffffffffffffffffffffffffffff1681526020019060010190808311613d97575b50505050508160c00181905250600460008573ffffffffffffffffffffffffffffffffffffffff1673ffffffffffffffffffffffffffffffffffffffff1681526020019081526020016000206003018054905082613e3f9190615e9c565b8160e00181815250508092505050919050565b60606000613e606000613970565b905060008060005b83811015613eec57856003811115613e8357613e82614d2e565b5b60056000600184613e9491906159d7565b815260200190815260200160002060010160009054906101000a900460ff166003811115613ec557613ec4614d2e565b5b03613ed9578280613ed590615a3a565b9350505b8080613ee490615a3a565b915050613e68565b5060008267ffffffffffffffff811115613f0957613f08614a29565b5b604051908082528060200260200182016040528015613f4257816020015b613f2f614878565b815260200190600190039081613f275790505b50905060005b848110156142c757866003811115613f6357613f62614d2e565b5b60056000600184613f7491906159d7565b815260200190815260200160002060010160009054906101000a900460ff166003811115613fa557613fa4614d2e565b5b036142b4576000600182613fb991906159d7565b90506000600560008381526020019081526020016000209050806040518060e0016040529081600082015481526020016001820160009054906101000a900460ff16600381111561400d5761400c614d2e565b5b600381111561401f5761401e614d2e565b5b81526020016002820180546140339061559b565b80601f016020809104026020016040519081016040528092919081815260200182805461405f9061559b565b80156140ac5780601f10614081576101008083540402835291602001916140ac565b820191906000526020600020905b81548152906001019060200180831161408f57829003601f168201915b505050505081526020016003820160009054906101000a900473ffffffffffffffffffffffffffffffffffffffff1673ffffffffffffffffffffffffffffffffffffffff1673ffffffffffffffffffffffffffffffffffffffff1681526020016004820160009054906101000a900473ffffffffffffffffffffffffffffffffffffffff1673ffffffffffffffffffffffffffffffffffffffff1673ffffffffffffffffffffffffffffffffffffffff1681526020016005820180546141719061559b565b80601f016020809104026020016040519081016040528092919081815260200182805461419d9061559b565b80156141ea5780601f106141bf576101008083540402835291602001916141ea565b820191906000526020600020905b8154815290600101906020018083116141cd57829003601f168201915b505050505081526020016006820180546142039061559b565b80601f016020809104026020016040519081016040528092919081815260200182805461422f9061559b565b801561427c5780601f106142515761010080835404028352916020019161427c565b820191906000526020600020905b81548152906001019060200180831161425f57829003601f168201915b50505050508152505084868151811061429857614297615a0b565b5b602002602001018190525084806142ae90615a3a565b95505050505b80806142bf90615a3a565b915050613f48565b5080945050505050919050565b60606002808111156142e9576142e8614d2e565b5b600460003373ffffffffffffffffffffffffffffffffffffffff1673ffffffffffffffffffffffffffffffffffffffff16815260200190815260200160002060000160159054906101000a900460ff16600281111561434b5761434a614d2e565b5b1461438b576040517f08c379a00000000000000000000000000000000000000000000000000000000081526004016143829061554c565b60405180910390fd5b600060038054905090506000808567ffffffffffffffff8111156143b2576143b1614a29565b5b6040519080825280602002602001820160405280156143eb57816020015b6143d86148f3565b8152602001906001900390816143d05790505b50905060005b8381101561479d5760006003828154811061440f5761440e615a0b565b5b9060005260206000200160009054906101000a900473ffffffffffffffffffffffffffffffffffffffff16905086600281111561444f5761444e614d2e565b5b600460008373ffffffffffffffffffffffffffffffffffffffff1673ffffffffffffffffffffffffffffffffffffffff16815260200190815260200160002060000160159054906101000a900460ff1660028111156144b1576144b0614d2e565b5b03614789576000600460008373ffffffffffffffffffffffffffffffffffffffff1673ffffffffffffffffffffffffffffffffffffffff1681526020019081526020016000209050806040518060c00160405290816000820160009054906101000a900473ffffffffffffffffffffffffffffffffffffffff1673ffffffffffffffffffffffffffffffffffffffff1673ffffffffffffffffffffffffffffffffffffffff1681526020016000820160149054906101000a900460ff161515151581526020016000820160159054906101000a900460ff16600281111561459b5761459a614d2e565b5b60028111156145ad576145ac614d2e565b5b81526020016001820180548060200260200160405190810160405280929190818152602001828054801561463657602002820191906000526020600020905b8160009054906101000a900473ffffffffffffffffffffffffffffffffffffffff1673ffffffffffffffffffffffffffffffffffffffff16815260200190600101908083116145ec575b50505050508152602001600282018054806020026020016040519081016040528092919081815260200182805480156146c457602002820191906000526020600020905b8160009054906101000a900473ffffffffffffffffffffffffffffffffffffffff1673ffffffffffffffffffffffffffffffffffffffff168152602001906001019080831161467a575b505050505081526020016003820180548060200260200160405190810160405280929190818152602001828054801561475257602002820191906000526020600020905b8160009054906101000a900473ffffffffffffffffffffffffffffffffffffffff1673ffffffffffffffffffffffffffffffffffffffff1681526020019060010190808311614708575b50505050508152505084868151811061476e5761476d615a0b565b5b6020026020010181905250848061478490615a3a565b955050505b50808061479590615a3a565b9150506143f1565b5080935050505092915050565b50805460008255906000526020600020908101906147c891906149dd565b50565b604051806101000160405280600073ffffffffffffffffffffffffffffffffffffffff1681526020016000600281111561480857614807614d2e565b5b81526020016060815260200160008152602001606081526020016000815260200160608152602001600081525090565b5080546148449061559b565b6000825580601f106148565750614875565b601f01602090049060005260206000209081019061487491906149dd565b5b50565b6040518060e00160405280600081526020016000600381111561489e5761489d614d2e565b5b815260200160608152602001600073ffffffffffffffffffffffffffffffffffffffff168152602001600073ffffffffffffffffffffffffffffffffffffffff16815260200160608152602001606081525090565b6040518060c00160405280600073ffffffffffffffffffffffffffffffffffffffff1681526020016000151581526020016000600281111561493857614937614d2e565b5b81526020016060815260200160608152602001606081525090565b8280548282559060005260206000209081019282156149cc579160200282015b828111156149cb5782518260006101000a81548173ffffffffffffffffffffffffffffffffffffffff021916908373ffffffffffffffffffffffffffffffffffffffff16021790555091602001919060010190614973565b5b5090506149d991906149dd565b5090565b5b808211156149f65760008160009055506001016149de565b5090565b6000604051905090565b600080fd5b600080fd5b600080fd5b600080fd5b6000601f19601f8301169050919050565b7f4e487b7100000000000000000000000000000000000000000000000000000000600052604160045260246000fd5b614a6182614a18565b810181811067ffffffffffffffff82111715614a8057614a7f614a29565b5b80604052505050565b6000614a936149fa565b9050614a9f8282614a58565b919050565b600067ffffffffffffffff821115614abf57614abe614a29565b5b614ac882614a18565b9050602081019050919050565b82818337600083830152505050565b6000614af7614af284614aa4565b614a89565b905082815260208101848484011115614b1357614b12614a13565b5b614b1e848285614ad5565b509392505050565b600082601f830112614b3b57614b3a614a0e565b5b8135614b4b848260208601614ae4565b91505092915050565b60008060408385031215614b6b57614b6a614a04565b5b600083013567ffffffffffffffff811115614b8957614b88614a09565b5b614b9585828601614b26565b925050602083013567ffffffffffffffff811115614bb657614bb5614a09565b5b614bc285828601614b26565b9150509250929050565b600073ffffffffffffffffffffffffffffffffffffffff82169050919050565b6000614bf782614bcc565b9050919050565b614c0781614bec565b8114614c1257600080fd5b50565b600081359050614c2481614bfe565b92915050565b600060208284031215614c4057614c3f614a04565b5b6000614c4e84828501614c15565b91505092915050565b60008115159050919050565b614c6c81614c57565b82525050565b6000602082019050614c876000830184614c63565b92915050565b6000819050919050565b614ca081614c8d565b8114614cab57600080fd5b50565b600081359050614cbd81614c97565b92915050565b60008060408385031215614cda57614cd9614a04565b5b6000614ce885828601614cae565b925050602083013567ffffffffffffffff811115614d0957614d08614a09565b5b614d1585828601614b26565b9150509250929050565b614d2881614bec565b82525050565b7f4e487b7100000000000000000000000000000000000000000000000000000000600052602160045260246000fd5b60038110614d6e57614d6d614d2e565b5b50565b6000819050614d7f82614d5d565b919050565b6000614d8f82614d71565b9050919050565b614d9f81614d84565b82525050565b600081519050919050565b600082825260208201905092915050565b6000819050602082019050919050565b6000614ddd8383614d1f565b60208301905092915050565b6000602082019050919050565b6000614e0182614da5565b614e0b8185614db0565b9350614e1683614dc1565b8060005b83811015614e47578151614e2e8882614dd1565b9750614e3983614de9565b925050600181019050614e1a565b5085935050505092915050565b614e5d81614c8d565b82525050565b600061010083016000830151614e7c6000860182614d1f565b506020830151614e8f6020860182614d96565b5060408301518482036040860152614ea78282614df6565b9150506060830151614ebc6060860182614e54565b5060808301518482036080860152614ed48282614df6565b91505060a0830151614ee960a0860182614e54565b5060c083015184820360c0860152614f018282614df6565b91505060e0830151614f1660e0860182614e54565b508091505092915050565b60006020820190508181036000830152614f3b8184614e63565b905092915050565b600060208284031215614f5957614f58614a04565b5b6000614f6784828501614cae565b91505092915050565b60048110614f8157614f80614d2e565b5b50565b6000819050614f9282614f70565b919050565b6000614fa282614f84565b9050919050565b614fb281614f97565b82525050565b600081519050919050565b600082825260208201905092915050565b60005b83811015614ff2578082015181840152602081019050614fd7565b60008484015250505050565b600061500982614fb8565b6150138185614fc3565b9350615023818560208601614fd4565b61502c81614a18565b840191505092915050565b600060e08301600083015161504f6000860182614e54565b5060208301516150626020860182614fa9565b506040830151848203604086015261507a8282614ffe565b915050606083015161508f6060860182614d1f565b5060808301516150a26080860182614d1f565b5060a083015184820360a08601526150ba8282614ffe565b91505060c083015184820360c08601526150d48282614ffe565b9150508091505092915050565b600060208201905081810360008301526150fb8184615037565b905092915050565b60008060006060848603121561511c5761511b614a04565b5b600061512a86828701614cae565b935050602084013567ffffffffffffffff81111561514b5761514a614a09565b5b61515786828701614b26565b925050604084013567ffffffffffffffff81111561517857615177614a09565b5b61518486828701614b26565b9150509250925092565b600081519050919050565b600082825260208201905092915050565b6000819050602082019050919050565b600060e0830160008301516151d26000860182614e54565b5060208301516151e56020860182614fa9565b50604083015184820360408601526151fd8282614ffe565b91505060608301516152126060860182614d1f565b5060808301516152256080860182614d1f565b5060a083015184820360a086015261523d8282614ffe565b91505060c083015184820360c08601526152578282614ffe565b9150508091505092915050565b600061527083836151ba565b905092915050565b6000602082019050919050565b60006152908261518e565b61529a8185615199565b9350836020820285016152ac856151aa565b8060005b858110156152e857848403895281516152c98582615264565b94506152d483615278565b925060208a019950506001810190506152b0565b50829750879550505050505092915050565b600060208201905081810360008301526153148184615285565b905092915050565b600081519050919050565b600082825260208201905092915050565b6000819050602082019050919050565b61535181614c57565b82525050565b600060c08301600083015161536f6000860182614d1f565b5060208301516153826020860182615348565b5060408301516153956040860182614d96565b50606083015184820360608601526153ad8282614df6565b915050608083015184820360808601526153c78282614df6565b91505060a083015184820360a08601526153e18282614df6565b9150508091505092915050565b60006153fa8383615357565b905092915050565b6000602082019050919050565b600061541a8261531c565b6154248185615327565b93508360208202850161543685615338565b8060005b85811015615472578484038952815161545385826153ee565b945061545e83615402565b925060208a0199505060018101905061543a565b50829750879550505050505092915050565b6000602082019050818103600083015261549e818461540f565b905092915050565b6000602082840312156154bc576154bb614a04565b5b600082013567ffffffffffffffff8111156154da576154d9614a09565b5b6154e684828501614b26565b91505092915050565b600082825260208201905092915050565b7f556e617574686f72697a65642041636365737300000000000000000000000000600082015250565b60006155366013836154ef565b915061554182615500565b602082019050919050565b6000602082019050818103600083015261556581615529565b9050919050565b7f4e487b7100000000000000000000000000000000000000000000000000000000600052602260045260246000fd5b600060028204905060018216806155b357607f821691505b6020821081036155c6576155c561556c565b5b50919050565b60008190508160005260206000209050919050565b60006020601f8301049050919050565b600082821b905092915050565b60006008830261562e7fffffffffffffffffffffffffffffffffffffffffffffffffffffffffffffffff826155f1565b61563886836155f1565b95508019841693508086168417925050509392505050565b6000819050919050565b600061567561567061566b84614c8d565b615650565b614c8d565b9050919050565b6000819050919050565b61568f8361565a565b6156a361569b8261567c565b8484546155fe565b825550505050565b600090565b6156b86156ab565b6156c3818484615686565b505050565b5b818110156156e7576156dc6000826156b0565b6001810190506156c9565b5050565b601f82111561572c576156fd816155cc565b615706846155e1565b81016020851015615715578190505b615729615721856155e1565b8301826156c8565b50505b505050565b600082821c905092915050565b600061574f60001984600802615731565b1980831691505092915050565b6000615768838361573e565b9150826002028217905092915050565b61578182614fb8565b67ffffffffffffffff81111561579a57615799614a29565b5b6157a4825461559b565b6157af8282856156eb565b600060209050601f8311600181146157e257600084156157d0578287015190505b6157da858261575c565b865550615842565b601f1984166157f0866155cc565b60005b82811015615818578489015182556001820191506020850194506020810190506157f3565b868310156158355784890151615831601f89168261573e565b8355505b6001600288020188555050505b505050505050565b7f5573657220646f6573206e6f7420657869737421000000000000000000000000600082015250565b60006158806014836154ef565b915061588b8261584a565b602082019050919050565b600060208201905081810360008301526158af81615873565b9050919050565b7f557365722063616e6e6f742062652070726f6d6f74656420746f20616e20416460008201527f6d696e2100000000000000000000000000000000000000000000000000000000602082015250565b60006159126024836154ef565b915061591d826158b6565b604082019050919050565b6000602082019050818103600083015261594181615905565b9050919050565b7f4e487b7100000000000000000000000000000000000000000000000000000000600052601260045260246000fd5b7f4e487b7100000000000000000000000000000000000000000000000000000000600052601160045260246000fd5b60006159b182614c8d565b91506159bc83614c8d565b9250826159cc576159cb615948565b5b828204905092915050565b60006159e282614c8d565b91506159ed83614c8d565b9250828201905080821115615a0557615a04615977565b5b92915050565b7f4e487b7100000000000000000000000000000000000000000000000000000000600052603260045260246000fd5b6000615a4582614c8d565b91507fffffffffffffffffffffffffffffffffffffffffffffffffffffffffffffffff8203615a7757615a76615977565b5b600182019050919050565b7f50726f706572747920616c726561647920417070726f766564206f722052656a60008201527f6563746564000000000000000000000000000000000000000000000000000000602082015250565b6000615ade6025836154ef565b9150615ae982615a82565b604082019050919050565b60006020820190508181036000830152615b0d81615ad1565b9050919050565b7f4e6f206f776e657273686970207265717565737420666f72207468652064657360008201527f69676e617465642070726f706572747920657869737473000000000000000000602082015250565b6000615b706037836154ef565b9150615b7b82615b14565b604082019050919050565b60006020820190508181036000830152615b9f81615b63565b9050919050565b600081905092915050565b6000615bbc82614fb8565b615bc68185615ba6565b9350615bd6818560208601614fd4565b80840191505092915050565b6000615bee8284615bb1565b915081905092915050565b7f50726f706572747920646f6573206e6f74204578697374206f7220486173204e60008201527f6f74204265656e20417070726f76656400000000000000000000000000000000602082015250565b6000615c556030836154ef565b9150615c6082615bf9565b604082019050919050565b60006020820190508181036000830152615c8481615c48565b9050919050565b7f5573657220616c72656164792065786973747321000000000000000000000000600082015250565b6000615cc16014836154ef565b9150615ccc82615c8b565b602082019050919050565b60006020820190508181036000830152615cf081615cb4565b9050919050565b600081549050615d068161559b565b9050919050565b60008190508160005260206000209050919050565b818103615d30575050615e08565b615d3982615cf7565b67ffffffffffffffff811115615d5257615d51614a29565b5b615d5c825461559b565b615d678282856156eb565b6000601f831160018114615d965760008415615d84578287015490505b615d8e858261575c565b865550615e01565b601f198416615da487615d0d565b9650615daf866155cc565b60005b82811015615dd757848901548255600182019150600185019450602081019050615db2565b86831015615df45784890154615df0601f89168261573e565b8355505b6001600288020188555050505b5050505050505b565b7f557365722063616e6e6f742062652070726f6d6f74656420746f2061204d6f6460008201527f657261746f722100000000000000000000000000000000000000000000000000602082015250565b6000615e666027836154ef565b9150615e7182615e0a565b604082019050919050565b60006020820190508181036000830152615e9581615e59565b9050919050565b6000615ea782614c8d565b9150615eb283614c8d565b9250828203905081811115615eca57615ec9615977565b5b9291505056fea2646970667358221220cd28a367ada6ef26fb68bfded6bdacedc9169e3306329c87fe02a83e3ea7982864736f6c63430008110033",
  "linkReferences": {},
  "deployedLinkReferences": {}
}