{
  "_format": "hh-sol-artifact-1",
  "contractName": "DLS",
  "sourceName": "contracts/DLS.sol",
  "abi": [
    {
      "inputs": [],
      "stateMutability": "nonpayable",
      "type": "constructor"
    },
    {
      "inputs": [
        {
          "internalType": "address",
          "name": "_newAdmin",
          "type": "address"
        }
      ],
      "name": "addNewAdmin",
      "outputs": [
        {
          "internalType": "bool",
          "name": "",
          "type": "bool"
        }
      ],
      "stateMutability": "nonpayable",
      "type": "function"
    },
    {
      "inputs": [
        {
          "internalType": "address",
          "name": "_newHeadAdmin",
          "type": "address"
        }
      ],
      "name": "addNewHeadAdmin",
      "outputs": [
        {
          "internalType": "bool",
          "name": "",
          "type": "bool"
        }
      ],
      "stateMutability": "nonpayable",
      "type": "function"
    },
    {
      "inputs": [
        {
          "internalType": "uint256",
          "name": "_itemId",
          "type": "uint256"
        }
      ],
      "name": "approveOwnershipChange",
      "outputs": [],
      "stateMutability": "nonpayable",
      "type": "function"
    },
    {
      "inputs": [
        {
          "internalType": "uint256",
          "name": "_itemId",
          "type": "uint256"
        }
      ],
      "name": "approveProperty",
      "outputs": [],
      "stateMutability": "nonpayable",
      "type": "function"
    },
    {
      "inputs": [
        {
          "internalType": "uint256",
          "name": "_itemId",
          "type": "uint256"
        },
        {
          "internalType": "string",
          "name": "_ipfsHashValue",
          "type": "string"
        }
      ],
      "name": "changeOwnership",
      "outputs": [],
      "stateMutability": "nonpayable",
      "type": "function"
    },
    {
      "inputs": [
        {
          "internalType": "string",
          "name": "_ipfsHashValue",
          "type": "string"
        }
      ],
      "name": "createProperty",
      "outputs": [],
      "stateMutability": "nonpayable",
      "type": "function"
    },
    {
      "inputs": [],
      "name": "fetchAllAdmins",
      "outputs": [
        {
          "components": [
            {
              "internalType": "address",
              "name": "userAddress",
              "type": "address"
            },
            {
              "internalType": "bool",
              "name": "isRegistered",
              "type": "bool"
            },
            {
              "internalType": "bool",
              "name": "isAdmin",
              "type": "bool"
            },
            {
              "internalType": "bool",
              "name": "isHeadAdmin",
              "type": "bool"
            }
          ],
          "internalType": "struct DLS.UserItem[]",
          "name": "",
          "type": "tuple[]"
        }
      ],
      "stateMutability": "view",
      "type": "function"
    },
    {
      "inputs": [],
      "name": "fetchAllApprovedProperties",
      "outputs": [
        {
          "components": [
            {
              "internalType": "uint256",
              "name": "itemId",
              "type": "uint256"
            },
            {
              "internalType": "enum DLS.Status",
              "name": "status",
              "type": "uint8"
            },
            {
              "internalType": "string",
              "name": "ipfsHash",
              "type": "string"
            }
          ],
          "internalType": "struct DLS.PropertyItem[]",
          "name": "",
          "type": "tuple[]"
        }
      ],
      "stateMutability": "view",
      "type": "function"
    },
    {
      "inputs": [],
      "name": "fetchAllHeadAdmins",
      "outputs": [
        {
          "components": [
            {
              "internalType": "address",
              "name": "userAddress",
              "type": "address"
            },
            {
              "internalType": "bool",
              "name": "isRegistered",
              "type": "bool"
            },
            {
              "internalType": "bool",
              "name": "isAdmin",
              "type": "bool"
            },
            {
              "internalType": "bool",
              "name": "isHeadAdmin",
              "type": "bool"
            }
          ],
          "internalType": "struct DLS.UserItem[]",
          "name": "",
          "type": "tuple[]"
        }
      ],
      "stateMutability": "view",
      "type": "function"
    },
    {
      "inputs": [],
      "name": "fetchAllPendingProperties",
      "outputs": [
        {
          "components": [
            {
              "internalType": "uint256",
              "name": "itemId",
              "type": "uint256"
            },
            {
              "internalType": "enum DLS.Status",
              "name": "status",
              "type": "uint8"
            },
            {
              "internalType": "string",
              "name": "ipfsHash",
              "type": "string"
            }
          ],
          "internalType": "struct DLS.PropertyItem[]",
          "name": "",
          "type": "tuple[]"
        }
      ],
      "stateMutability": "view",
      "type": "function"
    },
    {
      "inputs": [],
      "name": "fetchAllProperties",
      "outputs": [
        {
          "components": [
            {
              "internalType": "uint256",
              "name": "itemId",
              "type": "uint256"
            },
            {
              "internalType": "enum DLS.Status",
              "name": "status",
              "type": "uint8"
            },
            {
              "internalType": "string",
              "name": "ipfsHash",
              "type": "string"
            }
          ],
          "internalType": "struct DLS.PropertyItem[]",
          "name": "",
          "type": "tuple[]"
        }
      ],
      "stateMutability": "view",
      "type": "function"
    },
    {
      "inputs": [],
      "name": "fetchAllRejectedProperties",
      "outputs": [
        {
          "components": [
            {
              "internalType": "uint256",
              "name": "itemId",
              "type": "uint256"
            },
            {
              "internalType": "enum DLS.Status",
              "name": "status",
              "type": "uint8"
            },
            {
              "internalType": "string",
              "name": "ipfsHash",
              "type": "string"
            }
          ],
          "internalType": "struct DLS.PropertyItem[]",
          "name": "",
          "type": "tuple[]"
        }
      ],
      "stateMutability": "view",
      "type": "function"
    },
    {
      "inputs": [],
      "name": "fetchAllUnderReviewProperties",
      "outputs": [
        {
          "components": [
            {
              "internalType": "uint256",
              "name": "itemId",
              "type": "uint256"
            },
            {
              "internalType": "enum DLS.Status",
              "name": "status",
              "type": "uint8"
            },
            {
              "internalType": "string",
              "name": "ipfsHash",
              "type": "string"
            }
          ],
          "internalType": "struct DLS.PropertyItem[]",
          "name": "",
          "type": "tuple[]"
        }
      ],
      "stateMutability": "view",
      "type": "function"
    },
    {
      "inputs": [],
      "name": "fetchAllUsers",
      "outputs": [
        {
          "components": [
            {
              "internalType": "address",
              "name": "userAddress",
              "type": "address"
            },
            {
              "internalType": "bool",
              "name": "isRegistered",
              "type": "bool"
            },
            {
              "internalType": "bool",
              "name": "isAdmin",
              "type": "bool"
            },
            {
              "internalType": "bool",
              "name": "isHeadAdmin",
              "type": "bool"
            }
          ],
          "internalType": "struct DLS.UserItem[]",
          "name": "",
          "type": "tuple[]"
        }
      ],
      "stateMutability": "view",
      "type": "function"
    },
    {
      "inputs": [],
      "name": "getUser",
      "outputs": [
        {
          "components": [
            {
              "internalType": "address",
              "name": "userAddress",
              "type": "address"
            },
            {
              "internalType": "bool",
              "name": "isRegistered",
              "type": "bool"
            },
            {
              "internalType": "bool",
              "name": "isAdmin",
              "type": "bool"
            },
            {
              "internalType": "bool",
              "name": "isHeadAdmin",
              "type": "bool"
            }
          ],
          "internalType": "struct DLS.UserItem",
          "name": "",
          "type": "tuple"
        }
      ],
      "stateMutability": "view",
      "type": "function"
    },
    {
      "inputs": [],
      "name": "registerNewUser",
      "outputs": [
        {
          "internalType": "bool",
          "name": "",
          "type": "bool"
        }
      ],
      "stateMutability": "nonpayable",
      "type": "function"
    },
    {
      "inputs": [
        {
          "internalType": "uint256",
          "name": "_itemId",
          "type": "uint256"
        }
      ],
      "name": "rejectOwnershipChange",
      "outputs": [],
      "stateMutability": "nonpayable",
      "type": "function"
    },
    {
      "inputs": [
        {
          "internalType": "uint256",
          "name": "_itemId",
          "type": "uint256"
        }
      ],
      "name": "rejectProperty",
      "outputs": [],
      "stateMutability": "nonpayable",
      "type": "function"
    }
  ],
  "bytecode": "0x60806040523480156200001157600080fd5b506003339080600181540180825580915050600190039060005260206000200160009091909190916101000a81548173ffffffffffffffffffffffffffffffffffffffff021916908373ffffffffffffffffffffffffffffffffffffffff16021790555060405180608001604052803373ffffffffffffffffffffffffffffffffffffffff16815260200160011515815260200160001515815260200160011515815250600460003373ffffffffffffffffffffffffffffffffffffffff1673ffffffffffffffffffffffffffffffffffffffff16815260200190815260200160002060008201518160000160006101000a81548173ffffffffffffffffffffffffffffffffffffffff021916908373ffffffffffffffffffffffffffffffffffffffff16021790555060208201518160000160146101000a81548160ff02191690831515021790555060408201518160000160156101000a81548160ff02191690831515021790555060608201518160000160166101000a81548160ff021916908315150217905550905050620001b56002620001bb60201b62002b901760201c565b620001d1565b6001816000016000828254019250508190555050565b613bea80620001e16000396000f3fe608060405234801561001057600080fd5b50600436106101165760003560e01c80637292633b116100a2578063abea39b911610071578063abea39b9146102bb578063c3374315146102d9578063cbb83376146102f7578063d078990d14610315578063e9b66f8c1461033357610116565b80637292633b14610233578063832880e71461025157806391ddb7fc1461026f57806395eaa8021461028b57610116565b8063519919d8116100e9578063519919d81461019f57806352a4675a146101bd5780635f937747146101db5780636445907e146101f757806367bbabf11461021557610116565b80630a1b10e11461011b57806311875ea61461014b5780631504671a1461016757806327983fcf14610183575b600080fd5b61013560048036038101906101309190612cfa565b61034f565b6040516101429190612d42565b60405180910390f35b61016560048036038101906101609190612ea3565b61056d565b005b610181600480360381019061017c9190612f22565b6106ac565b005b61019d60048036038101906101989190612f22565b6107bf565b005b6101a761091a565b6040516101b49190613071565b60405180910390f35b6101c5610c02565b6040516101d291906132aa565b60405180910390f35b6101f560048036038101906101f09190612f22565b610f9a565b005b6101ff6110e6565b60405161020c9190612d42565b60405180910390f35b61021d61130b565b60405161022a9190613071565b60405180910390f35b61023b6115f3565b60405161024891906132aa565b60405180910390f35b61025961198b565b6040516102669190613321565b60405180910390f35b6102896004803603810190610284919061333c565b611a89565b005b6102a560048036038101906102a09190612cfa565b611d3b565b6040516102b29190612d42565b60405180910390f35b6102c3611f59565b6040516102d091906132aa565b60405180910390f35b6102e1612123565b6040516102ee9190613071565b60405180910390f35b6102ff6123ed565b60405161030c91906132aa565b60405180910390f35b61031d612783565b60405161032a91906132aa565b60405180910390f35b61034d60048036038101906103489190612f22565b612a35565b005b6000600460003373ffffffffffffffffffffffffffffffffffffffff1673ffffffffffffffffffffffffffffffffffffffff16815260200190815260200160002060000160169054906101000a900460ff166103e0576040517f08c379a00000000000000000000000000000000000000000000000000000000081526004016103d7906133f5565b60405180910390fd5b600460008373ffffffffffffffffffffffffffffffffffffffff1673ffffffffffffffffffffffffffffffffffffffff16815260200190815260200160002060000160149054906101000a900460ff1661046f576040517f08c379a000000000000000000000000000000000000000000000000000000000815260040161046690613461565b60405180910390fd5b600460008373ffffffffffffffffffffffffffffffffffffffff1673ffffffffffffffffffffffffffffffffffffffff16815260200190815260200160002060000160159054906101000a900460ff16156104ff576040517f08c379a00000000000000000000000000000000000000000000000000000000081526004016104f6906134cd565b60405180910390fd5b6001600460008473ffffffffffffffffffffffffffffffffffffffff1673ffffffffffffffffffffffffffffffffffffffff16815260200190815260200160002060000160156101000a81548160ff0219169083151502179055506105646001612b90565b60019050919050565b600460003373ffffffffffffffffffffffffffffffffffffffff1673ffffffffffffffffffffffffffffffffffffffff16815260200190815260200160002060000160159054906101000a900460ff166105fc576040517f08c379a00000000000000000000000000000000000000000000000000000000081526004016105f3906133f5565b60405180910390fd5b6106066000612b90565b60006106126000612ba6565b9050604051806060016040528082815260200160006003811115610639576106386130ce565b5b815260200183815250600560008381526020019081526020016000206000820151816000015560208201518160010160006101000a81548160ff0219169083600381111561068a576106896130ce565b5b021790555060408201518160020190816106a491906136f9565b509050505050565b600460003373ffffffffffffffffffffffffffffffffffffffff1673ffffffffffffffffffffffffffffffffffffffff16815260200190815260200160002060000160169054906101000a900460ff1661073b576040517f08c379a0000000000000000000000000000000000000000000000000000000008152600401610732906133f5565b60405180910390fd5b60026005600083815260200190815260200160002060010160006101000a81548160ff02191690836003811115610775576107746130ce565b5b0217905550600660008281526020019081526020016000206000808201600090556001820160006101000a81549060ff02191690556002820160006107ba9190612bb4565b505050565b600460003373ffffffffffffffffffffffffffffffffffffffff1673ffffffffffffffffffffffffffffffffffffffff16815260200190815260200160002060000160169054906101000a900460ff1661084e576040517f08c379a0000000000000000000000000000000000000000000000000000000008152600401610845906133f5565b60405180910390fd5b60006003811115610862576108616130ce565b5b6005600083815260200190815260200160002060010160009054906101000a900460ff166003811115610898576108976130ce565b5b146108d8576040517f08c379a00000000000000000000000000000000000000000000000000000000081526004016108cf9061383d565b60405180910390fd5b60036005600083815260200190815260200160002060010160006101000a81548160ff02191690836003811115610912576109116130ce565b5b021790555050565b6060600460003373ffffffffffffffffffffffffffffffffffffffff1673ffffffffffffffffffffffffffffffffffffffff16815260200190815260200160002060000160169054906101000a900460ff166109ab576040517f08c379a00000000000000000000000000000000000000000000000000000000081526004016109a2906133f5565b60405180910390fd5b600060038054905090506000806109c26002612ba6565b67ffffffffffffffff8111156109db576109da612d78565b5b604051908082528060200260200182016040528015610a1457816020015b610a01612bf4565b8152602001906001900390816109f95790505b50905060005b83811015610bf857600060038281548110610a3857610a3761385d565b5b9060005260206000200160009054906101000a900473ffffffffffffffffffffffffffffffffffffffff16905060011515600460008373ffffffffffffffffffffffffffffffffffffffff1673ffffffffffffffffffffffffffffffffffffffff16815260200190815260200160002060000160169054906101000a900460ff16151503610be4576000600460008373ffffffffffffffffffffffffffffffffffffffff1673ffffffffffffffffffffffffffffffffffffffff1681526020019081526020016000209050806040518060800160405290816000820160009054906101000a900473ffffffffffffffffffffffffffffffffffffffff1673ffffffffffffffffffffffffffffffffffffffff1673ffffffffffffffffffffffffffffffffffffffff1681526020016000820160149054906101000a900460ff161515151581526020016000820160159054906101000a900460ff161515151581526020016000820160169054906101000a900460ff161515151581525050848681518110610bc957610bc861385d565b5b60200260200101819052508480610bdf906138bb565b955050505b508080610bf0906138bb565b915050610a1a565b5080935050505090565b6060600460003373ffffffffffffffffffffffffffffffffffffffff1673ffffffffffffffffffffffffffffffffffffffff16815260200190815260200160002060000160159054906101000a900460ff1680610cab5750600460003373ffffffffffffffffffffffffffffffffffffffff1673ffffffffffffffffffffffffffffffffffffffff16815260200190815260200160002060000160169054906101000a900460ff165b610cea576040517f08c379a0000000000000000000000000000000000000000000000000000000008152600401610ce1906133f5565b60405180910390fd5b6000610cf66000612ba6565b905060008060005b83811015610d835760016003811115610d1a57610d196130ce565b5b60056000600184610d2b9190613903565b815260200190815260200160002060010160009054906101000a900460ff166003811115610d5c57610d5b6130ce565b5b03610d70578280610d6c906138bb565b9350505b8080610d7b906138bb565b915050610cfe565b5060008267ffffffffffffffff811115610da057610d9f612d78565b5b604051908082528060200260200182016040528015610dd957816020015b610dc6612c38565b815260200190600190039081610dbe5790505b50905060005b84811015610f8f5760016003811115610dfb57610dfa6130ce565b5b60056000600184610e0c9190613903565b815260200190815260200160002060010160009054906101000a900460ff166003811115610e3d57610e3c6130ce565b5b03610f7c576000600182610e519190613903565b9050600060056000838152602001908152602001600020905080604051806060016040529081600082015481526020016001820160009054906101000a900460ff166003811115610ea557610ea46130ce565b5b6003811115610eb757610eb66130ce565b5b8152602001600282018054610ecb9061351c565b80601f0160208091040260200160405190810160405280929190818152602001828054610ef79061351c565b8015610f445780601f10610f1957610100808354040283529160200191610f44565b820191906000526020600020905b815481529060010190602001808311610f2757829003601f168201915b505050505081525050848681518110610f6057610f5f61385d565b5b60200260200101819052508480610f76906138bb565b95505050505b8080610f87906138bb565b915050610ddf565b508094505050505090565b600460003373ffffffffffffffffffffffffffffffffffffffff1673ffffffffffffffffffffffffffffffffffffffff16815260200190815260200160002060000160169054906101000a900460ff16611029576040517f08c379a0000000000000000000000000000000000000000000000000000000008152600401611020906133f5565b60405180910390fd5b60026005600083815260200190815260200160002060010160006101000a81548160ff02191690836003811115611063576110626130ce565b5b0217905550600660008281526020019081526020016000206002016005600083815260200190815260200160002060020190816110a09190613962565b50600660008281526020019081526020016000206000808201600090556001820160006101000a81549060ff02191690556002820160006110e19190612bb4565b505050565b6000600460003373ffffffffffffffffffffffffffffffffffffffff1673ffffffffffffffffffffffffffffffffffffffff16815260200190815260200160002060000160149054906101000a900460ff1615611178576040517f08c379a000000000000000000000000000000000000000000000000000000000815260040161116f90613a96565b60405180910390fd5b6003339080600181540180825580915050600190039060005260206000200160009091909190916101000a81548173ffffffffffffffffffffffffffffffffffffffff021916908373ffffffffffffffffffffffffffffffffffffffff16021790555060405180608001604052803373ffffffffffffffffffffffffffffffffffffffff16815260200160011515815260200160001515815260200160001515815250600460003373ffffffffffffffffffffffffffffffffffffffff1673ffffffffffffffffffffffffffffffffffffffff16815260200190815260200160002060008201518160000160006101000a81548173ffffffffffffffffffffffffffffffffffffffff021916908373ffffffffffffffffffffffffffffffffffffffff16021790555060208201518160000160146101000a81548160ff02191690831515021790555060408201518160000160156101000a81548160ff02191690831515021790555060608201518160000160166101000a81548160ff0219169083151502179055509050506001905090565b6060600460003373ffffffffffffffffffffffffffffffffffffffff1673ffffffffffffffffffffffffffffffffffffffff16815260200190815260200160002060000160169054906101000a900460ff1661139c576040517f08c379a0000000000000000000000000000000000000000000000000000000008152600401611393906133f5565b60405180910390fd5b600060038054905090506000806113b36001612ba6565b67ffffffffffffffff8111156113cc576113cb612d78565b5b60405190808252806020026020018201604052801561140557816020015b6113f2612bf4565b8152602001906001900390816113ea5790505b50905060005b838110156115e9576000600382815481106114295761142861385d565b5b9060005260206000200160009054906101000a900473ffffffffffffffffffffffffffffffffffffffff16905060011515600460008373ffffffffffffffffffffffffffffffffffffffff1673ffffffffffffffffffffffffffffffffffffffff16815260200190815260200160002060000160159054906101000a900460ff161515036115d5576000600460008373ffffffffffffffffffffffffffffffffffffffff1673ffffffffffffffffffffffffffffffffffffffff1681526020019081526020016000209050806040518060800160405290816000820160009054906101000a900473ffffffffffffffffffffffffffffffffffffffff1673ffffffffffffffffffffffffffffffffffffffff1673ffffffffffffffffffffffffffffffffffffffff1681526020016000820160149054906101000a900460ff161515151581526020016000820160159054906101000a900460ff161515151581526020016000820160169054906101000a900460ff1615151515815250508486815181106115ba576115b961385d565b5b602002602001018190525084806115d0906138bb565b955050505b5080806115e1906138bb565b91505061140b565b5080935050505090565b6060600460003373ffffffffffffffffffffffffffffffffffffffff1673ffffffffffffffffffffffffffffffffffffffff16815260200190815260200160002060000160159054906101000a900460ff168061169c5750600460003373ffffffffffffffffffffffffffffffffffffffff1673ffffffffffffffffffffffffffffffffffffffff16815260200190815260200160002060000160169054906101000a900460ff165b6116db576040517f08c379a00000000000000000000000000000000000000000000000000000000081526004016116d2906133f5565b60405180910390fd5b60006116e76000612ba6565b905060008060005b83811015611774576000600381111561170b5761170a6130ce565b5b6005600060018461171c9190613903565b815260200190815260200160002060010160009054906101000a900460ff16600381111561174d5761174c6130ce565b5b0361176157828061175d906138bb565b9350505b808061176c906138bb565b9150506116ef565b5060008267ffffffffffffffff81111561179157611790612d78565b5b6040519080825280602002602001820160405280156117ca57816020015b6117b7612c38565b8152602001906001900390816117af5790505b50905060005b8481101561198057600060038111156117ec576117eb6130ce565b5b600560006001846117fd9190613903565b815260200190815260200160002060010160009054906101000a900460ff16600381111561182e5761182d6130ce565b5b0361196d5760006001826118429190613903565b9050600060056000838152602001908152602001600020905080604051806060016040529081600082015481526020016001820160009054906101000a900460ff166003811115611896576118956130ce565b5b60038111156118a8576118a76130ce565b5b81526020016002820180546118bc9061351c565b80601f01602080910402602001604051908101604052809291908181526020018280546118e89061351c565b80156119355780601f1061190a57610100808354040283529160200191611935565b820191906000526020600020905b81548152906001019060200180831161191857829003601f168201915b5050505050815250508486815181106119515761195061385d565b5b60200260200101819052508480611967906138bb565b95505050505b8080611978906138bb565b9150506117d0565b508094505050505090565b611993612bf4565b600460003373ffffffffffffffffffffffffffffffffffffffff1673ffffffffffffffffffffffffffffffffffffffff1681526020019081526020016000206040518060800160405290816000820160009054906101000a900473ffffffffffffffffffffffffffffffffffffffff1673ffffffffffffffffffffffffffffffffffffffff1673ffffffffffffffffffffffffffffffffffffffff1681526020016000820160149054906101000a900460ff161515151581526020016000820160159054906101000a900460ff161515151581526020016000820160169054906101000a900460ff161515151581525050905090565b600460003373ffffffffffffffffffffffffffffffffffffffff1673ffffffffffffffffffffffffffffffffffffffff16815260200190815260200160002060000160159054906101000a900460ff16611b18576040517f08c379a0000000000000000000000000000000000000000000000000000000008152600401611b0f906133f5565b60405180910390fd5b60026003811115611b2c57611b2b6130ce565b5b6005600084815260200190815260200160002060010160009054906101000a900460ff166003811115611b6257611b616130ce565b5b14611ba2576040517f08c379a0000000000000000000000000000000000000000000000000000000008152600401611b9990613b28565b60405180910390fd5b604051806060016040528083815260200160016003811115611bc757611bc66130ce565b5b8152602001600560008581526020019081526020016000206002018054611bed9061351c565b80601f0160208091040260200160405190810160405280929190818152602001828054611c199061351c565b8015611c665780601f10611c3b57610100808354040283529160200191611c66565b820191906000526020600020905b815481529060010190602001808311611c4957829003601f168201915b5050505050815250600660008481526020019081526020016000206000820151816000015560208201518160010160006101000a81548160ff02191690836003811115611cb657611cb56130ce565b5b02179055506040820151816002019081611cd091906136f9565b5090505060016005600084815260200190815260200160002060010160006101000a81548160ff02191690836003811115611d0e57611d0d6130ce565b5b021790555080600560008481526020019081526020016000206002019081611d3691906136f9565b505050565b6000600460003373ffffffffffffffffffffffffffffffffffffffff1673ffffffffffffffffffffffffffffffffffffffff16815260200190815260200160002060000160169054906101000a900460ff16611dcc576040517f08c379a0000000000000000000000000000000000000000000000000000000008152600401611dc3906133f5565b60405180910390fd5b600460008373ffffffffffffffffffffffffffffffffffffffff1673ffffffffffffffffffffffffffffffffffffffff16815260200190815260200160002060000160149054906101000a900460ff16611e5b576040517f08c379a0000000000000000000000000000000000000000000000000000000008152600401611e5290613461565b60405180910390fd5b600460008373ffffffffffffffffffffffffffffffffffffffff1673ffffffffffffffffffffffffffffffffffffffff16815260200190815260200160002060000160169054906101000a900460ff1615611eeb576040517f08c379a0000000000000000000000000000000000000000000000000000000008152600401611ee290613b94565b60405180910390fd5b6001600460008473ffffffffffffffffffffffffffffffffffffffff1673ffffffffffffffffffffffffffffffffffffffff16815260200190815260200160002060000160166101000a81548160ff021916908315150217905550611f506002612b90565b60019050919050565b60606000611f676000612ba6565b90506000808267ffffffffffffffff811115611f8657611f85612d78565b5b604051908082528060200260200182016040528015611fbf57816020015b611fac612c38565b815260200190600190039081611fa45790505b50905060005b83811015612119576000600182611fdc9190613903565b9050600060056000838152602001908152602001600020905080604051806060016040529081600082015481526020016001820160009054906101000a900460ff1660038111156120305761202f6130ce565b5b6003811115612042576120416130ce565b5b81526020016002820180546120569061351c565b80601f01602080910402602001604051908101604052809291908181526020018280546120829061351c565b80156120cf5780601f106120a4576101008083540402835291602001916120cf565b820191906000526020600020905b8154815290600101906020018083116120b257829003601f168201915b5050505050815250508486815181106120eb576120ea61385d565b5b60200260200101819052508480612101906138bb565b95505050508080612111906138bb565b915050611fc5565b5080935050505090565b6060600460003373ffffffffffffffffffffffffffffffffffffffff1673ffffffffffffffffffffffffffffffffffffffff16815260200190815260200160002060000160159054906101000a900460ff16806121cc5750600460003373ffffffffffffffffffffffffffffffffffffffff1673ffffffffffffffffffffffffffffffffffffffff16815260200190815260200160002060000160169054906101000a900460ff165b61220b576040517f08c379a0000000000000000000000000000000000000000000000000000000008152600401612202906133f5565b60405180910390fd5b6000600380549050905060008167ffffffffffffffff81111561223157612230612d78565b5b60405190808252806020026020018201604052801561226a57816020015b612257612bf4565b81526020019060019003908161224f5790505b50905060005b828110156123e45760006003828154811061228e5761228d61385d565b5b9060005260206000200160009054906101000a900473ffffffffffffffffffffffffffffffffffffffff1690506000600460008373ffffffffffffffffffffffffffffffffffffffff1673ffffffffffffffffffffffffffffffffffffffff1681526020019081526020016000209050806040518060800160405290816000820160009054906101000a900473ffffffffffffffffffffffffffffffffffffffff1673ffffffffffffffffffffffffffffffffffffffff1673ffffffffffffffffffffffffffffffffffffffff1681526020016000820160149054906101000a900460ff161515151581526020016000820160159054906101000a900460ff161515151581526020016000820160169054906101000a900460ff1615151515815250508484815181106123c4576123c361385d565b5b6020026020010181905250505080806123dc906138bb565b915050612270565b50809250505090565b6060600460003373ffffffffffffffffffffffffffffffffffffffff1673ffffffffffffffffffffffffffffffffffffffff16815260200190815260200160002060000160159054906101000a900460ff16806124965750600460003373ffffffffffffffffffffffffffffffffffffffff1673ffffffffffffffffffffffffffffffffffffffff16815260200190815260200160002060000160169054906101000a900460ff165b6124d5576040517f08c379a00000000000000000000000000000000000000000000000000000000081526004016124cc906133f5565b60405180910390fd5b60006124e16000612ba6565b905060008060005b8381101561256d57600380811115612504576125036130ce565b5b600560006001846125159190613903565b815260200190815260200160002060010160009054906101000a900460ff166003811115612546576125456130ce565b5b0361255a578280612556906138bb565b9350505b8080612565906138bb565b9150506124e9565b5060008267ffffffffffffffff81111561258a57612589612d78565b5b6040519080825280602002602001820160405280156125c357816020015b6125b0612c38565b8152602001906001900390816125a85790505b50905060005b84811015612778576003808111156125e4576125e36130ce565b5b600560006001846125f59190613903565b815260200190815260200160002060010160009054906101000a900460ff166003811115612626576126256130ce565b5b0361276557600060018261263a9190613903565b9050600060056000838152602001908152602001600020905080604051806060016040529081600082015481526020016001820160009054906101000a900460ff16600381111561268e5761268d6130ce565b5b60038111156126a05761269f6130ce565b5b81526020016002820180546126b49061351c565b80601f01602080910402602001604051908101604052809291908181526020018280546126e09061351c565b801561272d5780601f106127025761010080835404028352916020019161272d565b820191906000526020600020905b81548152906001019060200180831161271057829003601f168201915b5050505050815250508486815181106127495761274861385d565b5b6020026020010181905250848061275f906138bb565b95505050505b8080612770906138bb565b9150506125c9565b508094505050505090565b606060006127916000612ba6565b905060008060005b8381101561281e57600260038111156127b5576127b46130ce565b5b600560006001846127c69190613903565b815260200190815260200160002060010160009054906101000a900460ff1660038111156127f7576127f66130ce565b5b0361280b578280612807906138bb565b9350505b8080612816906138bb565b915050612799565b5060008267ffffffffffffffff81111561283b5761283a612d78565b5b60405190808252806020026020018201604052801561287457816020015b612861612c38565b8152602001906001900390816128595790505b50905060005b84811015612a2a5760026003811115612896576128956130ce565b5b600560006001846128a79190613903565b815260200190815260200160002060010160009054906101000a900460ff1660038111156128d8576128d76130ce565b5b03612a175760006001826128ec9190613903565b9050600060056000838152602001908152602001600020905080604051806060016040529081600082015481526020016001820160009054906101000a900460ff1660038111156129405761293f6130ce565b5b6003811115612952576129516130ce565b5b81526020016002820180546129669061351c565b80601f01602080910402602001604051908101604052809291908181526020018280546129929061351c565b80156129df5780601f106129b4576101008083540402835291602001916129df565b820191906000526020600020905b8154815290600101906020018083116129c257829003601f168201915b5050505050815250508486815181106129fb576129fa61385d565b5b60200260200101819052508480612a11906138bb565b95505050505b8080612a22906138bb565b91505061287a565b508094505050505090565b600460003373ffffffffffffffffffffffffffffffffffffffff1673ffffffffffffffffffffffffffffffffffffffff16815260200190815260200160002060000160169054906101000a900460ff16612ac4576040517f08c379a0000000000000000000000000000000000000000000000000000000008152600401612abb906133f5565b60405180910390fd5b60006003811115612ad857612ad76130ce565b5b6005600083815260200190815260200160002060010160009054906101000a900460ff166003811115612b0e57612b0d6130ce565b5b14612b4e576040517f08c379a0000000000000000000000000000000000000000000000000000000008152600401612b459061383d565b60405180910390fd5b60026005600083815260200190815260200160002060010160006101000a81548160ff02191690836003811115612b8857612b876130ce565b5b021790555050565b6001816000016000828254019250508190555050565b600081600001549050919050565b508054612bc09061351c565b6000825580601f10612bd25750612bf1565b601f016020900490600052602060002090810190612bf09190612c6b565b5b50565b6040518060800160405280600073ffffffffffffffffffffffffffffffffffffffff1681526020016000151581526020016000151581526020016000151581525090565b60405180606001604052806000815260200160006003811115612c5e57612c5d6130ce565b5b8152602001606081525090565b5b80821115612c84576000816000905550600101612c6c565b5090565b6000604051905090565b600080fd5b600080fd5b600073ffffffffffffffffffffffffffffffffffffffff82169050919050565b6000612cc782612c9c565b9050919050565b612cd781612cbc565b8114612ce257600080fd5b50565b600081359050612cf481612cce565b92915050565b600060208284031215612d1057612d0f612c92565b5b6000612d1e84828501612ce5565b91505092915050565b60008115159050919050565b612d3c81612d27565b82525050565b6000602082019050612d576000830184612d33565b92915050565b600080fd5b600080fd5b6000601f19601f8301169050919050565b7f4e487b7100000000000000000000000000000000000000000000000000000000600052604160045260246000fd5b612db082612d67565b810181811067ffffffffffffffff82111715612dcf57612dce612d78565b5b80604052505050565b6000612de2612c88565b9050612dee8282612da7565b919050565b600067ffffffffffffffff821115612e0e57612e0d612d78565b5b612e1782612d67565b9050602081019050919050565b82818337600083830152505050565b6000612e46612e4184612df3565b612dd8565b905082815260208101848484011115612e6257612e61612d62565b5b612e6d848285612e24565b509392505050565b600082601f830112612e8a57612e89612d5d565b5b8135612e9a848260208601612e33565b91505092915050565b600060208284031215612eb957612eb8612c92565b5b600082013567ffffffffffffffff811115612ed757612ed6612c97565b5b612ee384828501612e75565b91505092915050565b6000819050919050565b612eff81612eec565b8114612f0a57600080fd5b50565b600081359050612f1c81612ef6565b92915050565b600060208284031215612f3857612f37612c92565b5b6000612f4684828501612f0d565b91505092915050565b600081519050919050565b600082825260208201905092915050565b6000819050602082019050919050565b612f8481612cbc565b82525050565b612f9381612d27565b82525050565b608082016000820151612faf6000850182612f7b565b506020820151612fc26020850182612f8a565b506040820151612fd56040850182612f8a565b506060820151612fe86060850182612f8a565b50505050565b6000612ffa8383612f99565b60808301905092915050565b6000602082019050919050565b600061301e82612f4f565b6130288185612f5a565b935061303383612f6b565b8060005b8381101561306457815161304b8882612fee565b975061305683613006565b925050600181019050613037565b5085935050505092915050565b6000602082019050818103600083015261308b8184613013565b905092915050565b600081519050919050565b600082825260208201905092915050565b6000819050602082019050919050565b6130c881612eec565b82525050565b7f4e487b7100000000000000000000000000000000000000000000000000000000600052602160045260246000fd5b6004811061310e5761310d6130ce565b5b50565b600081905061311f826130fd565b919050565b600061312f82613111565b9050919050565b61313f81613124565b82525050565b600081519050919050565b600082825260208201905092915050565b60005b8381101561317f578082015181840152602081019050613164565b60008484015250505050565b600061319682613145565b6131a08185613150565b93506131b0818560208601613161565b6131b981612d67565b840191505092915050565b60006060830160008301516131dc60008601826130bf565b5060208301516131ef6020860182613136565b5060408301518482036040860152613207828261318b565b9150508091505092915050565b600061322083836131c4565b905092915050565b6000602082019050919050565b600061324082613093565b61324a818561309e565b93508360208202850161325c856130af565b8060005b8581101561329857848403895281516132798582613214565b945061328483613228565b925060208a01995050600181019050613260565b50829750879550505050505092915050565b600060208201905081810360008301526132c48184613235565b905092915050565b6080820160008201516132e26000850182612f7b565b5060208201516132f56020850182612f8a565b5060408201516133086040850182612f8a565b50606082015161331b6060850182612f8a565b50505050565b600060808201905061333660008301846132cc565b92915050565b6000806040838503121561335357613352612c92565b5b600061336185828601612f0d565b925050602083013567ffffffffffffffff81111561338257613381612c97565b5b61338e85828601612e75565b9150509250929050565b600082825260208201905092915050565b7f556e617574686f72697a65642041636365737300000000000000000000000000600082015250565b60006133df601383613398565b91506133ea826133a9565b602082019050919050565b6000602082019050818103600083015261340e816133d2565b9050919050565b7f5573657220646f6573206e6f7420657869737421000000000000000000000000600082015250565b600061344b601483613398565b915061345682613415565b602082019050919050565b6000602082019050818103600083015261347a8161343e565b9050919050565b7f5573657220616c72656164792041646d696e2100000000000000000000000000600082015250565b60006134b7601383613398565b91506134c282613481565b602082019050919050565b600060208201905081810360008301526134e6816134aa565b9050919050565b7f4e487b7100000000000000000000000000000000000000000000000000000000600052602260045260246000fd5b6000600282049050600182168061353457607f821691505b602082108103613547576135466134ed565b5b50919050565b60008190508160005260206000209050919050565b60006020601f8301049050919050565b600082821b905092915050565b6000600883026135af7fffffffffffffffffffffffffffffffffffffffffffffffffffffffffffffffff82613572565b6135b98683613572565b95508019841693508086168417925050509392505050565b6000819050919050565b60006135f66135f16135ec84612eec565b6135d1565b612eec565b9050919050565b6000819050919050565b613610836135db565b61362461361c826135fd565b84845461357f565b825550505050565b600090565b61363961362c565b613644818484613607565b505050565b5b818110156136685761365d600082613631565b60018101905061364a565b5050565b601f8211156136ad5761367e8161354d565b61368784613562565b81016020851015613696578190505b6136aa6136a285613562565b830182613649565b50505b505050565b600082821c905092915050565b60006136d0600019846008026136b2565b1980831691505092915050565b60006136e983836136bf565b9150826002028217905092915050565b61370282613145565b67ffffffffffffffff81111561371b5761371a612d78565b5b613725825461351c565b61373082828561366c565b600060209050601f8311600181146137635760008415613751578287015190505b61375b85826136dd565b8655506137c3565b601f1984166137718661354d565b60005b8281101561379957848901518255600182019150602085019450602081019050613774565b868310156137b657848901516137b2601f8916826136bf565b8355505b6001600288020188555050505b505050505050565b7f50726f706572747920616c726561647920417070726f766564206f722052656a60008201527f6563746564000000000000000000000000000000000000000000000000000000602082015250565b6000613827602583613398565b9150613832826137cb565b604082019050919050565b600060208201905081810360008301526138568161381a565b9050919050565b7f4e487b7100000000000000000000000000000000000000000000000000000000600052603260045260246000fd5b7f4e487b7100000000000000000000000000000000000000000000000000000000600052601160045260246000fd5b60006138c682612eec565b91507fffffffffffffffffffffffffffffffffffffffffffffffffffffffffffffffff82036138f8576138f761388c565b5b600182019050919050565b600061390e82612eec565b915061391983612eec565b92508282019050808211156139315761393061388c565b5b92915050565b6000815490506139468161351c565b9050919050565b60008190508160005260206000209050919050565b818103613970575050613a48565b61397982613937565b67ffffffffffffffff81111561399257613991612d78565b5b61399c825461351c565b6139a782828561366c565b6000601f8311600181146139d657600084156139c4578287015490505b6139ce85826136dd565b865550613a41565b601f1984166139e48761394d565b96506139ef8661354d565b60005b82811015613a17578489015482556001820191506001850194506020810190506139f2565b86831015613a345784890154613a30601f8916826136bf565b8355505b6001600288020188555050505b5050505050505b565b7f5573657220616c72656164792065786973747321000000000000000000000000600082015250565b6000613a80601483613398565b9150613a8b82613a4a565b602082019050919050565b60006020820190508181036000830152613aaf81613a73565b9050919050565b7f50726f706572747920646f6573206e6f74204578697374206f7220486173204e60008201527f6f74204265656e20417070726f76656400000000000000000000000000000000602082015250565b6000613b12603083613398565b9150613b1d82613ab6565b604082019050919050565b60006020820190508181036000830152613b4181613b05565b9050919050565b7f5573657220616c726561647920486561642041646d696e210000000000000000600082015250565b6000613b7e601883613398565b9150613b8982613b48565b602082019050919050565b60006020820190508181036000830152613bad81613b71565b905091905056fea2646970667358221220b76b551e7e80b9290d4a564b151747c7c485fe9c15981159a0fe8ab3f1fc4d7c64736f6c63430008110033",
  "linkReferences": {},
  "deployedLinkReferences": {}
}