{
  "_format": "hh-sol-artifact-1",
  "contractName": "DLS",
  "sourceName": "contracts/DLS.sol",
  "abi": [
    {
      "inputs": [],
      "stateMutability": "nonpayable",
      "type": "constructor"
    },
    {
      "inputs": [
        {
          "internalType": "address",
          "name": "_newAdmin",
          "type": "address"
        }
      ],
      "name": "addNewAdmin",
      "outputs": [
        {
          "internalType": "bool",
          "name": "",
          "type": "bool"
        }
      ],
      "stateMutability": "nonpayable",
      "type": "function"
    },
    {
      "inputs": [
        {
          "internalType": "address",
          "name": "_newModerator",
          "type": "address"
        }
      ],
      "name": "addNewModerator",
      "outputs": [
        {
          "internalType": "bool",
          "name": "",
          "type": "bool"
        }
      ],
      "stateMutability": "nonpayable",
      "type": "function"
    },
    {
      "inputs": [
        {
          "internalType": "uint256",
          "name": "_itemId",
          "type": "uint256"
        }
      ],
      "name": "approveOwnershipChange",
      "outputs": [],
      "stateMutability": "nonpayable",
      "type": "function"
    },
    {
      "inputs": [
        {
          "internalType": "uint256",
          "name": "_itemId",
          "type": "uint256"
        }
      ],
      "name": "approveProperty",
      "outputs": [],
      "stateMutability": "nonpayable",
      "type": "function"
    },
    {
      "inputs": [
        {
          "internalType": "uint256",
          "name": "_itemId",
          "type": "uint256"
        },
        {
          "internalType": "string",
          "name": "_ipfsHashValue",
          "type": "string"
        }
      ],
      "name": "changeOwnership",
      "outputs": [],
      "stateMutability": "nonpayable",
      "type": "function"
    },
    {
      "inputs": [
        {
          "internalType": "string",
          "name": "_ipfsHashValue",
          "type": "string"
        }
      ],
      "name": "createProperty",
      "outputs": [],
      "stateMutability": "nonpayable",
      "type": "function"
    },
    {
      "inputs": [
        {
          "internalType": "address",
          "name": "_userAddress",
          "type": "address"
        }
      ],
      "name": "demoteUser",
      "outputs": [
        {
          "internalType": "bool",
          "name": "",
          "type": "bool"
        }
      ],
      "stateMutability": "nonpayable",
      "type": "function"
    },
    {
      "inputs": [],
      "name": "fetchAllAdmins",
      "outputs": [
        {
          "components": [
            {
              "internalType": "address",
              "name": "userAddress",
              "type": "address"
            },
            {
              "internalType": "bool",
              "name": "isRegistered",
              "type": "bool"
            },
            {
              "internalType": "enum DLS.Role",
              "name": "role",
              "type": "uint8"
            },
            {
              "internalType": "address[]",
              "name": "modApprovals",
              "type": "address[]"
            },
            {
              "internalType": "address[]",
              "name": "adminApprovals",
              "type": "address[]"
            },
            {
              "internalType": "address[]",
              "name": "removalRequests",
              "type": "address[]"
            }
          ],
          "internalType": "struct DLS.UserItem[]",
          "name": "",
          "type": "tuple[]"
        }
      ],
      "stateMutability": "view",
      "type": "function"
    },
    {
      "inputs": [],
      "name": "fetchAllApprovedProperties",
      "outputs": [
        {
          "components": [
            {
              "internalType": "uint256",
              "name": "itemId",
              "type": "uint256"
            },
            {
              "internalType": "enum DLS.Status",
              "name": "status",
              "type": "uint8"
            },
            {
              "internalType": "string",
              "name": "ipfsHash",
              "type": "string"
            },
            {
              "internalType": "address",
              "name": "addedBy",
              "type": "address"
            },
            {
              "internalType": "address",
              "name": "updatedBy",
              "type": "address"
            },
            {
              "internalType": "string",
              "name": "message",
              "type": "string"
            }
          ],
          "internalType": "struct DLS.PropertyItem[]",
          "name": "",
          "type": "tuple[]"
        }
      ],
      "stateMutability": "view",
      "type": "function"
    },
    {
      "inputs": [],
      "name": "fetchAllModerators",
      "outputs": [
        {
          "components": [
            {
              "internalType": "address",
              "name": "userAddress",
              "type": "address"
            },
            {
              "internalType": "bool",
              "name": "isRegistered",
              "type": "bool"
            },
            {
              "internalType": "enum DLS.Role",
              "name": "role",
              "type": "uint8"
            },
            {
              "internalType": "address[]",
              "name": "modApprovals",
              "type": "address[]"
            },
            {
              "internalType": "address[]",
              "name": "adminApprovals",
              "type": "address[]"
            },
            {
              "internalType": "address[]",
              "name": "removalRequests",
              "type": "address[]"
            }
          ],
          "internalType": "struct DLS.UserItem[]",
          "name": "",
          "type": "tuple[]"
        }
      ],
      "stateMutability": "view",
      "type": "function"
    },
    {
      "inputs": [],
      "name": "fetchAllPendingProperties",
      "outputs": [
        {
          "components": [
            {
              "internalType": "uint256",
              "name": "itemId",
              "type": "uint256"
            },
            {
              "internalType": "enum DLS.Status",
              "name": "status",
              "type": "uint8"
            },
            {
              "internalType": "string",
              "name": "ipfsHash",
              "type": "string"
            },
            {
              "internalType": "address",
              "name": "addedBy",
              "type": "address"
            },
            {
              "internalType": "address",
              "name": "updatedBy",
              "type": "address"
            },
            {
              "internalType": "string",
              "name": "message",
              "type": "string"
            }
          ],
          "internalType": "struct DLS.PropertyItem[]",
          "name": "",
          "type": "tuple[]"
        }
      ],
      "stateMutability": "view",
      "type": "function"
    },
    {
      "inputs": [],
      "name": "fetchAllProperties",
      "outputs": [
        {
          "components": [
            {
              "internalType": "uint256",
              "name": "itemId",
              "type": "uint256"
            },
            {
              "internalType": "enum DLS.Status",
              "name": "status",
              "type": "uint8"
            },
            {
              "internalType": "string",
              "name": "ipfsHash",
              "type": "string"
            },
            {
              "internalType": "address",
              "name": "addedBy",
              "type": "address"
            },
            {
              "internalType": "address",
              "name": "updatedBy",
              "type": "address"
            },
            {
              "internalType": "string",
              "name": "message",
              "type": "string"
            }
          ],
          "internalType": "struct DLS.PropertyItem[]",
          "name": "",
          "type": "tuple[]"
        }
      ],
      "stateMutability": "view",
      "type": "function"
    },
    {
      "inputs": [],
      "name": "fetchAllRejectedProperties",
      "outputs": [
        {
          "components": [
            {
              "internalType": "uint256",
              "name": "itemId",
              "type": "uint256"
            },
            {
              "internalType": "enum DLS.Status",
              "name": "status",
              "type": "uint8"
            },
            {
              "internalType": "string",
              "name": "ipfsHash",
              "type": "string"
            },
            {
              "internalType": "address",
              "name": "addedBy",
              "type": "address"
            },
            {
              "internalType": "address",
              "name": "updatedBy",
              "type": "address"
            },
            {
              "internalType": "string",
              "name": "message",
              "type": "string"
            }
          ],
          "internalType": "struct DLS.PropertyItem[]",
          "name": "",
          "type": "tuple[]"
        }
      ],
      "stateMutability": "view",
      "type": "function"
    },
    {
      "inputs": [],
      "name": "fetchAllUnderReviewProperties",
      "outputs": [
        {
          "components": [
            {
              "internalType": "uint256",
              "name": "itemId",
              "type": "uint256"
            },
            {
              "internalType": "enum DLS.Status",
              "name": "status",
              "type": "uint8"
            },
            {
              "internalType": "string",
              "name": "ipfsHash",
              "type": "string"
            },
            {
              "internalType": "address",
              "name": "addedBy",
              "type": "address"
            },
            {
              "internalType": "address",
              "name": "updatedBy",
              "type": "address"
            },
            {
              "internalType": "string",
              "name": "message",
              "type": "string"
            }
          ],
          "internalType": "struct DLS.PropertyItem[]",
          "name": "",
          "type": "tuple[]"
        }
      ],
      "stateMutability": "view",
      "type": "function"
    },
    {
      "inputs": [],
      "name": "fetchAllUsers",
      "outputs": [
        {
          "components": [
            {
              "internalType": "address",
              "name": "userAddress",
              "type": "address"
            },
            {
              "internalType": "bool",
              "name": "isRegistered",
              "type": "bool"
            },
            {
              "internalType": "enum DLS.Role",
              "name": "role",
              "type": "uint8"
            },
            {
              "internalType": "address[]",
              "name": "modApprovals",
              "type": "address[]"
            },
            {
              "internalType": "address[]",
              "name": "adminApprovals",
              "type": "address[]"
            },
            {
              "internalType": "address[]",
              "name": "removalRequests",
              "type": "address[]"
            }
          ],
          "internalType": "struct DLS.UserItem[]",
          "name": "",
          "type": "tuple[]"
        }
      ],
      "stateMutability": "view",
      "type": "function"
    },
    {
      "inputs": [
        {
          "internalType": "uint256",
          "name": "_itemId",
          "type": "uint256"
        }
      ],
      "name": "fetchSingleProperty",
      "outputs": [
        {
          "components": [
            {
              "internalType": "uint256",
              "name": "itemId",
              "type": "uint256"
            },
            {
              "internalType": "enum DLS.Status",
              "name": "status",
              "type": "uint8"
            },
            {
              "internalType": "string",
              "name": "ipfsHash",
              "type": "string"
            },
            {
              "internalType": "address",
              "name": "addedBy",
              "type": "address"
            },
            {
              "internalType": "address",
              "name": "updatedBy",
              "type": "address"
            },
            {
              "internalType": "string",
              "name": "message",
              "type": "string"
            }
          ],
          "internalType": "struct DLS.PropertyItem",
          "name": "",
          "type": "tuple"
        }
      ],
      "stateMutability": "view",
      "type": "function"
    },
    {
      "inputs": [
        {
          "internalType": "address",
          "name": "userAddress",
          "type": "address"
        }
      ],
      "name": "fetchSingleUser",
      "outputs": [
        {
          "components": [
            {
              "internalType": "address",
              "name": "userAddress",
              "type": "address"
            },
            {
              "internalType": "enum DLS.Role",
              "name": "role",
              "type": "uint8"
            },
            {
              "internalType": "address[]",
              "name": "modApprovals",
              "type": "address[]"
            },
            {
              "internalType": "uint256",
              "name": "modApprovalsLeft",
              "type": "uint256"
            },
            {
              "internalType": "address[]",
              "name": "adminApprovals",
              "type": "address[]"
            },
            {
              "internalType": "uint256",
              "name": "adminApprovalsLeft",
              "type": "uint256"
            },
            {
              "internalType": "address[]",
              "name": "removalRequests",
              "type": "address[]"
            },
            {
              "internalType": "uint256",
              "name": "removalRequestsLeft",
              "type": "uint256"
            }
          ],
          "internalType": "struct DLS.UserReturnItem",
          "name": "",
          "type": "tuple"
        }
      ],
      "stateMutability": "view",
      "type": "function"
    },
    {
      "inputs": [],
      "name": "getUser",
      "outputs": [
        {
          "components": [
            {
              "internalType": "address",
              "name": "userAddress",
              "type": "address"
            },
            {
              "internalType": "enum DLS.Role",
              "name": "role",
              "type": "uint8"
            },
            {
              "internalType": "address[]",
              "name": "modApprovals",
              "type": "address[]"
            },
            {
              "internalType": "uint256",
              "name": "modApprovalsLeft",
              "type": "uint256"
            },
            {
              "internalType": "address[]",
              "name": "adminApprovals",
              "type": "address[]"
            },
            {
              "internalType": "uint256",
              "name": "adminApprovalsLeft",
              "type": "uint256"
            },
            {
              "internalType": "address[]",
              "name": "removalRequests",
              "type": "address[]"
            },
            {
              "internalType": "uint256",
              "name": "removalRequestsLeft",
              "type": "uint256"
            }
          ],
          "internalType": "struct DLS.UserReturnItem",
          "name": "",
          "type": "tuple"
        }
      ],
      "stateMutability": "view",
      "type": "function"
    },
    {
      "inputs": [],
      "name": "registerNewUser",
      "outputs": [
        {
          "internalType": "bool",
          "name": "",
          "type": "bool"
        }
      ],
      "stateMutability": "nonpayable",
      "type": "function"
    },
    {
      "inputs": [
        {
          "internalType": "uint256",
          "name": "_itemId",
          "type": "uint256"
        },
        {
          "internalType": "string",
          "name": "rejectionMessage",
          "type": "string"
        }
      ],
      "name": "rejectOwnershipChange",
      "outputs": [],
      "stateMutability": "nonpayable",
      "type": "function"
    },
    {
      "inputs": [
        {
          "internalType": "uint256",
          "name": "_itemId",
          "type": "uint256"
        },
        {
          "internalType": "string",
          "name": "rejectionMessage",
          "type": "string"
        }
      ],
      "name": "rejectProperty",
      "outputs": [],
      "stateMutability": "nonpayable",
      "type": "function"
    }
  ],
  "bytecode": "0x60806040523480156200001157600080fd5b506200001c6200026d565b33816000019073ffffffffffffffffffffffffffffffffffffffff16908173ffffffffffffffffffffffffffffffffffffffff168152505060018160200190151590811515815250506002816040019060028111156200008157620000806200037e565b5b908160028111156200009857620000976200037e565b5b8152505080600460003373ffffffffffffffffffffffffffffffffffffffff1673ffffffffffffffffffffffffffffffffffffffff16815260200190815260200160002060008201518160000160006101000a81548173ffffffffffffffffffffffffffffffffffffffff021916908373ffffffffffffffffffffffffffffffffffffffff16021790555060208201518160000160146101000a81548160ff02191690831515021790555060408201518160000160156101000a81548160ff021916908360028111156200017157620001706200037e565b5b0217905550606082015181600101908051906020019062000194929190620002d0565b506080820151816002019080519060200190620001b3929190620002d0565b5060a0820151816003019080519060200190620001d2929190620002d0565b509050506003339080600181540180825580915050600190039060005260206000200160009091909190916101000a81548173ffffffffffffffffffffffffffffffffffffffff021916908373ffffffffffffffffffffffffffffffffffffffff1602179055506200025060026200025760201b620036de1760201c565b50620003ad565b6001816000016000828254019250508190555050565b6040518060c00160405280600073ffffffffffffffffffffffffffffffffffffffff16815260200160001515815260200160006002811115620002b557620002b46200037e565b5b81526020016060815260200160608152602001606081525090565b8280548282559060005260206000209081019282156200034c579160200282015b828111156200034b5782518260006101000a81548173ffffffffffffffffffffffffffffffffffffffff021916908373ffffffffffffffffffffffffffffffffffffffff16021790555091602001919060010190620002f1565b5b5090506200035b91906200035f565b5090565b5b808211156200037a57600081600090555060010162000360565b5090565b7f4e487b7100000000000000000000000000000000000000000000000000000000600052602160045260246000fd5b615cce80620003bd6000396000f3fe608060405234801561001057600080fd5b50600436106101375760003560e01c8063832880e7116100b8578063c33743151161007c578063c33743151461033c578063cbb833761461035a578063d078990d14610378578063d24d6edb14610396578063d50d53ce146103b4578063e9b66f8c146103e457610137565b8063832880e71461029857806391ddb7fc146102b6578063abea39b9146102d2578063ad316d5c146102f0578063b631d8821461030c57610137565b8063371ff727116100ff578063371ff727146101f057806352a4675a146102205780636445907e1461023e57806367bbabf11461025c5780637292633b1461027a57610137565b80630a1b10e11461013c5780630ce89b461461016c5780630d4595611461018857806311875ea6146101b85780631504671a146101d4575b600080fd5b610156600480360381019061015191906148e6565b610400565b604051610163919061492e565b60405180910390f35b61018660048036038101906101819190614ac5565b6108f9565b005b6101a2600480360381019061019d91906148e6565b610a9f565b6040516101af9190614d23565b60405180910390f35b6101d260048036038101906101cd9190614d45565b610b6c565b005b6101ee60048036038101906101e99190614d8e565b610dc4565b005b61020a60048036038101906102059190614d8e565b610fe5565b6040516102179190614f12565b60405180910390f35b610228611227565b6040516102359190615086565b60405180910390f35b61024661136b565b604051610253919061492e565b60405180910390f35b61026461174c565b6040516102719190615210565b60405180910390f35b61028261181c565b60405161028f9190615086565b60405180910390f35b6102a0611960565b6040516102ad9190614d23565b60405180910390f35b6102d060048036038101906102cb9190614ac5565b611976565b005b6102da611dcb565b6040516102e79190615086565b60405180910390f35b61030a60048036038101906103059190614ac5565b6120d3565b005b610326600480360381019061032191906148e6565b6123a8565b604051610333919061492e565b60405180910390f35b6103446128a1565b6040516103519190615210565b60405180910390f35b610362612d67565b60405161036f9190615086565b60405180910390f35b610380612eab565b60405161038d9190615086565b60405180910390f35b61039e612ebc565b6040516103ab9190615210565b60405180910390f35b6103ce60048036038101906103c991906148e6565b612f8c565b6040516103db919061492e565b60405180910390f35b6103fe60048036038101906103f99190614d8e565b61355d565b005b600060028081111561041557610414614b30565b5b600460003373ffffffffffffffffffffffffffffffffffffffff1673ffffffffffffffffffffffffffffffffffffffff16815260200190815260200160002060000160159054906101000a900460ff16600281111561047757610476614b30565b5b146104b7576040517f08c379a00000000000000000000000000000000000000000000000000000000081526004016104ae9061528f565b60405180910390fd5b600460008373ffffffffffffffffffffffffffffffffffffffff1673ffffffffffffffffffffffffffffffffffffffff16815260200190815260200160002060000160149054906101000a900460ff16610546576040517f08c379a000000000000000000000000000000000000000000000000000000000815260040161053d906152fb565b60405180910390fd5b6001600281111561055a57610559614b30565b5b600460008473ffffffffffffffffffffffffffffffffffffffff1673ffffffffffffffffffffffffffffffffffffffff16815260200190815260200160002060000160159054906101000a900460ff1660028111156105bc576105bb614b30565b5b146105fc576040517f08c379a00000000000000000000000000000000000000000000000000000000081526004016105f39061538d565b60405180910390fd5b60006001600261060c60026136f4565b610616919061540b565b610620919061543c565b905060005b600460008573ffffffffffffffffffffffffffffffffffffffff1673ffffffffffffffffffffffffffffffffffffffff1681526020019081526020016000206002018054905081101561073b573373ffffffffffffffffffffffffffffffffffffffff16600460008673ffffffffffffffffffffffffffffffffffffffff1673ffffffffffffffffffffffffffffffffffffffff16815260200190815260200160002060020182815481106106dd576106dc615470565b5b9060005260206000200160009054906101000a900473ffffffffffffffffffffffffffffffffffffffff1673ffffffffffffffffffffffffffffffffffffffff160361072857600080fd5b80806107339061549f565b915050610625565b50600460008473ffffffffffffffffffffffffffffffffffffffff1673ffffffffffffffffffffffffffffffffffffffff168152602001908152602001600020600201339080600181540180825580915050600190039060005260206000200160009091909190916101000a81548173ffffffffffffffffffffffffffffffffffffffff021916908373ffffffffffffffffffffffffffffffffffffffff16021790555080600460008573ffffffffffffffffffffffffffffffffffffffff1673ffffffffffffffffffffffffffffffffffffffff16815260200190815260200160002060020180549050106108ef576002600460008573ffffffffffffffffffffffffffffffffffffffff1673ffffffffffffffffffffffffffffffffffffffff16815260200190815260200160002060000160156101000a81548160ff0219169083600281111561089157610890614b30565b5b0217905550600460008473ffffffffffffffffffffffffffffffffffffffff1673ffffffffffffffffffffffffffffffffffffffff16815260200190815260200160002060030160006108e4919061462b565b6108ee60026136de565b5b6001915050919050565b60028081111561090c5761090b614b30565b5b600460003373ffffffffffffffffffffffffffffffffffffffff1673ffffffffffffffffffffffffffffffffffffffff16815260200190815260200160002060000160159054906101000a900460ff16600281111561096e5761096d614b30565b5b146109ae576040517f08c379a00000000000000000000000000000000000000000000000000000000081526004016109a59061528f565b60405180910390fd5b600060038111156109c2576109c1614b30565b5b6005600084815260200190815260200160002060010160009054906101000a900460ff1660038111156109f8576109f7614b30565b5b14610a38576040517f08c379a0000000000000000000000000000000000000000000000000000000008152600401610a2f90615559565b60405180910390fd5b60036005600084815260200190815260200160002060010160006101000a81548160ff02191690836003811115610a7257610a71614b30565b5b021790555080600560008481526020019081526020016000206005019081610a9a9190615785565b505050565b610aa761464c565b600280811115610aba57610ab9614b30565b5b600460003373ffffffffffffffffffffffffffffffffffffffff1673ffffffffffffffffffffffffffffffffffffffff16815260200190815260200160002060000160159054906101000a900460ff166002811115610b1c57610b1b614b30565b5b14610b5c576040517f08c379a0000000000000000000000000000000000000000000000000000000008152600401610b539061528f565b60405180910390fd5b610b6582613702565b9050919050565b60016002811115610b8057610b7f614b30565b5b600460003373ffffffffffffffffffffffffffffffffffffffff1673ffffffffffffffffffffffffffffffffffffffff16815260200190815260200160002060000160159054906101000a900460ff166002811115610be257610be1614b30565b5b14610c22576040517f08c379a0000000000000000000000000000000000000000000000000000000008152600401610c199061528f565b60405180910390fd5b610c2c60006136de565b6000610c3860006136f4565b90506040518060c0016040528082815260200160006003811115610c5f57610c5e614b30565b5b81526020018381526020013373ffffffffffffffffffffffffffffffffffffffff168152602001600073ffffffffffffffffffffffffffffffffffffffff16815260200160405180602001604052806000815250815250600560008381526020019081526020016000206000820151816000015560208201518160010160006101000a81548160ff02191690836003811115610cfe57610cfd614b30565b5b02179055506040820151816002019081610d189190615785565b5060608201518160030160006101000a81548173ffffffffffffffffffffffffffffffffffffffff021916908373ffffffffffffffffffffffffffffffffffffffff16021790555060808201518160040160006101000a81548173ffffffffffffffffffffffffffffffffffffffff021916908373ffffffffffffffffffffffffffffffffffffffff16021790555060a0820151816005019081610dbc9190615785565b509050505050565b600280811115610dd757610dd6614b30565b5b600460003373ffffffffffffffffffffffffffffffffffffffff1673ffffffffffffffffffffffffffffffffffffffff16815260200190815260200160002060000160159054906101000a900460ff166002811115610e3957610e38614b30565b5b14610e79576040517f08c379a0000000000000000000000000000000000000000000000000000000008152600401610e709061528f565b60405180910390fd5b60016003811115610e8d57610e8c614b30565b5b6005600083815260200190815260200160002060010160009054906101000a900460ff166003811115610ec357610ec2614b30565b5b14610f03576040517f08c379a0000000000000000000000000000000000000000000000000000000008152600401610efa906158c9565b60405180910390fd5b60026005600083815260200190815260200160002060010160006101000a81548160ff02191690836003811115610f3d57610f3c614b30565b5b0217905550600660008281526020019081526020016000206000808201600090556001820160006101000a81549060ff0219169055600282016000610f8291906146b9565b6003820160006101000a81549073ffffffffffffffffffffffffffffffffffffffff02191690556004820160006101000a81549073ffffffffffffffffffffffffffffffffffffffff0219169055600582016000610fe091906146b9565b505050565b610fed6146f9565b600560008381526020019081526020016000206040518060c0016040529081600082015481526020016001820160009054906101000a900460ff16600381111561103a57611039614b30565b5b600381111561104c5761104b614b30565b5b8152602001600282018054611060906155a8565b80601f016020809104026020016040519081016040528092919081815260200182805461108c906155a8565b80156110d95780601f106110ae576101008083540402835291602001916110d9565b820191906000526020600020905b8154815290600101906020018083116110bc57829003601f168201915b505050505081526020016003820160009054906101000a900473ffffffffffffffffffffffffffffffffffffffff1673ffffffffffffffffffffffffffffffffffffffff1673ffffffffffffffffffffffffffffffffffffffff1681526020016004820160009054906101000a900473ffffffffffffffffffffffffffffffffffffffff1673ffffffffffffffffffffffffffffffffffffffff1673ffffffffffffffffffffffffffffffffffffffff16815260200160058201805461119e906155a8565b80601f01602080910402602001604051908101604052809291908181526020018280546111ca906155a8565b80156112175780601f106111ec57610100808354040283529160200191611217565b820191906000526020600020905b8154815290600101906020018083116111fa57829003601f168201915b5050505050815250509050919050565b60606001600281111561123d5761123c614b30565b5b600460003373ffffffffffffffffffffffffffffffffffffffff1673ffffffffffffffffffffffffffffffffffffffff16815260200190815260200160002060000160159054906101000a900460ff16600281111561129f5761129e614b30565b5b148061131d57506002808111156112b9576112b8614b30565b5b600460003373ffffffffffffffffffffffffffffffffffffffff1673ffffffffffffffffffffffffffffffffffffffff16815260200190815260200160002060000160159054906101000a900460ff16600281111561131b5761131a614b30565b5b145b61135c576040517f08c379a00000000000000000000000000000000000000000000000000000000081526004016113539061528f565b60405180910390fd5b6113666001613bd6565b905090565b6000600460003373ffffffffffffffffffffffffffffffffffffffff1673ffffffffffffffffffffffffffffffffffffffff16815260200190815260200160002060000160149054906101000a900460ff16156113fd576040517f08c379a00000000000000000000000000000000000000000000000000000000081526004016113f490615935565b60405180910390fd5b61140561476d565b33816000019073ffffffffffffffffffffffffffffffffffffffff16908173ffffffffffffffffffffffffffffffffffffffff1681525050600181602001901515908115158152505060008160400190600281111561146757611466614b30565b5b9081600281111561147b5761147a614b30565b5b8152505080600460003373ffffffffffffffffffffffffffffffffffffffff1673ffffffffffffffffffffffffffffffffffffffff16815260200190815260200160002060008201518160000160006101000a81548173ffffffffffffffffffffffffffffffffffffffff021916908373ffffffffffffffffffffffffffffffffffffffff16021790555060208201518160000160146101000a81548160ff02191690831515021790555060408201518160000160156101000a81548160ff0219169083600281111561155157611550614b30565b5b021790555060608201518160010190805190602001906115729291906147cd565b50608082015181600201908051906020019061158f9291906147cd565b5060a08201518160030190805190602001906115ac9291906147cd565b509050506003339080600181540180825580915050600190039060005260206000200160009091909190916101000a81548173ffffffffffffffffffffffffffffffffffffffff021916908373ffffffffffffffffffffffffffffffffffffffff16021790555080600460003373ffffffffffffffffffffffffffffffffffffffff1673ffffffffffffffffffffffffffffffffffffffff16815260200190815260200160002060008201518160000160006101000a81548173ffffffffffffffffffffffffffffffffffffffff021916908373ffffffffffffffffffffffffffffffffffffffff16021790555060208201518160000160146101000a81548160ff02191690831515021790555060408201518160000160156101000a81548160ff021916908360028111156116e5576116e4614b30565b5b021790555060608201518160010190805190602001906117069291906147cd565b5060808201518160020190805190602001906117239291906147cd565b5060a08201518160030190805190602001906117409291906147cd565b50905050600191505090565b606060028081111561176157611760614b30565b5b600460003373ffffffffffffffffffffffffffffffffffffffff1673ffffffffffffffffffffffffffffffffffffffff16815260200190815260200160002060000160159054906101000a900460ff1660028111156117c3576117c2614b30565b5b14611803576040517f08c379a00000000000000000000000000000000000000000000000000000000081526004016117fa9061528f565b60405180910390fd5b61181761181060026136f4565b60026140f9565b905090565b60606001600281111561183257611831614b30565b5b600460003373ffffffffffffffffffffffffffffffffffffffff1673ffffffffffffffffffffffffffffffffffffffff16815260200190815260200160002060000160159054906101000a900460ff16600281111561189457611893614b30565b5b148061191257506002808111156118ae576118ad614b30565b5b600460003373ffffffffffffffffffffffffffffffffffffffff1673ffffffffffffffffffffffffffffffffffffffff16815260200190815260200160002060000160159054906101000a900460ff1660028111156119105761190f614b30565b5b145b611951576040517f08c379a00000000000000000000000000000000000000000000000000000000081526004016119489061528f565b60405180910390fd5b61195b6000613bd6565b905090565b61196861464c565b61197133613702565b905090565b6001600281111561198a57611989614b30565b5b600460003373ffffffffffffffffffffffffffffffffffffffff1673ffffffffffffffffffffffffffffffffffffffff16815260200190815260200160002060000160159054906101000a900460ff1660028111156119ec576119eb614b30565b5b14611a2c576040517f08c379a0000000000000000000000000000000000000000000000000000000008152600401611a239061528f565b60405180910390fd5b60026003811115611a4057611a3f614b30565b5b6005600084815260200190815260200160002060010160009054906101000a900460ff166003811115611a7657611a75614b30565b5b14611ab6576040517f08c379a0000000000000000000000000000000000000000000000000000000008152600401611aad906159c7565b60405180910390fd5b6040518060c0016040528083815260200160016003811115611adb57611ada614b30565b5b8152602001600560008581526020019081526020016000206002018054611b01906155a8565b80601f0160208091040260200160405190810160405280929190818152602001828054611b2d906155a8565b8015611b7a5780601f10611b4f57610100808354040283529160200191611b7a565b820191906000526020600020905b815481529060010190602001808311611b5d57829003601f168201915b505050505081526020016005600085815260200190815260200160002060030160009054906101000a900473ffffffffffffffffffffffffffffffffffffffff1673ffffffffffffffffffffffffffffffffffffffff1681526020013373ffffffffffffffffffffffffffffffffffffffff16815260200160405180602001604052806000815250815250600660008481526020019081526020016000206000820151816000015560208201518160010160006101000a81548160ff02191690836003811115611c4d57611c4c614b30565b5b02179055506040820151816002019081611c679190615785565b5060608201518160030160006101000a81548173ffffffffffffffffffffffffffffffffffffffff021916908373ffffffffffffffffffffffffffffffffffffffff16021790555060808201518160040160006101000a81548173ffffffffffffffffffffffffffffffffffffffff021916908373ffffffffffffffffffffffffffffffffffffffff16021790555060a0820151816005019081611d0b9190615785565b5090505060016005600084815260200190815260200160002060010160006101000a81548160ff02191690836003811115611d4957611d48614b30565b5b021790555080600560008481526020019081526020016000206002019081611d719190615785565b50336005600084815260200190815260200160002060040160006101000a81548173ffffffffffffffffffffffffffffffffffffffff021916908373ffffffffffffffffffffffffffffffffffffffff1602179055505050565b60606000611dd960006136f4565b90506000808267ffffffffffffffff811115611df857611df761499a565b5b604051908082528060200260200182016040528015611e3157816020015b611e1e6146f9565b815260200190600190039081611e165790505b50905060005b838110156120c9576000600182611e4e919061543c565b90506000600560008381526020019081526020016000209050806040518060c0016040529081600082015481526020016001820160009054906101000a900460ff166003811115611ea257611ea1614b30565b5b6003811115611eb457611eb3614b30565b5b8152602001600282018054611ec8906155a8565b80601f0160208091040260200160405190810160405280929190818152602001828054611ef4906155a8565b8015611f415780601f10611f1657610100808354040283529160200191611f41565b820191906000526020600020905b815481529060010190602001808311611f2457829003601f168201915b505050505081526020016003820160009054906101000a900473ffffffffffffffffffffffffffffffffffffffff1673ffffffffffffffffffffffffffffffffffffffff1673ffffffffffffffffffffffffffffffffffffffff1681526020016004820160009054906101000a900473ffffffffffffffffffffffffffffffffffffffff1673ffffffffffffffffffffffffffffffffffffffff1673ffffffffffffffffffffffffffffffffffffffff168152602001600582018054612006906155a8565b80601f0160208091040260200160405190810160405280929190818152602001828054612032906155a8565b801561207f5780601f106120545761010080835404028352916020019161207f565b820191906000526020600020905b81548152906001019060200180831161206257829003601f168201915b50505050508152505084868151811061209b5761209a615470565b5b602002602001018190525084806120b19061549f565b955050505080806120c19061549f565b915050611e37565b5080935050505090565b6002808111156120e6576120e5614b30565b5b600460003373ffffffffffffffffffffffffffffffffffffffff1673ffffffffffffffffffffffffffffffffffffffff16815260200190815260200160002060000160159054906101000a900460ff16600281111561214857612147614b30565b5b14612188576040517f08c379a000000000000000000000000000000000000000000000000000000000815260040161217f9061528f565b60405180910390fd5b6001600381111561219c5761219b614b30565b5b6005600084815260200190815260200160002060010160009054906101000a900460ff1660038111156121d2576121d1614b30565b5b14612212576040517f08c379a0000000000000000000000000000000000000000000000000000000008152600401612209906158c9565b60405180910390fd5b60036005600084815260200190815260200160002060010160006101000a81548160ff0219169083600381111561224c5761224b614b30565b5b0217905550600660008381526020019081526020016000206002016005600084815260200190815260200160002060020190816122899190615a12565b5060006005600084815260200190815260200160002060040160006101000a81548173ffffffffffffffffffffffffffffffffffffffff021916908373ffffffffffffffffffffffffffffffffffffffff160217905550806005600084815260200190815260200160002060050190816123039190615785565b50600660008381526020019081526020016000206000808201600090556001820160006101000a81549060ff021916905560028201600061234491906146b9565b6003820160006101000a81549073ffffffffffffffffffffffffffffffffffffffff02191690556004820160006101000a81549073ffffffffffffffffffffffffffffffffffffffff02191690556005820160006123a291906146b9565b50505050565b60006002808111156123bd576123bc614b30565b5b600460003373ffffffffffffffffffffffffffffffffffffffff1673ffffffffffffffffffffffffffffffffffffffff16815260200190815260200160002060000160159054906101000a900460ff16600281111561241f5761241e614b30565b5b1461245f576040517f08c379a00000000000000000000000000000000000000000000000000000000081526004016124569061528f565b60405180910390fd5b600460008373ffffffffffffffffffffffffffffffffffffffff1673ffffffffffffffffffffffffffffffffffffffff16815260200190815260200160002060000160149054906101000a900460ff166124ee576040517f08c379a00000000000000000000000000000000000000000000000000000000081526004016124e5906152fb565b60405180910390fd5b6000600281111561250257612501614b30565b5b600460008473ffffffffffffffffffffffffffffffffffffffff1673ffffffffffffffffffffffffffffffffffffffff16815260200190815260200160002060000160159054906101000a900460ff16600281111561256457612563614b30565b5b146125a4576040517f08c379a000000000000000000000000000000000000000000000000000000000815260040161259b90615b6c565b60405180910390fd5b6000600160026125b460026136f4565b6125be919061540b565b6125c8919061543c565b905060005b600460008573ffffffffffffffffffffffffffffffffffffffff1673ffffffffffffffffffffffffffffffffffffffff168152602001908152602001600020600101805490508110156126e3573373ffffffffffffffffffffffffffffffffffffffff16600460008673ffffffffffffffffffffffffffffffffffffffff1673ffffffffffffffffffffffffffffffffffffffff168152602001908152602001600020600101828154811061268557612684615470565b5b9060005260206000200160009054906101000a900473ffffffffffffffffffffffffffffffffffffffff1673ffffffffffffffffffffffffffffffffffffffff16036126d057600080fd5b80806126db9061549f565b9150506125cd565b50600460008473ffffffffffffffffffffffffffffffffffffffff1673ffffffffffffffffffffffffffffffffffffffff168152602001908152602001600020600101339080600181540180825580915050600190039060005260206000200160009091909190916101000a81548173ffffffffffffffffffffffffffffffffffffffff021916908373ffffffffffffffffffffffffffffffffffffffff16021790555080600460008573ffffffffffffffffffffffffffffffffffffffff1673ffffffffffffffffffffffffffffffffffffffff1681526020019081526020016000206001018054905010612897576001600460008573ffffffffffffffffffffffffffffffffffffffff1673ffffffffffffffffffffffffffffffffffffffff16815260200190815260200160002060000160156101000a81548160ff0219169083600281111561283957612838614b30565b5b0217905550600460008473ffffffffffffffffffffffffffffffffffffffff1673ffffffffffffffffffffffffffffffffffffffff168152602001908152602001600020600301600061288c919061462b565b61289660016136de565b5b6001915050919050565b6060600160028111156128b7576128b6614b30565b5b600460003373ffffffffffffffffffffffffffffffffffffffff1673ffffffffffffffffffffffffffffffffffffffff16815260200190815260200160002060000160159054906101000a900460ff16600281111561291957612918614b30565b5b1480612997575060028081111561293357612932614b30565b5b600460003373ffffffffffffffffffffffffffffffffffffffff1673ffffffffffffffffffffffffffffffffffffffff16815260200190815260200160002060000160159054906101000a900460ff16600281111561299557612994614b30565b5b145b6129d6576040517f08c379a00000000000000000000000000000000000000000000000000000000081526004016129cd9061528f565b60405180910390fd5b6000600380549050905060008167ffffffffffffffff8111156129fc576129fb61499a565b5b604051908082528060200260200182016040528015612a3557816020015b612a2261476d565b815260200190600190039081612a1a5790505b50905060005b82811015612d5e57600060038281548110612a5957612a58615470565b5b9060005260206000200160009054906101000a900473ffffffffffffffffffffffffffffffffffffffff1690506000600460008373ffffffffffffffffffffffffffffffffffffffff1673ffffffffffffffffffffffffffffffffffffffff1681526020019081526020016000209050806040518060c00160405290816000820160009054906101000a900473ffffffffffffffffffffffffffffffffffffffff1673ffffffffffffffffffffffffffffffffffffffff1673ffffffffffffffffffffffffffffffffffffffff1681526020016000820160149054906101000a900460ff161515151581526020016000820160159054906101000a900460ff166002811115612b6b57612b6a614b30565b5b6002811115612b7d57612b7c614b30565b5b815260200160018201805480602002602001604051908101604052809291908181526020018280548015612c0657602002820191906000526020600020905b8160009054906101000a900473ffffffffffffffffffffffffffffffffffffffff1673ffffffffffffffffffffffffffffffffffffffff1681526020019060010190808311612bbc575b5050505050815260200160028201805480602002602001604051908101604052809291908181526020018280548015612c9457602002820191906000526020600020905b8160009054906101000a900473ffffffffffffffffffffffffffffffffffffffff1673ffffffffffffffffffffffffffffffffffffffff1681526020019060010190808311612c4a575b5050505050815260200160038201805480602002602001604051908101604052809291908181526020018280548015612d2257602002820191906000526020600020905b8160009054906101000a900473ffffffffffffffffffffffffffffffffffffffff1673ffffffffffffffffffffffffffffffffffffffff1681526020019060010190808311612cd8575b505050505081525050848481518110612d3e57612d3d615470565b5b602002602001018190525050508080612d569061549f565b915050612a3b565b50809250505090565b606060016002811115612d7d57612d7c614b30565b5b600460003373ffffffffffffffffffffffffffffffffffffffff1673ffffffffffffffffffffffffffffffffffffffff16815260200190815260200160002060000160159054906101000a900460ff166002811115612ddf57612dde614b30565b5b1480612e5d5750600280811115612df957612df8614b30565b5b600460003373ffffffffffffffffffffffffffffffffffffffff1673ffffffffffffffffffffffffffffffffffffffff16815260200190815260200160002060000160159054906101000a900460ff166002811115612e5b57612e5a614b30565b5b145b612e9c576040517f08c379a0000000000000000000000000000000000000000000000000000000008152600401612e939061528f565b60405180910390fd5b612ea66003613bd6565b905090565b6060612eb76002613bd6565b905090565b6060600280811115612ed157612ed0614b30565b5b600460003373ffffffffffffffffffffffffffffffffffffffff1673ffffffffffffffffffffffffffffffffffffffff16815260200190815260200160002060000160159054906101000a900460ff166002811115612f3357612f32614b30565b5b14612f73576040517f08c379a0000000000000000000000000000000000000000000000000000000008152600401612f6a9061528f565b60405180910390fd5b612f87612f8060016136f4565b60016140f9565b905090565b6000600280811115612fa157612fa0614b30565b5b600460003373ffffffffffffffffffffffffffffffffffffffff1673ffffffffffffffffffffffffffffffffffffffff16815260200190815260200160002060000160159054906101000a900460ff16600281111561300357613002614b30565b5b14613043576040517f08c379a000000000000000000000000000000000000000000000000000000000815260040161303a9061528f565b60405180910390fd5b600460008373ffffffffffffffffffffffffffffffffffffffff1673ffffffffffffffffffffffffffffffffffffffff16815260200190815260200160002060000160149054906101000a900460ff166130d2576040517f08c379a00000000000000000000000000000000000000000000000000000000081526004016130c9906152fb565b60405180910390fd5b600060028111156130e6576130e5614b30565b5b600460008473ffffffffffffffffffffffffffffffffffffffff1673ffffffffffffffffffffffffffffffffffffffff16815260200190815260200160002060000160159054906101000a900460ff16600281111561314857613147614b30565b5b03613188576040517f08c379a000000000000000000000000000000000000000000000000000000000815260040161317f90615bd8565b60405180910390fd5b60006001600261319860026136f4565b6131a2919061540b565b6131ac919061543c565b905060005b600460008573ffffffffffffffffffffffffffffffffffffffff1673ffffffffffffffffffffffffffffffffffffffff168152602001908152602001600020600301805490508110156132c7573373ffffffffffffffffffffffffffffffffffffffff16600460008673ffffffffffffffffffffffffffffffffffffffff1673ffffffffffffffffffffffffffffffffffffffff168152602001908152602001600020600301828154811061326957613268615470565b5b9060005260206000200160009054906101000a900473ffffffffffffffffffffffffffffffffffffffff1673ffffffffffffffffffffffffffffffffffffffff16036132b457600080fd5b80806132bf9061549f565b9150506131b1565b50600460008473ffffffffffffffffffffffffffffffffffffffff1673ffffffffffffffffffffffffffffffffffffffff168152602001908152602001600020600301339080600181540180825580915050600190039060005260206000200160009091909190916101000a81548173ffffffffffffffffffffffffffffffffffffffff021916908373ffffffffffffffffffffffffffffffffffffffff16021790555080600460008573ffffffffffffffffffffffffffffffffffffffff1673ffffffffffffffffffffffffffffffffffffffff1681526020019081526020016000206003018054905010613553576002808111156133ca576133c9614b30565b5b600460008573ffffffffffffffffffffffffffffffffffffffff1673ffffffffffffffffffffffffffffffffffffffff16815260200190815260200160002060000160159054906101000a900460ff16600281111561342c5761342b614b30565b5b036134405761343b60026145cf565b61344b565b61344a60016145cf565b5b6000600460008573ffffffffffffffffffffffffffffffffffffffff1673ffffffffffffffffffffffffffffffffffffffff16815260200190815260200160002060000160156101000a81548160ff021916908360028111156134b1576134b0614b30565b5b0217905550600460008473ffffffffffffffffffffffffffffffffffffffff1673ffffffffffffffffffffffffffffffffffffffff1681526020019081526020016000206001016000613504919061462b565b600460008473ffffffffffffffffffffffffffffffffffffffff1673ffffffffffffffffffffffffffffffffffffffff1681526020019081526020016000206002016000613552919061462b565b5b6001915050919050565b6002808111156135705761356f614b30565b5b600460003373ffffffffffffffffffffffffffffffffffffffff1673ffffffffffffffffffffffffffffffffffffffff16815260200190815260200160002060000160159054906101000a900460ff1660028111156135d2576135d1614b30565b5b14613612576040517f08c379a00000000000000000000000000000000000000000000000000000000081526004016136099061528f565b60405180910390fd5b6000600381111561362657613625614b30565b5b6005600083815260200190815260200160002060010160009054906101000a900460ff16600381111561365c5761365b614b30565b5b1461369c576040517f08c379a000000000000000000000000000000000000000000000000000000000815260040161369390615559565b60405180910390fd5b60026005600083815260200190815260200160002060010160006101000a81548160ff021916908360038111156136d6576136d5614b30565b5b021790555050565b6001816000016000828254019250508190555050565b600081600001549050919050565b61370a61464c565b60006001600261371a60026136f4565b613724919061540b565b61372e919061543c565b905061373861464c565b600460008573ffffffffffffffffffffffffffffffffffffffff1673ffffffffffffffffffffffffffffffffffffffff16815260200190815260200160002060000160009054906101000a900473ffffffffffffffffffffffffffffffffffffffff16816000019073ffffffffffffffffffffffffffffffffffffffff16908173ffffffffffffffffffffffffffffffffffffffff1681525050600460008573ffffffffffffffffffffffffffffffffffffffff1673ffffffffffffffffffffffffffffffffffffffff16815260200190815260200160002060000160159054906101000a900460ff168160200190600281111561383957613838614b30565b5b9081600281111561384d5761384c614b30565b5b81525050600460008573ffffffffffffffffffffffffffffffffffffffff1673ffffffffffffffffffffffffffffffffffffffff16815260200190815260200160002060010180548060200260200160405190810160405280929190818152602001828054801561391357602002820191906000526020600020905b8160009054906101000a900473ffffffffffffffffffffffffffffffffffffffff1673ffffffffffffffffffffffffffffffffffffffff16815260200190600101908083116138c9575b50505050508160400181905250600460008573ffffffffffffffffffffffffffffffffffffffff1673ffffffffffffffffffffffffffffffffffffffff16815260200190815260200160002060010180549050826139719190615bf8565b816060018181525050600460008573ffffffffffffffffffffffffffffffffffffffff1673ffffffffffffffffffffffffffffffffffffffff168152602001908152602001600020600201805480602002602001604051908101604052809291908181526020018280548015613a3c57602002820191906000526020600020905b8160009054906101000a900473ffffffffffffffffffffffffffffffffffffffff1673ffffffffffffffffffffffffffffffffffffffff16815260200190600101908083116139f2575b50505050508160800181905250600460008573ffffffffffffffffffffffffffffffffffffffff1673ffffffffffffffffffffffffffffffffffffffff1681526020019081526020016000206002018054905082613a9a9190615bf8565b8160a0018181525050600460008573ffffffffffffffffffffffffffffffffffffffff1673ffffffffffffffffffffffffffffffffffffffff168152602001908152602001600020600301805480602002602001604051908101604052809291908181526020018280548015613b6557602002820191906000526020600020905b8160009054906101000a900473ffffffffffffffffffffffffffffffffffffffff1673ffffffffffffffffffffffffffffffffffffffff1681526020019060010190808311613b1b575b50505050508160c00181905250600460008573ffffffffffffffffffffffffffffffffffffffff1673ffffffffffffffffffffffffffffffffffffffff1681526020019081526020016000206003018054905082613bc39190615bf8565b8160e00181815250508092505050919050565b606060016002811115613bec57613beb614b30565b5b600460003373ffffffffffffffffffffffffffffffffffffffff1673ffffffffffffffffffffffffffffffffffffffff16815260200190815260200160002060000160159054906101000a900460ff166002811115613c4e57613c4d614b30565b5b1480613ccc5750600280811115613c6857613c67614b30565b5b600460003373ffffffffffffffffffffffffffffffffffffffff1673ffffffffffffffffffffffffffffffffffffffff16815260200190815260200160002060000160159054906101000a900460ff166002811115613cca57613cc9614b30565b5b145b613d0b576040517f08c379a0000000000000000000000000000000000000000000000000000000008152600401613d029061528f565b60405180910390fd5b6000613d1760006136f4565b905060008060005b83811015613da357856003811115613d3a57613d39614b30565b5b60056000600184613d4b919061543c565b815260200190815260200160002060010160009054906101000a900460ff166003811115613d7c57613d7b614b30565b5b03613d90578280613d8c9061549f565b9350505b8080613d9b9061549f565b915050613d1f565b5060008267ffffffffffffffff811115613dc057613dbf61499a565b5b604051908082528060200260200182016040528015613df957816020015b613de66146f9565b815260200190600190039081613dde5790505b50905060005b848110156140ec57866003811115613e1a57613e19614b30565b5b60056000600184613e2b919061543c565b815260200190815260200160002060010160009054906101000a900460ff166003811115613e5c57613e5b614b30565b5b036140d9576000600182613e70919061543c565b90506000600560008381526020019081526020016000209050806040518060c0016040529081600082015481526020016001820160009054906101000a900460ff166003811115613ec457613ec3614b30565b5b6003811115613ed657613ed5614b30565b5b8152602001600282018054613eea906155a8565b80601f0160208091040260200160405190810160405280929190818152602001828054613f16906155a8565b8015613f635780601f10613f3857610100808354040283529160200191613f63565b820191906000526020600020905b815481529060010190602001808311613f4657829003601f168201915b505050505081526020016003820160009054906101000a900473ffffffffffffffffffffffffffffffffffffffff1673ffffffffffffffffffffffffffffffffffffffff1673ffffffffffffffffffffffffffffffffffffffff1681526020016004820160009054906101000a900473ffffffffffffffffffffffffffffffffffffffff1673ffffffffffffffffffffffffffffffffffffffff1673ffffffffffffffffffffffffffffffffffffffff168152602001600582018054614028906155a8565b80601f0160208091040260200160405190810160405280929190818152602001828054614054906155a8565b80156140a15780601f10614076576101008083540402835291602001916140a1565b820191906000526020600020905b81548152906001019060200180831161408457829003601f168201915b5050505050815250508486815181106140bd576140bc615470565b5b602002602001018190525084806140d39061549f565b95505050505b80806140e49061549f565b915050613dff565b5080945050505050919050565b606060028081111561410e5761410d614b30565b5b600460003373ffffffffffffffffffffffffffffffffffffffff1673ffffffffffffffffffffffffffffffffffffffff16815260200190815260200160002060000160159054906101000a900460ff1660028111156141705761416f614b30565b5b146141b0576040517f08c379a00000000000000000000000000000000000000000000000000000000081526004016141a79061528f565b60405180910390fd5b600060038054905090506000808567ffffffffffffffff8111156141d7576141d661499a565b5b60405190808252806020026020018201604052801561421057816020015b6141fd61476d565b8152602001906001900390816141f55790505b50905060005b838110156145c25760006003828154811061423457614233615470565b5b9060005260206000200160009054906101000a900473ffffffffffffffffffffffffffffffffffffffff16905086600281111561427457614273614b30565b5b600460008373ffffffffffffffffffffffffffffffffffffffff1673ffffffffffffffffffffffffffffffffffffffff16815260200190815260200160002060000160159054906101000a900460ff1660028111156142d6576142d5614b30565b5b036145ae576000600460008373ffffffffffffffffffffffffffffffffffffffff1673ffffffffffffffffffffffffffffffffffffffff1681526020019081526020016000209050806040518060c00160405290816000820160009054906101000a900473ffffffffffffffffffffffffffffffffffffffff1673ffffffffffffffffffffffffffffffffffffffff1673ffffffffffffffffffffffffffffffffffffffff1681526020016000820160149054906101000a900460ff161515151581526020016000820160159054906101000a900460ff1660028111156143c0576143bf614b30565b5b60028111156143d2576143d1614b30565b5b81526020016001820180548060200260200160405190810160405280929190818152602001828054801561445b57602002820191906000526020600020905b8160009054906101000a900473ffffffffffffffffffffffffffffffffffffffff1673ffffffffffffffffffffffffffffffffffffffff1681526020019060010190808311614411575b50505050508152602001600282018054806020026020016040519081016040528092919081815260200182805480156144e957602002820191906000526020600020905b8160009054906101000a900473ffffffffffffffffffffffffffffffffffffffff1673ffffffffffffffffffffffffffffffffffffffff168152602001906001019080831161449f575b505050505081526020016003820180548060200260200160405190810160405280929190818152602001828054801561457757602002820191906000526020600020905b8160009054906101000a900473ffffffffffffffffffffffffffffffffffffffff1673ffffffffffffffffffffffffffffffffffffffff168152602001906001019080831161452d575b50505050508152505084868151811061459357614592615470565b5b602002602001018190525084806145a99061549f565b955050505b5080806145ba9061549f565b915050614216565b5080935050505092915050565b6000816000015490506000811161461b576040517f08c379a000000000000000000000000000000000000000000000000000000000815260040161461290615c78565b60405180910390fd5b6001810382600001819055505050565b50805460008255906000526020600020908101906146499190614857565b50565b604051806101000160405280600073ffffffffffffffffffffffffffffffffffffffff1681526020016000600281111561468957614688614b30565b5b81526020016060815260200160008152602001606081526020016000815260200160608152602001600081525090565b5080546146c5906155a8565b6000825580601f106146d757506146f6565b601f0160209004906000526020600020908101906146f59190614857565b5b50565b6040518060c00160405280600081526020016000600381111561471f5761471e614b30565b5b815260200160608152602001600073ffffffffffffffffffffffffffffffffffffffff168152602001600073ffffffffffffffffffffffffffffffffffffffff168152602001606081525090565b6040518060c00160405280600073ffffffffffffffffffffffffffffffffffffffff168152602001600015158152602001600060028111156147b2576147b1614b30565b5b81526020016060815260200160608152602001606081525090565b828054828255906000526020600020908101928215614846579160200282015b828111156148455782518260006101000a81548173ffffffffffffffffffffffffffffffffffffffff021916908373ffffffffffffffffffffffffffffffffffffffff160217905550916020019190600101906147ed565b5b5090506148539190614857565b5090565b5b80821115614870576000816000905550600101614858565b5090565b6000604051905090565b600080fd5b600080fd5b600073ffffffffffffffffffffffffffffffffffffffff82169050919050565b60006148b382614888565b9050919050565b6148c3816148a8565b81146148ce57600080fd5b50565b6000813590506148e0816148ba565b92915050565b6000602082840312156148fc576148fb61487e565b5b600061490a848285016148d1565b91505092915050565b60008115159050919050565b61492881614913565b82525050565b6000602082019050614943600083018461491f565b92915050565b6000819050919050565b61495c81614949565b811461496757600080fd5b50565b60008135905061497981614953565b92915050565b600080fd5b600080fd5b6000601f19601f8301169050919050565b7f4e487b7100000000000000000000000000000000000000000000000000000000600052604160045260246000fd5b6149d282614989565b810181811067ffffffffffffffff821117156149f1576149f061499a565b5b80604052505050565b6000614a04614874565b9050614a1082826149c9565b919050565b600067ffffffffffffffff821115614a3057614a2f61499a565b5b614a3982614989565b9050602081019050919050565b82818337600083830152505050565b6000614a68614a6384614a15565b6149fa565b905082815260208101848484011115614a8457614a83614984565b5b614a8f848285614a46565b509392505050565b600082601f830112614aac57614aab61497f565b5b8135614abc848260208601614a55565b91505092915050565b60008060408385031215614adc57614adb61487e565b5b6000614aea8582860161496a565b925050602083013567ffffffffffffffff811115614b0b57614b0a614883565b5b614b1785828601614a97565b9150509250929050565b614b2a816148a8565b82525050565b7f4e487b7100000000000000000000000000000000000000000000000000000000600052602160045260246000fd5b60038110614b7057614b6f614b30565b5b50565b6000819050614b8182614b5f565b919050565b6000614b9182614b73565b9050919050565b614ba181614b86565b82525050565b600081519050919050565b600082825260208201905092915050565b6000819050602082019050919050565b6000614bdf8383614b21565b60208301905092915050565b6000602082019050919050565b6000614c0382614ba7565b614c0d8185614bb2565b9350614c1883614bc3565b8060005b83811015614c49578151614c308882614bd3565b9750614c3b83614beb565b925050600181019050614c1c565b5085935050505092915050565b614c5f81614949565b82525050565b600061010083016000830151614c7e6000860182614b21565b506020830151614c916020860182614b98565b5060408301518482036040860152614ca98282614bf8565b9150506060830151614cbe6060860182614c56565b5060808301518482036080860152614cd68282614bf8565b91505060a0830151614ceb60a0860182614c56565b5060c083015184820360c0860152614d038282614bf8565b91505060e0830151614d1860e0860182614c56565b508091505092915050565b60006020820190508181036000830152614d3d8184614c65565b905092915050565b600060208284031215614d5b57614d5a61487e565b5b600082013567ffffffffffffffff811115614d7957614d78614883565b5b614d8584828501614a97565b91505092915050565b600060208284031215614da457614da361487e565b5b6000614db28482850161496a565b91505092915050565b60048110614dcc57614dcb614b30565b5b50565b6000819050614ddd82614dbb565b919050565b6000614ded82614dcf565b9050919050565b614dfd81614de2565b82525050565b600081519050919050565b600082825260208201905092915050565b60005b83811015614e3d578082015181840152602081019050614e22565b60008484015250505050565b6000614e5482614e03565b614e5e8185614e0e565b9350614e6e818560208601614e1f565b614e7781614989565b840191505092915050565b600060c083016000830151614e9a6000860182614c56565b506020830151614ead6020860182614df4565b5060408301518482036040860152614ec58282614e49565b9150506060830151614eda6060860182614b21565b506080830151614eed6080860182614b21565b5060a083015184820360a0860152614f058282614e49565b9150508091505092915050565b60006020820190508181036000830152614f2c8184614e82565b905092915050565b600081519050919050565b600082825260208201905092915050565b6000819050602082019050919050565b600060c083016000830151614f786000860182614c56565b506020830151614f8b6020860182614df4565b5060408301518482036040860152614fa38282614e49565b9150506060830151614fb86060860182614b21565b506080830151614fcb6080860182614b21565b5060a083015184820360a0860152614fe38282614e49565b9150508091505092915050565b6000614ffc8383614f60565b905092915050565b6000602082019050919050565b600061501c82614f34565b6150268185614f3f565b93508360208202850161503885614f50565b8060005b8581101561507457848403895281516150558582614ff0565b945061506083615004565b925060208a0199505060018101905061503c565b50829750879550505050505092915050565b600060208201905081810360008301526150a08184615011565b905092915050565b600081519050919050565b600082825260208201905092915050565b6000819050602082019050919050565b6150dd81614913565b82525050565b600060c0830160008301516150fb6000860182614b21565b50602083015161510e60208601826150d4565b5060408301516151216040860182614b98565b50606083015184820360608601526151398282614bf8565b915050608083015184820360808601526151538282614bf8565b91505060a083015184820360a086015261516d8282614bf8565b9150508091505092915050565b600061518683836150e3565b905092915050565b6000602082019050919050565b60006151a6826150a8565b6151b081856150b3565b9350836020820285016151c2856150c4565b8060005b858110156151fe57848403895281516151df858261517a565b94506151ea8361518e565b925060208a019950506001810190506151c6565b50829750879550505050505092915050565b6000602082019050818103600083015261522a818461519b565b905092915050565b600082825260208201905092915050565b7f556e617574686f72697a65642041636365737300000000000000000000000000600082015250565b6000615279601383615232565b915061528482615243565b602082019050919050565b600060208201905081810360008301526152a88161526c565b9050919050565b7f5573657220646f6573206e6f7420657869737421000000000000000000000000600082015250565b60006152e5601483615232565b91506152f0826152af565b602082019050919050565b60006020820190508181036000830152615314816152d8565b9050919050565b7f557365722063616e6e6f742062652070726f6d6f74656420746f20616e20416460008201527f6d696e2100000000000000000000000000000000000000000000000000000000602082015250565b6000615377602483615232565b91506153828261531b565b604082019050919050565b600060208201905081810360008301526153a68161536a565b9050919050565b7f4e487b7100000000000000000000000000000000000000000000000000000000600052601260045260246000fd5b7f4e487b7100000000000000000000000000000000000000000000000000000000600052601160045260246000fd5b600061541682614949565b915061542183614949565b925082615431576154306153ad565b5b828204905092915050565b600061544782614949565b915061545283614949565b925082820190508082111561546a576154696153dc565b5b92915050565b7f4e487b7100000000000000000000000000000000000000000000000000000000600052603260045260246000fd5b60006154aa82614949565b91507fffffffffffffffffffffffffffffffffffffffffffffffffffffffffffffffff82036154dc576154db6153dc565b5b600182019050919050565b7f50726f706572747920616c726561647920417070726f766564206f722052656a60008201527f6563746564000000000000000000000000000000000000000000000000000000602082015250565b6000615543602583615232565b915061554e826154e7565b604082019050919050565b6000602082019050818103600083015261557281615536565b9050919050565b7f4e487b7100000000000000000000000000000000000000000000000000000000600052602260045260246000fd5b600060028204905060018216806155c057607f821691505b6020821081036155d3576155d2615579565b5b50919050565b60008190508160005260206000209050919050565b60006020601f8301049050919050565b600082821b905092915050565b60006008830261563b7fffffffffffffffffffffffffffffffffffffffffffffffffffffffffffffffff826155fe565b61564586836155fe565b95508019841693508086168417925050509392505050565b6000819050919050565b600061568261567d61567884614949565b61565d565b614949565b9050919050565b6000819050919050565b61569c83615667565b6156b06156a882615689565b84845461560b565b825550505050565b600090565b6156c56156b8565b6156d0818484615693565b505050565b5b818110156156f4576156e96000826156bd565b6001810190506156d6565b5050565b601f8211156157395761570a816155d9565b615713846155ee565b81016020851015615722578190505b61573661572e856155ee565b8301826156d5565b50505b505050565b600082821c905092915050565b600061575c6000198460080261573e565b1980831691505092915050565b6000615775838361574b565b9150826002028217905092915050565b61578e82614e03565b67ffffffffffffffff8111156157a7576157a661499a565b5b6157b182546155a8565b6157bc8282856156f8565b600060209050601f8311600181146157ef57600084156157dd578287015190505b6157e78582615769565b86555061584f565b601f1984166157fd866155d9565b60005b8281101561582557848901518255600182019150602085019450602081019050615800565b86831015615842578489015161583e601f89168261574b565b8355505b6001600288020188555050505b505050505050565b7f4e6f206f776e657273686970207265717565737420666f72207468652064657360008201527f69676e617465642070726f706572747920657869737473000000000000000000602082015250565b60006158b3603783615232565b91506158be82615857565b604082019050919050565b600060208201905081810360008301526158e2816158a6565b9050919050565b7f5573657220616c72656164792065786973747321000000000000000000000000600082015250565b600061591f601483615232565b915061592a826158e9565b602082019050919050565b6000602082019050818103600083015261594e81615912565b9050919050565b7f50726f706572747920646f6573206e6f74204578697374206f7220486173204e60008201527f6f74204265656e20417070726f76656400000000000000000000000000000000602082015250565b60006159b1603083615232565b91506159bc82615955565b604082019050919050565b600060208201905081810360008301526159e0816159a4565b9050919050565b6000815490506159f6816155a8565b9050919050565b60008190508160005260206000209050919050565b818103615a20575050615af8565b615a29826159e7565b67ffffffffffffffff811115615a4257615a4161499a565b5b615a4c82546155a8565b615a578282856156f8565b6000601f831160018114615a865760008415615a74578287015490505b615a7e8582615769565b865550615af1565b601f198416615a94876159fd565b9650615a9f866155d9565b60005b82811015615ac757848901548255600182019150600185019450602081019050615aa2565b86831015615ae45784890154615ae0601f89168261574b565b8355505b6001600288020188555050505b5050505050505b565b7f557365722063616e6e6f742062652070726f6d6f74656420746f2061204d6f6460008201527f657261746f722100000000000000000000000000000000000000000000000000602082015250565b6000615b56602783615232565b9150615b6182615afa565b604082019050919050565b60006020820190508181036000830152615b8581615b49565b9050919050565b7f557365722063616e6e6f742062652064656d6f74656421000000000000000000600082015250565b6000615bc2601783615232565b9150615bcd82615b8c565b602082019050919050565b60006020820190508181036000830152615bf181615bb5565b9050919050565b6000615c0382614949565b9150615c0e83614949565b9250828203905081811115615c2657615c256153dc565b5b92915050565b7f436f756e7465723a2064656372656d656e74206f766572666c6f770000000000600082015250565b6000615c62601b83615232565b9150615c6d82615c2c565b602082019050919050565b60006020820190508181036000830152615c9181615c55565b905091905056fea2646970667358221220ec5dbdd26d1ba6c528337220914b18dfdcaff2436692892f42a58ccc03a2977264736f6c63430008110033",
  "linkReferences": {},
  "deployedLinkReferences": {}
}